{
  "_format": "hh-sol-artifact-1",
  "contractName": "CHIVaultDeployer",
  "sourceName": "contracts/CHIVaultDeployer.sol",
  "abi": [
    {
      "inputs": [],
      "stateMutability": "nonpayable",
      "type": "constructor"
    },
    {
      "anonymous": false,
      "inputs": [
        {
          "indexed": true,
          "internalType": "address",
          "name": "oldCHIManager",
          "type": "address"
        },
        {
          "indexed": true,
          "internalType": "address",
          "name": "newCHIManager",
          "type": "address"
        }
      ],
      "name": "CHIManagerChanged",
      "type": "event"
    },
    {
      "anonymous": false,
      "inputs": [
        {
          "indexed": true,
          "internalType": "address",
          "name": "oldOwner",
          "type": "address"
        },
        {
          "indexed": true,
          "internalType": "address",
          "name": "newOwner",
          "type": "address"
        }
      ],
      "name": "OwnerChanged",
      "type": "event"
    },
    {
      "inputs": [],
      "name": "CHIManager",
      "outputs": [
        {
          "internalType": "address",
          "name": "",
          "type": "address"
        }
      ],
      "stateMutability": "view",
      "type": "function"
    },
    {
      "inputs": [
        {
          "internalType": "address",
          "name": "uniswapV3pool",
          "type": "address"
        },
        {
          "internalType": "address",
          "name": "manager",
          "type": "address"
        },
        {
          "internalType": "uint256",
          "name": "fee",
          "type": "uint256"
        }
      ],
      "name": "createVault",
      "outputs": [
        {
          "internalType": "address",
          "name": "pool",
          "type": "address"
        }
      ],
      "stateMutability": "nonpayable",
      "type": "function"
    },
    {
      "inputs": [],
      "name": "owner",
      "outputs": [
        {
          "internalType": "address",
          "name": "",
          "type": "address"
        }
      ],
      "stateMutability": "view",
      "type": "function"
    },
    {
      "inputs": [
        {
          "internalType": "address",
          "name": "_manager",
          "type": "address"
        }
      ],
      "name": "setCHIManager",
      "outputs": [],
      "stateMutability": "nonpayable",
      "type": "function"
    },
    {
      "inputs": [
        {
          "internalType": "address",
          "name": "_owner",
          "type": "address"
        }
      ],
      "name": "setOwner",
      "outputs": [],
      "stateMutability": "nonpayable",
      "type": "function"
    }
  ],
  "bytecode": "0x608060405234801561001057600080fd5b50600080546001600160a01b03191633179055613f3c806100326000396000f3fe608060405234801561001057600080fd5b50600436106100675760003560e01c80638da5cb5b116100505780638da5cb5b146100e65780639d60da50146100ee578063a244a481146100f657610067565b806313af40351461006c57806358b4b71114610094575b600080fd5b6100926004803603602081101561008257600080fd5b50356001600160a01b031661011c565b005b6100ca600480360360608110156100aa57600080fd5b506001600160a01b038135811691602081013590911690604001356101a6565b604080516001600160a01b039092168252519081900360200190f35b6100ca61021e565b6100ca61022d565b6100926004803603602081101561010c57600080fd5b50356001600160a01b031661023c565b6000546001600160a01b0316331461013357600080fd5b600080546040516001600160a01b03808516939216917fb532073b38c83145e3e5135377a08bf9aab55bc0fd7c1179cd4fb995d2a5159c91a3600080547fffffffffffffffffffffffff0000000000000000000000000000000000000000166001600160a01b0392909216919091179055565b6001546000906001600160a01b031633146101c057600080fd5b8383836040516101cf906102c7565b80846001600160a01b03168152602001836001600160a01b031681526020018281526020019350505050604051809103906000f080158015610215573d6000803e3d6000fd5b50949350505050565b6000546001600160a01b031681565b6001546001600160a01b031681565b6000546001600160a01b0316331461025357600080fd5b6001546040516001600160a01b038084169216907f25196b6887a2c4bc24ff6330982317d18b73000e05091640ca171dcdc3995bdf90600090a3600180547fffffffffffffffffffffffff0000000000000000000000000000000000000000166001600160a01b0392909216919091179055565b613c5b806102d58339019056fe60e0604052620f4240600655670de0b6b3a76400006007553480156200002457600080fd5b5060405162003c5b38038062003c5b833981810160405260608110156200004a57600080fd5b5080516020808301516040938401516001600081905580546001600160a01b0319166001600160a01b0380871691909117918290558651630dfe168160e01b81529651959693959294911692630dfe16819260048083019392829003018186803b158015620000b857600080fd5b505afa158015620000cd573d6000803e3d6000fd5b505050506040513d6020811015620000e457600080fd5b505160601b6001600160601b0319166080526001546040805163d21220a760e01b815290516001600160a01b039092169163d21220a791600480820192602092909190829003018186803b1580156200013c57600080fd5b505afa15801562000151573d6000803e3d6000fd5b505050506040513d60208110156200016857600080fd5b505160601b6001600160601b03191660a052600154604080516334324e9f60e21b815290516001600160a01b039092169163d0c93a7c91600480820192602092909190829003018186803b158015620001c057600080fd5b505afa158015620001d5573d6000803e3d6000fd5b505050506040513d6020811015620001ec57600080fd5b5051600290810b810b60e81b60c05280546001600160a01b0319166001600160a01b0384161790556005819055600654811062000254576040805162461bcd60e51b81526020600482015260016024820152603360f91b604482015290519081900360640190fd5b50505060805160601c60a05160601c60c05160e81c613988620002d3600039806114bf52806129f25280612a775250806106095280610e71528061139952806114e35280611569528061197a52806121fb5250806105cf528061063d5280610e34528061136a528061152f5280611940528061215452506139886000f3fe608060405234801561001057600080fd5b50600436106101cf5760003560e01c8063b135a14511610104578063d0c93a7c116100a2578063d4da618511610071578063d4da6185146104f3578063db4dcce41461051f578063eae989a214610549578063ecefc70514610551576101cf565b8063d0c93a7c14610412578063d21220a714610431578063d348799714610439578063d473a654146104b5576101cf565b8063b9ad22b7116100de578063b9ad22b71461034d578063bf02b5ea14610377578063c4a7761e146103ca578063cc364f48146103d2576101cf565b8063b135a1451461030f578063b596291714610317578063b8dc491b1461031f576101cf565b80635a64998b116101715780639d60da501161014b5780639d60da50146102ce5780639d9d75be146102d6578063a00fa77f146102ff578063b0e21e8a14610307576101cf565b80635a64998b14610294578063659cc0e6146102be5780639346ba14146102c6576101cf565b806310869bfe116101ad57806310869bfe1461024657806316f0115b1461024e57806318160ddd146102565780632106fa461461025e576101cf565b80630430c130146101d457806306a45175146102085780630dfe168114610222575b600080fd5b610206600480360360608110156101ea57600080fd5b50803590602081013590604001356001600160a01b0316610559565b005b610210610635565b60408051918252519081900360200190f35b61022a61063b565b604080516001600160a01b039092168252519081900360200190f35b61021061065f565b61022a610665565b610210610674565b61027b6004803603602081101561027457600080fd5b503561067a565b6040805192835260208301919091528051918290030190f35b610206600480360360408110156102aa57600080fd5b508035600290810b9160200135900b6108ef565b61027b6109d1565b610210610a3c565b61022a610a42565b610206600480360360608110156102ec57600080fd5b5080359060208101359060400135610a51565b610210610d24565b610210610d2a565b610210610d30565b610206610d41565b6102066004803603604081101561033557600080fd5b506001600160a01b0381358116916020013516610def565b6102066004803603604081101561036357600080fd5b508035600290810b9160200135900b610f88565b6103ac600480360360a081101561038d57600080fd5b508035906020810135906040810135906060810135906080013561111d565b60408051938452602084019290925282820152519081900360600190f35b61027b611466565b6103ef600480360360208110156103e857600080fd5b50356114a2565b604051808360020b81526020018260020b81526020019250505060405180910390f35b61041a6114bd565b6040805160029290920b8252519081900360200190f35b61022a6114e1565b6102066004803603606081101561044f57600080fd5b81359160208101359181019060608101604082013564010000000081111561047657600080fd5b82018360208201111561048857600080fd5b803590602001918460018302840111640100000000831117156104aa57600080fd5b509092509050611505565b61027b600480360360a08110156104cb57600080fd5b50803590602081013590604081013590606081013590608001356001600160a01b0316611596565b61027b6004803603604081101561050957600080fd5b50803590602001356001600160801b0316611a0c565b6102066004803603604081101561053557600080fd5b508035600290810b9160200135900b611cdf565b610210611dc4565b610210611dca565b6002546001600160a01b0316331461059c576040805162461bcd60e51b81526020600482015260016024820152606d60f81b604482015290519081900360640190fd5b6003546105a99084611dd0565b6003556004546105b99083611dd0565b60045582156105f6576105f66001600160a01b037f0000000000000000000000000000000000000000000000000000000000000000168285611e32565b8115610630576106306001600160a01b037f0000000000000000000000000000000000000000000000000000000000000000168284611e32565b505050565b600c5490565b7f000000000000000000000000000000000000000000000000000000000000000081565b600b5490565b6001546001600160a01b031681565b60085490565b600080600260005414156106d5576040805162461bcd60e51b815260206004820152601f60248201527f5265656e7472616e637947756172643a207265656e7472616e742063616c6c00604482015290519081900360640190fd5b60026000819055546001600160a01b0316331461071d576040805162461bcd60e51b81526020600482015260016024820152606d60f81b604482015290519081900360640190fd5b60008061073361072e600987611eb2565b611ec5565b9150915060006107438383611ed0565b90506001600160801b038116156108e0576001546040805163a34123a760e01b8152600286810b600483015285900b60248201526001600160801b038416604482015281516001600160a01b039093169263a34123a7926064808401939192918290030181600087803b1580156107b957600080fd5b505af11580156107cd573d6000803e3d6000fd5b505050506040513d60408110156107e357600080fd5b5080516020909101519095509350841515806107ff5750600084115b156108e0576001546001600160a01b0316634f1eb3d83085856108218a611f93565b61082a8a611f93565b6040518663ffffffff1660e01b815260040180866001600160a01b031681526020018560020b81526020018460020b8152602001836001600160801b03168152602001826001600160801b03168152602001955050505050506040805180830381600087803b15801561089c57600080fd5b505af11580156108b0573d6000803e3d6000fd5b505050506040513d60408110156108c657600080fd5b5080516020909101516001600160801b0391821696501693505b50506001600055509092909150565b6002546001600160a01b03163314610932576040805162461bcd60e51b81526020600482015260016024820152606d60f81b604482015290519081900360640190fd5b60008061093f8484611fae565b915091508160001461097d576040805162461bcd60e51b8152602060048201526002602482015261061360f41b604482015290519081900360640190fd5b80156109b5576040805162461bcd60e51b8152602060048201526002602482015261061360f41b604482015290519081900360640190fd5b6109ca6109c285856120ca565b6009906120d9565b5050505050565b60008060005b6109e160096120e5565b811015610a37576000806109f961072e600985611eb2565b91509150600080610a0a8484611fae565b9092509050610a1987836120f0565b9650610a2586826120f0565b955050600190930192506109d7915050565b509091565b60075481565b6002546001600160a01b031681565b60026000541415610aa9576040805162461bcd60e51b815260206004820152601f60248201527f5265656e7472616e637947756172643a207265656e7472616e742063616c6c00604482015290519081900360640190fd5b60026000819055546001600160a01b03163314610af1576040805162461bcd60e51b81526020600482015260016024820152606d60f81b604482015290519081900360640190fd5b600080610b0261072e600987611eb2565b91509150610b0e61214a565b841115610b62576040805162461bcd60e51b815260206004820152600360248201527f4942300000000000000000000000000000000000000000000000000000000000604482015290519081900360640190fd5b610b6a6121f1565b831115610bbe576040805162461bcd60e51b815260206004820152600360248201527f4942310000000000000000000000000000000000000000000000000000000000604482015290519081900360640190fd5b6000610bcc83838787612266565b90506001600160801b03811615610d17576001546001600160a01b0316633c8a7d8d3085858560006040519080825280601f01601f191660200182016040528015610c1e576020820181803683370190505b506040518663ffffffff1660e01b815260040180866001600160a01b031681526020018560020b81526020018460020b8152602001836001600160801b0316815260200180602001828103825283818151815260200191508051906020019080838360005b83811015610c9b578181015183820152602001610c83565b50505050905090810190601f168015610cc85780820380516001836020036101000a031916815260200191505b5096505050505050506040805180830381600087803b158015610cea57600080fd5b505af1158015610cfe573d6000803e3d6000fd5b505050506040513d6040811015610d1457600080fd5b50505b5050600160005550505050565b60045490565b60055490565b6000610d3c60096120e5565b905090565b600080610d4c61230c565b60005b610d5960096120e5565b811015610daf57600080610d7161072e600985611eb2565b91509150600080610d8284846123e9565b9092509050610d9187836120f0565b9650610d9d86826120f0565b95505060019093019250610d4f915050565b50604080518381526020810183905281517f38436c42bcfd74414acafc159a381bf74b9880bc4c1c9f922686fc7161d9c7ad929181900390910190a15050565b6002546001600160a01b03163314610e32576040805162461bcd60e51b81526020600482015260016024820152606d60f81b604482015290519081900360640190fd5b7f00000000000000000000000000000000000000000000000000000000000000006001600160a01b0316826001600160a01b031614158015610ea657507f00000000000000000000000000000000000000000000000000000000000000006001600160a01b0316826001600160a01b031614155b610ef7576040805162461bcd60e51b815260206004820152600160248201527f7400000000000000000000000000000000000000000000000000000000000000604482015290519081900360640190fd5b6000826001600160a01b03166370a08231306040518263ffffffff1660e01b815260040180826001600160a01b0316815260200191505060206040518083038186803b158015610f4657600080fd5b505afa158015610f5a573d6000803e3d6000fd5b505050506040513d6020811015610f7057600080fd5b505190506106306001600160a01b0384168383611e32565b6002546001600160a01b03163314610fcb576040805162461bcd60e51b81526020600482015260016024820152606d60f81b604482015290519081900360640190fd5b6000610fd78383611ed0565b6001546040805163a34123a760e01b8152600287810b600483015286900b60248201526001600160801b038416604482015281519394506001600160a01b039092169263a34123a79260648082019392918290030181600087803b15801561103e57600080fd5b505af1158015611052573d6000803e3d6000fd5b505050506040513d604081101561106857600080fd5b5050600154604080517f4f1eb3d8000000000000000000000000000000000000000000000000000000008152306004820152600286810b602483015285900b60448201526001600160801b0360648201819052608482015281516001600160a01b0390931692634f1eb3d89260a4808401939192918290030181600087803b1580156110f357600080fd5b505af1158015611107573d6000803e3d6000fd5b505050506040513d60408110156109ca57600080fd5b60008060006002600054141561117a576040805162461bcd60e51b815260206004820152601f60248201527f5265656e7472616e637947756172643a207265656e7472616e742063616c6c00604482015290519081900360640190fd5b60026000819055546001600160a01b031633146111c2576040805162461bcd60e51b81526020600482015260016024820152606d60f81b604482015290519081900360640190fd5b60008711806111d15750600086115b611224576040805162461bcd60e51b8152602060048083019190915260248201527f6130613100000000000000000000000000000000000000000000000000000000604482015290519081900360640190fd5b61122c61230c565b6112368787612634565b919450925090508261128f576040805162461bcd60e51b815260206004820152600160248201527f7300000000000000000000000000000000000000000000000000000000000000604482015290519081900360640190fd5b848210156112e4576040805162461bcd60e51b815260206004820152600360248201527f41304d0000000000000000000000000000000000000000000000000000000000604482015290519081900360640190fd5b83811015611339576040805162461bcd60e51b815260206004820152600360248201527f41314d0000000000000000000000000000000000000000000000000000000000604482015290519081900360640190fd5b604080517fed1bbd0b0000000000000000000000000000000000000000000000000000000081526001600160a01b037f000000000000000000000000000000000000000000000000000000000000000081166004830152602482018590527f0000000000000000000000000000000000000000000000000000000000000000166044820152606481018390529051339163ed1bbd0b91608480830192600092919082900301818387803b1580156113ef57600080fd5b505af1158015611403573d6000803e3d6000fd5b505050506114108361274b565b6040805184815260208101849052808201839052905189917f9b776d199f09c774f5b205c9bc2ac6f40d508c347aaea919867eeaf06ebef0e9919081900360600190a26001600081905550955095509592505050565b6000806114716109d1565b909250905061148861148161214a565b83906120f0565b915061149c6114956121f1565b82906120f0565b90509091565b6000806114b361072e600985611eb2565b9094909350915050565b7f000000000000000000000000000000000000000000000000000000000000000081565b7f000000000000000000000000000000000000000000000000000000000000000081565b6001546001600160a01b0316331461151c57600080fd5b8315611556576115566001600160a01b037f0000000000000000000000000000000000000000000000000000000000000000163386611e32565b8215611590576115906001600160a01b037f0000000000000000000000000000000000000000000000000000000000000000163385611e32565b50505050565b600080600260005414156115f1576040805162461bcd60e51b815260206004820152601f60248201527f5265656e7472616e637947756172643a207265656e7472616e742063616c6c00604482015290519081900360640190fd5b60026000819055546001600160a01b03163314611639576040805162461bcd60e51b81526020600482015260016024820152606d60f81b604482015290519081900360640190fd5b6000861161168e576040805162461bcd60e51b815260206004820152600160248201527f7300000000000000000000000000000000000000000000000000000000000000604482015290519081900360640190fd5b6001600160a01b038316158015906116af57506001600160a01b0383163014155b611700576040805162461bcd60e51b815260206004820152600260248201527f746f000000000000000000000000000000000000000000000000000000000000604482015290519081900360640190fd5b611708610d41565b600080611713611466565b600854919350915061172f90611729848b612756565b906127af565b60085490945061174390611729838b612756565b92508684101561179a576040805162461bcd60e51b815260206004820152600360248201527f41304d0000000000000000000000000000000000000000000000000000000000604482015290519081900360640190fd5b858310156117ef576040805162461bcd60e51b815260206004820152600360248201527f41314d0000000000000000000000000000000000000000000000000000000000604482015290519081900360640190fd5b60006117f961214a565b905060006118056121f1565b90508582111580156118175750848111155b1561192d5760006118288784611dd0565b905060006118368784611dd0565b90506000806118436109d1565b91509150600082600014158015611858575081155b1561187d57611876836117296007548861275690919063ffffffff16565b90506118f8565b8215801561188a57508115155b156118a857611876826117296007548761275690919063ffffffff16565b82158015906118b657508115155b156118f8576118f56118d7846117296007548961275690919063ffffffff16565b6118f0846117296007548961275690919063ffffffff16565b612816565b90505b61190a61271061172983612774612756565b905060075481111561191b57506007545b611925813061282d565b505050505050505b8515611967576119676001600160a01b037f0000000000000000000000000000000000000000000000000000000000000000168888611e32565b84156119a1576119a16001600160a01b037f0000000000000000000000000000000000000000000000000000000000000000168887611e32565b6119aa8a6128b5565b604080518b81526020810188905280820187905290516001600160a01b038916918d917f30011545efcd097ee25dae81386c1513acbd42b2af85ac6caae1a3b7d51933669181900360600190a350506001600055509197909650945050505050565b60008060026000541415611a67576040805162461bcd60e51b815260206004820152601f60248201527f5265656e7472616e637947756172643a207265656e7472616e742063616c6c00604482015290519081900360640190fd5b60026000819055546001600160a01b03163314611aaf576040805162461bcd60e51b81526020600482015260016024820152606d60f81b604482015290519081900360640190fd5b600080611ac061072e600988611eb2565b91509150611ace8282611ed0565b6001600160801b0316856001600160801b03161115611b34576040805162461bcd60e51b815260206004820152600160248201527f4c00000000000000000000000000000000000000000000000000000000000000604482015290519081900360640190fd5b6001600160801b03851615611ccf576001546040805163a34123a760e01b8152600285810b600483015284900b60248201526001600160801b038816604482015281516001600160a01b039093169263a34123a7926064808401939192918290030181600087803b158015611ba857600080fd5b505af1158015611bbc573d6000803e3d6000fd5b505050506040513d6040811015611bd257600080fd5b508051602090910151909450925083151580611bee5750600083115b15611ccf576001546001600160a01b0316634f1eb3d8308484611c1089611f93565b611c1989611f93565b6040518663ffffffff1660e01b815260040180866001600160a01b031681526020018560020b81526020018460020b8152602001836001600160801b03168152602001826001600160801b03168152602001955050505050506040805180830381600087803b158015611c8b57600080fd5b505af1158015611c9f573d6000803e3d6000fd5b505050506040513d6040811015611cb557600080fd5b5080516020909101516001600160801b0391821695501692505b5050600160005590939092509050565b6002546001600160a01b03163314611d22576040805162461bcd60e51b81526020600482015260016024820152606d60f81b604482015290519081900360640190fd5b600080611d2f8484611fae565b9150915081600014611d6d576040805162461bcd60e51b8152602060048201526002602482015261061360f41b604482015290519081900360640190fd5b8015611da5576040805162461bcd60e51b8152602060048201526002602482015261061360f41b604482015290519081900360640190fd5b611daf84846128c1565b6109ca611dbc85856120ca565b600990612afe565b60035490565b60065481565b600082821115611e27576040805162461bcd60e51b815260206004820152601e60248201527f536166654d6174683a207375627472616374696f6e206f766572666c6f770000604482015290519081900360640190fd5b508082035b92915050565b604080516001600160a01b038416602482015260448082018490528251808303909101815260649091019091526020810180517bffffffffffffffffffffffffffffffffffffffffffffffffffffffff167fa9059cbb00000000000000000000000000000000000000000000000000000000179052610630908490612b0a565b6000611ebe8383612bbb565b9392505050565b601081905260005191565b604080513060601b602080830191909152600285810b60e890811b60348501529085900b901b60378301528251808303601a018152603a83018085528151919092012060015463514ea4bf60e01b909252603e83018190529251600093926001600160a01b039092169163514ea4bf91605e8083019260a0929190829003018186803b158015611f5f57600080fd5b505afa158015611f73573d6000803e3d6000fd5b505050506040513d60a0811015611f8957600080fd5b5051949350505050565b806001600160801b0381168114611fa957600080fd5b919050565b604080513060601b602080830191909152600285810b60e890811b60348501529085900b901b60378301528251601a818403018152603a83018085528151919092012060015463514ea4bf60e01b909252603e83018190529251600093849390928492839283926001600160a01b03169163514ea4bf91605e8082019260a092909190829003018186803b15801561204557600080fd5b505afa158015612059573d6000803e3d6000fd5b505050506040513d60a081101561206f57600080fd5b50805160608201516080909201519094509092509050612090888885612c1f565b90965094506120a8866001600160801b0384166120f0565b95506120bd856001600160801b0383166120f0565b9450505050509250929050565b60109081526000919091525190565b6000611ebe8383612cc9565b6000611e2c82612d8f565b600082820183811015611ebe576040805162461bcd60e51b815260206004820152601b60248201527f536166654d6174683a206164646974696f6e206f766572666c6f770000000000604482015290519081900360640190fd5b6000610d3c6003547f00000000000000000000000000000000000000000000000000000000000000006001600160a01b03166370a08231306040518263ffffffff1660e01b815260040180826001600160a01b0316815260200191505060206040518083038186803b1580156121bf57600080fd5b505afa1580156121d3573d6000803e3d6000fd5b505050506040513d60208110156121e957600080fd5b505190611dd0565b6000610d3c6004547f00000000000000000000000000000000000000000000000000000000000000006001600160a01b03166370a08231306040518263ffffffff1660e01b815260040180826001600160a01b0316815260200191505060206040518083038186803b1580156121bf57600080fd5b600080600160009054906101000a90046001600160a01b03166001600160a01b0316633850c7bd6040518163ffffffff1660e01b815260040160e06040518083038186803b1580156122b757600080fd5b505afa1580156122cb573d6000803e3d6000fd5b505050506040513d60e08110156122e157600080fd5b50519050612302816122f288612d93565b6122fb88612d93565b87876130ee565b9695505050505050565b60005b61231960096120e5565b8110156123e65760008061233161072e600985611eb2565b9150915060006123418383611ed0565b6001600160801b031611156123dc576001546040805163a34123a760e01b8152600285810b600483015284900b602482015260006044820181905282516001600160a01b039094169363a34123a7936064808501949193918390030190829087803b1580156123af57600080fd5b505af11580156123c3573d6000803e3d6000fd5b505050506040513d60408110156123d957600080fd5b50505b505060010161230f565b50565b604080513060601b602080830191909152600285810b60e890811b60348501529085900b901b60378301528251808303601a018152603a83018085528151919092012060015463514ea4bf60e01b909252603e8301819052925160009384939092849283926001600160a01b039092169163514ea4bf91605e8083019260a0929190829003018186803b15801561247f57600080fd5b505afa158015612493573d6000803e3d6000fd5b505050506040513d60a08110156124a957600080fd5b506060810151608090910151600154604080517f4f1eb3d800000000000000000000000000000000000000000000000000000000815230600482015260028c810b60248301528b900b60448201526001600160801b0380861660648301528416608482015281519496509294506001600160a01b0390911692634f1eb3d89260a48082019392918290030181600087803b15801561254657600080fd5b505af115801561255a573d6000803e3d6000fd5b505050506040513d604081101561257057600080fd5b5080516020909101516005546001600160801b039283169750911694506000908190156125f3576125b26006546117296005548a61275690919063ffffffff16565b91506125cf6006546117296005548961275690919063ffffffff16565b6003549091506125df90836120f0565b6003556004546125ef90826120f0565b6004555b6126096126008884611dd0565b600b54906120f0565b600b556126226126198783611dd0565b600c54906120f0565b600c8190555050505050509250929050565b6000806000806000612644611466565b91509150600854600014806126595750600082115b806126645750600081115b61266a57fe5b600854612688578693508592506126818484612816565b9450612742565b816126a957859250612681816117296008548661275690919063ffffffff16565b806126ca57869350612681826117296008548761275690919063ffffffff16565b60006126e86126d98984612756565b6126e38986612756565b6131b2565b90508015612740576127096001612703846117298584611dd0565b906120f0565b945061271e6001612703856117298584611dd0565b935061273d82611729856117296008548661275690919063ffffffff16565b95505b505b50509250925092565b600880549091019055565b60008261276557506000611e2c565b8282028284828161277257fe5b0414611ebe5760405162461bcd60e51b81526004018080602001828103825260218152602001806139316021913960400191505060405180910390fd5b6000808211612805576040805162461bcd60e51b815260206004820152601a60248201527f536166654d6174683a206469766973696f6e206279207a65726f000000000000604482015290519081900360640190fd5b81838161280e57fe5b049392505050565b6000818310156128265781611ebe565b5090919050565b60008060005b61283d60096120e5565b8110156128ad5760008061285561072e600985611eb2565b9150915060006128658383611ed0565b6001600160801b031611156128a35760008061288384848b8b6131c1565b909250905061289287836120f0565b965061289e86826120f0565b955050505b5050600101612833565b509250929050565b60088054919091039055565b8060020b8260020b1261291b576040805162461bcd60e51b815260206004820152600360248201527f544c550000000000000000000000000000000000000000000000000000000000604482015290519081900360640190fd5b7ffffffffffffffffffffffffffffffffffffffffffffffffffffffffffff27618600283900b1215612994576040805162461bcd60e51b815260206004820152600360248201527f544c4d0000000000000000000000000000000000000000000000000000000000604482015290519081900360640190fd5b620d89e8600282900b13156129f0576040805162461bcd60e51b815260206004820152600360248201527f54554d0000000000000000000000000000000000000000000000000000000000604482015290519081900360640190fd5b7f000000000000000000000000000000000000000000000000000000000000000060020b8260020b81612a1f57fe5b0760020b15612a75576040805162461bcd60e51b815260206004820152600360248201527f544c460000000000000000000000000000000000000000000000000000000000604482015290519081900360640190fd5b7f000000000000000000000000000000000000000000000000000000000000000060020b8160020b81612aa457fe5b0760020b15612afa576040805162461bcd60e51b815260206004820152600360248201527f5455460000000000000000000000000000000000000000000000000000000000604482015290519081900360640190fd5b5050565b6000611ebe838361339e565b6000612b5f826040518060400160405280602081526020017f5361666545524332303a206c6f772d6c6576656c2063616c6c206661696c6564815250856001600160a01b03166133e89092919063ffffffff16565b80519091501561063057808060200190516020811015612b7e57600080fd5b50516106305760405162461bcd60e51b815260040180806020018281038252602a815260200180613952602a913960400191505060405180910390fd5b81546000908210612bfd5760405162461bcd60e51b81526004018080602001828103825260228152602001806138e96022913960400191505060405180910390fd5b826000018281548110612c0c57fe5b9060005260206000200154905092915050565b6000806000600160009054906101000a90046001600160a01b03166001600160a01b0316633850c7bd6040518163ffffffff1660e01b815260040160e06040518083038186803b158015612c7257600080fd5b505afa158015612c86573d6000803e3d6000fd5b505050506040513d60e0811015612c9c57600080fd5b50519050612cbc81612cad88612d93565b612cb688612d93565b876133ff565b9097909650945050505050565b60008181526001830160205260408120548015612d855783546000198083019190810190600090879083908110612cfc57fe5b9060005260206000200154905080876000018481548110612d1957fe5b600091825260208083209091019290925582815260018981019092526040902090840190558654879080612d4957fe5b60019003818190600052602060002001600090559055866001016000878152602001908152602001600020600090556001945050505050611e2c565b6000915050611e2c565b5490565b60008060008360020b12612daa578260020b612db2565b8260020b6000035b9050620d89e8811115612e0c576040805162461bcd60e51b815260206004820152600160248201527f5400000000000000000000000000000000000000000000000000000000000000604482015290519081900360640190fd5b600060018216612e2d57700100000000000000000000000000000000612e3f565b6ffffcb933bd6fad37aa2d162d1a5940015b70ffffffffffffffffffffffffffffffffff1690506002821615612e73576ffff97272373d413259a46990580e213a0260801c5b6004821615612e92576ffff2e50f5f656932ef12357cf3c7fdcc0260801c5b6008821615612eb1576fffe5caca7e10e4e61c3624eaa0941cd00260801c5b6010821615612ed0576fffcb9843d60f6159c9db58835c9266440260801c5b6020821615612eef576fff973b41fa98c081472e6896dfb254c00260801c5b6040821615612f0e576fff2ea16466c96a3843ec78b326b528610260801c5b6080821615612f2d576ffe5dee046a99a2a811c461f1969c30530260801c5b610100821615612f4d576ffcbe86c7900a88aedcffc83b479aa3a40260801c5b610200821615612f6d576ff987a7253ac413176f2b074cf7815e540260801c5b610400821615612f8d576ff3392b0822b70005940c7a398e4b70f30260801c5b610800821615612fad576fe7159475a2c29b7443b29c7fa6e889d90260801c5b611000821615612fcd576fd097f3bdfd2022b8845ad8f792aa58250260801c5b612000821615612fed576fa9f746462d870fdf8a65dc1f90e061e50260801c5b61400082161561300d576f70d869a156d2a1b890bb3df62baf32f70260801c5b61800082161561302d576f31be135f97d08fd981231505542fcfa60260801c5b6201000082161561304e576f09aa508b5b7a84e1c677de54f3e99bc90260801c5b6202000082161561306e576e5d6af8dedb81196699c329225ee6040260801c5b6204000082161561308d576d2216e584f5fa1ea926041bedfe980260801c5b620800008216156130aa576b048a170391f7dc42444e8fa20260801c5b60008460020b13156130c55780600019816130c157fe5b0490505b6401000000008106156130d95760016130dc565b60005b60ff16602082901c0192505050919050565b6000836001600160a01b0316856001600160a01b0316111561310e579293925b846001600160a01b0316866001600160a01b0316116131395761313285858561349b565b90506131a9565b836001600160a01b0316866001600160a01b0316101561319b57600061316087868661349b565b9050600061316f878986613507565b9050806001600160801b0316826001600160801b0316106131905780613192565b815b925050506131a9565b6131a6858584613507565b90505b95945050505050565b60008183106128265781611ebe565b60008060006131d08787611ed0565b905060006131f660075461172988856001600160801b031661275690919063ffffffff16565b90508015613393576001546001600160a01b031663a34123a7898961321a85611f93565b6040518463ffffffff1660e01b8152600401808460020b81526020018360020b8152602001826001600160801b0316815260200193505050506040805180830381600087803b15801561326c57600080fd5b505af1158015613280573d6000803e3d6000fd5b505050506040513d604081101561329657600080fd5b5080516020909101519094509250831515806132b25750600083115b15613393576001546001600160a01b0316634f1eb3d8868a8a6132d489611f93565b6132dd89611f93565b6040518663ffffffff1660e01b815260040180866001600160a01b031681526020018560020b81526020018460020b8152602001836001600160801b03168152602001826001600160801b03168152602001955050505050506040805180830381600087803b15801561334f57600080fd5b505af1158015613363573d6000803e3d6000fd5b505050506040513d604081101561337957600080fd5b5080516020909101516001600160801b0391821695501692505b505094509492505050565b60006133aa838361354d565b6133e057508154600181810184556000848152602080822090930184905584548482528286019093526040902091909155611e2c565b506000611e2c565b60606133f78484600085613565565b949350505050565b600080836001600160a01b0316856001600160a01b03161115613420579293925b846001600160a01b0316866001600160a01b03161161344b576134448585856136de565b9150613492565b836001600160a01b0316866001600160a01b03161015613484576134708685856136de565b915061347d858785613747565b9050613492565b61348f858585613747565b90505b94509492505050565b6000826001600160a01b0316846001600160a01b031611156134bb579192915b60006134e7856001600160a01b0316856001600160a01b03166c0100000000000000000000000061378f565b90506131a961350284838888036001600160a01b031661378f565b611f93565b6000826001600160a01b0316846001600160a01b03161115613527579192915b6133f7613502836c010000000000000000000000008787036001600160a01b031661378f565b60009081526001919091016020526040902054151590565b6060824710156135a65760405162461bcd60e51b815260040180806020018281038252602681526020018061390b6026913960400191505060405180910390fd5b6135af8561383e565b613600576040805162461bcd60e51b815260206004820152601d60248201527f416464726573733a2063616c6c20746f206e6f6e2d636f6e7472616374000000604482015290519081900360640190fd5b600080866001600160a01b031685876040518082805190602001908083835b6020831061365c57805182527fffffffffffffffffffffffffffffffffffffffffffffffffffffffffffffffe0909201916020918201910161361f565b6001836020036101000a03801982511681845116808217855250505050505090500191505060006040518083038185875af1925050503d80600081146136be576040519150601f19603f3d011682016040523d82523d6000602084013e6136c3565b606091505b50915091506136d3828286613844565b979650505050505050565b6000826001600160a01b0316846001600160a01b031611156136fe579192915b836001600160a01b0316613737606060ff16846001600160801b0316901b8686036001600160a01b0316866001600160a01b031661378f565b8161373e57fe5b04949350505050565b6000826001600160a01b0316846001600160a01b03161115613767579192915b6133f7826001600160801b03168585036001600160a01b03166c010000000000000000000000005b60008080600019858709868602925082811090839003039050806137c557600084116137ba57600080fd5b508290049050611ebe565b8084116137d157600080fd5b6000848688096000868103871696879004966002600389028118808a02820302808a02820302808a02820302808a02820302808a02820302808a02909103029181900381900460010186841190950394909402919094039290920491909117919091029150509392505050565b3b151590565b60608315613853575081611ebe565b8251156138635782518084602001fd5b8160405162461bcd60e51b81526004018080602001828103825283818151815260200191508051906020019080838360005b838110156138ad578181015183820152602001613895565b50505050905090810190601f1680156138da5780820380516001836020036101000a031916815260200191505b509250505060405180910390fdfe456e756d657261626c655365743a20696e646578206f7574206f6620626f756e6473416464726573733a20696e73756666696369656e742062616c616e636520666f722063616c6c536166654d6174683a206d756c7469706c69636174696f6e206f766572666c6f775361666545524332303a204552433230206f7065726174696f6e20646964206e6f742073756363656564a164736f6c6343000706000aa164736f6c6343000706000a",
  "linkReferences": {},
  "deployedLinkReferences": {}
}