{
  "_format": "hh-sol-artifact-1",
  "contractName": "CHIVaultDeployer",
  "sourceName": "contracts/CHIVaultDeployer.sol",
  "abi": [
    {
      "inputs": [],
      "stateMutability": "nonpayable",
      "type": "constructor"
    },
    {
      "anonymous": false,
      "inputs": [
        {
          "indexed": true,
          "internalType": "address",
          "name": "oldCHIManager",
          "type": "address"
        },
        {
          "indexed": true,
          "internalType": "address",
          "name": "newCHIManager",
          "type": "address"
        }
      ],
      "name": "CHIManagerChanged",
      "type": "event"
    },
    {
      "anonymous": false,
      "inputs": [
        {
          "indexed": true,
          "internalType": "address",
          "name": "oldOwner",
          "type": "address"
        },
        {
          "indexed": true,
          "internalType": "address",
          "name": "newOwner",
          "type": "address"
        }
      ],
      "name": "OwnerChanged",
      "type": "event"
    },
    {
      "inputs": [],
      "name": "CHIManager",
      "outputs": [
        {
          "internalType": "address",
          "name": "",
          "type": "address"
        }
      ],
      "stateMutability": "view",
      "type": "function"
    },
    {
      "inputs": [
        {
          "internalType": "address",
          "name": "uniswapV3pool",
          "type": "address"
        },
        {
          "internalType": "address",
          "name": "manager",
          "type": "address"
        },
        {
          "internalType": "uint256",
          "name": "fee",
          "type": "uint256"
        }
      ],
      "name": "createVault",
      "outputs": [
        {
          "internalType": "address",
          "name": "pool",
          "type": "address"
        }
      ],
      "stateMutability": "nonpayable",
      "type": "function"
    },
    {
      "inputs": [],
      "name": "owner",
      "outputs": [
        {
          "internalType": "address",
          "name": "",
          "type": "address"
        }
      ],
      "stateMutability": "view",
      "type": "function"
    },
    {
      "inputs": [
        {
          "internalType": "address",
          "name": "_manager",
          "type": "address"
        }
      ],
      "name": "setCHIManager",
      "outputs": [],
      "stateMutability": "nonpayable",
      "type": "function"
    },
    {
      "inputs": [
        {
          "internalType": "address",
          "name": "_owner",
          "type": "address"
        }
      ],
      "name": "setOwner",
      "outputs": [],
      "stateMutability": "nonpayable",
      "type": "function"
    }
  ],
  "bytecode": "0x608060405234801561001057600080fd5b50600080546001600160a01b03191633179055613b96806100326000396000f3fe608060405234801561001057600080fd5b50600436106100675760003560e01c80638da5cb5b116100505780638da5cb5b146100e65780639d60da50146100ee578063a244a481146100f657610067565b806313af40351461006c57806358b4b71114610094575b600080fd5b6100926004803603602081101561008257600080fd5b50356001600160a01b031661011c565b005b6100ca600480360360608110156100aa57600080fd5b506001600160a01b038135811691602081013590911690604001356101a6565b604080516001600160a01b039092168252519081900360200190f35b6100ca61021e565b6100ca61022d565b6100926004803603602081101561010c57600080fd5b50356001600160a01b031661023c565b6000546001600160a01b0316331461013357600080fd5b600080546040516001600160a01b03808516939216917fb532073b38c83145e3e5135377a08bf9aab55bc0fd7c1179cd4fb995d2a5159c91a3600080547fffffffffffffffffffffffff0000000000000000000000000000000000000000166001600160a01b0392909216919091179055565b6001546000906001600160a01b031633146101c057600080fd5b8383836040516101cf906102c7565b80846001600160a01b03168152602001836001600160a01b031681526020018281526020019350505050604051809103906000f080158015610215573d6000803e3d6000fd5b50949350505050565b6000546001600160a01b031681565b6001546001600160a01b031681565b6000546001600160a01b0316331461025357600080fd5b6001546040516001600160a01b038084169216907f25196b6887a2c4bc24ff6330982317d18b73000e05091640ca171dcdc3995bdf90600090a3600180547fffffffffffffffffffffffff0000000000000000000000000000000000000000166001600160a01b0392909216919091179055565b6138b5806102d58339019056fe60e0604052620f4240600655670de0b6b3a76400006007553480156200002457600080fd5b50604051620038b5380380620038b5833981810160405260608110156200004a57600080fd5b5080516020808301516040938401516001600081905580546001600160a01b0319166001600160a01b0380871691909117918290558651630dfe168160e01b81529651959693959294911692630dfe16819260048083019392829003018186803b158015620000b857600080fd5b505afa158015620000cd573d6000803e3d6000fd5b505050506040513d6020811015620000e457600080fd5b505160601b6001600160601b0319166080526001546040805163d21220a760e01b815290516001600160a01b039092169163d21220a791600480820192602092909190829003018186803b1580156200013c57600080fd5b505afa15801562000151573d6000803e3d6000fd5b505050506040513d60208110156200016857600080fd5b505160601b6001600160601b03191660a052600154604080516334324e9f60e21b815290516001600160a01b039092169163d0c93a7c91600480820192602092909190829003018186803b158015620001c057600080fd5b505afa158015620001d5573d6000803e3d6000fd5b505050506040513d6020811015620001ec57600080fd5b5051600290810b810b60e81b60c05280546001600160a01b0319166001600160a01b0384161790556005819055600654811062000254576040805162461bcd60e51b81526020600482015260016024820152603360f91b604482015290519081900360640190fd5b50505060805160601c60a05160601c60c05160e81c6135ec620002c960003980611123528061265652806126db52508061059b5280610ffd528061114752806111cd52806115de5280611e5f52508061056152806105cf5280610fce528061119352806115a45280611db852506135ec6000f3fe608060405234801561001057600080fd5b50600436106101b95760003560e01c8063b0e21e8a116100f9578063d21220a711610097578063d4da618511610071578063d4da618514610485578063db4dcce4146104b1578063eae989a2146104db578063ecefc705146104e3576101b9565b8063d21220a7146103c3578063d3487997146103cb578063d473a65414610447576101b9565b8063bf02b5ea116100d3578063bf02b5ea14610309578063c4a7761e1461035c578063cc364f4814610364578063d0c93a7c146103a4576101b9565b8063b0e21e8a146102f1578063b135a145146102f9578063b596291714610301576101b9565b80632106fa46116101665780639346ba14116101405780639346ba14146102b05780639d60da50146102b85780639d9d75be146102c0578063a00fa77f146102e9576101b9565b80632106fa46146102485780635a64998b1461027e578063659cc0e6146102a8576101b9565b806310869bfe1161019757806310869bfe1461023057806316f0115b1461023857806318160ddd14610240576101b9565b80630430c130146101be57806306a45175146101f25780630dfe16811461020c575b600080fd5b6101f0600480360360608110156101d457600080fd5b50803590602081013590604001356001600160a01b03166104eb565b005b6101fa6105c7565b60408051918252519081900360200190f35b6102146105cd565b604080516001600160a01b039092168252519081900360200190f35b6101fa6105f1565b6102146105f7565b6101fa610606565b6102656004803603602081101561025e57600080fd5b503561060c565b6040805192835260208301919091528051918290030190f35b6101f06004803603604081101561029457600080fd5b508035600290810b9160200135900b610881565b610265610963565b6101fa6109ce565b6102146109d4565b6101f0600480360360608110156102d657600080fd5b50803590602081013590604001356109e3565b6101fa610cb6565b6101fa610cbc565b6101fa610cc2565b6101f0610cd3565b61033e600480360360a081101561031f57600080fd5b5080359060208101359060408101359060608101359060800135610d81565b60408051938452602084019290925282820152519081900360600190f35b6102656110ca565b6103816004803603602081101561037a57600080fd5b5035611106565b604051808360020b81526020018260020b81526020019250505060405180910390f35b6103ac611121565b6040805160029290920b8252519081900360200190f35b610214611145565b6101f0600480360360608110156103e157600080fd5b81359160208101359181019060608101604082013564010000000081111561040857600080fd5b82018360208201111561041a57600080fd5b8035906020019184600183028401116401000000008311171561043c57600080fd5b509092509050611169565b610265600480360360a081101561045d57600080fd5b50803590602081013590604081013590606081013590608001356001600160a01b03166111fa565b6102656004803603604081101561049b57600080fd5b50803590602001356001600160801b0316611670565b6101f0600480360360408110156104c757600080fd5b508035600290810b9160200135900b611943565b6101fa611a28565b6101fa611a2e565b6002546001600160a01b0316331461052e576040805162461bcd60e51b81526020600482015260016024820152606d60f81b604482015290519081900360640190fd5b60035461053b9084611a34565b60035560045461054b9083611a34565b6004558215610588576105886001600160a01b037f0000000000000000000000000000000000000000000000000000000000000000168285611a96565b81156105c2576105c26001600160a01b037f0000000000000000000000000000000000000000000000000000000000000000168284611a96565b505050565b600c5490565b7f000000000000000000000000000000000000000000000000000000000000000081565b600b5490565b6001546001600160a01b031681565b60085490565b60008060026000541415610667576040805162461bcd60e51b815260206004820152601f60248201527f5265656e7472616e637947756172643a207265656e7472616e742063616c6c00604482015290519081900360640190fd5b60026000819055546001600160a01b031633146106af576040805162461bcd60e51b81526020600482015260016024820152606d60f81b604482015290519081900360640190fd5b6000806106c56106c0600987611b16565b611b29565b9150915060006106d58383611b34565b90506001600160801b03811615610872576001546040805163a34123a760e01b8152600286810b600483015285900b60248201526001600160801b038416604482015281516001600160a01b039093169263a34123a7926064808401939192918290030181600087803b15801561074b57600080fd5b505af115801561075f573d6000803e3d6000fd5b505050506040513d604081101561077557600080fd5b5080516020909101519095509350841515806107915750600084115b15610872576001546001600160a01b0316634f1eb3d83085856107b38a611bf7565b6107bc8a611bf7565b6040518663ffffffff1660e01b815260040180866001600160a01b031681526020018560020b81526020018460020b8152602001836001600160801b03168152602001826001600160801b03168152602001955050505050506040805180830381600087803b15801561082e57600080fd5b505af1158015610842573d6000803e3d6000fd5b505050506040513d604081101561085857600080fd5b5080516020909101516001600160801b0391821696501693505b50506001600055509092909150565b6002546001600160a01b031633146108c4576040805162461bcd60e51b81526020600482015260016024820152606d60f81b604482015290519081900360640190fd5b6000806108d18484611c12565b915091508160001461090f576040805162461bcd60e51b8152602060048201526002602482015261061360f41b604482015290519081900360640190fd5b8015610947576040805162461bcd60e51b8152602060048201526002602482015261061360f41b604482015290519081900360640190fd5b61095c6109548585611d2e565b600990611d3d565b5050505050565b60008060005b6109736009611d49565b8110156109c95760008061098b6106c0600985611b16565b9150915060008061099c8484611c12565b90925090506109ab8783611d54565b96506109b78682611d54565b95505060019093019250610969915050565b509091565b60075481565b6002546001600160a01b031681565b60026000541415610a3b576040805162461bcd60e51b815260206004820152601f60248201527f5265656e7472616e637947756172643a207265656e7472616e742063616c6c00604482015290519081900360640190fd5b60026000819055546001600160a01b03163314610a83576040805162461bcd60e51b81526020600482015260016024820152606d60f81b604482015290519081900360640190fd5b600080610a946106c0600987611b16565b91509150610aa0611dae565b841115610af4576040805162461bcd60e51b815260206004820152600360248201527f4942300000000000000000000000000000000000000000000000000000000000604482015290519081900360640190fd5b610afc611e55565b831115610b50576040805162461bcd60e51b815260206004820152600360248201527f4942310000000000000000000000000000000000000000000000000000000000604482015290519081900360640190fd5b6000610b5e83838787611eca565b90506001600160801b03811615610ca9576001546001600160a01b0316633c8a7d8d3085858560006040519080825280601f01601f191660200182016040528015610bb0576020820181803683370190505b506040518663ffffffff1660e01b815260040180866001600160a01b031681526020018560020b81526020018460020b8152602001836001600160801b0316815260200180602001828103825283818151815260200191508051906020019080838360005b83811015610c2d578181015183820152602001610c15565b50505050905090810190601f168015610c5a5780820380516001836020036101000a031916815260200191505b5096505050505050506040805180830381600087803b158015610c7c57600080fd5b505af1158015610c90573d6000803e3d6000fd5b505050506040513d6040811015610ca657600080fd5b50505b5050600160005550505050565b60045490565b60055490565b6000610cce6009611d49565b905090565b600080610cde611f70565b60005b610ceb6009611d49565b811015610d4157600080610d036106c0600985611b16565b91509150600080610d14848461204d565b9092509050610d238783611d54565b9650610d2f8682611d54565b95505060019093019250610ce1915050565b50604080518381526020810183905281517f38436c42bcfd74414acafc159a381bf74b9880bc4c1c9f922686fc7161d9c7ad929181900390910190a15050565b600080600060026000541415610dde576040805162461bcd60e51b815260206004820152601f60248201527f5265656e7472616e637947756172643a207265656e7472616e742063616c6c00604482015290519081900360640190fd5b60026000819055546001600160a01b03163314610e26576040805162461bcd60e51b81526020600482015260016024820152606d60f81b604482015290519081900360640190fd5b6000871180610e355750600086115b610e88576040805162461bcd60e51b8152602060048083019190915260248201527f6130613100000000000000000000000000000000000000000000000000000000604482015290519081900360640190fd5b610e90611f70565b610e9a8787612298565b9194509250905082610ef3576040805162461bcd60e51b815260206004820152600160248201527f7300000000000000000000000000000000000000000000000000000000000000604482015290519081900360640190fd5b84821015610f48576040805162461bcd60e51b815260206004820152600360248201527f41304d0000000000000000000000000000000000000000000000000000000000604482015290519081900360640190fd5b83811015610f9d576040805162461bcd60e51b815260206004820152600360248201527f41314d0000000000000000000000000000000000000000000000000000000000604482015290519081900360640190fd5b604080517fed1bbd0b0000000000000000000000000000000000000000000000000000000081526001600160a01b037f000000000000000000000000000000000000000000000000000000000000000081166004830152602482018590527f0000000000000000000000000000000000000000000000000000000000000000166044820152606481018390529051339163ed1bbd0b91608480830192600092919082900301818387803b15801561105357600080fd5b505af1158015611067573d6000803e3d6000fd5b50505050611074836123af565b6040805184815260208101849052808201839052905189917f9b776d199f09c774f5b205c9bc2ac6f40d508c347aaea919867eeaf06ebef0e9919081900360600190a26001600081905550955095509592505050565b6000806110d5610963565b90925090506110ec6110e5611dae565b8390611d54565b91506111006110f9611e55565b8290611d54565b90509091565b6000806111176106c0600985611b16565b9094909350915050565b7f000000000000000000000000000000000000000000000000000000000000000081565b7f000000000000000000000000000000000000000000000000000000000000000081565b6001546001600160a01b0316331461118057600080fd5b83156111ba576111ba6001600160a01b037f0000000000000000000000000000000000000000000000000000000000000000163386611a96565b82156111f4576111f46001600160a01b037f0000000000000000000000000000000000000000000000000000000000000000163385611a96565b50505050565b60008060026000541415611255576040805162461bcd60e51b815260206004820152601f60248201527f5265656e7472616e637947756172643a207265656e7472616e742063616c6c00604482015290519081900360640190fd5b60026000819055546001600160a01b0316331461129d576040805162461bcd60e51b81526020600482015260016024820152606d60f81b604482015290519081900360640190fd5b600086116112f2576040805162461bcd60e51b815260206004820152600160248201527f7300000000000000000000000000000000000000000000000000000000000000604482015290519081900360640190fd5b6001600160a01b0383161580159061131357506001600160a01b0383163014155b611364576040805162461bcd60e51b815260206004820152600260248201527f746f000000000000000000000000000000000000000000000000000000000000604482015290519081900360640190fd5b61136c610cd3565b6000806113776110ca565b60085491935091506113939061138d848b6123ba565b90612413565b6008549094506113a79061138d838b6123ba565b9250868410156113fe576040805162461bcd60e51b815260206004820152600360248201527f41304d0000000000000000000000000000000000000000000000000000000000604482015290519081900360640190fd5b85831015611453576040805162461bcd60e51b815260206004820152600360248201527f41314d0000000000000000000000000000000000000000000000000000000000604482015290519081900360640190fd5b600061145d611dae565b90506000611469611e55565b905085821115801561147b5750848111155b1561159157600061148c8784611a34565b9050600061149a8784611a34565b90506000806114a7610963565b915091506000826000141580156114bc575081155b156114e1576114da8361138d600754886123ba90919063ffffffff16565b905061155c565b821580156114ee57508115155b1561150c576114da8261138d600754876123ba90919063ffffffff16565b821580159061151a57508115155b1561155c5761155961153b8461138d600754896123ba90919063ffffffff16565b6115548461138d600754896123ba90919063ffffffff16565b61247a565b90505b61156e61271061138d836127746123ba565b905060075481111561157f57506007545b6115898130612491565b505050505050505b85156115cb576115cb6001600160a01b037f0000000000000000000000000000000000000000000000000000000000000000168888611a96565b8415611605576116056001600160a01b037f0000000000000000000000000000000000000000000000000000000000000000168887611a96565b61160e8a612519565b604080518b81526020810188905280820187905290516001600160a01b038916918d917f30011545efcd097ee25dae81386c1513acbd42b2af85ac6caae1a3b7d51933669181900360600190a350506001600055509197909650945050505050565b600080600260005414156116cb576040805162461bcd60e51b815260206004820152601f60248201527f5265656e7472616e637947756172643a207265656e7472616e742063616c6c00604482015290519081900360640190fd5b60026000819055546001600160a01b03163314611713576040805162461bcd60e51b81526020600482015260016024820152606d60f81b604482015290519081900360640190fd5b6000806117246106c0600988611b16565b915091506117328282611b34565b6001600160801b0316856001600160801b03161115611798576040805162461bcd60e51b815260206004820152600160248201527f4c00000000000000000000000000000000000000000000000000000000000000604482015290519081900360640190fd5b6001600160801b03851615611933576001546040805163a34123a760e01b8152600285810b600483015284900b60248201526001600160801b038816604482015281516001600160a01b039093169263a34123a7926064808401939192918290030181600087803b15801561180c57600080fd5b505af1158015611820573d6000803e3d6000fd5b505050506040513d604081101561183657600080fd5b5080516020909101519094509250831515806118525750600083115b15611933576001546001600160a01b0316634f1eb3d830848461187489611bf7565b61187d89611bf7565b6040518663ffffffff1660e01b815260040180866001600160a01b031681526020018560020b81526020018460020b8152602001836001600160801b03168152602001826001600160801b03168152602001955050505050506040805180830381600087803b1580156118ef57600080fd5b505af1158015611903573d6000803e3d6000fd5b505050506040513d604081101561191957600080fd5b5080516020909101516001600160801b0391821695501692505b5050600160005590939092509050565b6002546001600160a01b03163314611986576040805162461bcd60e51b81526020600482015260016024820152606d60f81b604482015290519081900360640190fd5b6000806119938484611c12565b91509150816000146119d1576040805162461bcd60e51b8152602060048201526002602482015261061360f41b604482015290519081900360640190fd5b8015611a09576040805162461bcd60e51b8152602060048201526002602482015261061360f41b604482015290519081900360640190fd5b611a138484612525565b61095c611a208585611d2e565b600990612762565b60035490565b60065481565b600082821115611a8b576040805162461bcd60e51b815260206004820152601e60248201527f536166654d6174683a207375627472616374696f6e206f766572666c6f770000604482015290519081900360640190fd5b508082035b92915050565b604080516001600160a01b038416602482015260448082018490528251808303909101815260649091019091526020810180517bffffffffffffffffffffffffffffffffffffffffffffffffffffffff167fa9059cbb000000000000000000000000000000000000000000000000000000001790526105c290849061276e565b6000611b22838361281f565b9392505050565b601081905260005191565b604080513060601b602080830191909152600285810b60e890811b60348501529085900b901b60378301528251808303601a018152603a83018085528151919092012060015463514ea4bf60e01b909252603e83018190529251600093926001600160a01b039092169163514ea4bf91605e8083019260a0929190829003018186803b158015611bc357600080fd5b505afa158015611bd7573d6000803e3d6000fd5b505050506040513d60a0811015611bed57600080fd5b5051949350505050565b806001600160801b0381168114611c0d57600080fd5b919050565b604080513060601b602080830191909152600285810b60e890811b60348501529085900b901b60378301528251601a818403018152603a83018085528151919092012060015463514ea4bf60e01b909252603e83018190529251600093849390928492839283926001600160a01b03169163514ea4bf91605e8082019260a092909190829003018186803b158015611ca957600080fd5b505afa158015611cbd573d6000803e3d6000fd5b505050506040513d60a0811015611cd357600080fd5b50805160608201516080909201519094509092509050611cf4888885612883565b9096509450611d0c866001600160801b038416611d54565b9550611d21856001600160801b038316611d54565b9450505050509250929050565b60109081526000919091525190565b6000611b22838361292d565b6000611a90826129f3565b600082820183811015611b22576040805162461bcd60e51b815260206004820152601b60248201527f536166654d6174683a206164646974696f6e206f766572666c6f770000000000604482015290519081900360640190fd5b6000610cce6003547f00000000000000000000000000000000000000000000000000000000000000006001600160a01b03166370a08231306040518263ffffffff1660e01b815260040180826001600160a01b0316815260200191505060206040518083038186803b158015611e2357600080fd5b505afa158015611e37573d6000803e3d6000fd5b505050506040513d6020811015611e4d57600080fd5b505190611a34565b6000610cce6004547f00000000000000000000000000000000000000000000000000000000000000006001600160a01b03166370a08231306040518263ffffffff1660e01b815260040180826001600160a01b0316815260200191505060206040518083038186803b158015611e2357600080fd5b600080600160009054906101000a90046001600160a01b03166001600160a01b0316633850c7bd6040518163ffffffff1660e01b815260040160e06040518083038186803b158015611f1b57600080fd5b505afa158015611f2f573d6000803e3d6000fd5b505050506040513d60e0811015611f4557600080fd5b50519050611f6681611f56886129f7565b611f5f886129f7565b8787612d52565b9695505050505050565b60005b611f7d6009611d49565b81101561204a57600080611f956106c0600985611b16565b915091506000611fa58383611b34565b6001600160801b03161115612040576001546040805163a34123a760e01b8152600285810b600483015284900b602482015260006044820181905282516001600160a01b039094169363a34123a7936064808501949193918390030190829087803b15801561201357600080fd5b505af1158015612027573d6000803e3d6000fd5b505050506040513d604081101561203d57600080fd5b50505b5050600101611f73565b50565b604080513060601b602080830191909152600285810b60e890811b60348501529085900b901b60378301528251808303601a018152603a83018085528151919092012060015463514ea4bf60e01b909252603e8301819052925160009384939092849283926001600160a01b039092169163514ea4bf91605e8083019260a0929190829003018186803b1580156120e357600080fd5b505afa1580156120f7573d6000803e3d6000fd5b505050506040513d60a081101561210d57600080fd5b506060810151608090910151600154604080517f4f1eb3d800000000000000000000000000000000000000000000000000000000815230600482015260028c810b60248301528b900b60448201526001600160801b0380861660648301528416608482015281519496509294506001600160a01b0390911692634f1eb3d89260a48082019392918290030181600087803b1580156121aa57600080fd5b505af11580156121be573d6000803e3d6000fd5b505050506040513d60408110156121d457600080fd5b5080516020909101516005546001600160801b039283169750911694506000908190156122575761221660065461138d6005548a6123ba90919063ffffffff16565b915061223360065461138d600554896123ba90919063ffffffff16565b6003549091506122439083611d54565b6003556004546122539082611d54565b6004555b61226d6122648884611a34565b600b5490611d54565b600b5561228661227d8783611a34565b600c5490611d54565b600c8190555050505050509250929050565b60008060008060006122a86110ca565b91509150600854600014806122bd5750600082115b806122c85750600081115b6122ce57fe5b6008546122ec578693508592506122e5848461247a565b94506123a6565b8161230d578592506122e58161138d600854866123ba90919063ffffffff16565b8061232e578693506122e58261138d600854876123ba90919063ffffffff16565b600061234c61233d89846123ba565b61234789866123ba565b612e16565b905080156123a45761236d60016123678461138d8584611a34565b90611d54565b945061238260016123678561138d8584611a34565b93506123a18261138d8561138d600854866123ba90919063ffffffff16565b95505b505b50509250925092565b600880549091019055565b6000826123c957506000611a90565b828202828482816123d657fe5b0414611b225760405162461bcd60e51b81526004018080602001828103825260218152602001806135956021913960400191505060405180910390fd5b6000808211612469576040805162461bcd60e51b815260206004820152601a60248201527f536166654d6174683a206469766973696f6e206279207a65726f000000000000604482015290519081900360640190fd5b81838161247257fe5b049392505050565b60008183101561248a5781611b22565b5090919050565b60008060005b6124a16009611d49565b811015612511576000806124b96106c0600985611b16565b9150915060006124c98383611b34565b6001600160801b03161115612507576000806124e784848b8b612e25565b90925090506124f68783611d54565b96506125028682611d54565b955050505b5050600101612497565b509250929050565b60088054919091039055565b8060020b8260020b1261257f576040805162461bcd60e51b815260206004820152600360248201527f544c550000000000000000000000000000000000000000000000000000000000604482015290519081900360640190fd5b7ffffffffffffffffffffffffffffffffffffffffffffffffffffffffffff27618600283900b12156125f8576040805162461bcd60e51b815260206004820152600360248201527f544c4d0000000000000000000000000000000000000000000000000000000000604482015290519081900360640190fd5b620d89e8600282900b1315612654576040805162461bcd60e51b815260206004820152600360248201527f54554d0000000000000000000000000000000000000000000000000000000000604482015290519081900360640190fd5b7f000000000000000000000000000000000000000000000000000000000000000060020b8260020b8161268357fe5b0760020b156126d9576040805162461bcd60e51b815260206004820152600360248201527f544c460000000000000000000000000000000000000000000000000000000000604482015290519081900360640190fd5b7f000000000000000000000000000000000000000000000000000000000000000060020b8160020b8161270857fe5b0760020b1561275e576040805162461bcd60e51b815260206004820152600360248201527f5455460000000000000000000000000000000000000000000000000000000000604482015290519081900360640190fd5b5050565b6000611b228383613002565b60006127c3826040518060400160405280602081526020017f5361666545524332303a206c6f772d6c6576656c2063616c6c206661696c6564815250856001600160a01b031661304c9092919063ffffffff16565b8051909150156105c2578080602001905160208110156127e257600080fd5b50516105c25760405162461bcd60e51b815260040180806020018281038252602a8152602001806135b6602a913960400191505060405180910390fd5b815460009082106128615760405162461bcd60e51b815260040180806020018281038252602281526020018061354d6022913960400191505060405180910390fd5b82600001828154811061287057fe5b9060005260206000200154905092915050565b6000806000600160009054906101000a90046001600160a01b03166001600160a01b0316633850c7bd6040518163ffffffff1660e01b815260040160e06040518083038186803b1580156128d657600080fd5b505afa1580156128ea573d6000803e3d6000fd5b505050506040513d60e081101561290057600080fd5b5051905061292081612911886129f7565b61291a886129f7565b87613063565b9097909650945050505050565b600081815260018301602052604081205480156129e9578354600019808301919081019060009087908390811061296057fe5b906000526020600020015490508087600001848154811061297d57fe5b6000918252602080832090910192909255828152600189810190925260409020908401905586548790806129ad57fe5b60019003818190600052602060002001600090559055866001016000878152602001908152602001600020600090556001945050505050611a90565b6000915050611a90565b5490565b60008060008360020b12612a0e578260020b612a16565b8260020b6000035b9050620d89e8811115612a70576040805162461bcd60e51b815260206004820152600160248201527f5400000000000000000000000000000000000000000000000000000000000000604482015290519081900360640190fd5b600060018216612a9157700100000000000000000000000000000000612aa3565b6ffffcb933bd6fad37aa2d162d1a5940015b70ffffffffffffffffffffffffffffffffff1690506002821615612ad7576ffff97272373d413259a46990580e213a0260801c5b6004821615612af6576ffff2e50f5f656932ef12357cf3c7fdcc0260801c5b6008821615612b15576fffe5caca7e10e4e61c3624eaa0941cd00260801c5b6010821615612b34576fffcb9843d60f6159c9db58835c9266440260801c5b6020821615612b53576fff973b41fa98c081472e6896dfb254c00260801c5b6040821615612b72576fff2ea16466c96a3843ec78b326b528610260801c5b6080821615612b91576ffe5dee046a99a2a811c461f1969c30530260801c5b610100821615612bb1576ffcbe86c7900a88aedcffc83b479aa3a40260801c5b610200821615612bd1576ff987a7253ac413176f2b074cf7815e540260801c5b610400821615612bf1576ff3392b0822b70005940c7a398e4b70f30260801c5b610800821615612c11576fe7159475a2c29b7443b29c7fa6e889d90260801c5b611000821615612c31576fd097f3bdfd2022b8845ad8f792aa58250260801c5b612000821615612c51576fa9f746462d870fdf8a65dc1f90e061e50260801c5b614000821615612c71576f70d869a156d2a1b890bb3df62baf32f70260801c5b618000821615612c91576f31be135f97d08fd981231505542fcfa60260801c5b62010000821615612cb2576f09aa508b5b7a84e1c677de54f3e99bc90260801c5b62020000821615612cd2576e5d6af8dedb81196699c329225ee6040260801c5b62040000821615612cf1576d2216e584f5fa1ea926041bedfe980260801c5b62080000821615612d0e576b048a170391f7dc42444e8fa20260801c5b60008460020b1315612d29578060001981612d2557fe5b0490505b640100000000810615612d3d576001612d40565b60005b60ff16602082901c0192505050919050565b6000836001600160a01b0316856001600160a01b03161115612d72579293925b846001600160a01b0316866001600160a01b031611612d9d57612d968585856130ff565b9050612e0d565b836001600160a01b0316866001600160a01b03161015612dff576000612dc48786866130ff565b90506000612dd387898661316b565b9050806001600160801b0316826001600160801b031610612df45780612df6565b815b92505050612e0d565b612e0a85858461316b565b90505b95945050505050565b600081831061248a5781611b22565b6000806000612e348787611b34565b90506000612e5a60075461138d88856001600160801b03166123ba90919063ffffffff16565b90508015612ff7576001546001600160a01b031663a34123a78989612e7e85611bf7565b6040518463ffffffff1660e01b8152600401808460020b81526020018360020b8152602001826001600160801b0316815260200193505050506040805180830381600087803b158015612ed057600080fd5b505af1158015612ee4573d6000803e3d6000fd5b505050506040513d6040811015612efa57600080fd5b508051602090910151909450925083151580612f165750600083115b15612ff7576001546001600160a01b0316634f1eb3d8868a8a612f3889611bf7565b612f4189611bf7565b6040518663ffffffff1660e01b815260040180866001600160a01b031681526020018560020b81526020018460020b8152602001836001600160801b03168152602001826001600160801b03168152602001955050505050506040805180830381600087803b158015612fb357600080fd5b505af1158015612fc7573d6000803e3d6000fd5b505050506040513d6040811015612fdd57600080fd5b5080516020909101516001600160801b0391821695501692505b505094509492505050565b600061300e83836131b1565b61304457508154600181810184556000848152602080822090930184905584548482528286019093526040902091909155611a90565b506000611a90565b606061305b84846000856131c9565b949350505050565b600080836001600160a01b0316856001600160a01b03161115613084579293925b846001600160a01b0316866001600160a01b0316116130af576130a8858585613342565b91506130f6565b836001600160a01b0316866001600160a01b031610156130e8576130d4868585613342565b91506130e18587856133ab565b90506130f6565b6130f38585856133ab565b90505b94509492505050565b6000826001600160a01b0316846001600160a01b0316111561311f579192915b600061314b856001600160a01b0316856001600160a01b03166c010000000000000000000000006133f3565b9050612e0d61316684838888036001600160a01b03166133f3565b611bf7565b6000826001600160a01b0316846001600160a01b0316111561318b579192915b61305b613166836c010000000000000000000000008787036001600160a01b03166133f3565b60009081526001919091016020526040902054151590565b60608247101561320a5760405162461bcd60e51b815260040180806020018281038252602681526020018061356f6026913960400191505060405180910390fd5b613213856134a2565b613264576040805162461bcd60e51b815260206004820152601d60248201527f416464726573733a2063616c6c20746f206e6f6e2d636f6e7472616374000000604482015290519081900360640190fd5b600080866001600160a01b031685876040518082805190602001908083835b602083106132c057805182527fffffffffffffffffffffffffffffffffffffffffffffffffffffffffffffffe09092019160209182019101613283565b6001836020036101000a03801982511681845116808217855250505050505090500191505060006040518083038185875af1925050503d8060008114613322576040519150601f19603f3d011682016040523d82523d6000602084013e613327565b606091505b50915091506133378282866134a8565b979650505050505050565b6000826001600160a01b0316846001600160a01b03161115613362579192915b836001600160a01b031661339b606060ff16846001600160801b0316901b8686036001600160a01b0316866001600160a01b03166133f3565b816133a257fe5b04949350505050565b6000826001600160a01b0316846001600160a01b031611156133cb579192915b61305b826001600160801b03168585036001600160a01b03166c010000000000000000000000005b6000808060001985870986860292508281109083900303905080613429576000841161341e57600080fd5b508290049050611b22565b80841161343557600080fd5b6000848688096000868103871696879004966002600389028118808a02820302808a02820302808a02820302808a02820302808a02820302808a02909103029181900381900460010186841190950394909402919094039290920491909117919091029150509392505050565b3b151590565b606083156134b7575081611b22565b8251156134c75782518084602001fd5b8160405162461bcd60e51b81526004018080602001828103825283818151815260200191508051906020019080838360005b838110156135115781810151838201526020016134f9565b50505050905090810190601f16801561353e5780820380516001836020036101000a031916815260200191505b509250505060405180910390fdfe456e756d657261626c655365743a20696e646578206f7574206f6620626f756e6473416464726573733a20696e73756666696369656e742062616c616e636520666f722063616c6c536166654d6174683a206d756c7469706c69636174696f6e206f766572666c6f775361666545524332303a204552433230206f7065726174696f6e20646964206e6f742073756363656564a164736f6c6343000706000aa164736f6c6343000706000a",
  "linkReferences": {},
  "deployedLinkReferences": {}
}