{
  "_format": "hh-sol-artifact-1",
  "contractName": "CHIManager",
  "sourceName": "contracts/CHIManager.sol",
  "abi": [
    {
      "anonymous": false,
      "inputs": [
        {
          "indexed": true,
          "internalType": "address",
          "name": "owner",
          "type": "address"
        },
        {
          "indexed": true,
          "internalType": "address",
          "name": "approved",
          "type": "address"
        },
        {
          "indexed": true,
          "internalType": "uint256",
          "name": "tokenId",
          "type": "uint256"
        }
      ],
      "name": "Approval",
      "type": "event"
    },
    {
      "anonymous": false,
      "inputs": [
        {
          "indexed": true,
          "internalType": "address",
          "name": "owner",
          "type": "address"
        },
        {
          "indexed": true,
          "internalType": "address",
          "name": "operator",
          "type": "address"
        },
        {
          "indexed": false,
          "internalType": "bool",
          "name": "approved",
          "type": "bool"
        }
      ],
      "name": "ApprovalForAll",
      "type": "event"
    },
    {
      "anonymous": false,
      "inputs": [
        {
          "indexed": false,
          "internalType": "uint256",
          "name": "tokenId",
          "type": "uint256"
        },
        {
          "indexed": false,
          "internalType": "address",
          "name": "pool",
          "type": "address"
        },
        {
          "indexed": false,
          "internalType": "address",
          "name": "vault",
          "type": "address"
        },
        {
          "indexed": false,
          "internalType": "uint256",
          "name": "vaultFee",
          "type": "uint256"
        }
      ],
      "name": "Create",
      "type": "event"
    },
    {
      "anonymous": false,
      "inputs": [
        {
          "indexed": true,
          "internalType": "address",
          "name": "from",
          "type": "address"
        },
        {
          "indexed": true,
          "internalType": "address",
          "name": "to",
          "type": "address"
        },
        {
          "indexed": true,
          "internalType": "uint256",
          "name": "tokenId",
          "type": "uint256"
        }
      ],
      "name": "Transfer",
      "type": "event"
    },
    {
      "inputs": [
        {
          "internalType": "contract IERC20",
          "name": "token0",
          "type": "address"
        },
        {
          "internalType": "uint256",
          "name": "amount0",
          "type": "uint256"
        },
        {
          "internalType": "contract IERC20",
          "name": "token1",
          "type": "address"
        },
        {
          "internalType": "uint256",
          "name": "amount1",
          "type": "uint256"
        }
      ],
      "name": "CHIDepositCallback",
      "outputs": [],
      "stateMutability": "nonpayable",
      "type": "function"
    },
    {
      "inputs": [
        {
          "internalType": "uint256",
          "name": "tokenId",
          "type": "uint256"
        },
        {
          "components": [
            {
              "internalType": "int24",
              "name": "tickLower",
              "type": "int24"
            },
            {
              "internalType": "int24",
              "name": "tickUpper",
              "type": "int24"
            }
          ],
          "internalType": "struct ICHIManager.RangeParams[]",
          "name": "addRanges",
          "type": "tuple[]"
        },
        {
          "components": [
            {
              "internalType": "int24",
              "name": "tickLower",
              "type": "int24"
            },
            {
              "internalType": "int24",
              "name": "tickUpper",
              "type": "int24"
            }
          ],
          "internalType": "struct ICHIManager.RangeParams[]",
          "name": "removeRanges",
          "type": "tuple[]"
        }
      ],
      "name": "addAndRemoveRanges",
      "outputs": [],
      "stateMutability": "nonpayable",
      "type": "function"
    },
    {
      "inputs": [
        {
          "internalType": "uint256",
          "name": "tokenId",
          "type": "uint256"
        },
        {
          "internalType": "uint256",
          "name": "amount0Total",
          "type": "uint256"
        },
        {
          "internalType": "uint256",
          "name": "amount1Total",
          "type": "uint256"
        }
      ],
      "name": "addLiquidityAllToPosition",
      "outputs": [],
      "stateMutability": "nonpayable",
      "type": "function"
    },
    {
      "inputs": [
        {
          "internalType": "uint256",
          "name": "tokenId",
          "type": "uint256"
        },
        {
          "internalType": "uint256",
          "name": "rangeIndex",
          "type": "uint256"
        },
        {
          "internalType": "uint256",
          "name": "amount0Desired",
          "type": "uint256"
        },
        {
          "internalType": "uint256",
          "name": "amount1Desired",
          "type": "uint256"
        }
      ],
      "name": "addLiquidityToPosition",
      "outputs": [],
      "stateMutability": "nonpayable",
      "type": "function"
    },
    {
      "inputs": [
        {
          "internalType": "uint256",
          "name": "tokenId",
          "type": "uint256"
        },
        {
          "internalType": "int24",
          "name": "tickLower",
          "type": "int24"
        },
        {
          "internalType": "int24",
          "name": "tickUpper",
          "type": "int24"
        }
      ],
      "name": "addRange",
      "outputs": [],
      "stateMutability": "nonpayable",
      "type": "function"
    },
    {
      "inputs": [
        {
          "internalType": "uint256",
          "name": "tokenId",
          "type": "uint256"
        },
        {
          "internalType": "uint256[]",
          "name": "percents",
          "type": "uint256[]"
        }
      ],
      "name": "addTickPercents",
      "outputs": [],
      "stateMutability": "nonpayable",
      "type": "function"
    },
    {
      "inputs": [
        {
          "internalType": "address",
          "name": "to",
          "type": "address"
        },
        {
          "internalType": "uint256",
          "name": "tokenId",
          "type": "uint256"
        }
      ],
      "name": "approve",
      "outputs": [],
      "stateMutability": "nonpayable",
      "type": "function"
    },
    {
      "inputs": [
        {
          "internalType": "uint256",
          "name": "tokenId",
          "type": "uint256"
        }
      ],
      "name": "archivedCHI",
      "outputs": [],
      "stateMutability": "nonpayable",
      "type": "function"
    },
    {
      "inputs": [
        {
          "internalType": "address",
          "name": "owner",
          "type": "address"
        }
      ],
      "name": "balanceOf",
      "outputs": [
        {
          "internalType": "uint256",
          "name": "",
          "type": "uint256"
        }
      ],
      "stateMutability": "view",
      "type": "function"
    },
    {
      "inputs": [],
      "name": "baseURI",
      "outputs": [
        {
          "internalType": "string",
          "name": "",
          "type": "string"
        }
      ],
      "stateMutability": "pure",
      "type": "function"
    },
    {
      "inputs": [
        {
          "internalType": "uint256",
          "name": "tokenId",
          "type": "uint256"
        }
      ],
      "name": "chi",
      "outputs": [
        {
          "internalType": "address",
          "name": "owner",
          "type": "address"
        },
        {
          "internalType": "address",
          "name": "operator",
          "type": "address"
        },
        {
          "internalType": "address",
          "name": "pool",
          "type": "address"
        },
        {
          "internalType": "address",
          "name": "vault",
          "type": "address"
        },
        {
          "internalType": "uint256",
          "name": "accruedProtocolFees0",
          "type": "uint256"
        },
        {
          "internalType": "uint256",
          "name": "accruedProtocolFees1",
          "type": "uint256"
        },
        {
          "internalType": "uint256",
          "name": "fee",
          "type": "uint256"
        },
        {
          "internalType": "uint256",
          "name": "totalShares",
          "type": "uint256"
        }
      ],
      "stateMutability": "view",
      "type": "function"
    },
    {
      "inputs": [
        {
          "internalType": "uint256",
          "name": "tokenId",
          "type": "uint256"
        },
        {
          "internalType": "uint256",
          "name": "amount0",
          "type": "uint256"
        },
        {
          "internalType": "uint256",
          "name": "amount1",
          "type": "uint256"
        },
        {
          "internalType": "address",
          "name": "to",
          "type": "address"
        }
      ],
      "name": "collectProtocol",
      "outputs": [],
      "stateMutability": "nonpayable",
      "type": "function"
    },
    {
      "inputs": [],
      "name": "deployer",
      "outputs": [
        {
          "internalType": "address",
          "name": "",
          "type": "address"
        }
      ],
      "stateMutability": "view",
      "type": "function"
    },
    {
      "inputs": [
        {
          "internalType": "uint256",
          "name": "tokenId",
          "type": "uint256"
        }
      ],
      "name": "getApproved",
      "outputs": [
        {
          "internalType": "address",
          "name": "",
          "type": "address"
        }
      ],
      "stateMutability": "view",
      "type": "function"
    },
    {
      "inputs": [
        {
          "internalType": "uint176",
          "name": "_initId",
          "type": "uint176"
        },
        {
          "internalType": "address",
          "name": "_v3Factory",
          "type": "address"
        },
        {
          "internalType": "address",
          "name": "_yangNFT",
          "type": "address"
        },
        {
          "internalType": "address",
          "name": "_deployer",
          "type": "address"
        },
        {
          "internalType": "bytes32",
          "name": "_merkleRoot",
          "type": "bytes32"
        },
        {
          "internalType": "uint256",
          "name": "_vaultFee_",
          "type": "uint256"
        }
      ],
      "name": "initialize",
      "outputs": [],
      "stateMutability": "nonpayable",
      "type": "function"
    },
    {
      "inputs": [
        {
          "internalType": "address",
          "name": "owner",
          "type": "address"
        },
        {
          "internalType": "address",
          "name": "operator",
          "type": "address"
        }
      ],
      "name": "isApprovedForAll",
      "outputs": [
        {
          "internalType": "bool",
          "name": "",
          "type": "bool"
        }
      ],
      "stateMutability": "view",
      "type": "function"
    },
    {
      "inputs": [],
      "name": "manager",
      "outputs": [
        {
          "internalType": "address",
          "name": "",
          "type": "address"
        }
      ],
      "stateMutability": "view",
      "type": "function"
    },
    {
      "inputs": [],
      "name": "merkleRoot",
      "outputs": [
        {
          "internalType": "bytes32",
          "name": "",
          "type": "bytes32"
        }
      ],
      "stateMutability": "view",
      "type": "function"
    },
    {
      "inputs": [
        {
          "components": [
            {
              "internalType": "address",
              "name": "recipient",
              "type": "address"
            },
            {
              "internalType": "address",
              "name": "token0",
              "type": "address"
            },
            {
              "internalType": "address",
              "name": "token1",
              "type": "address"
            },
            {
              "internalType": "uint24",
              "name": "fee",
              "type": "uint24"
            }
          ],
          "internalType": "struct ICHIManager.MintParams",
          "name": "params",
          "type": "tuple"
        },
        {
          "internalType": "bytes32[]",
          "name": "merkleProof",
          "type": "bytes32[]"
        }
      ],
      "name": "mint",
      "outputs": [
        {
          "internalType": "uint256",
          "name": "tokenId",
          "type": "uint256"
        },
        {
          "internalType": "address",
          "name": "vault",
          "type": "address"
        }
      ],
      "stateMutability": "nonpayable",
      "type": "function"
    },
    {
      "inputs": [],
      "name": "name",
      "outputs": [
        {
          "internalType": "string",
          "name": "",
          "type": "string"
        }
      ],
      "stateMutability": "view",
      "type": "function"
    },
    {
      "inputs": [
        {
          "internalType": "uint256",
          "name": "tokenId",
          "type": "uint256"
        }
      ],
      "name": "ownerOf",
      "outputs": [
        {
          "internalType": "address",
          "name": "",
          "type": "address"
        }
      ],
      "stateMutability": "view",
      "type": "function"
    },
    {
      "inputs": [
        {
          "internalType": "uint256",
          "name": "tokenId",
          "type": "uint256"
        }
      ],
      "name": "pausedCHI",
      "outputs": [],
      "stateMutability": "nonpayable",
      "type": "function"
    },
    {
      "inputs": [
        {
          "internalType": "bytes32",
          "name": "",
          "type": "bytes32"
        }
      ],
      "name": "positions",
      "outputs": [
        {
          "internalType": "uint256",
          "name": "shares",
          "type": "uint256"
        }
      ],
      "stateMutability": "view",
      "type": "function"
    },
    {
      "inputs": [
        {
          "internalType": "uint256",
          "name": "tokenId",
          "type": "uint256"
        },
        {
          "internalType": "uint256",
          "name": "rangeIndex",
          "type": "uint256"
        }
      ],
      "name": "removeAllLiquidityFromPosition",
      "outputs": [],
      "stateMutability": "nonpayable",
      "type": "function"
    },
    {
      "inputs": [
        {
          "internalType": "uint256",
          "name": "tokenId",
          "type": "uint256"
        },
        {
          "internalType": "uint256",
          "name": "rangeIndex",
          "type": "uint256"
        },
        {
          "internalType": "uint128",
          "name": "liquidity",
          "type": "uint128"
        }
      ],
      "name": "removeLiquidityFromPosition",
      "outputs": [],
      "stateMutability": "nonpayable",
      "type": "function"
    },
    {
      "inputs": [
        {
          "internalType": "uint256",
          "name": "tokenId",
          "type": "uint256"
        },
        {
          "internalType": "int24",
          "name": "tickLower",
          "type": "int24"
        },
        {
          "internalType": "int24",
          "name": "tickUpper",
          "type": "int24"
        }
      ],
      "name": "removeRange",
      "outputs": [],
      "stateMutability": "nonpayable",
      "type": "function"
    },
    {
      "inputs": [
        {
          "internalType": "address",
          "name": "from",
          "type": "address"
        },
        {
          "internalType": "address",
          "name": "to",
          "type": "address"
        },
        {
          "internalType": "uint256",
          "name": "tokenId",
          "type": "uint256"
        }
      ],
      "name": "safeTransferFrom",
      "outputs": [],
      "stateMutability": "nonpayable",
      "type": "function"
    },
    {
      "inputs": [
        {
          "internalType": "address",
          "name": "from",
          "type": "address"
        },
        {
          "internalType": "address",
          "name": "to",
          "type": "address"
        },
        {
          "internalType": "uint256",
          "name": "tokenId",
          "type": "uint256"
        },
        {
          "internalType": "bytes",
          "name": "_data",
          "type": "bytes"
        }
      ],
      "name": "safeTransferFrom",
      "outputs": [],
      "stateMutability": "nonpayable",
      "type": "function"
    },
    {
      "inputs": [
        {
          "internalType": "address",
          "name": "operator",
          "type": "address"
        },
        {
          "internalType": "bool",
          "name": "approved",
          "type": "bool"
        }
      ],
      "name": "setApprovalForAll",
      "outputs": [],
      "stateMutability": "nonpayable",
      "type": "function"
    },
    {
      "inputs": [
        {
          "internalType": "uint256",
          "name": "tokenId",
          "type": "uint256"
        }
      ],
      "name": "stateOfCHI",
      "outputs": [
        {
          "internalType": "bool",
          "name": "isPaused",
          "type": "bool"
        },
        {
          "internalType": "bool",
          "name": "isArchived",
          "type": "bool"
        }
      ],
      "stateMutability": "view",
      "type": "function"
    },
    {
      "inputs": [
        {
          "internalType": "uint256",
          "name": "yangId",
          "type": "uint256"
        },
        {
          "internalType": "uint256",
          "name": "tokenId",
          "type": "uint256"
        },
        {
          "internalType": "uint256",
          "name": "amount0Desired",
          "type": "uint256"
        },
        {
          "internalType": "uint256",
          "name": "amount1Desired",
          "type": "uint256"
        },
        {
          "internalType": "uint256",
          "name": "amount0Min",
          "type": "uint256"
        },
        {
          "internalType": "uint256",
          "name": "amount1Min",
          "type": "uint256"
        }
      ],
      "name": "subscribe",
      "outputs": [
        {
          "internalType": "uint256",
          "name": "shares",
          "type": "uint256"
        },
        {
          "internalType": "uint256",
          "name": "amount0",
          "type": "uint256"
        },
        {
          "internalType": "uint256",
          "name": "amount1",
          "type": "uint256"
        }
      ],
      "stateMutability": "nonpayable",
      "type": "function"
    },
    {
      "inputs": [
        {
          "internalType": "bytes4",
          "name": "interfaceId",
          "type": "bytes4"
        }
      ],
      "name": "supportsInterface",
      "outputs": [
        {
          "internalType": "bool",
          "name": "",
          "type": "bool"
        }
      ],
      "stateMutability": "view",
      "type": "function"
    },
    {
      "inputs": [],
      "name": "symbol",
      "outputs": [
        {
          "internalType": "string",
          "name": "",
          "type": "string"
        }
      ],
      "stateMutability": "view",
      "type": "function"
    },
    {
      "inputs": [
        {
          "internalType": "address",
          "name": "",
          "type": "address"
        },
        {
          "internalType": "uint256",
          "name": "",
          "type": "uint256"
        }
      ],
      "name": "tickPercents",
      "outputs": [
        {
          "internalType": "uint256",
          "name": "",
          "type": "uint256"
        }
      ],
      "stateMutability": "view",
      "type": "function"
    },
    {
      "inputs": [
        {
          "internalType": "uint256",
          "name": "index",
          "type": "uint256"
        }
      ],
      "name": "tokenByIndex",
      "outputs": [
        {
          "internalType": "uint256",
          "name": "",
          "type": "uint256"
        }
      ],
      "stateMutability": "view",
      "type": "function"
    },
    {
      "inputs": [
        {
          "internalType": "address",
          "name": "owner",
          "type": "address"
        },
        {
          "internalType": "uint256",
          "name": "index",
          "type": "uint256"
        }
      ],
      "name": "tokenOfOwnerByIndex",
      "outputs": [
        {
          "internalType": "uint256",
          "name": "",
          "type": "uint256"
        }
      ],
      "stateMutability": "view",
      "type": "function"
    },
    {
      "inputs": [
        {
          "internalType": "uint256",
          "name": "tokenId",
          "type": "uint256"
        }
      ],
      "name": "tokenURI",
      "outputs": [
        {
          "internalType": "string",
          "name": "",
          "type": "string"
        }
      ],
      "stateMutability": "view",
      "type": "function"
    },
    {
      "inputs": [],
      "name": "totalSupply",
      "outputs": [
        {
          "internalType": "uint256",
          "name": "",
          "type": "uint256"
        }
      ],
      "stateMutability": "view",
      "type": "function"
    },
    {
      "inputs": [
        {
          "internalType": "address",
          "name": "from",
          "type": "address"
        },
        {
          "internalType": "address",
          "name": "to",
          "type": "address"
        },
        {
          "internalType": "uint256",
          "name": "tokenId",
          "type": "uint256"
        }
      ],
      "name": "transferFrom",
      "outputs": [],
      "stateMutability": "nonpayable",
      "type": "function"
    },
    {
      "inputs": [
        {
          "internalType": "uint256",
          "name": "tokenId",
          "type": "uint256"
        }
      ],
      "name": "unpausedCHI",
      "outputs": [],
      "stateMutability": "nonpayable",
      "type": "function"
    },
    {
      "inputs": [
        {
          "internalType": "uint256",
          "name": "yangId",
          "type": "uint256"
        },
        {
          "internalType": "uint256",
          "name": "tokenId",
          "type": "uint256"
        },
        {
          "internalType": "uint256",
          "name": "shares",
          "type": "uint256"
        },
        {
          "internalType": "uint256",
          "name": "amount0Min",
          "type": "uint256"
        },
        {
          "internalType": "uint256",
          "name": "amount1Min",
          "type": "uint256"
        }
      ],
      "name": "unsubscribe",
      "outputs": [
        {
          "internalType": "uint256",
          "name": "amount0",
          "type": "uint256"
        },
        {
          "internalType": "uint256",
          "name": "amount1",
          "type": "uint256"
        }
      ],
      "stateMutability": "nonpayable",
      "type": "function"
    },
    {
      "inputs": [
        {
          "internalType": "bytes32",
          "name": "_merkleRoot",
          "type": "bytes32"
        }
      ],
      "name": "updateMerkleRoot",
      "outputs": [],
      "stateMutability": "nonpayable",
      "type": "function"
    },
    {
      "inputs": [
        {
          "internalType": "uint256",
          "name": "_vaultFee_",
          "type": "uint256"
        }
      ],
      "name": "updateVaultFee",
      "outputs": [],
      "stateMutability": "nonpayable",
      "type": "function"
    },
    {
      "inputs": [],
      "name": "v3Factory",
      "outputs": [
        {
          "internalType": "address",
          "name": "",
          "type": "address"
        }
      ],
      "stateMutability": "view",
      "type": "function"
    },
    {
      "inputs": [],
      "name": "yangNFT",
      "outputs": [
        {
          "internalType": "address",
          "name": "",
          "type": "address"
        }
      ],
      "stateMutability": "view",
      "type": "function"
    }
  ],
  "bytecode": "0x608060405234801561001057600080fd5b506149b9806100206000396000f3fe608060405234801561001057600080fd5b50600436106102ff5760003560e01c80635d87b6e41161019c578063b9decd66116100ee578063e4d2c9b511610097578063ec28fcac11610071578063ec28fcac1461063c578063ed1bbd0b1461065e578063f801deaa14610671576102ff565b8063e4d2c9b514610603578063e60e5c3114610616578063e985e9c514610629576102ff565b8063d5f39488116100c8578063d5f39488146105d5578063df84f84d146105dd578063e2c3350e146105f0576102ff565b8063b9decd6614610588578063c2108d1b146105af578063c87b56dd146105c2576102ff565b806370a082311161015057806395d89b411161012a57806395d89b411461055a578063a22cb46514610562578063b88d4fde14610575576102ff565b806370a082311461052c5780637b2834f51461053f5780637c887c5914610552576102ff565b806363e033f71161018157806363e033f7146104fe5780636c0360eb146105115780636dfee1b114610519576102ff565b80635d87b6e4146104d85780636352211e146104eb576102ff565b80632f745c59116102555780634783f0ef116102095780634f6ccce7116101e35780634f6ccce714610491578063514ea4bf146104a457806354cc59ba146104b7576102ff565b80634783f0ef14610463578063481c6a75146104765780634b57512d1461047e576102ff565b80634259ab441161023a5780634259ab441461042757806342842e0e1461042f57806346698e7514610442576102ff565b80632f745c59146103f357806338187e8514610406576102ff565b80630e082b74116102b757806323b872dd1161029157806323b872dd146103c557806325f368ae146103d85780632eb4a7ab146103eb576102ff565b80630e082b741461038a57806318160ddd1461039d57806321183386146103b2576102ff565b8063081812fc116102e8578063081812fc14610342578063095ea7b3146103625780630cb1ac8c14610377576102ff565b806301ffc9a71461030457806306fdde031461032d575b600080fd5b610317610312366004613d21565b610684565b604051610324919061427c565b60405180910390f35b6103356106bf565b60405161032491906142b6565b610355610350366004613d09565b610755565b60405161032491906141d2565b610375610370366004613cc2565b6107a1565b005b610375610385366004613d09565b610877565b610375610398366004614003565b610918565b6103a5610a22565b6040516103249190614299565b6103756103c0366004613d09565b610a33565b6103756103d3366004613b91565b610aae565b6103756103e63660046140a7565b610b05565b6103a5610c05565b6103a5610401366004613cc2565b610c0b565b610419610414366004613dc2565b610c36565b604051610324929190614668565b610355611027565b61037561043d366004613b91565b611036565b610455610450366004614118565b611051565b6040516103249291906141c4565b610375610471366004613d09565b611251565b610355611280565b61037561048c366004613f84565b61128f565b6103a561049f366004613d09565b61139f565b6103a56104b2366004613d09565b6113b5565b6104ca6104c5366004613d09565b6113c7565b604051610324929190614287565b6103756104e6366004613fbf565b6113f1565b6103556104f9366004613d09565b6114f8565b61037561050c36600461404f565b611520565b6103356117c5565b610375610527366004613f53565b6117ca565b6103a561053a366004613b21565b611968565b61037561054d366004613d09565b6119d0565b6103556119ff565b610335611a0e565b610375610570366004613c95565b611a6f565b610375610583366004613bd1565b611b74565b61059b610596366004613d09565b611bd2565b60405161032498979695949392919061420a565b6103756105bd3660046140e7565b611e43565b6103356105d0366004613d09565b611eef565b610355611f17565b6103756105eb366004613edc565b611f26565b6103756105fe366004613f84565b612135565b6103a5610611366004613cc2565b6121f5565b610375610624366004613e1a565b612212565b610317610637366004613b59565b6123c5565b61064f61064a366004614152565b6123f3565b604051610324939291906146e3565b61037561066c366004613d61565b6125f5565b61037561067f366004613d09565b61274e565b7fffffffff00000000000000000000000000000000000000000000000000000000811660009081526065602052604090205460ff165b919050565b609c8054604080516020601f600260001961010060018816150201909516949094049384018190048102820181019092528281526060939092909183018282801561074b5780601f106107205761010080835404028352916020019161074b565b820191906000526020600020905b81548152906001019060200180831161072e57829003601f168201915b5050505050905090565b6000610760826127e3565b6107855760405162461bcd60e51b815260040161077c906145d4565b60405180910390fd5b50600090815260cb60205260409020546001600160a01b031690565b60006107ac826114f8565b9050806001600160a01b0316836001600160a01b031614156107ff5760405162461bcd60e51b815260040180806020018281038252602181526020018061495b6021913960400191505060405180910390fd5b806001600160a01b03166108116127f0565b6001600160a01b0316148061082d575061082d816106376127f0565b6108685760405162461bcd60e51b81526004018080602001828103825260388152602001806148366038913960400191505060405180910390fd5b61087283836127f4565b505050565b600081815260cb6020526040902061088f338361286f565b806108a4575060cc546001600160a01b031633145b6108c05760405162461bcd60e51b815260040161077c906144f8565b6002810154600160a81b900460ff16156108ec5760405162461bcd60e51b815260040161077c906144c1565b60020180547fffffffffffffffffffffff00ffffffffffffffffffffffffffffffffffffffff16905550565b60cc546001600160a01b031633146109425760405162461bcd60e51b815260040161077c90614377565b600083815260cb602052604090206002810154600160a81b900460ff161561097c5760405162461bcd60e51b815260040161077c906143e5565b60028101546040517fd4da61850000000000000000000000000000000000000000000000000000000081526001600160a01b039091169063d4da6185906109c990869086906004016146a4565b6040805180830381600087803b1580156109e257600080fd5b505af11580156109f6573d6000803e3d6000fd5b505050506040513d601f19601f82011682018060405250810190610a1a9190613fe0565b505050505050565b6000610a2e6098612913565b905090565b600081815260cb60205260409020610a4b338361286f565b80610a60575060cc546001600160a01b031633145b610a7c5760405162461bcd60e51b815260040161077c906144f8565b60020180547fffffffffffffffffffffff00ffffffffffffffffffffffffffffffffffffffff16600160a01b17905550565b610abf610ab96127f0565b8261286f565b610afa5760405162461bcd60e51b815260040180806020018281038252603181526020018061497c6031913960400191505060405180910390fd5b61087283838361291e565b60cc546001600160a01b03163314610b2f5760405162461bcd60e51b815260040161077c90614377565b600084815260cb602052604090206002810154859190600160a01b900460ff1615610b6c5760405162461bcd60e51b815260040161077c90614309565b600086815260cb602052604090819020600281015491517f0430c13000000000000000000000000000000000000000000000000000000000815290916001600160a01b031690630430c13090610bca908990899089906004016146c4565b600060405180830381600087803b158015610be457600080fd5b505af1158015610bf8573d6000803e3d6000fd5b5050505050505050505050565b60d05481565b6001600160a01b0382166000908152609760205260408120610c2d9083612a6a565b90505b92915050565b6000808383600033604051602001610c4e9190614194565b604051602081830303815290604052805190602001209050610ca78383808060200260200160405190810160405280939291908181526020018383602002808284376000920191909152505060d0549150849050612a76565b610cc35760405162461bcd60e51b815260040161077c90614340565b60cd546000906001600160a01b0316631698ee82610ce760408c0160208d01613b21565b610cf760608d0160408e01613b21565b610d0760808e0160608f01613ea1565b6040518463ffffffff1660e01b8152600401610d2593929190614254565b60206040518083038186803b158015610d3d57600080fd5b505afa158015610d51573d6000803e3d6000fd5b505050506040513d601f19601f82011682018060405250810190610d759190613b3d565b90506001600160a01b038116610d9d5760405162461bcd60e51b815260040161077c90614453565b60cf5460d3546040517f58b4b7110000000000000000000000000000000000000000000000000000000081526001600160a01b03909216916358b4b71191610deb91859130916004016141e6565b602060405180830381600087803b158015610e0557600080fd5b505af1158015610e19573d6000803e3d6000fd5b505050506040513d601f19601f82011682018060405250810190610e3d9190613b3d565b9450610ea4610e4f60208b018b613b21565b60c980547fffffffffffffffffffff000000000000000000000000000000000000000000008116600175ffffffffffffffffffffffffffffffffffffffffffff92831690810190921617909155975087612b21565b6040805160c0810190915280610ebd60208c018c613b21565b6001600160a01b039081168252838116602080840191909152888216604080850191909152600060608086018290526080808701839052600160a09788018190528e845260cb8652928490208851815490881673ffffffffffffffffffffffffffffffffffffffff19918216178255958901519381018054948816948716949094179093558784015160029093018054928901519189015198909701511515600160b01b0260ff60b01b19981515600160a81b027fffffffffffffffffffff00ffffffffffffffffffffffffffffffffffffffffff921515600160a01b027fffffffffffffffffffffff00ffffffffffffffffffffffffffffffffffffffff959098169390961692909217929092169490941716919091179390931617905560d35490517ff03c0794e29ab9041701d90faa819fd394c96b5d374215f11d7dd03839606d5e9161101391899185918a919061467f565b60405180910390a150505050935093915050565b60ce546001600160a01b031681565b61087283838360405180602001604052806000815250611b74565b60ce5460009081906001600160a01b031633146110805760405162461bcd60e51b815260040161077c9061452f565b600260015414156110d8576040805162461bcd60e51b815260206004820152601f60248201527f5265656e7472616e637947756172643a207265656e7472616e742063616c6c00604482015290519081900360640190fd5b60026001819055600087815260cb6020526040902090810154600160a81b900460ff16156111185760405162461bcd60e51b815260040161077c906143e5565b6000888860405160200161112d9291906141c4565b60408051601f198184030181529181528151602092830120600081815260ca90935291208054919250908811156111765760405162461bcd60e51b815260040161077c9061448a565b600283015460ce546040517fd473a6540000000000000000000000000000000000000000000000000000000081526001600160a01b039283169263d473a654926111ce928f928e928e928e92909116906004016146f9565b6040805180830381600087803b1580156111e757600080fd5b505af11580156111fb573d6000803e3d6000fd5b505050506040513d601f19601f8201168201806040525081019061121f9190613fe0565b600084815260ca6020526040902054919650945061123d9089612c4f565b905550506001805590969095509350505050565b60cc546001600160a01b0316331461127b5760405162461bcd60e51b815260040161077c90614377565b60d055565b60cc546001600160a01b031681565b8261129a338261286f565b6112b65760405162461bcd60e51b815260040161077c906144f8565b600084815260cb602052604090206002810154859190600160a01b900460ff16156112f35760405162461bcd60e51b815260040161077c90614309565b600086815260cb602052604090819020600281015491517f5a64998b00000000000000000000000000000000000000000000000000000000815290916001600160a01b031690635a64998b9061134f90899089906004016142a2565b600060405180830381600087803b15801561136957600080fd5b505af115801561137d573d6000803e3d6000fd5b5050506002909101805460ff60b01b1916600160b01b17905550505050505050565b6000806113ad609884612cac565b509392505050565b60ca6020526000908152604090205481565b600090815260cb602052604090206002015460ff600160a01b8204811692600160a81b9092041690565b60cc546001600160a01b0316331461141b5760405162461bcd60e51b815260040161077c90614377565b600082815260cb602052604090206002810154600160a81b900460ff16156114555760405162461bcd60e51b815260040161077c906143e5565b60028101546040517f2106fa460000000000000000000000000000000000000000000000000000000081526001600160a01b0390911690632106fa46906114a0908590600401614299565b6040805180830381600087803b1580156114b957600080fd5b505af11580156114cd573d6000803e3d6000fd5b505050506040513d601f19601f820116820180604052508101906114f19190613fe0565b5050505050565b6000610c30826040518060600160405280602981526020016148986029913960989190612cca565b60cc546001600160a01b0316331461154a5760405162461bcd60e51b815260040161077c90614377565b600083815260cb602052604090206002810154849190600160a01b900460ff16156115875760405162461bcd60e51b815260040161077c90614309565b600085815260cb60209081526040808320600281015482517fb135a14500000000000000000000000000000000000000000000000000000000815292519194936001600160a01b039091169263b135a1459260048083019392829003018186803b1580156115f457600080fd5b505afa158015611608573d6000803e3d6000fd5b505050506040513d601f19601f8201168201806040525081019061162c9190613ec4565b6002830154909150600160b01b900460ff16156116e657600061164f8783612cd7565b9050600061165d8784612cd7565b905060005b838110156116de576002850154604051634ecebadf60e11b81526001600160a01b0390911690639d9d75be906116a0908490879087906004016146e3565b600060405180830381600087803b1580156116ba57600080fd5b505af11580156116ce573d6000803e3d6000fd5b5050600190920191506116629050565b5050506117bc565b60005b818110156117ba5760028301546001600160a01b0316600090815260d2602090815260408083208484529091528120549061172f60646117298b85612d3e565b90612cd7565b9050600061174260646117298b86612d3e565b6002870154604051634ecebadf60e11b81529192506001600160a01b031690639d9d75be90611779908790869086906004016146e3565b600060405180830381600087803b15801561179357600080fd5b505af11580156117a7573d6000803e3d6000fd5b5050600190950194506116e99350505050565b505b50505050505050565b606090565b826117d5338261286f565b6117f15760405162461bcd60e51b815260040161077c906144f8565b600084815260cb60209081526040808320600281015482517fb135a14500000000000000000000000000000000000000000000000000000000815292519194936001600160a01b039091169263b135a1459260048083019392829003018186803b15801561185e57600080fd5b505afa158015611872573d6000803e3d6000fd5b505050506040513d601f19601f820116820180604052508101906118969190613ec4565b90508381146118b75760405162461bcd60e51b815260040161077c90614631565b6000805b82811015611930578686828181106118cf57fe5b60028701546001600160a01b0316600090815260d2602090815260408083208784528252909120910292909201359091555061192687878381811061191057fe5b9050602002013583612d9790919063ffffffff16565b91506001016118bb565b5060648111156119525760405162461bcd60e51b815260040161077c9061459d565b5050600201805460ff60b01b1916905550505050565b60006001600160a01b0382166119af5760405162461bcd60e51b815260040180806020018281038252602a81526020018061486e602a913960400191505060405180910390fd5b6001600160a01b0382166000908152609760205260409020610c3090612913565b60cc546001600160a01b031633146119fa5760405162461bcd60e51b815260040161077c90614377565b60d355565b60cd546001600160a01b031681565b609d8054604080516020601f600260001961010060018816150201909516949094049384018190048102820181019092528281526060939092909183018282801561074b5780601f106107205761010080835404028352916020019161074b565b611a776127f0565b6001600160a01b0316826001600160a01b03161415611add576040805162461bcd60e51b815260206004820152601960248201527f4552433732313a20617070726f766520746f2063616c6c657200000000000000604482015290519081900360640190fd5b80609b6000611aea6127f0565b6001600160a01b03908116825260208083019390935260409182016000908120918716808252919093529120805460ff191692151592909217909155611b2e6127f0565b6001600160a01b03167f17307eab39ab6107e8899845ad3d59bd9653f200f220920489ca2b5937696c318360405180821515815260200191505060405180910390a35050565b611b85611b7f6127f0565b8361286f565b611bc05760405162461bcd60e51b815260040180806020018281038252603181526020018061497c6031913960400191505060405180910390fd5b611bcc84848484612df1565b50505050565b600081815260cb602052604081208190819081908190819081908190611bf78a6127e3565b611c135760405162461bcd60e51b815260040161077c90614566565b60028101546001600160a01b0316611c2a8b6114f8565b825460018401546002850154604080517feae989a200000000000000000000000000000000000000000000000000000000815290516001600160a01b0394851694938416939283169287169163eae989a2916004808301926020929190829003018186803b158015611c9b57600080fd5b505afa158015611caf573d6000803e3d6000fd5b505050506040513d601f19601f82011682018060405250810190611cd39190613ec4565b856001600160a01b031663a00fa77f6040518163ffffffff1660e01b815260040160206040518083038186803b158015611d0c57600080fd5b505afa158015611d20573d6000803e3d6000fd5b505050506040513d601f19601f82011682018060405250810190611d449190613ec4565b866001600160a01b031663b0e21e8a6040518163ffffffff1660e01b815260040160206040518083038186803b158015611d7d57600080fd5b505afa158015611d91573d6000803e3d6000fd5b505050506040513d601f19601f82011682018060405250810190611db59190613ec4565b876001600160a01b03166318160ddd6040518163ffffffff1660e01b815260040160206040518083038186803b158015611dee57600080fd5b505afa158015611e02573d6000803e3d6000fd5b505050506040513d601f19601f82011682018060405250810190611e269190613ec4565b995099509950995099509950995099505050919395975091939597565b60cc546001600160a01b03163314611e6d5760405162461bcd60e51b815260040161077c90614377565b600084815260cb602052604090206002810154859190600160a01b900460ff1615611eaa5760405162461bcd60e51b815260040161077c90614309565b600086815260cb60205260409081902060028101549151634ecebadf60e11b815290916001600160a01b031690639d9d75be90610bca908990899089906004016146e3565b6060611efa826127e3565b611f0357600080fd5b505060408051602081019091526000815290565b60cf546001600160a01b031681565b84611f31338261286f565b611f4d5760405162461bcd60e51b815260040161077c906144f8565b600086815260cb602052604090206002810154879190600160a01b900460ff1615611f8a5760405162461bcd60e51b815260040161077c90614309565b600088815260cb60205260408120905b878110156120565760028201546001600160a01b031663db4dcce48a8a84818110611fc157fe5b611fd79260206040909202019081019150613da8565b8b8b85818110611fe357fe5b9050604002016020016020810190611ffb9190613da8565b6040518363ffffffff1660e01b81526004016120189291906142a2565b600060405180830381600087803b15801561203257600080fd5b505af1158015612046573d6000803e3d6000fd5b505060019092019150611f9a9050565b5060005b858110156121165760028201546001600160a01b0316635a64998b88888481811061208157fe5b6120979260206040909202019081019150613da8565b8989858181106120a357fe5b90506040020160200160208101906120bb9190613da8565b6040518363ffffffff1660e01b81526004016120d89291906142a2565b600060405180830381600087803b1580156120f257600080fd5b505af1158015612106573d6000803e3d6000fd5b50506001909201915061205a9050565b50600201805460ff60b01b1916600160b01b1790555050505050505050565b82612140338261286f565b61215c5760405162461bcd60e51b815260040161077c906144f8565b600084815260cb602052604090206002810154859190600160a01b900460ff16156121995760405162461bcd60e51b815260040161077c90614309565b600086815260cb602052604090819020600281015491517fdb4dcce400000000000000000000000000000000000000000000000000000000815290916001600160a01b03169063db4dcce49061134f90899089906004016142a2565b60d260209081526000928352604080842090915290825290205481565b600054610100900460ff168061222b575061222b612e43565b80612239575060005460ff16155b6122745760405162461bcd60e51b815260040180806020018281038252602e8152602001806148c1602e913960400191505060405180910390fd5b600054610100900460ff1615801561229f576000805460ff1961ff0019909116610100171660011790555b60cc80543373ffffffffffffffffffffffffffffffffffffffff199182161790915560cd805482166001600160a01b038981169190911790915560ce8054831688831617905560cf805490921690861617905560d083905560c980547fffffffffffffffffffff000000000000000000000000000000000000000000001675ffffffffffffffffffffffffffffffffffffffffffff891617905560d382905560408051808201825260208082527f59494e20556e697377617020563320506f736974696f6e73204d616e61676572818301528251808401909352600383527f4348490000000000000000000000000000000000000000000000000000000000908301526123ab91612e54565b80156117bc576000805461ff001916905550505050505050565b6001600160a01b039182166000908152609b6020908152604080832093909416825291909152205460ff1690565b60ce54600090819081906001600160a01b031633146124245760405162461bcd60e51b815260040161077c9061452f565b60d1889055600088815260cb60205260409020600281015489918291600160a01b900460ff16156124675760405162461bcd60e51b815260040161077c90614309565b600260015414156124bf576040805162461bcd60e51b815260206004820152601f60248201527f5265656e7472616e637947756172643a207265656e7472616e742063616c6c00604482015290519081900360640190fd5b6002600181905550600060cb60008d815260200190815260200160002090508060020160009054906101000a90046001600160a01b03166001600160a01b031663bf02b5ea8e8d8d8d8d6040518663ffffffff1660e01b8152600401612529959493929190614725565b606060405180830381600087803b15801561254357600080fd5b505af1158015612557573d6000803e3d6000fd5b505050506040513d601f19601f8201168201806040525081019061257b919061407a565b6040519299509097509550600090612599908f908f906020016141c4565b60408051601f198184030181529181528151602092830120600081815260ca9093529120549091506125cb9089612d97565b600091825260ca60205260408220556001805560d15550949b939a50919850919650505050505050565b6125fe33612f11565b82156126a75760ce546040517f23b872dd0000000000000000000000000000000000000000000000000000000081526001600160a01b03868116926323b872dd926126539290911690339088906004016141e6565b602060405180830381600087803b15801561266d57600080fd5b505af1158015612681573d6000803e3d6000fd5b505050506040513d601f19601f820116820180604052508101906126a59190613ced565b505b8015611bcc5760ce546040517f23b872dd0000000000000000000000000000000000000000000000000000000081526001600160a01b03848116926323b872dd926126fc9290911690339086906004016141e6565b602060405180830381600087803b15801561271657600080fd5b505af115801561272a573d6000803e3d6000fd5b505050506040513d601f19601f820116820180604052508101906114f19190613ced565b60cc546001600160a01b031633146127785760405162461bcd60e51b815260040161077c90614377565b600081815260cb602052604090206002810154600160a01b900460ff166127b15760405162461bcd60e51b815260040161077c906143ae565b60020180547fffffffffffffffffffff00ffffffffffffffffffffffffffffffffffffffffff16600160a81b17905550565b6000610c30609883612f55565b3390565b600081815260cb60205260409020805473ffffffffffffffffffffffffffffffffffffffff19166001600160a01b0384169081179091558190612836826114f8565b6001600160a01b03167f8c5be1e5ebec7d5bd14f71427d1e84f3dd0314c0f7b2291e5b200ac8c7c3b92560405160405180910390a45050565b600061287a826127e3565b6128b55760405162461bcd60e51b815260040180806020018281038252602c81526020018061480a602c913960400191505060405180910390fd5b60006128c0836114f8565b9050806001600160a01b0316846001600160a01b031614806128fb5750836001600160a01b03166128f084610755565b6001600160a01b0316145b8061290b575061290b81856123c5565b949350505050565b6000610c3082612f61565b826001600160a01b0316612931826114f8565b6001600160a01b0316146129765760405162461bcd60e51b81526004018080602001828103825260298152602001806149326029913960400191505060405180910390fd5b6001600160a01b0382166129bb5760405162461bcd60e51b81526004018080602001828103825260248152602001806147c06024913960400191505060405180910390fd5b6129c6838383610872565b6129d16000826127f4565b6001600160a01b03831660009081526097602052604090206129f39082612f65565b506001600160a01b0382166000908152609760205260409020612a169082612f71565b50612a2360988284612f7d565b5080826001600160a01b0316846001600160a01b03167fddf252ad1be2c89b69c2b068fc378daa952ba7f163c4a11628f55a4df523b3ef60405160405180910390a4505050565b6000610c2d8383612f93565b600081815b8551811015612b14576000868281518110612a9257fe5b60200260200101519050808311612ad95782816040516020018083815260200182815260200192505050604051602081830303815290604052805190602001209250612b0b565b808360405160200180838152602001828152602001925050506040516020818303038152906040528051906020012092505b50600101612a7b565b50831490505b9392505050565b6001600160a01b038216612b7c576040805162461bcd60e51b815260206004820181905260248201527f4552433732313a206d696e7420746f20746865207a65726f2061646472657373604482015290519081900360640190fd5b612b85816127e3565b15612bd7576040805162461bcd60e51b815260206004820152601c60248201527f4552433732313a20746f6b656e20616c7265616479206d696e74656400000000604482015290519081900360640190fd5b612be360008383610872565b6001600160a01b0382166000908152609760205260409020612c059082612f71565b50612c1260988284612f7d565b5060405181906001600160a01b038416906000907fddf252ad1be2c89b69c2b068fc378daa952ba7f163c4a11628f55a4df523b3ef908290a45050565b600082821115612ca6576040805162461bcd60e51b815260206004820152601e60248201527f536166654d6174683a207375627472616374696f6e206f766572666c6f770000604482015290519081900360640190fd5b50900390565b6000808080612cbb8686612ff7565b909450925050505b9250929050565b600061290b848484613072565b6000808211612d2d576040805162461bcd60e51b815260206004820152601a60248201527f536166654d6174683a206469766973696f6e206279207a65726f000000000000604482015290519081900360640190fd5b818381612d3657fe5b049392505050565b600082612d4d57506000610c30565b82820282848281612d5a57fe5b0414610c2d5760405162461bcd60e51b81526004018080602001828103825260218152602001806149116021913960400191505060405180910390fd5b600082820183811015610c2d576040805162461bcd60e51b815260206004820152601b60248201527f536166654d6174683a206164646974696f6e206f766572666c6f770000000000604482015290519081900360640190fd5b612dfc84848461291e565b612e088484848461313c565b611bcc5760405162461bcd60e51b815260040180806020018281038252603281526020018061478e6032913960400191505060405180910390fd5b6000612e4e30613318565b15905090565b600054610100900460ff1680612e6d5750612e6d612e43565b80612e7b575060005460ff16155b612eb65760405162461bcd60e51b815260040180806020018281038252602e8152602001806148c1602e913960400191505060405180910390fd5b600054610100900460ff16158015612ee1576000805460ff1961ff0019909116610100171660011790555b612ee961331e565b612ef16133c0565b612efb8383613476565b8015610872576000805461ff0019169055505050565b60d154600090815260cb6020526040902060028101546001600160a01b03838116911614612f515760405162461bcd60e51b815260040161077c9061441c565b5050565b6000610c2d83836135a6565b5490565b6000610c2d83836135be565b6000610c2d8383613684565b600061290b84846001600160a01b0385166136ce565b81546000908210612fd55760405162461bcd60e51b815260040180806020018281038252602281526020018061476c6022913960400191505060405180910390fd5b826000018281548110612fe457fe5b9060005260206000200154905092915050565b81546000908190831061303b5760405162461bcd60e51b81526004018080602001828103825260228152602001806148ef6022913960400191505060405180910390fd5b600084600001848154811061304c57fe5b906000526020600020906002020190508060000154816001015492509250509250929050565b6000828152600184016020526040812054828161310d5760405162461bcd60e51b81526004018080602001828103825283818151815260200191508051906020019080838360005b838110156130d25781810151838201526020016130ba565b50505050905090810190601f1680156130ff5780820380516001836020036101000a031916815260200191505b509250505060405180910390fd5b5084600001600182038154811061312057fe5b9060005260206000209060020201600101549150509392505050565b6000613150846001600160a01b0316613318565b61315c5750600161290b565b60006132ad7f150b7a020000000000000000000000000000000000000000000000000000000061318a6127f0565b88878760405160240180856001600160a01b03168152602001846001600160a01b0316815260200183815260200180602001828103825283818151815260200191508051906020019080838360005b838110156131f15781810151838201526020016131d9565b50505050905090810190601f16801561321e5780820380516001836020036101000a031916815260200191505b5095505050505050604051602081830303815290604052907bffffffffffffffffffffffffffffffffffffffffffffffffffffffff19166020820180517bffffffffffffffffffffffffffffffffffffffffffffffffffffffff838183161783525050505060405180606001604052806032815260200161478e603291396001600160a01b0388169190613765565b905060008180602001905160208110156132c657600080fd5b50517fffffffff00000000000000000000000000000000000000000000000000000000167f150b7a02000000000000000000000000000000000000000000000000000000001492505050949350505050565b3b151590565b600054610100900460ff16806133375750613337612e43565b80613345575060005460ff16155b6133805760405162461bcd60e51b815260040180806020018281038252602e8152602001806148c1602e913960400191505060405180910390fd5b600054610100900460ff161580156133ab576000805460ff1961ff0019909116610100171660011790555b80156133bd576000805461ff00191690555b50565b600054610100900460ff16806133d957506133d9612e43565b806133e7575060005460ff16155b6134225760405162461bcd60e51b815260040180806020018281038252602e8152602001806148c1602e913960400191505060405180910390fd5b600054610100900460ff1615801561344d576000805460ff1961ff0019909116610100171660011790555b6133ab7f01ffc9a700000000000000000000000000000000000000000000000000000000613774565b600054610100900460ff168061348f575061348f612e43565b8061349d575060005460ff16155b6134d85760405162461bcd60e51b815260040180806020018281038252602e8152602001806148c1602e913960400191505060405180910390fd5b600054610100900460ff16158015613503576000805460ff1961ff0019909116610100171660011790555b825161351690609c9060208601906139e9565b50815161352a90609d9060208501906139e9565b506135547f80ac58cd00000000000000000000000000000000000000000000000000000000613774565b61357d7f5b5e139f00000000000000000000000000000000000000000000000000000000613774565b612efb7f780e9d6300000000000000000000000000000000000000000000000000000000613774565b60009081526001919091016020526040902054151590565b6000818152600183016020526040812054801561367a57835460001980830191908101906000908790839081106135f157fe5b906000526020600020015490508087600001848154811061360e57fe5b60009182526020808320909101929092558281526001898101909252604090209084019055865487908061363e57fe5b60019003818190600052602060002001600090559055866001016000878152602001908152602001600020600090556001945050505050610c30565b6000915050610c30565b600061369083836135a6565b6136c657508154600181810184556000848152602080822090930184905584548482528286019093526040902091909155610c30565b506000610c30565b600082815260018401602052604081205480613733575050604080518082018252838152602080820184815286546001818101895560008981528481209551600290930290950191825591519082015586548684528188019092529290912055612b1a565b8285600001600183038154811061374657fe5b9060005260206000209060020201600101819055506000915050612b1a565b606061290b8484600085613828565b7fffffffff0000000000000000000000000000000000000000000000000000000080821614156137eb576040805162461bcd60e51b815260206004820152601c60248201527f4552433136353a20696e76616c696420696e7465726661636520696400000000604482015290519081900360640190fd5b7fffffffff00000000000000000000000000000000000000000000000000000000166000908152606560205260409020805460ff19166001179055565b6060824710156138695760405162461bcd60e51b81526004018080602001828103825260268152602001806147e46026913960400191505060405180910390fd5b61387285613318565b6138c3576040805162461bcd60e51b815260206004820152601d60248201527f416464726573733a2063616c6c20746f206e6f6e2d636f6e7472616374000000604482015290519081900360640190fd5b600080866001600160a01b031685876040518082805190602001908083835b602083106139015780518252601f1990920191602091820191016138e2565b6001836020036101000a03801982511681845116808217855250505050505090500191505060006040518083038185875af1925050503d8060008114613963576040519150601f19603f3d011682016040523d82523d6000602084013e613968565b606091505b5091509150613978828286613983565b979650505050505050565b60608315613992575081612b1a565b8251156139a25782518084602001fd5b60405162461bcd60e51b81526020600482018181528451602484015284518593919283926044019190850190808383600083156130d25781810151838201526020016130ba565b828054600181600116156101000203166002900490600052602060002090601f016020900481019282613a1f5760008555613a65565b82601f10613a3857805160ff1916838001178555613a65565b82800160010185558215613a65579182015b82811115613a65578251825591602001919060010190613a4a565b50613a71929150613a75565b5090565b5b80821115613a715760008155600101613a76565b60008083601f840112613a9b578081fd5b50813567ffffffffffffffff811115613ab2578182fd5b6020830191508360208083028501011115612cc357600080fd5b60008083601f840112613add578182fd5b50813567ffffffffffffffff811115613af4578182fd5b602083019150836020604083028501011115612cc357600080fd5b8035600281900b81146106ba57600080fd5b600060208284031215613b32578081fd5b8135610c2d81614748565b600060208284031215613b4e578081fd5b8151610c2d81614748565b60008060408385031215613b6b578081fd5b8235613b7681614748565b91506020830135613b8681614748565b809150509250929050565b600080600060608486031215613ba5578081fd5b8335613bb081614748565b92506020840135613bc081614748565b929592945050506040919091013590565b60008060008060808587031215613be6578081fd5b8435613bf181614748565b9350602085810135613c0281614748565b935060408601359250606086013567ffffffffffffffff80821115613c25578384fd5b818801915088601f830112613c38578384fd5b813581811115613c4457fe5b60405184601f19601f8401168201018181108482111715613c6157fe5b60405281815283820185018b1015613c77578586fd5b81858501868301379081019093019390935250939692955090935050565b60008060408385031215613ca7578182fd5b8235613cb281614748565b91506020830135613b868161475d565b60008060408385031215613cd4578182fd5b8235613cdf81614748565b946020939093013593505050565b600060208284031215613cfe578081fd5b8151610c2d8161475d565b600060208284031215613d1a578081fd5b5035919050565b600060208284031215613d32578081fd5b81357fffffffff0000000000000000000000000000000000000000000000000000000081168114610c2d578182fd5b60008060008060808587031215613d76578182fd5b8435613d8181614748565b9350602085013592506040850135613d9881614748565b9396929550929360600135925050565b600060208284031215613db9578081fd5b610c2d82613b0f565b600080600083850360a0811215613dd7578182fd5b6080811215613de4578182fd5b50839250608084013567ffffffffffffffff811115613e01578182fd5b613e0d86828701613a8a565b9497909650939450505050565b60008060008060008060c08789031215613e32578384fd5b863575ffffffffffffffffffffffffffffffffffffffffffff81168114613e57578485fd5b95506020870135613e6781614748565b94506040870135613e7781614748565b93506060870135613e8781614748565b9598949750929560808101359460a0909101359350915050565b600060208284031215613eb2578081fd5b813562ffffff81168114610c2d578182fd5b600060208284031215613ed5578081fd5b5051919050565b600080600080600060608688031215613ef3578283fd5b85359450602086013567ffffffffffffffff80821115613f11578485fd5b613f1d89838a01613acc565b90965094506040880135915080821115613f35578283fd5b50613f4288828901613acc565b969995985093965092949392505050565b600080600060408486031215613f67578081fd5b83359250602084013567ffffffffffffffff811115613e01578182fd5b600080600060608486031215613f98578081fd5b83359250613fa860208501613b0f565b9150613fb660408501613b0f565b90509250925092565b60008060408385031215613fd1578182fd5b50508035926020909101359150565b60008060408385031215613ff2578182fd5b505080516020909101519092909150565b600080600060608486031215614017578081fd5b833592506020840135915060408401356fffffffffffffffffffffffffffffffff81168114614044578182fd5b809150509250925092565b600080600060608486031215614063578081fd5b505081359360208301359350604090920135919050565b60008060006060848603121561408e578081fd5b8351925060208401519150604084015190509250925092565b600080600080608085870312156140bc578182fd5b84359350602085013592506040850135915060608501356140dc81614748565b939692955090935050565b600080600080608085870312156140fc578182fd5b5050823594602084013594506040840135936060013592509050565b600080600080600060a0868803121561412f578283fd5b505083359560208501359550604085013594606081013594506080013592509050565b60008060008060008060c0878903121561416a578384fd5b505084359660208601359650604086013595606081013595506080810135945060a0013592509050565b60609190911b7fffffffffffffffffffffffffffffffffffffffff00000000000000000000000016815260140190565b918252602082015260400190565b6001600160a01b0391909116815260200190565b6001600160a01b039384168152919092166020820152604081019190915260600190565b6001600160a01b03988916815296881660208801529487166040870152929095166060850152608084015260a083019390935260c082019290925260e08101919091526101000190565b6001600160a01b03938416815291909216602082015262ffffff909116604082015260600190565b901515815260200190565b91151582521515602082015260400190565b90815260200190565b600292830b8152910b602082015260400190565b6000602080835283518082850152825b818110156142e2578581018301518582016040015282016142c6565b818111156142f35783604083870101525b50601f01601f1916929092016040019392505050565b6020808252600a908201527f4348492050617573656400000000000000000000000000000000000000000000604082015260600190565b60208082526009908201527f6f6e6c7920676f76730000000000000000000000000000000000000000000000604082015260600190565b60208082526007908201527f6d616e6167657200000000000000000000000000000000000000000000000000604082015260600190565b6020808252600a908201527f4e6f742050617573656400000000000000000000000000000000000000000000604082015260600190565b6020808252600c908201527f4348492041726368697665640000000000000000000000000000000000000000604082015260600190565b6020808252600d908201527f63616c6c6261636b206661696c00000000000000000000000000000000000000604082015260600190565b60208082526011908201527f4e6f6e2d6578697374656e7420706f6f6c000000000000000000000000000000604082015260600190565b60208082526001908201527f7300000000000000000000000000000000000000000000000000000000000000604082015260600190565b6020808252600c908201527f4348492061726368697665640000000000000000000000000000000000000000604082015260600190565b6020808252600c908201527f4e6f7420617070726f7665640000000000000000000000000000000000000000604082015260600190565b60208082526001908201527f7900000000000000000000000000000000000000000000000000000000000000604082015260600190565b60208082526010908201527f496e76616c696420746f6b656e20494400000000000000000000000000000000604082015260600190565b60208082526012908201527f457863656564206d61782070657263656e740000000000000000000000000000604082015260600190565b60208082526037908201527f4552433732315570677261646561626c653a20617070726f766564207175657260408201527f7920666f72206e6f6e6578697374656e7420746f6b656e000000000000000000606082015260800190565b60208082526010908201527f496e76616c69642070657263656e747300000000000000000000000000000000604082015260600190565b9182526001600160a01b0316602082015260400190565b9384526001600160a01b03928316602085015291166040830152606082015260800190565b9182526fffffffffffffffffffffffffffffffff16602082015260400190565b92835260208301919091526001600160a01b0316604082015260600190565b9283526020830191909152604082015260600190565b9485526020850193909352604084019190915260608301526001600160a01b0316608082015260a00190565b948552602085019390935260408401919091526060830152608082015260a00190565b6001600160a01b03811681146133bd57600080fd5b80151581146133bd57600080fdfe456e756d657261626c655365743a20696e646578206f7574206f6620626f756e64734552433732313a207472616e7366657220746f206e6f6e20455243373231526563656976657220696d706c656d656e7465724552433732313a207472616e7366657220746f20746865207a65726f2061646472657373416464726573733a20696e73756666696369656e742062616c616e636520666f722063616c6c4552433732313a206f70657261746f7220717565727920666f72206e6f6e6578697374656e7420746f6b656e4552433732313a20617070726f76652063616c6c6572206973206e6f74206f776e6572206e6f7220617070726f76656420666f7220616c6c4552433732313a2062616c616e636520717565727920666f7220746865207a65726f20616464726573734552433732313a206f776e657220717565727920666f72206e6f6e6578697374656e7420746f6b656e496e697469616c697a61626c653a20636f6e747261637420697320616c726561647920696e697469616c697a6564456e756d657261626c654d61703a20696e646578206f7574206f6620626f756e6473536166654d6174683a206d756c7469706c69636174696f6e206f766572666c6f774552433732313a207472616e73666572206f6620746f6b656e2074686174206973206e6f74206f776e4552433732313a20617070726f76616c20746f2063757272656e74206f776e65724552433732313a207472616e736665722063616c6c6572206973206e6f74206f776e6572206e6f7220617070726f766564a164736f6c6343000706000a",
  "linkReferences": {},
  "deployedLinkReferences": {}
}