{
  "_format": "hh-sol-artifact-1",
  "contractName": "CHIManager",
  "sourceName": "contracts/CHIManager.sol",
  "abi": [
    {
      "anonymous": false,
      "inputs": [
        {
          "indexed": true,
          "internalType": "address",
          "name": "owner",
          "type": "address"
        },
        {
          "indexed": true,
          "internalType": "address",
          "name": "approved",
          "type": "address"
        },
        {
          "indexed": true,
          "internalType": "uint256",
          "name": "tokenId",
          "type": "uint256"
        }
      ],
      "name": "Approval",
      "type": "event"
    },
    {
      "anonymous": false,
      "inputs": [
        {
          "indexed": true,
          "internalType": "address",
          "name": "owner",
          "type": "address"
        },
        {
          "indexed": true,
          "internalType": "address",
          "name": "operator",
          "type": "address"
        },
        {
          "indexed": false,
          "internalType": "bool",
          "name": "approved",
          "type": "bool"
        }
      ],
      "name": "ApprovalForAll",
      "type": "event"
    },
    {
      "anonymous": false,
      "inputs": [
        {
          "indexed": false,
          "internalType": "uint256",
          "name": "tokenId",
          "type": "uint256"
        },
        {
          "indexed": false,
          "internalType": "address",
          "name": "pool",
          "type": "address"
        },
        {
          "indexed": false,
          "internalType": "address",
          "name": "vault",
          "type": "address"
        },
        {
          "indexed": false,
          "internalType": "uint256",
          "name": "vaultFee",
          "type": "uint256"
        }
      ],
      "name": "Create",
      "type": "event"
    },
    {
      "anonymous": false,
      "inputs": [
        {
          "indexed": true,
          "internalType": "address",
          "name": "from",
          "type": "address"
        },
        {
          "indexed": true,
          "internalType": "address",
          "name": "to",
          "type": "address"
        },
        {
          "indexed": true,
          "internalType": "uint256",
          "name": "tokenId",
          "type": "uint256"
        }
      ],
      "name": "Transfer",
      "type": "event"
    },
    {
      "inputs": [
        {
          "internalType": "contract IERC20",
          "name": "token0",
          "type": "address"
        },
        {
          "internalType": "uint256",
          "name": "amount0",
          "type": "uint256"
        },
        {
          "internalType": "contract IERC20",
          "name": "token1",
          "type": "address"
        },
        {
          "internalType": "uint256",
          "name": "amount1",
          "type": "uint256"
        }
      ],
      "name": "CHIDepositCallback",
      "outputs": [],
      "stateMutability": "nonpayable",
      "type": "function"
    },
    {
      "inputs": [
        {
          "internalType": "uint256",
          "name": "tokenId",
          "type": "uint256"
        },
        {
          "components": [
            {
              "internalType": "int24",
              "name": "tickLower",
              "type": "int24"
            },
            {
              "internalType": "int24",
              "name": "tickUpper",
              "type": "int24"
            }
          ],
          "internalType": "struct ICHIManager.RangeParams[]",
          "name": "addRanges",
          "type": "tuple[]"
        },
        {
          "components": [
            {
              "internalType": "int24",
              "name": "tickLower",
              "type": "int24"
            },
            {
              "internalType": "int24",
              "name": "tickUpper",
              "type": "int24"
            }
          ],
          "internalType": "struct ICHIManager.RangeParams[]",
          "name": "removeRanges",
          "type": "tuple[]"
        }
      ],
      "name": "addAndRemoveRanges",
      "outputs": [],
      "stateMutability": "nonpayable",
      "type": "function"
    },
    {
      "inputs": [
        {
          "internalType": "uint256",
          "name": "tokenId",
          "type": "uint256"
        },
        {
          "internalType": "uint256",
          "name": "amount0Total",
          "type": "uint256"
        },
        {
          "internalType": "uint256",
          "name": "amount1Total",
          "type": "uint256"
        }
      ],
      "name": "addLiquidityAllToPosition",
      "outputs": [],
      "stateMutability": "nonpayable",
      "type": "function"
    },
    {
      "inputs": [
        {
          "internalType": "uint256",
          "name": "tokenId",
          "type": "uint256"
        },
        {
          "internalType": "uint256",
          "name": "rangeIndex",
          "type": "uint256"
        },
        {
          "internalType": "uint256",
          "name": "amount0Desired",
          "type": "uint256"
        },
        {
          "internalType": "uint256",
          "name": "amount1Desired",
          "type": "uint256"
        }
      ],
      "name": "addLiquidityToPosition",
      "outputs": [],
      "stateMutability": "nonpayable",
      "type": "function"
    },
    {
      "inputs": [
        {
          "internalType": "uint256",
          "name": "tokenId",
          "type": "uint256"
        },
        {
          "internalType": "int24",
          "name": "tickLower",
          "type": "int24"
        },
        {
          "internalType": "int24",
          "name": "tickUpper",
          "type": "int24"
        }
      ],
      "name": "addRange",
      "outputs": [],
      "stateMutability": "nonpayable",
      "type": "function"
    },
    {
      "inputs": [
        {
          "internalType": "uint256",
          "name": "tokenId",
          "type": "uint256"
        },
        {
          "internalType": "uint256[]",
          "name": "percents",
          "type": "uint256[]"
        }
      ],
      "name": "addTickPercents",
      "outputs": [],
      "stateMutability": "nonpayable",
      "type": "function"
    },
    {
      "inputs": [
        {
          "internalType": "address",
          "name": "to",
          "type": "address"
        },
        {
          "internalType": "uint256",
          "name": "tokenId",
          "type": "uint256"
        }
      ],
      "name": "approve",
      "outputs": [],
      "stateMutability": "nonpayable",
      "type": "function"
    },
    {
      "inputs": [
        {
          "internalType": "uint256",
          "name": "tokenId",
          "type": "uint256"
        }
      ],
      "name": "archivedCHI",
      "outputs": [],
      "stateMutability": "nonpayable",
      "type": "function"
    },
    {
      "inputs": [
        {
          "internalType": "address",
          "name": "owner",
          "type": "address"
        }
      ],
      "name": "balanceOf",
      "outputs": [
        {
          "internalType": "uint256",
          "name": "",
          "type": "uint256"
        }
      ],
      "stateMutability": "view",
      "type": "function"
    },
    {
      "inputs": [],
      "name": "baseURI",
      "outputs": [
        {
          "internalType": "string",
          "name": "",
          "type": "string"
        }
      ],
      "stateMutability": "pure",
      "type": "function"
    },
    {
      "inputs": [
        {
          "internalType": "uint256",
          "name": "tokenId",
          "type": "uint256"
        }
      ],
      "name": "chi",
      "outputs": [
        {
          "internalType": "address",
          "name": "owner",
          "type": "address"
        },
        {
          "internalType": "address",
          "name": "operator",
          "type": "address"
        },
        {
          "internalType": "address",
          "name": "pool",
          "type": "address"
        },
        {
          "internalType": "address",
          "name": "vault",
          "type": "address"
        },
        {
          "internalType": "uint256",
          "name": "accruedProtocolFees0",
          "type": "uint256"
        },
        {
          "internalType": "uint256",
          "name": "accruedProtocolFees1",
          "type": "uint256"
        },
        {
          "internalType": "uint256",
          "name": "fee",
          "type": "uint256"
        },
        {
          "internalType": "uint256",
          "name": "totalShares",
          "type": "uint256"
        }
      ],
      "stateMutability": "view",
      "type": "function"
    },
    {
      "inputs": [
        {
          "internalType": "uint256",
          "name": "tokenId",
          "type": "uint256"
        },
        {
          "internalType": "uint256",
          "name": "amount0",
          "type": "uint256"
        },
        {
          "internalType": "uint256",
          "name": "amount1",
          "type": "uint256"
        },
        {
          "internalType": "address",
          "name": "to",
          "type": "address"
        }
      ],
      "name": "collectProtocol",
      "outputs": [],
      "stateMutability": "nonpayable",
      "type": "function"
    },
    {
      "inputs": [],
      "name": "deployer",
      "outputs": [
        {
          "internalType": "address",
          "name": "",
          "type": "address"
        }
      ],
      "stateMutability": "view",
      "type": "function"
    },
    {
      "inputs": [
        {
          "internalType": "uint256",
          "name": "tokenId",
          "type": "uint256"
        },
        {
          "internalType": "int24",
          "name": "tickLower",
          "type": "int24"
        },
        {
          "internalType": "int24",
          "name": "tickUpper",
          "type": "int24"
        },
        {
          "internalType": "bytes32[]",
          "name": "merkleProof",
          "type": "bytes32[]"
        }
      ],
      "name": "emergencyBurn",
      "outputs": [],
      "stateMutability": "nonpayable",
      "type": "function"
    },
    {
      "inputs": [
        {
          "internalType": "uint256",
          "name": "tokenId",
          "type": "uint256"
        }
      ],
      "name": "getApproved",
      "outputs": [
        {
          "internalType": "address",
          "name": "",
          "type": "address"
        }
      ],
      "stateMutability": "view",
      "type": "function"
    },
    {
      "inputs": [
        {
          "internalType": "bytes32",
          "name": "_merkleRoot",
          "type": "bytes32"
        },
        {
          "internalType": "uint176",
          "name": "_initId",
          "type": "uint176"
        },
        {
          "internalType": "uint256",
          "name": "_vaultFee",
          "type": "uint256"
        },
        {
          "internalType": "address",
          "name": "_v3Factory",
          "type": "address"
        },
        {
          "internalType": "address",
          "name": "_yangNFT",
          "type": "address"
        },
        {
          "internalType": "address",
          "name": "_deployer",
          "type": "address"
        },
        {
          "internalType": "address",
          "name": "_manager",
          "type": "address"
        }
      ],
      "name": "initialize",
      "outputs": [],
      "stateMutability": "nonpayable",
      "type": "function"
    },
    {
      "inputs": [
        {
          "internalType": "address",
          "name": "owner",
          "type": "address"
        },
        {
          "internalType": "address",
          "name": "operator",
          "type": "address"
        }
      ],
      "name": "isApprovedForAll",
      "outputs": [
        {
          "internalType": "bool",
          "name": "",
          "type": "bool"
        }
      ],
      "stateMutability": "view",
      "type": "function"
    },
    {
      "inputs": [],
      "name": "manager",
      "outputs": [
        {
          "internalType": "address",
          "name": "",
          "type": "address"
        }
      ],
      "stateMutability": "view",
      "type": "function"
    },
    {
      "inputs": [],
      "name": "merkleRoot",
      "outputs": [
        {
          "internalType": "bytes32",
          "name": "",
          "type": "bytes32"
        }
      ],
      "stateMutability": "view",
      "type": "function"
    },
    {
      "inputs": [
        {
          "components": [
            {
              "internalType": "address",
              "name": "recipient",
              "type": "address"
            },
            {
              "internalType": "address",
              "name": "token0",
              "type": "address"
            },
            {
              "internalType": "address",
              "name": "token1",
              "type": "address"
            },
            {
              "internalType": "uint24",
              "name": "fee",
              "type": "uint24"
            }
          ],
          "internalType": "struct ICHIManager.MintParams",
          "name": "params",
          "type": "tuple"
        },
        {
          "internalType": "bytes32[]",
          "name": "merkleProof",
          "type": "bytes32[]"
        }
      ],
      "name": "mint",
      "outputs": [
        {
          "internalType": "uint256",
          "name": "tokenId",
          "type": "uint256"
        },
        {
          "internalType": "address",
          "name": "vault",
          "type": "address"
        }
      ],
      "stateMutability": "nonpayable",
      "type": "function"
    },
    {
      "inputs": [],
      "name": "name",
      "outputs": [
        {
          "internalType": "string",
          "name": "",
          "type": "string"
        }
      ],
      "stateMutability": "view",
      "type": "function"
    },
    {
      "inputs": [
        {
          "internalType": "uint256",
          "name": "tokenId",
          "type": "uint256"
        }
      ],
      "name": "ownerOf",
      "outputs": [
        {
          "internalType": "address",
          "name": "",
          "type": "address"
        }
      ],
      "stateMutability": "view",
      "type": "function"
    },
    {
      "inputs": [
        {
          "internalType": "uint256",
          "name": "tokenId",
          "type": "uint256"
        }
      ],
      "name": "pausedCHI",
      "outputs": [],
      "stateMutability": "nonpayable",
      "type": "function"
    },
    {
      "inputs": [
        {
          "internalType": "bytes32",
          "name": "",
          "type": "bytes32"
        }
      ],
      "name": "positions",
      "outputs": [
        {
          "internalType": "uint256",
          "name": "shares",
          "type": "uint256"
        }
      ],
      "stateMutability": "view",
      "type": "function"
    },
    {
      "inputs": [
        {
          "internalType": "uint256",
          "name": "tokenId",
          "type": "uint256"
        },
        {
          "internalType": "uint256",
          "name": "rangeIndex",
          "type": "uint256"
        }
      ],
      "name": "removeAllLiquidityFromPosition",
      "outputs": [],
      "stateMutability": "nonpayable",
      "type": "function"
    },
    {
      "inputs": [
        {
          "internalType": "uint256",
          "name": "tokenId",
          "type": "uint256"
        },
        {
          "internalType": "uint256",
          "name": "rangeIndex",
          "type": "uint256"
        },
        {
          "internalType": "uint128",
          "name": "liquidity",
          "type": "uint128"
        }
      ],
      "name": "removeLiquidityFromPosition",
      "outputs": [],
      "stateMutability": "nonpayable",
      "type": "function"
    },
    {
      "inputs": [
        {
          "internalType": "uint256",
          "name": "tokenId",
          "type": "uint256"
        },
        {
          "internalType": "int24",
          "name": "tickLower",
          "type": "int24"
        },
        {
          "internalType": "int24",
          "name": "tickUpper",
          "type": "int24"
        }
      ],
      "name": "removeRange",
      "outputs": [],
      "stateMutability": "nonpayable",
      "type": "function"
    },
    {
      "inputs": [
        {
          "internalType": "address",
          "name": "from",
          "type": "address"
        },
        {
          "internalType": "address",
          "name": "to",
          "type": "address"
        },
        {
          "internalType": "uint256",
          "name": "tokenId",
          "type": "uint256"
        }
      ],
      "name": "safeTransferFrom",
      "outputs": [],
      "stateMutability": "nonpayable",
      "type": "function"
    },
    {
      "inputs": [
        {
          "internalType": "address",
          "name": "from",
          "type": "address"
        },
        {
          "internalType": "address",
          "name": "to",
          "type": "address"
        },
        {
          "internalType": "uint256",
          "name": "tokenId",
          "type": "uint256"
        },
        {
          "internalType": "bytes",
          "name": "_data",
          "type": "bytes"
        }
      ],
      "name": "safeTransferFrom",
      "outputs": [],
      "stateMutability": "nonpayable",
      "type": "function"
    },
    {
      "inputs": [
        {
          "internalType": "address",
          "name": "operator",
          "type": "address"
        },
        {
          "internalType": "bool",
          "name": "approved",
          "type": "bool"
        }
      ],
      "name": "setApprovalForAll",
      "outputs": [],
      "stateMutability": "nonpayable",
      "type": "function"
    },
    {
      "inputs": [
        {
          "internalType": "uint256",
          "name": "tokenId",
          "type": "uint256"
        }
      ],
      "name": "stateOfCHI",
      "outputs": [
        {
          "internalType": "bool",
          "name": "isPaused",
          "type": "bool"
        },
        {
          "internalType": "bool",
          "name": "isArchived",
          "type": "bool"
        }
      ],
      "stateMutability": "view",
      "type": "function"
    },
    {
      "inputs": [
        {
          "internalType": "uint256",
          "name": "yangId",
          "type": "uint256"
        },
        {
          "internalType": "uint256",
          "name": "tokenId",
          "type": "uint256"
        },
        {
          "internalType": "uint256",
          "name": "amount0Desired",
          "type": "uint256"
        },
        {
          "internalType": "uint256",
          "name": "amount1Desired",
          "type": "uint256"
        },
        {
          "internalType": "uint256",
          "name": "amount0Min",
          "type": "uint256"
        },
        {
          "internalType": "uint256",
          "name": "amount1Min",
          "type": "uint256"
        }
      ],
      "name": "subscribe",
      "outputs": [
        {
          "internalType": "uint256",
          "name": "shares",
          "type": "uint256"
        },
        {
          "internalType": "uint256",
          "name": "amount0",
          "type": "uint256"
        },
        {
          "internalType": "uint256",
          "name": "amount1",
          "type": "uint256"
        }
      ],
      "stateMutability": "nonpayable",
      "type": "function"
    },
    {
      "inputs": [
        {
          "internalType": "bytes4",
          "name": "interfaceId",
          "type": "bytes4"
        }
      ],
      "name": "supportsInterface",
      "outputs": [
        {
          "internalType": "bool",
          "name": "",
          "type": "bool"
        }
      ],
      "stateMutability": "view",
      "type": "function"
    },
    {
      "inputs": [
        {
          "internalType": "uint256",
          "name": "tokenId",
          "type": "uint256"
        },
        {
          "internalType": "address",
          "name": "token",
          "type": "address"
        },
        {
          "internalType": "address",
          "name": "to",
          "type": "address"
        },
        {
          "internalType": "bytes32[]",
          "name": "merkleProof",
          "type": "bytes32[]"
        }
      ],
      "name": "sweep",
      "outputs": [],
      "stateMutability": "nonpayable",
      "type": "function"
    },
    {
      "inputs": [],
      "name": "symbol",
      "outputs": [
        {
          "internalType": "string",
          "name": "",
          "type": "string"
        }
      ],
      "stateMutability": "view",
      "type": "function"
    },
    {
      "inputs": [
        {
          "internalType": "address",
          "name": "",
          "type": "address"
        },
        {
          "internalType": "uint256",
          "name": "",
          "type": "uint256"
        }
      ],
      "name": "tickPercents",
      "outputs": [
        {
          "internalType": "uint256",
          "name": "",
          "type": "uint256"
        }
      ],
      "stateMutability": "view",
      "type": "function"
    },
    {
      "inputs": [
        {
          "internalType": "uint256",
          "name": "index",
          "type": "uint256"
        }
      ],
      "name": "tokenByIndex",
      "outputs": [
        {
          "internalType": "uint256",
          "name": "",
          "type": "uint256"
        }
      ],
      "stateMutability": "view",
      "type": "function"
    },
    {
      "inputs": [
        {
          "internalType": "address",
          "name": "owner",
          "type": "address"
        },
        {
          "internalType": "uint256",
          "name": "index",
          "type": "uint256"
        }
      ],
      "name": "tokenOfOwnerByIndex",
      "outputs": [
        {
          "internalType": "uint256",
          "name": "",
          "type": "uint256"
        }
      ],
      "stateMutability": "view",
      "type": "function"
    },
    {
      "inputs": [
        {
          "internalType": "uint256",
          "name": "tokenId",
          "type": "uint256"
        }
      ],
      "name": "tokenURI",
      "outputs": [
        {
          "internalType": "string",
          "name": "",
          "type": "string"
        }
      ],
      "stateMutability": "view",
      "type": "function"
    },
    {
      "inputs": [],
      "name": "totalSupply",
      "outputs": [
        {
          "internalType": "uint256",
          "name": "",
          "type": "uint256"
        }
      ],
      "stateMutability": "view",
      "type": "function"
    },
    {
      "inputs": [
        {
          "internalType": "address",
          "name": "from",
          "type": "address"
        },
        {
          "internalType": "address",
          "name": "to",
          "type": "address"
        },
        {
          "internalType": "uint256",
          "name": "tokenId",
          "type": "uint256"
        }
      ],
      "name": "transferFrom",
      "outputs": [],
      "stateMutability": "nonpayable",
      "type": "function"
    },
    {
      "inputs": [
        {
          "internalType": "uint256",
          "name": "tokenId",
          "type": "uint256"
        }
      ],
      "name": "unpausedCHI",
      "outputs": [],
      "stateMutability": "nonpayable",
      "type": "function"
    },
    {
      "inputs": [
        {
          "internalType": "uint256",
          "name": "yangId",
          "type": "uint256"
        },
        {
          "internalType": "uint256",
          "name": "tokenId",
          "type": "uint256"
        },
        {
          "internalType": "uint256",
          "name": "shares",
          "type": "uint256"
        },
        {
          "internalType": "uint256",
          "name": "amount0Min",
          "type": "uint256"
        },
        {
          "internalType": "uint256",
          "name": "amount1Min",
          "type": "uint256"
        }
      ],
      "name": "unsubscribe",
      "outputs": [
        {
          "internalType": "uint256",
          "name": "amount0",
          "type": "uint256"
        },
        {
          "internalType": "uint256",
          "name": "amount1",
          "type": "uint256"
        }
      ],
      "stateMutability": "nonpayable",
      "type": "function"
    },
    {
      "inputs": [
        {
          "internalType": "bytes32",
          "name": "_merkleRoot",
          "type": "bytes32"
        }
      ],
      "name": "updateMerkleRoot",
      "outputs": [],
      "stateMutability": "nonpayable",
      "type": "function"
    },
    {
      "inputs": [
        {
          "internalType": "uint256",
          "name": "_vaultFee",
          "type": "uint256"
        }
      ],
      "name": "updateVaultFee",
      "outputs": [],
      "stateMutability": "nonpayable",
      "type": "function"
    },
    {
      "inputs": [],
      "name": "v3Factory",
      "outputs": [
        {
          "internalType": "address",
          "name": "",
          "type": "address"
        }
      ],
      "stateMutability": "view",
      "type": "function"
    },
    {
      "inputs": [],
      "name": "vaultFee",
      "outputs": [
        {
          "internalType": "uint256",
          "name": "",
          "type": "uint256"
        }
      ],
      "stateMutability": "view",
      "type": "function"
    },
    {
      "inputs": [],
      "name": "yangNFT",
      "outputs": [
        {
          "internalType": "address",
          "name": "",
          "type": "address"
        }
      ],
      "stateMutability": "view",
      "type": "function"
    }
  ],
  "bytecode": "0x608060405234801561001057600080fd5b50614c76806100206000396000f3fe608060405234801561001057600080fd5b50600436106103205760003560e01c806354cc59ba116101a7578063b88d4fde116100ee578063e2c3350e11610097578063ec28fcac11610071578063ec28fcac1461068b578063ed1bbd0b146106ad578063f801deaa146106c057610320565b8063e2c3350e14610652578063e4d2c9b514610665578063e985e9c51461067857610320565b8063c87b56dd116100c8578063c87b56dd14610624578063d5f3948814610637578063df84f84d1461063f57610320565b8063b88d4fde146105d7578063b9decd66146105ea578063c2108d1b1461061157610320565b80636dfee1b1116101505780637c887c591161012a5780637c887c59146105b457806395d89b41146105bc578063a22cb465146105c457610320565b80636dfee1b11461057b57806370a082311461058e5780637b2834f5146105a157610320565b806363e033f71161018157806363e033f71461054d57806369e9acab146105605780636c0360eb1461057357610320565b806354cc59ba146105065780635d87b6e4146105275780636352211e1461053a57610320565b80632eb4a7ab1161026b57806346698e75116102145780634b57512d116101ee5780634b57512d146104cd5780634f6ccce7146104e0578063514ea4bf146104f357610320565b806346698e75146104915780634783f0ef146104b2578063481c6a75146104c557610320565b80633d3281db116102455780633d3281db146104635780634259ab441461047657806342842e0e1461047e57610320565b80632eb4a7ab146104275780632f745c591461042f57806338187e851461044257610320565b80630e082b74116102cd57806323b872dd116102a757806323b872dd146103ee57806325f368ae146104015780632cd6ae221461041457610320565b80630e082b74146103c057806318160ddd146103d357806321183386146103db57610320565b8063081812fc116102fe578063081812fc14610378578063095ea7b3146103985780630cb1ac8c146103ad57610320565b806301ac145b1461032557806301ffc9a71461034357806306fdde0314610363575b600080fd5b61032d6106d3565b60405161033a919061457c565b60405180910390f35b610356610351366004613fdc565b6106d9565b60405161033a919061455f565b61036b610714565b60405161033a9190614599565b61038b610386366004613f27565b6107aa565b60405161033a919061449b565b6103ab6103a6366004613ee0565b6107f6565b005b6103ab6103bb366004613f27565b6108cc565b6103ab6103ce3660046142cc565b61096d565b61032d610a77565b6103ab6103e9366004613f27565b610a88565b6103ab6103fc366004613daf565b610b03565b6103ab61040f366004614370565b610b5a565b6103ab610422366004614253565b610c5a565b61032d610d7d565b61032d61043d366004613ee0565b610d83565b61045561045036600461407d565b610dae565b60405161033a92919061494b565b6103ab610471366004614110565b61119f565b61038b611285565b6103ab61048c366004613daf565b611294565b6104a461049f3660046143e1565b6112af565b60405161033a92919061448d565b6103ab6104c0366004613f27565b6114af565b61038b6114de565b6103ab6104db366004614218565b6114ed565b61032d6104ee366004613f27565b6115fd565b61032d610501366004613f27565b611613565b610519610514366004613f27565b611625565b60405161033a92919061456a565b6103ab610535366004614288565b61164f565b61038b610548366004613f27565b611756565b6103ab61055b366004614318565b61177e565b6103ab61056e366004613f3f565b611a23565b61036b611bdb565b6103ab6105893660046141e7565b611be0565b61032d61059c366004613d3f565b611d7e565b6103ab6105af366004613f27565b611de6565b61038b611e15565b61036b611e24565b6103ab6105d2366004613eb3565b611e85565b6103ab6105e5366004613def565b611f8a565b6105fd6105f8366004613f27565b611fe8565b60405161033a9897969594939291906144ed565b6103ab61061f3660046143b0565b612259565b61036b610632366004613f27565b612305565b61038b61232d565b6103ab61064d366004614181565b61233c565b6103ab610660366004614218565b61254b565b61032d610673366004613ee0565b61260b565b610356610686366004613d77565b612628565b61069e61069936600461441b565b612656565b60405161033a939291906149c6565b6103ab6106bb36600461401c565b612858565b6103ab6106ce366004613f27565b6129b1565b60d15481565b7fffffffff00000000000000000000000000000000000000000000000000000000811660009081526065602052604090205460ff165b919050565b609c8054604080516020601f60026000196101006001881615020190951694909404938401819004810282018101909252828152606093909290918301828280156107a05780601f10610775576101008083540402835291602001916107a0565b820191906000526020600020905b81548152906001019060200180831161078357829003601f168201915b5050505050905090565b60006107b582612a46565b6107da5760405162461bcd60e51b81526004016107d1906148b7565b60405180910390fd5b50600090815260cb60205260409020546001600160a01b031690565b600061080182611756565b9050806001600160a01b0316836001600160a01b031614156108545760405162461bcd60e51b8152600401808060200182810382526021815260200180614c186021913960400191505060405180910390fd5b806001600160a01b0316610866612a53565b6001600160a01b03161480610882575061088281610686612a53565b6108bd5760405162461bcd60e51b8152600401808060200182810382526038815260200180614af36038913960400191505060405180910390fd5b6108c78383612a57565b505050565b600081815260cb602052604090206108e43383612ad2565b806108f9575060cc546001600160a01b031633145b6109155760405162461bcd60e51b81526004016107d1906147db565b6002810154600160a81b900460ff16156109415760405162461bcd60e51b81526004016107d1906147a4565b60020180547fffffffffffffffffffffff00ffffffffffffffffffffffffffffffffffffffff16905550565b60cc546001600160a01b031633146109975760405162461bcd60e51b81526004016107d19061465a565b600083815260cb602052604090206002810154600160a81b900460ff16156109d15760405162461bcd60e51b81526004016107d1906146c8565b60028101546040517fd4da61850000000000000000000000000000000000000000000000000000000081526001600160a01b039091169063d4da618590610a1e9086908690600401614987565b6040805180830381600087803b158015610a3757600080fd5b505af1158015610a4b573d6000803e3d6000fd5b505050506040513d601f19601f82011682018060405250810190610a6f91906142a9565b505050505050565b6000610a836098612b76565b905090565b600081815260cb60205260409020610aa03383612ad2565b80610ab5575060cc546001600160a01b031633145b610ad15760405162461bcd60e51b81526004016107d1906147db565b60020180547fffffffffffffffffffffff00ffffffffffffffffffffffffffffffffffffffff16600160a01b17905550565b610b14610b0e612a53565b82612ad2565b610b4f5760405162461bcd60e51b8152600401808060200182810382526031815260200180614c396031913960400191505060405180910390fd5b6108c7838383612b81565b60cc546001600160a01b03163314610b845760405162461bcd60e51b81526004016107d19061465a565b600084815260cb602052604090206002810154859190600160a01b900460ff1615610bc15760405162461bcd60e51b81526004016107d1906145ec565b600086815260cb602052604090819020600281015491517f0430c13000000000000000000000000000000000000000000000000000000000815290916001600160a01b031690630430c13090610c1f908990899089906004016149a7565b600060405180830381600087803b158015610c3957600080fd5b505af1158015610c4d573d6000803e3d6000fd5b5050505050505050505050565b8181600033604051602001610c6f919061445d565b604051602081830303815290604052805190602001209050610cc88383808060200260200160405190810160405280939291908181526020018383602002808284376000920191909152505060d0549150849050612ccd565b610ce45760405162461bcd60e51b81526004016107d190614623565b600088815260cb602052604090819020600281015491517fb9ad22b700000000000000000000000000000000000000000000000000000000815290916001600160a01b03169063b9ad22b790610d40908b908b90600401614585565b600060405180830381600087803b158015610d5a57600080fd5b505af1158015610d6e573d6000803e3d6000fd5b50505050505050505050505050565b60d05481565b6001600160a01b0382166000908152609760205260408120610da59083612d78565b90505b92915050565b6000808383600033604051602001610dc6919061445d565b604051602081830303815290604052805190602001209050610e1f8383808060200260200160405190810160405280939291908181526020018383602002808284376000920191909152505060d0549150849050612ccd565b610e3b5760405162461bcd60e51b81526004016107d190614623565b60cd546000906001600160a01b0316631698ee82610e5f60408c0160208d01613d3f565b610e6f60608d0160408e01613d3f565b610e7f60808e0160608f016140d5565b6040518463ffffffff1660e01b8152600401610e9d93929190614537565b60206040518083038186803b158015610eb557600080fd5b505afa158015610ec9573d6000803e3d6000fd5b505050506040513d601f19601f82011682018060405250810190610eed9190613d5b565b90506001600160a01b038116610f155760405162461bcd60e51b81526004016107d190614736565b60cf5460d1546040517f58b4b7110000000000000000000000000000000000000000000000000000000081526001600160a01b03909216916358b4b71191610f6391859130916004016144c9565b602060405180830381600087803b158015610f7d57600080fd5b505af1158015610f91573d6000803e3d6000fd5b505050506040513d601f19601f82011682018060405250810190610fb59190613d5b565b945061101c610fc760208b018b613d3f565b60c980547fffffffffffffffffffff000000000000000000000000000000000000000000008116600175ffffffffffffffffffffffffffffffffffffffffffff92831690810190921617909155975087612d84565b6040805160c081019091528061103560208c018c613d3f565b6001600160a01b039081168252838116602080840191909152888216604080850191909152600060608086018290526080808701839052600160a09788018190528e845260cb8652928490208851815490881673ffffffffffffffffffffffffffffffffffffffff19918216178255958901519381018054948816948716949094179093558784015160029093018054928901519189015198909701511515600160b01b0260ff60b01b19981515600160a81b027fffffffffffffffffffff00ffffffffffffffffffffffffffffffffffffffffff921515600160a01b027fffffffffffffffffffffff00ffffffffffffffffffffffffffffffffffffffff959098169390961692909217929092169490941716919091179390931617905560d15490517ff03c0794e29ab9041701d90faa819fd394c96b5d374215f11d7dd03839606d5e9161118b91899185918a9190614962565b60405180910390a150505050935093915050565b81816000336040516020016111b4919061445d565b60405160208183030381529060405280519060200120905061120d8383808060200260200160405190810160405280939291908181526020018383602002808284376000920191909152505060d0549150849050612ccd565b6112295760405162461bcd60e51b81526004016107d190614623565b600088815260cb602052604090819020600281015491517fb8dc491b00000000000000000000000000000000000000000000000000000000815290916001600160a01b03169063b8dc491b90610d40908b908b906004016144af565b60ce546001600160a01b031681565b6108c783838360405180602001604052806000815250611f8a565b60ce5460009081906001600160a01b031633146112de5760405162461bcd60e51b81526004016107d190614812565b60026001541415611336576040805162461bcd60e51b815260206004820152601f60248201527f5265656e7472616e637947756172643a207265656e7472616e742063616c6c00604482015290519081900360640190fd5b60026001819055600087815260cb6020526040902090810154600160a81b900460ff16156113765760405162461bcd60e51b81526004016107d1906146c8565b6000888860405160200161138b92919061448d565b60408051601f198184030181529181528151602092830120600081815260ca90935291208054919250908811156113d45760405162461bcd60e51b81526004016107d19061476d565b600283015460ce546040517fd473a6540000000000000000000000000000000000000000000000000000000081526001600160a01b039283169263d473a6549261142c928f928e928e928e92909116906004016149dc565b6040805180830381600087803b15801561144557600080fd5b505af1158015611459573d6000803e3d6000fd5b505050506040513d601f19601f8201168201806040525081019061147d91906142a9565b600084815260ca6020526040902054919650945061149b9089612eb2565b905550506001805590969095509350505050565b60cc546001600160a01b031633146114d95760405162461bcd60e51b81526004016107d19061465a565b60d055565b60cc546001600160a01b031681565b826114f83382612ad2565b6115145760405162461bcd60e51b81526004016107d1906147db565b600084815260cb602052604090206002810154859190600160a01b900460ff16156115515760405162461bcd60e51b81526004016107d1906145ec565b600086815260cb602052604090819020600281015491517f5a64998b00000000000000000000000000000000000000000000000000000000815290916001600160a01b031690635a64998b906115ad9089908990600401614585565b600060405180830381600087803b1580156115c757600080fd5b505af11580156115db573d6000803e3d6000fd5b5050506002909101805460ff60b01b1916600160b01b17905550505050505050565b60008061160b609884612f0f565b509392505050565b60ca6020526000908152604090205481565b600090815260cb602052604090206002015460ff600160a01b8204811692600160a81b9092041690565b60cc546001600160a01b031633146116795760405162461bcd60e51b81526004016107d19061465a565b600082815260cb602052604090206002810154600160a81b900460ff16156116b35760405162461bcd60e51b81526004016107d1906146c8565b60028101546040517f2106fa460000000000000000000000000000000000000000000000000000000081526001600160a01b0390911690632106fa46906116fe90859060040161457c565b6040805180830381600087803b15801561171757600080fd5b505af115801561172b573d6000803e3d6000fd5b505050506040513d601f19601f8201168201806040525081019061174f91906142a9565b5050505050565b6000610da882604051806060016040528060298152602001614b556029913960989190612f2d565b60cc546001600160a01b031633146117a85760405162461bcd60e51b81526004016107d19061465a565b600083815260cb602052604090206002810154849190600160a01b900460ff16156117e55760405162461bcd60e51b81526004016107d1906145ec565b600085815260cb60209081526040808320600281015482517fb135a14500000000000000000000000000000000000000000000000000000000815292519194936001600160a01b039091169263b135a1459260048083019392829003018186803b15801561185257600080fd5b505afa158015611866573d6000803e3d6000fd5b505050506040513d601f19601f8201168201806040525081019061188a91906140f8565b6002830154909150600160b01b900460ff16156119445760006118ad8783612f3a565b905060006118bb8784612f3a565b905060005b8381101561193c576002850154604051634ecebadf60e11b81526001600160a01b0390911690639d9d75be906118fe908490879087906004016149c6565b600060405180830381600087803b15801561191857600080fd5b505af115801561192c573d6000803e3d6000fd5b5050600190920191506118c09050565b505050611a1a565b60005b81811015611a185760028301546001600160a01b0316600090815260d2602090815260408083208484529091528120549061198d60646119878b85612fa1565b90612f3a565b905060006119a060646119878b86612fa1565b6002870154604051634ecebadf60e11b81529192506001600160a01b031690639d9d75be906119d7908790869086906004016149c6565b600060405180830381600087803b1580156119f157600080fd5b505af1158015611a05573d6000803e3d6000fd5b5050600190950194506119479350505050565b505b50505050505050565b600054610100900460ff1680611a3c5750611a3c612ffa565b80611a4a575060005460ff16155b611a855760405162461bcd60e51b815260040180806020018281038252602e815260200180614b7e602e913960400191505060405180910390fd5b600054610100900460ff16158015611ab0576000805460ff1961ff0019909116610100171660011790555b60cc805473ffffffffffffffffffffffffffffffffffffffff199081166001600160a01b038581169190911790925560cd8054821688841617905560ce8054821687841617905560cf805490911691851691909117905560d088905560c980547fffffffffffffffffffff000000000000000000000000000000000000000000001675ffffffffffffffffffffffffffffffffffffffffffff891617905560d186905560408051808201825260208082527f59494e20556e697377617020563320506f736974696f6e73204d616e61676572818301528251808401909352600383527f434849000000000000000000000000000000000000000000000000000000000090830152611bc09161300b565b8015611a18576000805461ff00191690555050505050505050565b606090565b82611beb3382612ad2565b611c075760405162461bcd60e51b81526004016107d1906147db565b600084815260cb60209081526040808320600281015482517fb135a14500000000000000000000000000000000000000000000000000000000815292519194936001600160a01b039091169263b135a1459260048083019392829003018186803b158015611c7457600080fd5b505afa158015611c88573d6000803e3d6000fd5b505050506040513d601f19601f82011682018060405250810190611cac91906140f8565b9050838114611ccd5760405162461bcd60e51b81526004016107d190614914565b6000805b82811015611d4657868682818110611ce557fe5b60028701546001600160a01b0316600090815260d26020908152604080832087845282529091209102929092013590915550611d3c878783818110611d2657fe5b90506020020135836130c890919063ffffffff16565b9150600101611cd1565b506064811115611d685760405162461bcd60e51b81526004016107d190614880565b5050600201805460ff60b01b1916905550505050565b60006001600160a01b038216611dc55760405162461bcd60e51b815260040180806020018281038252602a815260200180614b2b602a913960400191505060405180910390fd5b6001600160a01b0382166000908152609760205260409020610da890612b76565b60cc546001600160a01b03163314611e105760405162461bcd60e51b81526004016107d19061465a565b60d155565b60cd546001600160a01b031681565b609d8054604080516020601f60026000196101006001881615020190951694909404938401819004810282018101909252828152606093909290918301828280156107a05780601f10610775576101008083540402835291602001916107a0565b611e8d612a53565b6001600160a01b0316826001600160a01b03161415611ef3576040805162461bcd60e51b815260206004820152601960248201527f4552433732313a20617070726f766520746f2063616c6c657200000000000000604482015290519081900360640190fd5b80609b6000611f00612a53565b6001600160a01b03908116825260208083019390935260409182016000908120918716808252919093529120805460ff191692151592909217909155611f44612a53565b6001600160a01b03167f17307eab39ab6107e8899845ad3d59bd9653f200f220920489ca2b5937696c318360405180821515815260200191505060405180910390a35050565b611f9b611f95612a53565b83612ad2565b611fd65760405162461bcd60e51b8152600401808060200182810382526031815260200180614c396031913960400191505060405180910390fd5b611fe284848484613122565b50505050565b600081815260cb60205260408120819081908190819081908190819061200d8a612a46565b6120295760405162461bcd60e51b81526004016107d190614849565b60028101546001600160a01b03166120408b611756565b825460018401546002850154604080517feae989a200000000000000000000000000000000000000000000000000000000815290516001600160a01b0394851694938416939283169287169163eae989a2916004808301926020929190829003018186803b1580156120b157600080fd5b505afa1580156120c5573d6000803e3d6000fd5b505050506040513d601f19601f820116820180604052508101906120e991906140f8565b856001600160a01b031663a00fa77f6040518163ffffffff1660e01b815260040160206040518083038186803b15801561212257600080fd5b505afa158015612136573d6000803e3d6000fd5b505050506040513d601f19601f8201168201806040525081019061215a91906140f8565b866001600160a01b031663b0e21e8a6040518163ffffffff1660e01b815260040160206040518083038186803b15801561219357600080fd5b505afa1580156121a7573d6000803e3d6000fd5b505050506040513d601f19601f820116820180604052508101906121cb91906140f8565b876001600160a01b03166318160ddd6040518163ffffffff1660e01b815260040160206040518083038186803b15801561220457600080fd5b505afa158015612218573d6000803e3d6000fd5b505050506040513d601f19601f8201168201806040525081019061223c91906140f8565b995099509950995099509950995099505050919395975091939597565b60cc546001600160a01b031633146122835760405162461bcd60e51b81526004016107d19061465a565b600084815260cb602052604090206002810154859190600160a01b900460ff16156122c05760405162461bcd60e51b81526004016107d1906145ec565b600086815260cb60205260409081902060028101549151634ecebadf60e11b815290916001600160a01b031690639d9d75be90610c1f908990899089906004016149c6565b606061231082612a46565b61231957600080fd5b505060408051602081019091526000815290565b60cf546001600160a01b031681565b846123473382612ad2565b6123635760405162461bcd60e51b81526004016107d1906147db565b600086815260cb602052604090206002810154879190600160a01b900460ff16156123a05760405162461bcd60e51b81526004016107d1906145ec565b600088815260cb60205260408120905b8781101561246c5760028201546001600160a01b031663db4dcce48a8a848181106123d757fe5b6123ed9260206040909202019081019150614063565b8b8b858181106123f957fe5b90506040020160200160208101906124119190614063565b6040518363ffffffff1660e01b815260040161242e929190614585565b600060405180830381600087803b15801561244857600080fd5b505af115801561245c573d6000803e3d6000fd5b5050600190920191506123b09050565b5060005b8581101561252c5760028201546001600160a01b0316635a64998b88888481811061249757fe5b6124ad9260206040909202019081019150614063565b8989858181106124b957fe5b90506040020160200160208101906124d19190614063565b6040518363ffffffff1660e01b81526004016124ee929190614585565b600060405180830381600087803b15801561250857600080fd5b505af115801561251c573d6000803e3d6000fd5b5050600190920191506124709050565b50600201805460ff60b01b1916600160b01b1790555050505050505050565b826125563382612ad2565b6125725760405162461bcd60e51b81526004016107d1906147db565b600084815260cb602052604090206002810154859190600160a01b900460ff16156125af5760405162461bcd60e51b81526004016107d1906145ec565b600086815260cb602052604090819020600281015491517fdb4dcce400000000000000000000000000000000000000000000000000000000815290916001600160a01b03169063db4dcce4906115ad9089908990600401614585565b60d260209081526000928352604080842090915290825290205481565b6001600160a01b039182166000908152609b6020908152604080832093909416825291909152205460ff1690565b60ce54600090819081906001600160a01b031633146126875760405162461bcd60e51b81526004016107d190614812565b60d3889055600088815260cb60205260409020600281015489918291600160a01b900460ff16156126ca5760405162461bcd60e51b81526004016107d1906145ec565b60026001541415612722576040805162461bcd60e51b815260206004820152601f60248201527f5265656e7472616e637947756172643a207265656e7472616e742063616c6c00604482015290519081900360640190fd5b6002600181905550600060cb60008d815260200190815260200160002090508060020160009054906101000a90046001600160a01b03166001600160a01b031663bf02b5ea8e8d8d8d8d6040518663ffffffff1660e01b815260040161278c959493929190614a08565b606060405180830381600087803b1580156127a657600080fd5b505af11580156127ba573d6000803e3d6000fd5b505050506040513d601f19601f820116820180604052508101906127de9190614343565b60405192995090975095506000906127fc908f908f9060200161448d565b60408051601f198184030181529181528151602092830120600081815260ca90935291205490915061282e90896130c8565b600091825260ca60205260408220556001805560d35550949b939a50919850919650505050505050565b61286133613174565b821561290a5760ce546040517f23b872dd0000000000000000000000000000000000000000000000000000000081526001600160a01b03868116926323b872dd926128b69290911690339088906004016144c9565b602060405180830381600087803b1580156128d057600080fd5b505af11580156128e4573d6000803e3d6000fd5b505050506040513d601f19601f820116820180604052508101906129089190613f0b565b505b8015611fe25760ce546040517f23b872dd0000000000000000000000000000000000000000000000000000000081526001600160a01b03848116926323b872dd9261295f9290911690339086906004016144c9565b602060405180830381600087803b15801561297957600080fd5b505af115801561298d573d6000803e3d6000fd5b505050506040513d601f19601f8201168201806040525081019061174f9190613f0b565b60cc546001600160a01b031633146129db5760405162461bcd60e51b81526004016107d19061465a565b600081815260cb602052604090206002810154600160a01b900460ff16612a145760405162461bcd60e51b81526004016107d190614691565b60020180547fffffffffffffffffffff00ffffffffffffffffffffffffffffffffffffffffff16600160a81b17905550565b6000610da86098836131b8565b3390565b600081815260cb60205260409020805473ffffffffffffffffffffffffffffffffffffffff19166001600160a01b0384169081179091558190612a9982611756565b6001600160a01b03167f8c5be1e5ebec7d5bd14f71427d1e84f3dd0314c0f7b2291e5b200ac8c7c3b92560405160405180910390a45050565b6000612add82612a46565b612b185760405162461bcd60e51b815260040180806020018281038252602c815260200180614ac7602c913960400191505060405180910390fd5b6000612b2383611756565b9050806001600160a01b0316846001600160a01b03161480612b5e5750836001600160a01b0316612b53846107aa565b6001600160a01b0316145b80612b6e5750612b6e8185612628565b949350505050565b6000610da8826131c4565b826001600160a01b0316612b9482611756565b6001600160a01b031614612bd95760405162461bcd60e51b8152600401808060200182810382526029815260200180614bef6029913960400191505060405180910390fd5b6001600160a01b038216612c1e5760405162461bcd60e51b8152600401808060200182810382526024815260200180614aa36024913960400191505060405180910390fd5b612c298383836108c7565b612c34600082612a57565b6001600160a01b0383166000908152609760205260409020612c5690826131c8565b506001600160a01b0382166000908152609760205260409020612c7990826131d4565b50612c86609882846131e0565b5080826001600160a01b0316846001600160a01b03167fddf252ad1be2c89b69c2b068fc378daa952ba7f163c4a11628f55a4df523b3ef60405160405180910390a4505050565b600081815b8551811015612d6b576000868281518110612ce957fe5b60200260200101519050808311612d305782816040516020018083815260200182815260200192505050604051602081830303815290604052805190602001209250612d62565b808360405160200180838152602001828152602001925050506040516020818303038152906040528051906020012092505b50600101612cd2565b50831490505b9392505050565b6000610da583836131f6565b6001600160a01b038216612ddf576040805162461bcd60e51b815260206004820181905260248201527f4552433732313a206d696e7420746f20746865207a65726f2061646472657373604482015290519081900360640190fd5b612de881612a46565b15612e3a576040805162461bcd60e51b815260206004820152601c60248201527f4552433732313a20746f6b656e20616c7265616479206d696e74656400000000604482015290519081900360640190fd5b612e46600083836108c7565b6001600160a01b0382166000908152609760205260409020612e6890826131d4565b50612e75609882846131e0565b5060405181906001600160a01b038416906000907fddf252ad1be2c89b69c2b068fc378daa952ba7f163c4a11628f55a4df523b3ef908290a45050565b600082821115612f09576040805162461bcd60e51b815260206004820152601e60248201527f536166654d6174683a207375627472616374696f6e206f766572666c6f770000604482015290519081900360640190fd5b50900390565b6000808080612f1e868661325a565b909450925050505b9250929050565b6000612b6e8484846132d5565b6000808211612f90576040805162461bcd60e51b815260206004820152601a60248201527f536166654d6174683a206469766973696f6e206279207a65726f000000000000604482015290519081900360640190fd5b818381612f9957fe5b049392505050565b600082612fb057506000610da8565b82820282848281612fbd57fe5b0414610da55760405162461bcd60e51b8152600401808060200182810382526021815260200180614bce6021913960400191505060405180910390fd5b60006130053061339f565b15905090565b600054610100900460ff16806130245750613024612ffa565b80613032575060005460ff16155b61306d5760405162461bcd60e51b815260040180806020018281038252602e815260200180614b7e602e913960400191505060405180910390fd5b600054610100900460ff16158015613098576000805460ff1961ff0019909116610100171660011790555b6130a06133a5565b6130a8613447565b6130b283836134fd565b80156108c7576000805461ff0019169055505050565b600082820183811015610da5576040805162461bcd60e51b815260206004820152601b60248201527f536166654d6174683a206164646974696f6e206f766572666c6f770000000000604482015290519081900360640190fd5b61312d848484612b81565b6131398484848461362d565b611fe25760405162461bcd60e51b8152600401808060200182810382526032815260200180614a716032913960400191505060405180910390fd5b60d354600090815260cb6020526040902060028101546001600160a01b038381169116146131b45760405162461bcd60e51b81526004016107d1906146ff565b5050565b6000610da58383613809565b5490565b6000610da58383613821565b6000610da583836138e7565b6000612b6e84846001600160a01b038516613931565b815460009082106132385760405162461bcd60e51b8152600401808060200182810382526022815260200180614a4f6022913960400191505060405180910390fd5b82600001828154811061324757fe5b9060005260206000200154905092915050565b81546000908190831061329e5760405162461bcd60e51b8152600401808060200182810382526022815260200180614bac6022913960400191505060405180910390fd5b60008460000184815481106132af57fe5b906000526020600020906002020190508060000154816001015492509250509250929050565b600082815260018401602052604081205482816133705760405162461bcd60e51b81526004018080602001828103825283818151815260200191508051906020019080838360005b8381101561333557818101518382015260200161331d565b50505050905090810190601f1680156133625780820380516001836020036101000a031916815260200191505b509250505060405180910390fd5b5084600001600182038154811061338357fe5b9060005260206000209060020201600101549150509392505050565b3b151590565b600054610100900460ff16806133be57506133be612ffa565b806133cc575060005460ff16155b6134075760405162461bcd60e51b815260040180806020018281038252602e815260200180614b7e602e913960400191505060405180910390fd5b600054610100900460ff16158015613432576000805460ff1961ff0019909116610100171660011790555b8015613444576000805461ff00191690555b50565b600054610100900460ff16806134605750613460612ffa565b8061346e575060005460ff16155b6134a95760405162461bcd60e51b815260040180806020018281038252602e815260200180614b7e602e913960400191505060405180910390fd5b600054610100900460ff161580156134d4576000805460ff1961ff0019909116610100171660011790555b6134327f01ffc9a7000000000000000000000000000000000000000000000000000000006139c8565b600054610100900460ff16806135165750613516612ffa565b80613524575060005460ff16155b61355f5760405162461bcd60e51b815260040180806020018281038252602e815260200180614b7e602e913960400191505060405180910390fd5b600054610100900460ff1615801561358a576000805460ff1961ff0019909116610100171660011790555b825161359d90609c906020860190613c07565b5081516135b190609d906020850190613c07565b506135db7f80ac58cd000000000000000000000000000000000000000000000000000000006139c8565b6136047f5b5e139f000000000000000000000000000000000000000000000000000000006139c8565b6130b27f780e9d63000000000000000000000000000000000000000000000000000000006139c8565b6000613641846001600160a01b031661339f565b61364d57506001612b6e565b600061379e7f150b7a020000000000000000000000000000000000000000000000000000000061367b612a53565b88878760405160240180856001600160a01b03168152602001846001600160a01b0316815260200183815260200180602001828103825283818151815260200191508051906020019080838360005b838110156136e25781810151838201526020016136ca565b50505050905090810190601f16801561370f5780820380516001836020036101000a031916815260200191505b5095505050505050604051602081830303815290604052907bffffffffffffffffffffffffffffffffffffffffffffffffffffffff19166020820180517bffffffffffffffffffffffffffffffffffffffffffffffffffffffff8381831617835250505050604051806060016040528060328152602001614a71603291396001600160a01b0388169190613a7c565b905060008180602001905160208110156137b757600080fd5b50517fffffffff00000000000000000000000000000000000000000000000000000000167f150b7a02000000000000000000000000000000000000000000000000000000001492505050949350505050565b60009081526001919091016020526040902054151590565b600081815260018301602052604081205480156138dd578354600019808301919081019060009087908390811061385457fe5b906000526020600020015490508087600001848154811061387157fe5b6000918252602080832090910192909255828152600189810190925260409020908401905586548790806138a157fe5b60019003818190600052602060002001600090559055866001016000878152602001908152602001600020600090556001945050505050610da8565b6000915050610da8565b60006138f38383613809565b61392957508154600181810184556000848152602080822090930184905584548482528286019093526040902091909155610da8565b506000610da8565b600082815260018401602052604081205480613996575050604080518082018252838152602080820184815286546001818101895560008981528481209551600290930290950191825591519082015586548684528188019092529290912055612d71565b828560000160018303815481106139a957fe5b9060005260206000209060020201600101819055506000915050612d71565b7fffffffff000000000000000000000000000000000000000000000000000000008082161415613a3f576040805162461bcd60e51b815260206004820152601c60248201527f4552433136353a20696e76616c696420696e7465726661636520696400000000604482015290519081900360640190fd5b7fffffffff00000000000000000000000000000000000000000000000000000000166000908152606560205260409020805460ff19166001179055565b6060612b6e848460008585613a908561339f565b613ae1576040805162461bcd60e51b815260206004820152601d60248201527f416464726573733a2063616c6c20746f206e6f6e2d636f6e7472616374000000604482015290519081900360640190fd5b600080866001600160a01b031685876040518082805190602001908083835b60208310613b1f5780518252601f199092019160209182019101613b00565b6001836020036101000a03801982511681845116808217855250505050505090500191505060006040518083038185875af1925050503d8060008114613b81576040519150601f19603f3d011682016040523d82523d6000602084013e613b86565b606091505b5091509150613b96828286613ba1565b979650505050505050565b60608315613bb0575081612d71565b825115613bc05782518084602001fd5b60405162461bcd60e51b815260206004820181815284516024840152845185939192839260440191908501908083836000831561333557818101518382015260200161331d565b828054600181600116156101000203166002900490600052602060002090601f016020900481019282613c3d5760008555613c83565b82601f10613c5657805160ff1916838001178555613c83565b82800160010185558215613c83579182015b82811115613c83578251825591602001919060010190613c68565b50613c8f929150613c93565b5090565b5b80821115613c8f5760008155600101613c94565b60008083601f840112613cb9578081fd5b50813567ffffffffffffffff811115613cd0578182fd5b6020830191508360208083028501011115612f2657600080fd5b60008083601f840112613cfb578182fd5b50813567ffffffffffffffff811115613d12578182fd5b602083019150836020604083028501011115612f2657600080fd5b8035600281900b811461070f57600080fd5b600060208284031215613d50578081fd5b8135610da581614a2b565b600060208284031215613d6c578081fd5b8151610da581614a2b565b60008060408385031215613d89578081fd5b8235613d9481614a2b565b91506020830135613da481614a2b565b809150509250929050565b600080600060608486031215613dc3578081fd5b8335613dce81614a2b565b92506020840135613dde81614a2b565b929592945050506040919091013590565b60008060008060808587031215613e04578081fd5b8435613e0f81614a2b565b9350602085810135613e2081614a2b565b935060408601359250606086013567ffffffffffffffff80821115613e43578384fd5b818801915088601f830112613e56578384fd5b813581811115613e6257fe5b60405184601f19601f8401168201018181108482111715613e7f57fe5b60405281815283820185018b1015613e95578586fd5b81858501868301379081019093019390935250939692955090935050565b60008060408385031215613ec5578182fd5b8235613ed081614a2b565b91506020830135613da481614a40565b60008060408385031215613ef2578182fd5b8235613efd81614a2b565b946020939093013593505050565b600060208284031215613f1c578081fd5b8151610da581614a40565b600060208284031215613f38578081fd5b5035919050565b600080600080600080600060e0888a031215613f59578485fd5b87359650602088013575ffffffffffffffffffffffffffffffffffffffffffff81168114613f85578586fd5b9550604088013594506060880135613f9c81614a2b565b93506080880135613fac81614a2b565b925060a0880135613fbc81614a2b565b915060c0880135613fcc81614a2b565b8091505092959891949750929550565b600060208284031215613fed578081fd5b81357fffffffff0000000000000000000000000000000000000000000000000000000081168114610da5578182fd5b60008060008060808587031215614031578182fd5b843561403c81614a2b565b935060208501359250604085013561405381614a2b565b9396929550929360600135925050565b600060208284031215614074578081fd5b610da582613d2d565b600080600083850360a0811215614092578182fd5b608081121561409f578182fd5b50839250608084013567ffffffffffffffff8111156140bc578182fd5b6140c886828701613ca8565b9497909650939450505050565b6000602082840312156140e6578081fd5b813562ffffff81168114610da5578182fd5b600060208284031215614109578081fd5b5051919050565b600080600080600060808688031215614127578283fd5b85359450602086013561413981614a2b565b9350604086013561414981614a2b565b9250606086013567ffffffffffffffff811115614164578182fd5b61417088828901613ca8565b969995985093965092949392505050565b600080600080600060608688031215614198578283fd5b85359450602086013567ffffffffffffffff808211156141b6578485fd5b6141c289838a01613cea565b909650945060408801359150808211156141da578283fd5b5061417088828901613cea565b6000806000604084860312156141fb578081fd5b83359250602084013567ffffffffffffffff8111156140bc578182fd5b60008060006060848603121561422c578081fd5b8335925061423c60208501613d2d565b915061424a60408501613d2d565b90509250925092565b60008060008060006080868803121561426a578283fd5b8535945061427a60208701613d2d565b935061414960408701613d2d565b6000806040838503121561429a578182fd5b50508035926020909101359150565b600080604083850312156142bb578182fd5b505080516020909101519092909150565b6000806000606084860312156142e0578081fd5b833592506020840135915060408401356fffffffffffffffffffffffffffffffff8116811461430d578182fd5b809150509250925092565b60008060006060848603121561432c578081fd5b505081359360208301359350604090920135919050565b600080600060608486031215614357578081fd5b8351925060208401519150604084015190509250925092565b60008060008060808587031215614385578182fd5b84359350602085013592506040850135915060608501356143a581614a2b565b939692955090935050565b600080600080608085870312156143c5578182fd5b5050823594602084013594506040840135936060013592509050565b600080600080600060a086880312156143f8578283fd5b505083359560208501359550604085013594606081013594506080013592509050565b60008060008060008060c08789031215614433578384fd5b505084359660208601359650604086013595606081013595506080810135945060a0013592509050565b60609190911b7fffffffffffffffffffffffffffffffffffffffff00000000000000000000000016815260140190565b918252602082015260400190565b6001600160a01b0391909116815260200190565b6001600160a01b0392831681529116602082015260400190565b6001600160a01b039384168152919092166020820152604081019190915260600190565b6001600160a01b03988916815296881660208801529487166040870152929095166060850152608084015260a083019390935260c082019290925260e08101919091526101000190565b6001600160a01b03938416815291909216602082015262ffffff909116604082015260600190565b901515815260200190565b91151582521515602082015260400190565b90815260200190565b600292830b8152910b602082015260400190565b6000602080835283518082850152825b818110156145c5578581018301518582016040015282016145a9565b818111156145d65783604083870101525b50601f01601f1916929092016040019392505050565b6020808252600a908201527f4348492050617573656400000000000000000000000000000000000000000000604082015260600190565b60208082526009908201527f6f6e6c7920676f76730000000000000000000000000000000000000000000000604082015260600190565b60208082526007908201527f6d616e6167657200000000000000000000000000000000000000000000000000604082015260600190565b6020808252600a908201527f4e6f742050617573656400000000000000000000000000000000000000000000604082015260600190565b6020808252600c908201527f4348492041726368697665640000000000000000000000000000000000000000604082015260600190565b6020808252600d908201527f63616c6c6261636b206661696c00000000000000000000000000000000000000604082015260600190565b60208082526011908201527f4e6f6e2d6578697374656e7420706f6f6c000000000000000000000000000000604082015260600190565b60208082526001908201527f7300000000000000000000000000000000000000000000000000000000000000604082015260600190565b6020808252600c908201527f4348492061726368697665640000000000000000000000000000000000000000604082015260600190565b6020808252600c908201527f4e6f7420617070726f7665640000000000000000000000000000000000000000604082015260600190565b60208082526001908201527f7900000000000000000000000000000000000000000000000000000000000000604082015260600190565b60208082526010908201527f496e76616c696420746f6b656e20494400000000000000000000000000000000604082015260600190565b60208082526012908201527f457863656564206d61782070657263656e740000000000000000000000000000604082015260600190565b60208082526037908201527f4552433732315570677261646561626c653a20617070726f766564207175657260408201527f7920666f72206e6f6e6578697374656e7420746f6b656e000000000000000000606082015260800190565b60208082526010908201527f496e76616c69642070657263656e747300000000000000000000000000000000604082015260600190565b9182526001600160a01b0316602082015260400190565b9384526001600160a01b03928316602085015291166040830152606082015260800190565b9182526fffffffffffffffffffffffffffffffff16602082015260400190565b92835260208301919091526001600160a01b0316604082015260600190565b9283526020830191909152604082015260600190565b9485526020850193909352604084019190915260608301526001600160a01b0316608082015260a00190565b948552602085019390935260408401919091526060830152608082015260a00190565b6001600160a01b038116811461344457600080fd5b801515811461344457600080fdfe456e756d657261626c655365743a20696e646578206f7574206f6620626f756e64734552433732313a207472616e7366657220746f206e6f6e20455243373231526563656976657220696d706c656d656e7465724552433732313a207472616e7366657220746f20746865207a65726f20616464726573734552433732313a206f70657261746f7220717565727920666f72206e6f6e6578697374656e7420746f6b656e4552433732313a20617070726f76652063616c6c6572206973206e6f74206f776e6572206e6f7220617070726f76656420666f7220616c6c4552433732313a2062616c616e636520717565727920666f7220746865207a65726f20616464726573734552433732313a206f776e657220717565727920666f72206e6f6e6578697374656e7420746f6b656e496e697469616c697a61626c653a20636f6e747261637420697320616c726561647920696e697469616c697a6564456e756d657261626c654d61703a20696e646578206f7574206f6620626f756e6473536166654d6174683a206d756c7469706c69636174696f6e206f766572666c6f774552433732313a207472616e73666572206f6620746f6b656e2074686174206973206e6f74206f776e4552433732313a20617070726f76616c20746f2063757272656e74206f776e65724552433732313a207472616e736665722063616c6c6572206973206e6f74206f776e6572206e6f7220617070726f766564a164736f6c6343000706000a",
  "linkReferences": {},
  "deployedLinkReferences": {}
}