{
  "_format": "hh-sol-artifact-1",
  "contractName": "CHIManager",
  "sourceName": "contracts/CHIManager.sol",
  "abi": [
    {
      "anonymous": false,
      "inputs": [
        {
          "indexed": true,
          "internalType": "address",
          "name": "owner",
          "type": "address"
        },
        {
          "indexed": true,
          "internalType": "address",
          "name": "approved",
          "type": "address"
        },
        {
          "indexed": true,
          "internalType": "uint256",
          "name": "tokenId",
          "type": "uint256"
        }
      ],
      "name": "Approval",
      "type": "event"
    },
    {
      "anonymous": false,
      "inputs": [
        {
          "indexed": true,
          "internalType": "address",
          "name": "owner",
          "type": "address"
        },
        {
          "indexed": true,
          "internalType": "address",
          "name": "operator",
          "type": "address"
        },
        {
          "indexed": false,
          "internalType": "bool",
          "name": "approved",
          "type": "bool"
        }
      ],
      "name": "ApprovalForAll",
      "type": "event"
    },
    {
      "anonymous": false,
      "inputs": [
        {
          "indexed": false,
          "internalType": "uint256",
          "name": "tokenId",
          "type": "uint256"
        },
        {
          "indexed": false,
          "internalType": "address",
          "name": "pool",
          "type": "address"
        },
        {
          "indexed": false,
          "internalType": "address",
          "name": "vault",
          "type": "address"
        },
        {
          "indexed": false,
          "internalType": "uint256",
          "name": "vaultFee",
          "type": "uint256"
        }
      ],
      "name": "Create",
      "type": "event"
    },
    {
      "anonymous": false,
      "inputs": [
        {
          "indexed": true,
          "internalType": "address",
          "name": "from",
          "type": "address"
        },
        {
          "indexed": true,
          "internalType": "address",
          "name": "to",
          "type": "address"
        },
        {
          "indexed": true,
          "internalType": "uint256",
          "name": "tokenId",
          "type": "uint256"
        }
      ],
      "name": "Transfer",
      "type": "event"
    },
    {
      "inputs": [
        {
          "internalType": "contract IERC20",
          "name": "token0",
          "type": "address"
        },
        {
          "internalType": "uint256",
          "name": "amount0",
          "type": "uint256"
        },
        {
          "internalType": "contract IERC20",
          "name": "token1",
          "type": "address"
        },
        {
          "internalType": "uint256",
          "name": "amount1",
          "type": "uint256"
        }
      ],
      "name": "CHIDepositCallback",
      "outputs": [],
      "stateMutability": "nonpayable",
      "type": "function"
    },
    {
      "inputs": [
        {
          "internalType": "uint256",
          "name": "tokenId",
          "type": "uint256"
        },
        {
          "components": [
            {
              "internalType": "int24",
              "name": "tickLower",
              "type": "int24"
            },
            {
              "internalType": "int24",
              "name": "tickUpper",
              "type": "int24"
            }
          ],
          "internalType": "struct ICHIManager.RangeParams[]",
          "name": "addRanges",
          "type": "tuple[]"
        },
        {
          "components": [
            {
              "internalType": "int24",
              "name": "tickLower",
              "type": "int24"
            },
            {
              "internalType": "int24",
              "name": "tickUpper",
              "type": "int24"
            }
          ],
          "internalType": "struct ICHIManager.RangeParams[]",
          "name": "removeRanges",
          "type": "tuple[]"
        }
      ],
      "name": "addAndRemoveRanges",
      "outputs": [],
      "stateMutability": "nonpayable",
      "type": "function"
    },
    {
      "inputs": [
        {
          "internalType": "uint256",
          "name": "tokenId",
          "type": "uint256"
        },
        {
          "internalType": "uint256",
          "name": "rangeIndex",
          "type": "uint256"
        },
        {
          "internalType": "uint256",
          "name": "amount0Desired",
          "type": "uint256"
        },
        {
          "internalType": "uint256",
          "name": "amount1Desired",
          "type": "uint256"
        }
      ],
      "name": "addLiquidityToPosition",
      "outputs": [],
      "stateMutability": "nonpayable",
      "type": "function"
    },
    {
      "inputs": [
        {
          "internalType": "uint256",
          "name": "tokenId",
          "type": "uint256"
        },
        {
          "internalType": "int24",
          "name": "tickLower",
          "type": "int24"
        },
        {
          "internalType": "int24",
          "name": "tickUpper",
          "type": "int24"
        }
      ],
      "name": "addRange",
      "outputs": [],
      "stateMutability": "nonpayable",
      "type": "function"
    },
    {
      "inputs": [
        {
          "internalType": "address",
          "name": "to",
          "type": "address"
        },
        {
          "internalType": "uint256",
          "name": "tokenId",
          "type": "uint256"
        }
      ],
      "name": "approve",
      "outputs": [],
      "stateMutability": "nonpayable",
      "type": "function"
    },
    {
      "inputs": [
        {
          "internalType": "uint256",
          "name": "tokenId",
          "type": "uint256"
        }
      ],
      "name": "archivedCHI",
      "outputs": [],
      "stateMutability": "nonpayable",
      "type": "function"
    },
    {
      "inputs": [
        {
          "internalType": "address",
          "name": "owner",
          "type": "address"
        }
      ],
      "name": "balanceOf",
      "outputs": [
        {
          "internalType": "uint256",
          "name": "",
          "type": "uint256"
        }
      ],
      "stateMutability": "view",
      "type": "function"
    },
    {
      "inputs": [],
      "name": "baseURI",
      "outputs": [
        {
          "internalType": "string",
          "name": "",
          "type": "string"
        }
      ],
      "stateMutability": "pure",
      "type": "function"
    },
    {
      "inputs": [
        {
          "internalType": "uint256",
          "name": "tokenId",
          "type": "uint256"
        }
      ],
      "name": "chi",
      "outputs": [
        {
          "internalType": "address",
          "name": "owner",
          "type": "address"
        },
        {
          "internalType": "address",
          "name": "operator",
          "type": "address"
        },
        {
          "internalType": "address",
          "name": "pool",
          "type": "address"
        },
        {
          "internalType": "address",
          "name": "vault",
          "type": "address"
        },
        {
          "internalType": "uint256",
          "name": "accruedProtocolFees0",
          "type": "uint256"
        },
        {
          "internalType": "uint256",
          "name": "accruedProtocolFees1",
          "type": "uint256"
        },
        {
          "internalType": "uint256",
          "name": "fee",
          "type": "uint256"
        },
        {
          "internalType": "uint256",
          "name": "totalShares",
          "type": "uint256"
        }
      ],
      "stateMutability": "view",
      "type": "function"
    },
    {
      "inputs": [
        {
          "internalType": "uint256",
          "name": "tokenId",
          "type": "uint256"
        },
        {
          "internalType": "uint256",
          "name": "amount0",
          "type": "uint256"
        },
        {
          "internalType": "uint256",
          "name": "amount1",
          "type": "uint256"
        },
        {
          "internalType": "address",
          "name": "to",
          "type": "address"
        }
      ],
      "name": "collectProtocol",
      "outputs": [],
      "stateMutability": "nonpayable",
      "type": "function"
    },
    {
      "inputs": [],
      "name": "deployer",
      "outputs": [
        {
          "internalType": "address",
          "name": "",
          "type": "address"
        }
      ],
      "stateMutability": "view",
      "type": "function"
    },
    {
      "inputs": [
        {
          "internalType": "uint256",
          "name": "tokenId",
          "type": "uint256"
        }
      ],
      "name": "getApproved",
      "outputs": [
        {
          "internalType": "address",
          "name": "",
          "type": "address"
        }
      ],
      "stateMutability": "view",
      "type": "function"
    },
    {
      "inputs": [
        {
          "internalType": "uint176",
          "name": "_initId",
          "type": "uint176"
        },
        {
          "internalType": "address",
          "name": "_v3Factory",
          "type": "address"
        },
        {
          "internalType": "address",
          "name": "_yangNFT",
          "type": "address"
        },
        {
          "internalType": "address",
          "name": "_deployer",
          "type": "address"
        },
        {
          "internalType": "bytes32",
          "name": "_merkleRoot",
          "type": "bytes32"
        },
        {
          "internalType": "uint256",
          "name": "_vaultFee_",
          "type": "uint256"
        }
      ],
      "name": "initialize",
      "outputs": [],
      "stateMutability": "nonpayable",
      "type": "function"
    },
    {
      "inputs": [
        {
          "internalType": "address",
          "name": "owner",
          "type": "address"
        },
        {
          "internalType": "address",
          "name": "operator",
          "type": "address"
        }
      ],
      "name": "isApprovedForAll",
      "outputs": [
        {
          "internalType": "bool",
          "name": "",
          "type": "bool"
        }
      ],
      "stateMutability": "view",
      "type": "function"
    },
    {
      "inputs": [],
      "name": "manager",
      "outputs": [
        {
          "internalType": "address",
          "name": "",
          "type": "address"
        }
      ],
      "stateMutability": "view",
      "type": "function"
    },
    {
      "inputs": [],
      "name": "merkleRoot",
      "outputs": [
        {
          "internalType": "bytes32",
          "name": "",
          "type": "bytes32"
        }
      ],
      "stateMutability": "view",
      "type": "function"
    },
    {
      "inputs": [
        {
          "components": [
            {
              "internalType": "address",
              "name": "recipient",
              "type": "address"
            },
            {
              "internalType": "address",
              "name": "token0",
              "type": "address"
            },
            {
              "internalType": "address",
              "name": "token1",
              "type": "address"
            },
            {
              "internalType": "uint24",
              "name": "fee",
              "type": "uint24"
            }
          ],
          "internalType": "struct ICHIManager.MintParams",
          "name": "params",
          "type": "tuple"
        },
        {
          "internalType": "bytes32[]",
          "name": "merkleProof",
          "type": "bytes32[]"
        }
      ],
      "name": "mint",
      "outputs": [
        {
          "internalType": "uint256",
          "name": "tokenId",
          "type": "uint256"
        },
        {
          "internalType": "address",
          "name": "vault",
          "type": "address"
        }
      ],
      "stateMutability": "nonpayable",
      "type": "function"
    },
    {
      "inputs": [],
      "name": "name",
      "outputs": [
        {
          "internalType": "string",
          "name": "",
          "type": "string"
        }
      ],
      "stateMutability": "view",
      "type": "function"
    },
    {
      "inputs": [
        {
          "internalType": "uint256",
          "name": "tokenId",
          "type": "uint256"
        }
      ],
      "name": "ownerOf",
      "outputs": [
        {
          "internalType": "address",
          "name": "",
          "type": "address"
        }
      ],
      "stateMutability": "view",
      "type": "function"
    },
    {
      "inputs": [
        {
          "internalType": "uint256",
          "name": "tokenId",
          "type": "uint256"
        }
      ],
      "name": "pausedCHI",
      "outputs": [],
      "stateMutability": "nonpayable",
      "type": "function"
    },
    {
      "inputs": [
        {
          "internalType": "bytes32",
          "name": "",
          "type": "bytes32"
        }
      ],
      "name": "positions",
      "outputs": [
        {
          "internalType": "uint256",
          "name": "shares",
          "type": "uint256"
        }
      ],
      "stateMutability": "view",
      "type": "function"
    },
    {
      "inputs": [
        {
          "internalType": "uint256",
          "name": "tokenId",
          "type": "uint256"
        },
        {
          "internalType": "uint256",
          "name": "rangeIndex",
          "type": "uint256"
        }
      ],
      "name": "removeAllLiquidityFromPosition",
      "outputs": [],
      "stateMutability": "nonpayable",
      "type": "function"
    },
    {
      "inputs": [
        {
          "internalType": "uint256",
          "name": "tokenId",
          "type": "uint256"
        },
        {
          "internalType": "uint256",
          "name": "rangeIndex",
          "type": "uint256"
        },
        {
          "internalType": "uint128",
          "name": "liquidity",
          "type": "uint128"
        }
      ],
      "name": "removeLiquidityFromPosition",
      "outputs": [],
      "stateMutability": "nonpayable",
      "type": "function"
    },
    {
      "inputs": [
        {
          "internalType": "uint256",
          "name": "tokenId",
          "type": "uint256"
        },
        {
          "internalType": "int24",
          "name": "tickLower",
          "type": "int24"
        },
        {
          "internalType": "int24",
          "name": "tickUpper",
          "type": "int24"
        }
      ],
      "name": "removeRange",
      "outputs": [],
      "stateMutability": "nonpayable",
      "type": "function"
    },
    {
      "inputs": [
        {
          "internalType": "address",
          "name": "from",
          "type": "address"
        },
        {
          "internalType": "address",
          "name": "to",
          "type": "address"
        },
        {
          "internalType": "uint256",
          "name": "tokenId",
          "type": "uint256"
        }
      ],
      "name": "safeTransferFrom",
      "outputs": [],
      "stateMutability": "nonpayable",
      "type": "function"
    },
    {
      "inputs": [
        {
          "internalType": "address",
          "name": "from",
          "type": "address"
        },
        {
          "internalType": "address",
          "name": "to",
          "type": "address"
        },
        {
          "internalType": "uint256",
          "name": "tokenId",
          "type": "uint256"
        },
        {
          "internalType": "bytes",
          "name": "_data",
          "type": "bytes"
        }
      ],
      "name": "safeTransferFrom",
      "outputs": [],
      "stateMutability": "nonpayable",
      "type": "function"
    },
    {
      "inputs": [
        {
          "internalType": "address",
          "name": "operator",
          "type": "address"
        },
        {
          "internalType": "bool",
          "name": "approved",
          "type": "bool"
        }
      ],
      "name": "setApprovalForAll",
      "outputs": [],
      "stateMutability": "nonpayable",
      "type": "function"
    },
    {
      "inputs": [
        {
          "internalType": "uint256",
          "name": "tokenId",
          "type": "uint256"
        }
      ],
      "name": "stateOfCHI",
      "outputs": [
        {
          "internalType": "bool",
          "name": "isPaused",
          "type": "bool"
        },
        {
          "internalType": "bool",
          "name": "isArchived",
          "type": "bool"
        }
      ],
      "stateMutability": "view",
      "type": "function"
    },
    {
      "inputs": [
        {
          "internalType": "uint256",
          "name": "yangId",
          "type": "uint256"
        },
        {
          "internalType": "uint256",
          "name": "tokenId",
          "type": "uint256"
        },
        {
          "internalType": "uint256",
          "name": "amount0Desired",
          "type": "uint256"
        },
        {
          "internalType": "uint256",
          "name": "amount1Desired",
          "type": "uint256"
        },
        {
          "internalType": "uint256",
          "name": "amount0Min",
          "type": "uint256"
        },
        {
          "internalType": "uint256",
          "name": "amount1Min",
          "type": "uint256"
        }
      ],
      "name": "subscribe",
      "outputs": [
        {
          "internalType": "uint256",
          "name": "shares",
          "type": "uint256"
        },
        {
          "internalType": "uint256",
          "name": "amount0",
          "type": "uint256"
        },
        {
          "internalType": "uint256",
          "name": "amount1",
          "type": "uint256"
        }
      ],
      "stateMutability": "nonpayable",
      "type": "function"
    },
    {
      "inputs": [
        {
          "internalType": "bytes4",
          "name": "interfaceId",
          "type": "bytes4"
        }
      ],
      "name": "supportsInterface",
      "outputs": [
        {
          "internalType": "bool",
          "name": "",
          "type": "bool"
        }
      ],
      "stateMutability": "view",
      "type": "function"
    },
    {
      "inputs": [],
      "name": "symbol",
      "outputs": [
        {
          "internalType": "string",
          "name": "",
          "type": "string"
        }
      ],
      "stateMutability": "view",
      "type": "function"
    },
    {
      "inputs": [
        {
          "internalType": "uint256",
          "name": "index",
          "type": "uint256"
        }
      ],
      "name": "tokenByIndex",
      "outputs": [
        {
          "internalType": "uint256",
          "name": "",
          "type": "uint256"
        }
      ],
      "stateMutability": "view",
      "type": "function"
    },
    {
      "inputs": [
        {
          "internalType": "address",
          "name": "owner",
          "type": "address"
        },
        {
          "internalType": "uint256",
          "name": "index",
          "type": "uint256"
        }
      ],
      "name": "tokenOfOwnerByIndex",
      "outputs": [
        {
          "internalType": "uint256",
          "name": "",
          "type": "uint256"
        }
      ],
      "stateMutability": "view",
      "type": "function"
    },
    {
      "inputs": [
        {
          "internalType": "uint256",
          "name": "tokenId",
          "type": "uint256"
        }
      ],
      "name": "tokenURI",
      "outputs": [
        {
          "internalType": "string",
          "name": "",
          "type": "string"
        }
      ],
      "stateMutability": "view",
      "type": "function"
    },
    {
      "inputs": [],
      "name": "totalSupply",
      "outputs": [
        {
          "internalType": "uint256",
          "name": "",
          "type": "uint256"
        }
      ],
      "stateMutability": "view",
      "type": "function"
    },
    {
      "inputs": [
        {
          "internalType": "address",
          "name": "from",
          "type": "address"
        },
        {
          "internalType": "address",
          "name": "to",
          "type": "address"
        },
        {
          "internalType": "uint256",
          "name": "tokenId",
          "type": "uint256"
        }
      ],
      "name": "transferFrom",
      "outputs": [],
      "stateMutability": "nonpayable",
      "type": "function"
    },
    {
      "inputs": [
        {
          "internalType": "uint256",
          "name": "tokenId",
          "type": "uint256"
        }
      ],
      "name": "unpausedCHI",
      "outputs": [],
      "stateMutability": "nonpayable",
      "type": "function"
    },
    {
      "inputs": [
        {
          "internalType": "uint256",
          "name": "yangId",
          "type": "uint256"
        },
        {
          "internalType": "uint256",
          "name": "tokenId",
          "type": "uint256"
        },
        {
          "internalType": "uint256",
          "name": "shares",
          "type": "uint256"
        },
        {
          "internalType": "uint256",
          "name": "amount0Min",
          "type": "uint256"
        },
        {
          "internalType": "uint256",
          "name": "amount1Min",
          "type": "uint256"
        }
      ],
      "name": "unsubscribe",
      "outputs": [
        {
          "internalType": "uint256",
          "name": "amount0",
          "type": "uint256"
        },
        {
          "internalType": "uint256",
          "name": "amount1",
          "type": "uint256"
        }
      ],
      "stateMutability": "nonpayable",
      "type": "function"
    },
    {
      "inputs": [
        {
          "internalType": "bytes32",
          "name": "_merkleRoot",
          "type": "bytes32"
        }
      ],
      "name": "updateMerkleRoot",
      "outputs": [],
      "stateMutability": "nonpayable",
      "type": "function"
    },
    {
      "inputs": [
        {
          "internalType": "uint256",
          "name": "_vaultFee_",
          "type": "uint256"
        }
      ],
      "name": "updateVaultFee",
      "outputs": [],
      "stateMutability": "nonpayable",
      "type": "function"
    },
    {
      "inputs": [],
      "name": "v3Factory",
      "outputs": [
        {
          "internalType": "address",
          "name": "",
          "type": "address"
        }
      ],
      "stateMutability": "view",
      "type": "function"
    },
    {
      "inputs": [],
      "name": "yangNFT",
      "outputs": [
        {
          "internalType": "address",
          "name": "",
          "type": "address"
        }
      ],
      "stateMutability": "view",
      "type": "function"
    }
  ],
  "bytecode": "0x608060405234801561001057600080fd5b50614263806100206000396000f3fe608060405234801561001057600080fd5b50600436106102de5760003560e01c806354cc59ba11610186578063b9decd66116100e3578063e2c3350e11610097578063ec28fcac11610071578063ec28fcac146105e2578063ed1bbd0b14610604578063f801deaa14610617576102de565b8063e2c3350e146105a9578063e60e5c31146105bc578063e985e9c5146105cf576102de565b8063c87b56dd116100c8578063c87b56dd1461057b578063d5f394881461058e578063df84f84d14610596576102de565b8063b9decd6614610541578063c2108d1b14610568576102de565b80637b2834f51161013a57806395d89b411161011f57806395d89b4114610513578063a22cb4651461051b578063b88d4fde1461052e576102de565b80637b2834f5146104f85780637c887c591461050b576102de565b80636352211e1161016b5780636352211e146104ca5780636c0360eb146104dd57806370a08231146104e5576102de565b806354cc59ba146104965780635d87b6e4146104b7576102de565b80632eb4a7ab1161023f57806346698e75116101f35780634b57512d116101cd5780634b57512d1461045d5780634f6ccce714610470578063514ea4bf14610483576102de565b806346698e75146104215780634783f0ef14610442578063481c6a7514610455576102de565b806338187e851161022457806338187e85146103e55780634259ab441461040657806342842e0e1461040e576102de565b80632eb4a7ab146103ca5780632f745c59146103d2576102de565b80630e082b7411610296578063211833861161027b578063211833861461039157806323b872dd146103a457806325f368ae146103b7576102de565b80630e082b741461036957806318160ddd1461037c576102de565b8063081812fc116102c7578063081812fc14610321578063095ea7b3146103415780630cb1ac8c14610356576102de565b806301ffc9a7146102e357806306fdde031461030c575b600080fd5b6102f66102f1366004613687565b61062a565b6040516103039190613bb5565b60405180910390f35b610314610665565b6040516103039190613bef565b61033461032f36600461366f565b6106fb565b6040516103039190613b0b565b61035461034f366004613628565b610747565b005b61035461036436600461366f565b61081d565b610354610377366004613967565b6108be565b6103846109c8565b6040516103039190613bd2565b61035461039f36600461366f565b6109d9565b6103546103b23660046134f7565b610a54565b6103546103c53660046139e0565b610aab565b610384610b97565b6103846103e0366004613628565b610b9d565b6103f86103f3366004613728565b610bc8565b604051610303929190613f33565b610334610f97565b61035461041c3660046134f7565b610fa6565b61043461042f366004613a51565b610fc1565b604051610303929190613afd565b61035461045036600461366f565b6111c1565b6103346111f0565b61035461046b3660046138e8565b6111ff565b61038461047e36600461366f565b6112ad565b61038461049136600461366f565b6112c3565b6104a96104a436600461366f565b6112d5565b604051610303929190613bc0565b6103546104c5366004613923565b6112ff565b6103346104d836600461366f565b611406565b61031461142e565b6103846104f3366004613487565b611433565b61035461050636600461366f565b61149b565b6103346114ca565b6103146114d9565b6103546105293660046135fb565b61153a565b61035461053c366004613537565b61163f565b61055461054f36600461366f565b61169d565b604051610303989796959493929190613b43565b610354610576366004613a20565b61190e565b61031461058936600461366f565b6119c1565b6103346119e9565b6103546105a4366004613871565b6119f8565b6103546105b73660046138e8565b611be2565b6103546105ca3660046137af565b611c90565b6102f66105dd3660046134bf565b611e44565b6105f56105f0366004613a8b565b611e72565b60405161030393929190613fae565b6103546106123660046136c7565b61205d565b61035461062536600461366f565b6121b6565b7fffffffff00000000000000000000000000000000000000000000000000000000811660009081526065602052604090205460ff165b919050565b609c8054604080516020601f60026000196101006001881615020190951694909404938401819004810282018101909252828152606093909290918301828280156106f15780601f106106c6576101008083540402835291602001916106f1565b820191906000526020600020905b8154815290600101906020018083116106d457829003601f168201915b5050505050905090565b60006107068261224b565b61072b5760405162461bcd60e51b815260040161072290613ed6565b60405180910390fd5b50600090815260cb60205260409020546001600160a01b031690565b600061075282611406565b9050806001600160a01b0316836001600160a01b031614156107a55760405162461bcd60e51b81526004018080602001828103825260218152602001806142056021913960400191505060405180910390fd5b806001600160a01b03166107b7612258565b6001600160a01b031614806107d357506107d3816105dd612258565b61080e5760405162461bcd60e51b81526004018080602001828103825260388152602001806141016038913960400191505060405180910390fd5b610818838361225c565b505050565b600081815260cb6020526040902061083533836122d7565b8061084a575060cc546001600160a01b031633145b6108665760405162461bcd60e51b815260040161072290613dfa565b6002810154600160a81b900460ff16156108925760405162461bcd60e51b815260040161072290613dc3565b60020180547fffffffffffffffffffffff00ffffffffffffffffffffffffffffffffffffffff16905550565b60cc546001600160a01b031633146108e85760405162461bcd60e51b815260040161072290613cb0565b600083815260cb602052604090206002810154600160a81b900460ff16156109225760405162461bcd60e51b815260040161072290613ce7565b60028101546040517fd4da61850000000000000000000000000000000000000000000000000000000081526001600160a01b039091169063d4da61859061096f9086908690600401613f6f565b6040805180830381600087803b15801561098857600080fd5b505af115801561099c573d6000803e3d6000fd5b505050506040513d601f19601f820116820180604052508101906109c09190613944565b505050505050565b60006109d4609861237b565b905090565b600081815260cb602052604090206109f133836122d7565b80610a06575060cc546001600160a01b031633145b610a225760405162461bcd60e51b815260040161072290613dfa565b60020180547fffffffffffffffffffffff00ffffffffffffffffffffffffffffffffffffffff16600160a01b17905550565b610a65610a5f612258565b826122d7565b610aa05760405162461bcd60e51b81526004018080602001828103825260318152602001806142266031913960400191505060405180910390fd5b610818838383612386565b60cc546001600160a01b03163314610ad55760405162461bcd60e51b815260040161072290613cb0565b600084815260cb602052604090206002810154600160a01b900460ff1615610b0f5760405162461bcd60e51b815260040161072290613c42565b60028101546040517f0430c1300000000000000000000000000000000000000000000000000000000081526001600160a01b0390911690630430c13090610b5e90879087908790600401613f8f565b600060405180830381600087803b158015610b7857600080fd5b505af1158015610b8c573d6000803e3d6000fd5b505050505050505050565b60d05481565b6001600160a01b0382166000908152609760205260408120610bbf90836124d2565b90505b92915050565b6000808383600033604051602001610be09190613acd565b604051602081830303815290604052805190602001209050610c398383808060200260200160405190810160405280939291908181526020018383602002808284376000920191909152505060d05491508490506124de565b610c555760405162461bcd60e51b815260040161072290613c79565b60cd546000906001600160a01b0316631698ee82610c7960408c0160208d01613487565b610c8960608d0160408e01613487565b610c9960808e0160608f01613836565b6040518463ffffffff1660e01b8152600401610cb793929190613b8d565b60206040518083038186803b158015610ccf57600080fd5b505afa158015610ce3573d6000803e3d6000fd5b505050506040513d601f19601f82011682018060405250810190610d0791906134a3565b90506001600160a01b038116610d2f5760405162461bcd60e51b815260040161072290613d55565b60cf5460d2546040517f58b4b7110000000000000000000000000000000000000000000000000000000081526001600160a01b03909216916358b4b71191610d7d9185913091600401613b1f565b602060405180830381600087803b158015610d9757600080fd5b505af1158015610dab573d6000803e3d6000fd5b505050506040513d601f19601f82011682018060405250810190610dcf91906134a3565b9450610e36610de160208b018b613487565b60c980547fffffffffffffffffffff000000000000000000000000000000000000000000008116600175ffffffffffffffffffffffffffffffffffffffffffff92831690810190921617909155975087612589565b6040805160a0810190915280610e4f60208c018c613487565b6001600160a01b0390811682528381166020808401919091528882166040808501919091526000606080860182905260809586018290528c825260cb8452908290208651815490861673ffffffffffffffffffffffffffffffffffffffff199182161782559387015160018201805491871691861691909117905586830151600290910180549288015197909601511515600160a81b027fffffffffffffffffffff00ffffffffffffffffffffffffffffffffffffffffff971515600160a01b027fffffffffffffffffffffff00ffffffffffffffffffffffffffffffffffffffff92909616929094169190911716929092179390931692909217905560d25490517ff03c0794e29ab9041701d90faa819fd394c96b5d374215f11d7dd03839606d5e91610f8391899185918a9190613f4a565b60405180910390a150505050935093915050565b60ce546001600160a01b031681565b6108188383836040518060200160405280600081525061163f565b60ce5460009081906001600160a01b03163314610ff05760405162461bcd60e51b815260040161072290613e31565b60026001541415611048576040805162461bcd60e51b815260206004820152601f60248201527f5265656e7472616e637947756172643a207265656e7472616e742063616c6c00604482015290519081900360640190fd5b60026001819055600087815260cb6020526040902090810154600160a81b900460ff16156110885760405162461bcd60e51b815260040161072290613ce7565b6000888860405160200161109d929190613afd565b60408051601f198184030181529181528151602092830120600081815260ca90935291208054919250908811156110e65760405162461bcd60e51b815260040161072290613d8c565b600283015460ce546040517fd473a6540000000000000000000000000000000000000000000000000000000081526001600160a01b039283169263d473a6549261113e928f928e928e928e9290911690600401613fc4565b6040805180830381600087803b15801561115757600080fd5b505af115801561116b573d6000803e3d6000fd5b505050506040513d601f19601f8201168201806040525081019061118f9190613944565b600084815260ca602052604090205491965094506111ad90896126b7565b905550506001805590969095509350505050565b60cc546001600160a01b031633146111eb5760405162461bcd60e51b815260040161072290613cb0565b60d055565b60cc546001600160a01b031681565b8261120a33826122d7565b6112265760405162461bcd60e51b815260040161072290613dfa565b600084815260cb602052604090206002810154600160a01b900460ff16156112605760405162461bcd60e51b815260040161072290613c42565b60028101546040517f5a64998b0000000000000000000000000000000000000000000000000000000081526001600160a01b0390911690635a64998b90610b5e9087908790600401613bdb565b6000806112bb609884612714565b509392505050565b60ca6020526000908152604090205481565b600090815260cb602052604090206002015460ff600160a01b8204811692600160a81b9092041690565b60cc546001600160a01b031633146113295760405162461bcd60e51b815260040161072290613cb0565b600082815260cb602052604090206002810154600160a81b900460ff16156113635760405162461bcd60e51b815260040161072290613ce7565b60028101546040517f2106fa460000000000000000000000000000000000000000000000000000000081526001600160a01b0390911690632106fa46906113ae908590600401613bd2565b6040805180830381600087803b1580156113c757600080fd5b505af11580156113db573d6000803e3d6000fd5b505050506040513d601f19601f820116820180604052508101906113ff9190613944565b5050505050565b6000610bc2826040518060600160405280602981526020016141636029913960989190612732565b606090565b60006001600160a01b03821661147a5760405162461bcd60e51b815260040180806020018281038252602a815260200180614139602a913960400191505060405180910390fd5b6001600160a01b0382166000908152609760205260409020610bc29061237b565b60cc546001600160a01b031633146114c55760405162461bcd60e51b815260040161072290613cb0565b60d255565b60cd546001600160a01b031681565b609d8054604080516020601f60026000196101006001881615020190951694909404938401819004810282018101909252828152606093909290918301828280156106f15780601f106106c6576101008083540402835291602001916106f1565b611542612258565b6001600160a01b0316826001600160a01b031614156115a8576040805162461bcd60e51b815260206004820152601960248201527f4552433732313a20617070726f766520746f2063616c6c657200000000000000604482015290519081900360640190fd5b80609b60006115b5612258565b6001600160a01b03908116825260208083019390935260409182016000908120918716808252919093529120805460ff1916921515929092179091556115f9612258565b6001600160a01b03167f17307eab39ab6107e8899845ad3d59bd9653f200f220920489ca2b5937696c318360405180821515815260200191505060405180910390a35050565b61165061164a612258565b836122d7565b61168b5760405162461bcd60e51b81526004018080602001828103825260318152602001806142266031913960400191505060405180910390fd5b6116978484848461273f565b50505050565b600081815260cb6020526040812081908190819081908190819081906116c28a61224b565b6116de5760405162461bcd60e51b815260040161072290613e9f565b60028101546001600160a01b03166116f58b611406565b825460018401546002850154604080517feae989a200000000000000000000000000000000000000000000000000000000815290516001600160a01b0394851694938416939283169287169163eae989a2916004808301926020929190829003018186803b15801561176657600080fd5b505afa15801561177a573d6000803e3d6000fd5b505050506040513d601f19601f8201168201806040525081019061179e9190613859565b856001600160a01b031663a00fa77f6040518163ffffffff1660e01b815260040160206040518083038186803b1580156117d757600080fd5b505afa1580156117eb573d6000803e3d6000fd5b505050506040513d601f19601f8201168201806040525081019061180f9190613859565b866001600160a01b031663b0e21e8a6040518163ffffffff1660e01b815260040160206040518083038186803b15801561184857600080fd5b505afa15801561185c573d6000803e3d6000fd5b505050506040513d601f19601f820116820180604052508101906118809190613859565b876001600160a01b03166318160ddd6040518163ffffffff1660e01b815260040160206040518083038186803b1580156118b957600080fd5b505afa1580156118cd573d6000803e3d6000fd5b505050506040513d601f19601f820116820180604052508101906118f19190613859565b995099509950995099509950995099505050919395975091939597565b60cc546001600160a01b031633146119385760405162461bcd60e51b815260040161072290613cb0565b600084815260cb602052604090206002810154600160a01b900460ff16156119725760405162461bcd60e51b815260040161072290613c42565b60028101546040517f9d9d75be0000000000000000000000000000000000000000000000000000000081526001600160a01b0390911690639d9d75be90610b5e90879087908790600401613fae565b60606119cc8261224b565b6119d557600080fd5b505060408051602081019091526000815290565b60cf546001600160a01b031681565b84611a0333826122d7565b611a1f5760405162461bcd60e51b815260040161072290613dfa565b600086815260cb602052604090206002810154600160a01b900460ff1615611a595760405162461bcd60e51b815260040161072290613c42565b60005b85811015611b185760028201546001600160a01b031663db4dcce4888884818110611a8357fe5b611a99926020604090920201908101915061370e565b898985818110611aa557fe5b9050604002016020016020810190611abd919061370e565b6040518363ffffffff1660e01b8152600401611ada929190613bdb565b600060405180830381600087803b158015611af457600080fd5b505af1158015611b08573d6000803e3d6000fd5b505060019092019150611a5c9050565b5060005b83811015611bd85760028201546001600160a01b0316635a64998b868684818110611b4357fe5b611b59926020604090920201908101915061370e565b878785818110611b6557fe5b9050604002016020016020810190611b7d919061370e565b6040518363ffffffff1660e01b8152600401611b9a929190613bdb565b600060405180830381600087803b158015611bb457600080fd5b505af1158015611bc8573d6000803e3d6000fd5b505060019092019150611b1c9050565b5050505050505050565b82611bed33826122d7565b611c095760405162461bcd60e51b815260040161072290613dfa565b600084815260cb602052604090206002810154600160a01b900460ff1615611c435760405162461bcd60e51b815260040161072290613c42565b60028101546040517fdb4dcce40000000000000000000000000000000000000000000000000000000081526001600160a01b039091169063db4dcce490610b5e9087908790600401613bdb565b600054610100900460ff1680611ca95750611ca9612791565b80611cb7575060005460ff16155b611cf25760405162461bcd60e51b815260040180806020018281038252602e81526020018061418c602e913960400191505060405180910390fd5b600054610100900460ff16158015611d1d576000805460ff1961ff0019909116610100171660011790555b60cc80543373ffffffffffffffffffffffffffffffffffffffff199182161790915560cd805482166001600160a01b038981169190911790915560ce8054831688831617905560cf805490921690861617905560d083905560c980547fffffffffffffffffffff000000000000000000000000000000000000000000001675ffffffffffffffffffffffffffffffffffffffffffff891617905560d282905560408051808201825260208082527f59494e20556e697377617020563320506f736974696f6e73204d616e61676572818301528251808401909352600383527f434849000000000000000000000000000000000000000000000000000000000090830152611e29916127a2565b8015611e3b576000805461ff00191690555b50505050505050565b6001600160a01b039182166000908152609b6020908152604080832093909416825291909152205460ff1690565b60ce54600090819081906001600160a01b03163314611ea35760405162461bcd60e51b815260040161072290613e31565b60d1889055600154889060021415611f02576040805162461bcd60e51b815260206004820152601f60248201527f5265656e7472616e637947756172643a207265656e7472616e742063616c6c00604482015290519081900360640190fd5b6002600181905560008a815260cb6020526040902090810154600160a01b900460ff1615611f425760405162461bcd60e51b815260040161072290613c42565b60028101546040517fbf02b5ea0000000000000000000000000000000000000000000000000000000081526001600160a01b039091169063bf02b5ea90611f95908e908d908d908d908d90600401613ff0565b606060405180830381600087803b158015611faf57600080fd5b505af1158015611fc3573d6000803e3d6000fd5b505050506040513d601f19601f82011682018060405250810190611fe791906139b3565b6040519297509095509350600090612005908d908d90602001613afd565b60408051601f198184030181529181528151602092830120600081815260ca909352912054909150612037908761285f565b600091825260ca60205260408220556001805560d1555092999198509650945050505050565b612066336128b9565b821561210f5760ce546040517f23b872dd0000000000000000000000000000000000000000000000000000000081526001600160a01b03868116926323b872dd926120bb929091169033908890600401613b1f565b602060405180830381600087803b1580156120d557600080fd5b505af11580156120e9573d6000803e3d6000fd5b505050506040513d601f19601f8201168201806040525081019061210d9190613653565b505b80156116975760ce546040517f23b872dd0000000000000000000000000000000000000000000000000000000081526001600160a01b03848116926323b872dd92612164929091169033908690600401613b1f565b602060405180830381600087803b15801561217e57600080fd5b505af1158015612192573d6000803e3d6000fd5b505050506040513d601f19601f820116820180604052508101906113ff9190613653565b60cc546001600160a01b031633146121e05760405162461bcd60e51b815260040161072290613cb0565b600081815260cb602052604090206002810154600160a01b900460ff166122195760405162461bcd60e51b815260040161072290613e68565b60020180547fffffffffffffffffffff00ffffffffffffffffffffffffffffffffffffffffff16600160a81b17905550565b6000610bc26098836128fd565b3390565b600081815260cb60205260409020805473ffffffffffffffffffffffffffffffffffffffff19166001600160a01b038416908117909155819061229e82611406565b6001600160a01b03167f8c5be1e5ebec7d5bd14f71427d1e84f3dd0314c0f7b2291e5b200ac8c7c3b92560405160405180910390a45050565b60006122e28261224b565b61231d5760405162461bcd60e51b815260040180806020018281038252602c8152602001806140d5602c913960400191505060405180910390fd5b600061232883611406565b9050806001600160a01b0316846001600160a01b031614806123635750836001600160a01b0316612358846106fb565b6001600160a01b0316145b8061237357506123738185611e44565b949350505050565b6000610bc282612909565b826001600160a01b031661239982611406565b6001600160a01b0316146123de5760405162461bcd60e51b81526004018080602001828103825260298152602001806141dc6029913960400191505060405180910390fd5b6001600160a01b0382166124235760405162461bcd60e51b815260040180806020018281038252602481526020018061408b6024913960400191505060405180910390fd5b61242e838383610818565b61243960008261225c565b6001600160a01b038316600090815260976020526040902061245b908261290d565b506001600160a01b038216600090815260976020526040902061247e9082612919565b5061248b60988284612925565b5080826001600160a01b0316846001600160a01b03167fddf252ad1be2c89b69c2b068fc378daa952ba7f163c4a11628f55a4df523b3ef60405160405180910390a4505050565b6000610bbf838361293b565b600081815b855181101561257c5760008682815181106124fa57fe5b602002602001015190508083116125415782816040516020018083815260200182815260200192505050604051602081830303815290604052805190602001209250612573565b808360405160200180838152602001828152602001925050506040516020818303038152906040528051906020012092505b506001016124e3565b50831490505b9392505050565b6001600160a01b0382166125e4576040805162461bcd60e51b815260206004820181905260248201527f4552433732313a206d696e7420746f20746865207a65726f2061646472657373604482015290519081900360640190fd5b6125ed8161224b565b1561263f576040805162461bcd60e51b815260206004820152601c60248201527f4552433732313a20746f6b656e20616c7265616479206d696e74656400000000604482015290519081900360640190fd5b61264b60008383610818565b6001600160a01b038216600090815260976020526040902061266d9082612919565b5061267a60988284612925565b5060405181906001600160a01b038416906000907fddf252ad1be2c89b69c2b068fc378daa952ba7f163c4a11628f55a4df523b3ef908290a45050565b60008282111561270e576040805162461bcd60e51b815260206004820152601e60248201527f536166654d6174683a207375627472616374696f6e206f766572666c6f770000604482015290519081900360640190fd5b50900390565b6000808080612723868661299f565b909450925050505b9250929050565b6000612373848484612a1a565b61274a848484612386565b61275684848484612ae4565b6116975760405162461bcd60e51b81526004018080602001828103825260328152602001806140596032913960400191505060405180910390fd5b600061279c30612cc0565b15905090565b600054610100900460ff16806127bb57506127bb612791565b806127c9575060005460ff16155b6128045760405162461bcd60e51b815260040180806020018281038252602e81526020018061418c602e913960400191505060405180910390fd5b600054610100900460ff1615801561282f576000805460ff1961ff0019909116610100171660011790555b612837612cc6565b61283f612d68565b6128498383612e1e565b8015610818576000805461ff0019169055505050565b600082820183811015610bbf576040805162461bcd60e51b815260206004820152601b60248201527f536166654d6174683a206164646974696f6e206f766572666c6f770000000000604482015290519081900360640190fd5b60d154600090815260cb6020526040902060028101546001600160a01b038381169116146128f95760405162461bcd60e51b815260040161072290613d1e565b5050565b6000610bbf8383612f4e565b5490565b6000610bbf8383612f66565b6000610bbf838361302c565b600061237384846001600160a01b038516613076565b8154600090821061297d5760405162461bcd60e51b81526004018080602001828103825260228152602001806140376022913960400191505060405180910390fd5b82600001828154811061298c57fe5b9060005260206000200154905092915050565b8154600090819083106129e35760405162461bcd60e51b81526004018080602001828103825260228152602001806141ba6022913960400191505060405180910390fd5b60008460000184815481106129f457fe5b906000526020600020906002020190508060000154816001015492509250509250929050565b60008281526001840160205260408120548281612ab55760405162461bcd60e51b81526004018080602001828103825283818151815260200191508051906020019080838360005b83811015612a7a578181015183820152602001612a62565b50505050905090810190601f168015612aa75780820380516001836020036101000a031916815260200191505b509250505060405180910390fd5b50846000016001820381548110612ac857fe5b9060005260206000209060020201600101549150509392505050565b6000612af8846001600160a01b0316612cc0565b612b0457506001612373565b6000612c557f150b7a0200000000000000000000000000000000000000000000000000000000612b32612258565b88878760405160240180856001600160a01b03168152602001846001600160a01b0316815260200183815260200180602001828103825283818151815260200191508051906020019080838360005b83811015612b99578181015183820152602001612b81565b50505050905090810190601f168015612bc65780820380516001836020036101000a031916815260200191505b5095505050505050604051602081830303815290604052907bffffffffffffffffffffffffffffffffffffffffffffffffffffffff19166020820180517bffffffffffffffffffffffffffffffffffffffffffffffffffffffff8381831617835250505050604051806060016040528060328152602001614059603291396001600160a01b038816919061310d565b90506000818060200190516020811015612c6e57600080fd5b50517fffffffff00000000000000000000000000000000000000000000000000000000167f150b7a02000000000000000000000000000000000000000000000000000000001492505050949350505050565b3b151590565b600054610100900460ff1680612cdf5750612cdf612791565b80612ced575060005460ff16155b612d285760405162461bcd60e51b815260040180806020018281038252602e81526020018061418c602e913960400191505060405180910390fd5b600054610100900460ff16158015612d53576000805460ff1961ff0019909116610100171660011790555b8015612d65576000805461ff00191690555b50565b600054610100900460ff1680612d815750612d81612791565b80612d8f575060005460ff16155b612dca5760405162461bcd60e51b815260040180806020018281038252602e81526020018061418c602e913960400191505060405180910390fd5b600054610100900460ff16158015612df5576000805460ff1961ff0019909116610100171660011790555b612d537f01ffc9a70000000000000000000000000000000000000000000000000000000061311c565b600054610100900460ff1680612e375750612e37612791565b80612e45575060005460ff16155b612e805760405162461bcd60e51b815260040180806020018281038252602e81526020018061418c602e913960400191505060405180910390fd5b600054610100900460ff16158015612eab576000805460ff1961ff0019909116610100171660011790555b8251612ebe90609c906020860190613391565b508151612ed290609d906020850190613391565b50612efc7f80ac58cd0000000000000000000000000000000000000000000000000000000061311c565b612f257f5b5e139f0000000000000000000000000000000000000000000000000000000061311c565b6128497f780e9d630000000000000000000000000000000000000000000000000000000061311c565b60009081526001919091016020526040902054151590565b600081815260018301602052604081205480156130225783546000198083019190810190600090879083908110612f9957fe5b9060005260206000200154905080876000018481548110612fb657fe5b600091825260208083209091019290925582815260018981019092526040902090840190558654879080612fe657fe5b60019003818190600052602060002001600090559055866001016000878152602001908152602001600020600090556001945050505050610bc2565b6000915050610bc2565b60006130388383612f4e565b61306e57508154600181810184556000848152602080822090930184905584548482528286019093526040902091909155610bc2565b506000610bc2565b6000828152600184016020526040812054806130db575050604080518082018252838152602080820184815286546001818101895560008981528481209551600290930290950191825591519082015586548684528188019092529290912055612582565b828560000160018303815481106130ee57fe5b9060005260206000209060020201600101819055506000915050612582565b606061237384846000856131d0565b7fffffffff000000000000000000000000000000000000000000000000000000008082161415613193576040805162461bcd60e51b815260206004820152601c60248201527f4552433136353a20696e76616c696420696e7465726661636520696400000000604482015290519081900360640190fd5b7fffffffff00000000000000000000000000000000000000000000000000000000166000908152606560205260409020805460ff19166001179055565b6060824710156132115760405162461bcd60e51b81526004018080602001828103825260268152602001806140af6026913960400191505060405180910390fd5b61321a85612cc0565b61326b576040805162461bcd60e51b815260206004820152601d60248201527f416464726573733a2063616c6c20746f206e6f6e2d636f6e7472616374000000604482015290519081900360640190fd5b600080866001600160a01b031685876040518082805190602001908083835b602083106132a95780518252601f19909201916020918201910161328a565b6001836020036101000a03801982511681845116808217855250505050505090500191505060006040518083038185875af1925050503d806000811461330b576040519150601f19603f3d011682016040523d82523d6000602084013e613310565b606091505b509150915061332082828661332b565b979650505050505050565b6060831561333a575081612582565b82511561334a5782518084602001fd5b60405162461bcd60e51b8152602060048201818152845160248401528451859391928392604401919085019080838360008315612a7a578181015183820152602001612a62565b828054600181600116156101000203166002900490600052602060002090601f0160209004810192826133c7576000855561340d565b82601f106133e057805160ff191683800117855561340d565b8280016001018555821561340d579182015b8281111561340d5782518255916020019190600101906133f2565b5061341992915061341d565b5090565b5b80821115613419576000815560010161341e565b60008083601f840112613443578182fd5b50813567ffffffffffffffff81111561345a578182fd5b60208301915083602060408302850101111561272b57600080fd5b8035600281900b811461066057600080fd5b600060208284031215613498578081fd5b8135610bbf81614013565b6000602082840312156134b4578081fd5b8151610bbf81614013565b600080604083850312156134d1578081fd5b82356134dc81614013565b915060208301356134ec81614013565b809150509250929050565b60008060006060848603121561350b578081fd5b833561351681614013565b9250602084013561352681614013565b929592945050506040919091013590565b6000806000806080858703121561354c578081fd5b843561355781614013565b935060208581013561356881614013565b935060408601359250606086013567ffffffffffffffff8082111561358b578384fd5b818801915088601f83011261359e578384fd5b8135818111156135aa57fe5b60405184601f19601f84011682010181811084821117156135c757fe5b60405281815283820185018b10156135dd578586fd5b81858501868301379081019093019390935250939692955090935050565b6000806040838503121561360d578182fd5b823561361881614013565b915060208301356134ec81614028565b6000806040838503121561363a578182fd5b823561364581614013565b946020939093013593505050565b600060208284031215613664578081fd5b8151610bbf81614028565b600060208284031215613680578081fd5b5035919050565b600060208284031215613698578081fd5b81357fffffffff0000000000000000000000000000000000000000000000000000000081168114610bbf578182fd5b600080600080608085870312156136dc578182fd5b84356136e781614013565b93506020850135925060408501356136fe81614013565b9396929550929360600135925050565b60006020828403121561371f578081fd5b610bbf82613475565b600080600083850360a081121561373d578182fd5b608081121561374a578182fd5b50839250608084013567ffffffffffffffff80821115613768578283fd5b818601915086601f83011261377b578283fd5b813581811115613789578384fd5b876020808302850101111561379c578384fd5b6020830194508093505050509250925092565b60008060008060008060c087890312156137c7578384fd5b863575ffffffffffffffffffffffffffffffffffffffffffff811681146137ec578485fd5b955060208701356137fc81614013565b9450604087013561380c81614013565b9350606087013561381c81614013565b9598949750929560808101359460a0909101359350915050565b600060208284031215613847578081fd5b813562ffffff81168114610bbf578182fd5b60006020828403121561386a578081fd5b5051919050565b600080600080600060608688031215613888578283fd5b85359450602086013567ffffffffffffffff808211156138a6578485fd5b6138b289838a01613432565b909650945060408801359150808211156138ca578283fd5b506138d788828901613432565b969995985093965092949392505050565b6000806000606084860312156138fc578081fd5b8335925061390c60208501613475565b915061391a60408501613475565b90509250925092565b60008060408385031215613935578182fd5b50508035926020909101359150565b60008060408385031215613956578182fd5b505080516020909101519092909150565b60008060006060848603121561397b578081fd5b833592506020840135915060408401356fffffffffffffffffffffffffffffffff811681146139a8578182fd5b809150509250925092565b6000806000606084860312156139c7578081fd5b8351925060208401519150604084015190509250925092565b600080600080608085870312156139f5578182fd5b8435935060208501359250604085013591506060850135613a1581614013565b939692955090935050565b60008060008060808587031215613a35578182fd5b5050823594602084013594506040840135936060013592509050565b600080600080600060a08688031215613a68578283fd5b505083359560208501359550604085013594606081013594506080013592509050565b60008060008060008060c08789031215613aa3578384fd5b505084359660208601359650604086013595606081013595506080810135945060a0013592509050565b60609190911b7fffffffffffffffffffffffffffffffffffffffff00000000000000000000000016815260140190565b918252602082015260400190565b6001600160a01b0391909116815260200190565b6001600160a01b039384168152919092166020820152604081019190915260600190565b6001600160a01b03988916815296881660208801529487166040870152929095166060850152608084015260a083019390935260c082019290925260e08101919091526101000190565b6001600160a01b03938416815291909216602082015262ffffff909116604082015260600190565b901515815260200190565b91151582521515602082015260400190565b90815260200190565b600292830b8152910b602082015260400190565b6000602080835283518082850152825b81811015613c1b57858101830151858201604001528201613bff565b81811115613c2c5783604083870101525b50601f01601f1916929092016040019392505050565b6020808252600a908201527f4348492050617573656400000000000000000000000000000000000000000000604082015260600190565b60208082526009908201527f6f6e6c7920676f76730000000000000000000000000000000000000000000000604082015260600190565b60208082526007908201527f6d616e6167657200000000000000000000000000000000000000000000000000604082015260600190565b6020808252600c908201527f4348492041726368697665640000000000000000000000000000000000000000604082015260600190565b6020808252600d908201527f63616c6c6261636b206661696c00000000000000000000000000000000000000604082015260600190565b60208082526011908201527f4e6f6e2d6578697374656e7420706f6f6c000000000000000000000000000000604082015260600190565b60208082526001908201527f7300000000000000000000000000000000000000000000000000000000000000604082015260600190565b6020808252600c908201527f4348492061726368697665640000000000000000000000000000000000000000604082015260600190565b6020808252600c908201527f4e6f7420617070726f7665640000000000000000000000000000000000000000604082015260600190565b60208082526001908201527f7900000000000000000000000000000000000000000000000000000000000000604082015260600190565b6020808252600e908201527f434849206e6f7420706175736564000000000000000000000000000000000000604082015260600190565b60208082526010908201527f496e76616c696420746f6b656e20494400000000000000000000000000000000604082015260600190565b60208082526037908201527f4552433732315570677261646561626c653a20617070726f766564207175657260408201527f7920666f72206e6f6e6578697374656e7420746f6b656e000000000000000000606082015260800190565b9182526001600160a01b0316602082015260400190565b9384526001600160a01b03928316602085015291166040830152606082015260800190565b9182526fffffffffffffffffffffffffffffffff16602082015260400190565b92835260208301919091526001600160a01b0316604082015260600190565b9283526020830191909152604082015260600190565b9485526020850193909352604084019190915260608301526001600160a01b0316608082015260a00190565b948552602085019390935260408401919091526060830152608082015260a00190565b6001600160a01b0381168114612d6557600080fd5b8015158114612d6557600080fdfe456e756d657261626c655365743a20696e646578206f7574206f6620626f756e64734552433732313a207472616e7366657220746f206e6f6e20455243373231526563656976657220696d706c656d656e7465724552433732313a207472616e7366657220746f20746865207a65726f2061646472657373416464726573733a20696e73756666696369656e742062616c616e636520666f722063616c6c4552433732313a206f70657261746f7220717565727920666f72206e6f6e6578697374656e7420746f6b656e4552433732313a20617070726f76652063616c6c6572206973206e6f74206f776e6572206e6f7220617070726f76656420666f7220616c6c4552433732313a2062616c616e636520717565727920666f7220746865207a65726f20616464726573734552433732313a206f776e657220717565727920666f72206e6f6e6578697374656e7420746f6b656e496e697469616c697a61626c653a20636f6e747261637420697320616c726561647920696e697469616c697a6564456e756d657261626c654d61703a20696e646578206f7574206f6620626f756e64734552433732313a207472616e73666572206f6620746f6b656e2074686174206973206e6f74206f776e4552433732313a20617070726f76616c20746f2063757272656e74206f776e65724552433732313a207472616e736665722063616c6c6572206973206e6f74206f776e6572206e6f7220617070726f766564a164736f6c6343000706000a",
  "linkReferences": {},
  "deployedLinkReferences": {}
}