{
  "_format": "hh-sol-artifact-1",
  "contractName": "CHIManager",
  "sourceName": "contracts/CHIManager.sol",
  "abi": [
    {
      "anonymous": false,
      "inputs": [
        {
          "indexed": true,
          "internalType": "address",
          "name": "owner",
          "type": "address"
        },
        {
          "indexed": true,
          "internalType": "address",
          "name": "approved",
          "type": "address"
        },
        {
          "indexed": true,
          "internalType": "uint256",
          "name": "tokenId",
          "type": "uint256"
        }
      ],
      "name": "Approval",
      "type": "event"
    },
    {
      "anonymous": false,
      "inputs": [
        {
          "indexed": true,
          "internalType": "address",
          "name": "owner",
          "type": "address"
        },
        {
          "indexed": true,
          "internalType": "address",
          "name": "operator",
          "type": "address"
        },
        {
          "indexed": false,
          "internalType": "bool",
          "name": "approved",
          "type": "bool"
        }
      ],
      "name": "ApprovalForAll",
      "type": "event"
    },
    {
      "anonymous": false,
      "inputs": [
        {
          "indexed": false,
          "internalType": "uint256",
          "name": "tokenId",
          "type": "uint256"
        },
        {
          "indexed": false,
          "internalType": "address",
          "name": "pool",
          "type": "address"
        },
        {
          "indexed": false,
          "internalType": "address",
          "name": "vault",
          "type": "address"
        },
        {
          "indexed": false,
          "internalType": "uint256",
          "name": "vaultFee",
          "type": "uint256"
        }
      ],
      "name": "Create",
      "type": "event"
    },
    {
      "anonymous": false,
      "inputs": [
        {
          "indexed": true,
          "internalType": "address",
          "name": "from",
          "type": "address"
        },
        {
          "indexed": true,
          "internalType": "address",
          "name": "to",
          "type": "address"
        },
        {
          "indexed": true,
          "internalType": "uint256",
          "name": "tokenId",
          "type": "uint256"
        }
      ],
      "name": "Transfer",
      "type": "event"
    },
    {
      "inputs": [
        {
          "internalType": "contract IERC20",
          "name": "token0",
          "type": "address"
        },
        {
          "internalType": "uint256",
          "name": "amount0",
          "type": "uint256"
        },
        {
          "internalType": "contract IERC20",
          "name": "token1",
          "type": "address"
        },
        {
          "internalType": "uint256",
          "name": "amount1",
          "type": "uint256"
        }
      ],
      "name": "CHIDepositCallback",
      "outputs": [],
      "stateMutability": "nonpayable",
      "type": "function"
    },
    {
      "inputs": [
        {
          "internalType": "uint256",
          "name": "tokenId",
          "type": "uint256"
        },
        {
          "components": [
            {
              "internalType": "int24",
              "name": "tickLower",
              "type": "int24"
            },
            {
              "internalType": "int24",
              "name": "tickUpper",
              "type": "int24"
            }
          ],
          "internalType": "struct ICHIManager.RangeParams[]",
          "name": "addRanges",
          "type": "tuple[]"
        },
        {
          "components": [
            {
              "internalType": "int24",
              "name": "tickLower",
              "type": "int24"
            },
            {
              "internalType": "int24",
              "name": "tickUpper",
              "type": "int24"
            }
          ],
          "internalType": "struct ICHIManager.RangeParams[]",
          "name": "removeRanges",
          "type": "tuple[]"
        }
      ],
      "name": "addAndRemoveRanges",
      "outputs": [],
      "stateMutability": "nonpayable",
      "type": "function"
    },
    {
      "inputs": [
        {
          "internalType": "uint256",
          "name": "tokenId",
          "type": "uint256"
        },
        {
          "internalType": "uint256",
          "name": "amount0Total",
          "type": "uint256"
        },
        {
          "internalType": "uint256",
          "name": "amount1Total",
          "type": "uint256"
        }
      ],
      "name": "addLiquidityAllToPosition",
      "outputs": [],
      "stateMutability": "nonpayable",
      "type": "function"
    },
    {
      "inputs": [
        {
          "internalType": "uint256",
          "name": "tokenId",
          "type": "uint256"
        },
        {
          "internalType": "uint256",
          "name": "rangeIndex",
          "type": "uint256"
        },
        {
          "internalType": "uint256",
          "name": "amount0Desired",
          "type": "uint256"
        },
        {
          "internalType": "uint256",
          "name": "amount1Desired",
          "type": "uint256"
        }
      ],
      "name": "addLiquidityToPosition",
      "outputs": [],
      "stateMutability": "nonpayable",
      "type": "function"
    },
    {
      "inputs": [
        {
          "internalType": "uint256",
          "name": "tokenId",
          "type": "uint256"
        },
        {
          "internalType": "int24",
          "name": "tickLower",
          "type": "int24"
        },
        {
          "internalType": "int24",
          "name": "tickUpper",
          "type": "int24"
        }
      ],
      "name": "addRange",
      "outputs": [],
      "stateMutability": "nonpayable",
      "type": "function"
    },
    {
      "inputs": [
        {
          "internalType": "uint256",
          "name": "tokenId",
          "type": "uint256"
        },
        {
          "internalType": "uint256[]",
          "name": "percents",
          "type": "uint256[]"
        }
      ],
      "name": "addTickPercents",
      "outputs": [],
      "stateMutability": "nonpayable",
      "type": "function"
    },
    {
      "inputs": [
        {
          "internalType": "address",
          "name": "to",
          "type": "address"
        },
        {
          "internalType": "uint256",
          "name": "tokenId",
          "type": "uint256"
        }
      ],
      "name": "approve",
      "outputs": [],
      "stateMutability": "nonpayable",
      "type": "function"
    },
    {
      "inputs": [
        {
          "internalType": "uint256",
          "name": "tokenId",
          "type": "uint256"
        }
      ],
      "name": "archivedCHI",
      "outputs": [],
      "stateMutability": "nonpayable",
      "type": "function"
    },
    {
      "inputs": [
        {
          "internalType": "address",
          "name": "owner",
          "type": "address"
        }
      ],
      "name": "balanceOf",
      "outputs": [
        {
          "internalType": "uint256",
          "name": "",
          "type": "uint256"
        }
      ],
      "stateMutability": "view",
      "type": "function"
    },
    {
      "inputs": [],
      "name": "baseURI",
      "outputs": [
        {
          "internalType": "string",
          "name": "",
          "type": "string"
        }
      ],
      "stateMutability": "pure",
      "type": "function"
    },
    {
      "inputs": [
        {
          "internalType": "uint256",
          "name": "tokenId",
          "type": "uint256"
        }
      ],
      "name": "chi",
      "outputs": [
        {
          "internalType": "address",
          "name": "owner",
          "type": "address"
        },
        {
          "internalType": "address",
          "name": "operator",
          "type": "address"
        },
        {
          "internalType": "address",
          "name": "pool",
          "type": "address"
        },
        {
          "internalType": "address",
          "name": "vault",
          "type": "address"
        },
        {
          "internalType": "uint256",
          "name": "accruedProtocolFees0",
          "type": "uint256"
        },
        {
          "internalType": "uint256",
          "name": "accruedProtocolFees1",
          "type": "uint256"
        },
        {
          "internalType": "uint256",
          "name": "fee",
          "type": "uint256"
        },
        {
          "internalType": "uint256",
          "name": "totalShares",
          "type": "uint256"
        }
      ],
      "stateMutability": "view",
      "type": "function"
    },
    {
      "inputs": [
        {
          "internalType": "uint256",
          "name": "tokenId",
          "type": "uint256"
        },
        {
          "internalType": "uint256",
          "name": "amount0",
          "type": "uint256"
        },
        {
          "internalType": "uint256",
          "name": "amount1",
          "type": "uint256"
        },
        {
          "internalType": "address",
          "name": "to",
          "type": "address"
        }
      ],
      "name": "collectProtocol",
      "outputs": [],
      "stateMutability": "nonpayable",
      "type": "function"
    },
    {
      "inputs": [],
      "name": "deployer",
      "outputs": [
        {
          "internalType": "address",
          "name": "",
          "type": "address"
        }
      ],
      "stateMutability": "view",
      "type": "function"
    },
    {
      "inputs": [
        {
          "internalType": "uint256",
          "name": "tokenId",
          "type": "uint256"
        },
        {
          "internalType": "int24",
          "name": "tickLower",
          "type": "int24"
        },
        {
          "internalType": "int24",
          "name": "tickUpper",
          "type": "int24"
        },
        {
          "internalType": "bytes32[]",
          "name": "merkleProof",
          "type": "bytes32[]"
        }
      ],
      "name": "emergencyBurn",
      "outputs": [],
      "stateMutability": "nonpayable",
      "type": "function"
    },
    {
      "inputs": [
        {
          "internalType": "uint256",
          "name": "tokenId",
          "type": "uint256"
        }
      ],
      "name": "getApproved",
      "outputs": [
        {
          "internalType": "address",
          "name": "",
          "type": "address"
        }
      ],
      "stateMutability": "view",
      "type": "function"
    },
    {
      "inputs": [
        {
          "internalType": "bytes32",
          "name": "_merkleRoot",
          "type": "bytes32"
        },
        {
          "internalType": "uint176",
          "name": "_initId",
          "type": "uint176"
        },
        {
          "internalType": "uint256",
          "name": "_vaultFee",
          "type": "uint256"
        },
        {
          "internalType": "address",
          "name": "_v3Factory",
          "type": "address"
        },
        {
          "internalType": "address",
          "name": "_yangNFT",
          "type": "address"
        },
        {
          "internalType": "address",
          "name": "_deployer",
          "type": "address"
        },
        {
          "internalType": "address",
          "name": "_manager",
          "type": "address"
        }
      ],
      "name": "initialize",
      "outputs": [],
      "stateMutability": "nonpayable",
      "type": "function"
    },
    {
      "inputs": [
        {
          "internalType": "address",
          "name": "owner",
          "type": "address"
        },
        {
          "internalType": "address",
          "name": "operator",
          "type": "address"
        }
      ],
      "name": "isApprovedForAll",
      "outputs": [
        {
          "internalType": "bool",
          "name": "",
          "type": "bool"
        }
      ],
      "stateMutability": "view",
      "type": "function"
    },
    {
      "inputs": [],
      "name": "manager",
      "outputs": [
        {
          "internalType": "address",
          "name": "",
          "type": "address"
        }
      ],
      "stateMutability": "view",
      "type": "function"
    },
    {
      "inputs": [],
      "name": "merkleRoot",
      "outputs": [
        {
          "internalType": "bytes32",
          "name": "",
          "type": "bytes32"
        }
      ],
      "stateMutability": "view",
      "type": "function"
    },
    {
      "inputs": [
        {
          "components": [
            {
              "internalType": "address",
              "name": "recipient",
              "type": "address"
            },
            {
              "internalType": "address",
              "name": "token0",
              "type": "address"
            },
            {
              "internalType": "address",
              "name": "token1",
              "type": "address"
            },
            {
              "internalType": "uint24",
              "name": "fee",
              "type": "uint24"
            }
          ],
          "internalType": "struct ICHIManager.MintParams",
          "name": "params",
          "type": "tuple"
        },
        {
          "internalType": "bytes32[]",
          "name": "merkleProof",
          "type": "bytes32[]"
        }
      ],
      "name": "mint",
      "outputs": [
        {
          "internalType": "uint256",
          "name": "tokenId",
          "type": "uint256"
        },
        {
          "internalType": "address",
          "name": "vault",
          "type": "address"
        }
      ],
      "stateMutability": "nonpayable",
      "type": "function"
    },
    {
      "inputs": [],
      "name": "name",
      "outputs": [
        {
          "internalType": "string",
          "name": "",
          "type": "string"
        }
      ],
      "stateMutability": "view",
      "type": "function"
    },
    {
      "inputs": [
        {
          "internalType": "uint256",
          "name": "tokenId",
          "type": "uint256"
        }
      ],
      "name": "ownerOf",
      "outputs": [
        {
          "internalType": "address",
          "name": "",
          "type": "address"
        }
      ],
      "stateMutability": "view",
      "type": "function"
    },
    {
      "inputs": [
        {
          "internalType": "uint256",
          "name": "tokenId",
          "type": "uint256"
        }
      ],
      "name": "pausedCHI",
      "outputs": [],
      "stateMutability": "nonpayable",
      "type": "function"
    },
    {
      "inputs": [
        {
          "internalType": "bytes32",
          "name": "",
          "type": "bytes32"
        }
      ],
      "name": "positions",
      "outputs": [
        {
          "internalType": "uint256",
          "name": "shares",
          "type": "uint256"
        }
      ],
      "stateMutability": "view",
      "type": "function"
    },
    {
      "inputs": [
        {
          "internalType": "uint256",
          "name": "tokenId",
          "type": "uint256"
        },
        {
          "internalType": "uint256",
          "name": "rangeIndex",
          "type": "uint256"
        }
      ],
      "name": "removeAllLiquidityFromPosition",
      "outputs": [],
      "stateMutability": "nonpayable",
      "type": "function"
    },
    {
      "inputs": [
        {
          "internalType": "uint256",
          "name": "tokenId",
          "type": "uint256"
        },
        {
          "internalType": "uint256",
          "name": "rangeIndex",
          "type": "uint256"
        },
        {
          "internalType": "uint128",
          "name": "liquidity",
          "type": "uint128"
        }
      ],
      "name": "removeLiquidityFromPosition",
      "outputs": [],
      "stateMutability": "nonpayable",
      "type": "function"
    },
    {
      "inputs": [
        {
          "internalType": "uint256",
          "name": "tokenId",
          "type": "uint256"
        },
        {
          "internalType": "int24",
          "name": "tickLower",
          "type": "int24"
        },
        {
          "internalType": "int24",
          "name": "tickUpper",
          "type": "int24"
        }
      ],
      "name": "removeRange",
      "outputs": [],
      "stateMutability": "nonpayable",
      "type": "function"
    },
    {
      "inputs": [
        {
          "internalType": "address",
          "name": "from",
          "type": "address"
        },
        {
          "internalType": "address",
          "name": "to",
          "type": "address"
        },
        {
          "internalType": "uint256",
          "name": "tokenId",
          "type": "uint256"
        }
      ],
      "name": "safeTransferFrom",
      "outputs": [],
      "stateMutability": "nonpayable",
      "type": "function"
    },
    {
      "inputs": [
        {
          "internalType": "address",
          "name": "from",
          "type": "address"
        },
        {
          "internalType": "address",
          "name": "to",
          "type": "address"
        },
        {
          "internalType": "uint256",
          "name": "tokenId",
          "type": "uint256"
        },
        {
          "internalType": "bytes",
          "name": "_data",
          "type": "bytes"
        }
      ],
      "name": "safeTransferFrom",
      "outputs": [],
      "stateMutability": "nonpayable",
      "type": "function"
    },
    {
      "inputs": [
        {
          "internalType": "address",
          "name": "operator",
          "type": "address"
        },
        {
          "internalType": "bool",
          "name": "approved",
          "type": "bool"
        }
      ],
      "name": "setApprovalForAll",
      "outputs": [],
      "stateMutability": "nonpayable",
      "type": "function"
    },
    {
      "inputs": [
        {
          "internalType": "uint256",
          "name": "tokenId",
          "type": "uint256"
        }
      ],
      "name": "stateOfCHI",
      "outputs": [
        {
          "internalType": "bool",
          "name": "isPaused",
          "type": "bool"
        },
        {
          "internalType": "bool",
          "name": "isArchived",
          "type": "bool"
        }
      ],
      "stateMutability": "view",
      "type": "function"
    },
    {
      "inputs": [
        {
          "internalType": "uint256",
          "name": "yangId",
          "type": "uint256"
        },
        {
          "internalType": "uint256",
          "name": "tokenId",
          "type": "uint256"
        },
        {
          "internalType": "uint256",
          "name": "amount0Desired",
          "type": "uint256"
        },
        {
          "internalType": "uint256",
          "name": "amount1Desired",
          "type": "uint256"
        },
        {
          "internalType": "uint256",
          "name": "amount0Min",
          "type": "uint256"
        },
        {
          "internalType": "uint256",
          "name": "amount1Min",
          "type": "uint256"
        }
      ],
      "name": "subscribe",
      "outputs": [
        {
          "internalType": "uint256",
          "name": "shares",
          "type": "uint256"
        },
        {
          "internalType": "uint256",
          "name": "amount0",
          "type": "uint256"
        },
        {
          "internalType": "uint256",
          "name": "amount1",
          "type": "uint256"
        }
      ],
      "stateMutability": "nonpayable",
      "type": "function"
    },
    {
      "inputs": [
        {
          "internalType": "bytes4",
          "name": "interfaceId",
          "type": "bytes4"
        }
      ],
      "name": "supportsInterface",
      "outputs": [
        {
          "internalType": "bool",
          "name": "",
          "type": "bool"
        }
      ],
      "stateMutability": "view",
      "type": "function"
    },
    {
      "inputs": [
        {
          "internalType": "uint256",
          "name": "tokenId",
          "type": "uint256"
        },
        {
          "internalType": "address",
          "name": "token",
          "type": "address"
        },
        {
          "internalType": "address",
          "name": "to",
          "type": "address"
        },
        {
          "internalType": "bytes32[]",
          "name": "merkleProof",
          "type": "bytes32[]"
        }
      ],
      "name": "sweep",
      "outputs": [],
      "stateMutability": "nonpayable",
      "type": "function"
    },
    {
      "inputs": [],
      "name": "symbol",
      "outputs": [
        {
          "internalType": "string",
          "name": "",
          "type": "string"
        }
      ],
      "stateMutability": "view",
      "type": "function"
    },
    {
      "inputs": [
        {
          "internalType": "address",
          "name": "",
          "type": "address"
        },
        {
          "internalType": "uint256",
          "name": "",
          "type": "uint256"
        }
      ],
      "name": "tickPercents",
      "outputs": [
        {
          "internalType": "uint256",
          "name": "",
          "type": "uint256"
        }
      ],
      "stateMutability": "view",
      "type": "function"
    },
    {
      "inputs": [
        {
          "internalType": "uint256",
          "name": "index",
          "type": "uint256"
        }
      ],
      "name": "tokenByIndex",
      "outputs": [
        {
          "internalType": "uint256",
          "name": "",
          "type": "uint256"
        }
      ],
      "stateMutability": "view",
      "type": "function"
    },
    {
      "inputs": [
        {
          "internalType": "address",
          "name": "owner",
          "type": "address"
        },
        {
          "internalType": "uint256",
          "name": "index",
          "type": "uint256"
        }
      ],
      "name": "tokenOfOwnerByIndex",
      "outputs": [
        {
          "internalType": "uint256",
          "name": "",
          "type": "uint256"
        }
      ],
      "stateMutability": "view",
      "type": "function"
    },
    {
      "inputs": [
        {
          "internalType": "uint256",
          "name": "tokenId",
          "type": "uint256"
        }
      ],
      "name": "tokenURI",
      "outputs": [
        {
          "internalType": "string",
          "name": "",
          "type": "string"
        }
      ],
      "stateMutability": "view",
      "type": "function"
    },
    {
      "inputs": [],
      "name": "totalSupply",
      "outputs": [
        {
          "internalType": "uint256",
          "name": "",
          "type": "uint256"
        }
      ],
      "stateMutability": "view",
      "type": "function"
    },
    {
      "inputs": [
        {
          "internalType": "address",
          "name": "from",
          "type": "address"
        },
        {
          "internalType": "address",
          "name": "to",
          "type": "address"
        },
        {
          "internalType": "uint256",
          "name": "tokenId",
          "type": "uint256"
        }
      ],
      "name": "transferFrom",
      "outputs": [],
      "stateMutability": "nonpayable",
      "type": "function"
    },
    {
      "inputs": [
        {
          "internalType": "uint256",
          "name": "tokenId",
          "type": "uint256"
        }
      ],
      "name": "unpausedCHI",
      "outputs": [],
      "stateMutability": "nonpayable",
      "type": "function"
    },
    {
      "inputs": [
        {
          "internalType": "uint256",
          "name": "yangId",
          "type": "uint256"
        },
        {
          "internalType": "uint256",
          "name": "tokenId",
          "type": "uint256"
        },
        {
          "internalType": "uint256",
          "name": "shares",
          "type": "uint256"
        },
        {
          "internalType": "uint256",
          "name": "amount0Min",
          "type": "uint256"
        },
        {
          "internalType": "uint256",
          "name": "amount1Min",
          "type": "uint256"
        }
      ],
      "name": "unsubscribe",
      "outputs": [
        {
          "internalType": "uint256",
          "name": "amount0",
          "type": "uint256"
        },
        {
          "internalType": "uint256",
          "name": "amount1",
          "type": "uint256"
        }
      ],
      "stateMutability": "nonpayable",
      "type": "function"
    },
    {
      "inputs": [
        {
          "internalType": "bytes32",
          "name": "_merkleRoot",
          "type": "bytes32"
        }
      ],
      "name": "updateMerkleRoot",
      "outputs": [],
      "stateMutability": "nonpayable",
      "type": "function"
    },
    {
      "inputs": [
        {
          "internalType": "uint256",
          "name": "_vaultFee",
          "type": "uint256"
        }
      ],
      "name": "updateVaultFee",
      "outputs": [],
      "stateMutability": "nonpayable",
      "type": "function"
    },
    {
      "inputs": [],
      "name": "v3Factory",
      "outputs": [
        {
          "internalType": "address",
          "name": "",
          "type": "address"
        }
      ],
      "stateMutability": "view",
      "type": "function"
    },
    {
      "inputs": [],
      "name": "vaultFee",
      "outputs": [
        {
          "internalType": "uint256",
          "name": "",
          "type": "uint256"
        }
      ],
      "stateMutability": "view",
      "type": "function"
    },
    {
      "inputs": [
        {
          "internalType": "bytes32",
          "name": "key",
          "type": "bytes32"
        }
      ],
      "name": "yang",
      "outputs": [
        {
          "internalType": "uint256",
          "name": "shares",
          "type": "uint256"
        }
      ],
      "stateMutability": "view",
      "type": "function"
    },
    {
      "inputs": [],
      "name": "yangNFT",
      "outputs": [
        {
          "internalType": "address",
          "name": "",
          "type": "address"
        }
      ],
      "stateMutability": "view",
      "type": "function"
    }
  ],
  "bytecode": "0x608060405234801561001057600080fd5b50614cb7806100206000396000f3fe608060405234801561001057600080fd5b506004361061032b5760003560e01c8063514ea4bf116101b2578063a22cb465116100f9578063df84f84d116100a2578063e985e9c51161007c578063e985e9c514610696578063ec28fcac146106a9578063ed1bbd0b146106cb578063f801deaa146106de5761032b565b8063df84f84d1461065d578063e2c3350e14610670578063e4d2c9b5146106835761032b565b8063c2108d1b116100d3578063c2108d1b1461062f578063c87b56dd14610642578063d5f39488146106555761032b565b8063a22cb465146105e2578063b88d4fde146105f5578063b9decd66146106085761032b565b80636c0360eb1161015b5780637b2834f5116101355780637b2834f5146105bf5780637c887c59146105d257806395d89b41146105da5761032b565b80636c0360eb146105915780636dfee1b11461059957806370a08231146105ac5761032b565b80636352211e1161018c5780636352211e1461055857806363e033f71461056b57806369e9acab1461057e5761032b565b8063514ea4bf1461051157806354cc59ba146105245780635d87b6e4146105455761032b565b80632cd6ae221161027657806342842e0e1161021f578063481c6a75116101f9578063481c6a75146104e35780634b57512d146104eb5780634f6ccce7146104fe5761032b565b806342842e0e1461049c57806346698e75146104af5780634783f0ef146104d05761032b565b806338187e851161025057806338187e85146104605780633d3281db146104815780634259ab44146104945761032b565b80632cd6ae22146104325780632eb4a7ab146104455780632f745c591461044d5761032b565b80630e082b74116102d857806321183386116102b257806321183386146103f957806323b872dd1461040c57806325f368ae1461041f5761032b565b80630e082b74146103cb57806312fd2f9a146103de57806318160ddd146103f15761032b565b8063081812fc11610309578063081812fc14610383578063095ea7b3146103a35780630cb1ac8c146103b85761032b565b806301ac145b1461033057806301ffc9a71461034e57806306fdde031461036e575b600080fd5b6103386106f1565b60405161034591906145bd565b60405180910390f35b61036161035c36600461401d565b6106f7565b60405161034591906145a0565b610376610732565b60405161034591906145da565b610396610391366004613f68565b6107c8565b60405161034591906144dc565b6103b66103b1366004613f21565b610814565b005b6103b66103c6366004613f68565b6108ea565b6103b66103d936600461430d565b61098b565b6103386103ec366004613f68565b610a95565b610338610ab8565b6103b6610407366004613f68565b610ac9565b6103b661041a366004613df0565b610b44565b6103b661042d3660046143b1565b610b9b565b6103b6610440366004614294565b610c9b565b610338610dbe565b61033861045b366004613f21565b610dc4565b61047361046e3660046140be565b610def565b60405161034592919061498c565b6103b661048f366004614151565b6111e0565b6103966112c6565b6103b66104aa366004613df0565b6112d5565b6104c26104bd366004614422565b6112f0565b6040516103459291906144ce565b6103b66104de366004613f68565b6114f0565b61039661151f565b6103b66104f9366004614259565b61152e565b61033861050c366004613f68565b61163e565b61033861051f366004613f68565b611654565b610537610532366004613f68565b611666565b6040516103459291906145ab565b6103b66105533660046142c9565b611690565b610396610566366004613f68565b611797565b6103b6610579366004614359565b6117bf565b6103b661058c366004613f80565b611a64565b610376611c1c565b6103b66105a7366004614228565b611c21565b6103386105ba366004613d80565b611dbf565b6103b66105cd366004613f68565b611e27565b610396611e56565b610376611e65565b6103b66105f0366004613ef4565b611ec6565b6103b6610603366004613e30565b611fcb565b61061b610616366004613f68565b612029565b60405161034598979695949392919061452e565b6103b661063d3660046143f1565b61229a565b610376610650366004613f68565b612346565b61039661236e565b6103b661066b3660046141c2565b61237d565b6103b661067e366004614259565b61258c565b610338610691366004613f21565b61264c565b6103616106a4366004613db8565b612669565b6106bc6106b736600461445c565b612697565b60405161034593929190614a07565b6103b66106d936600461405d565b612899565b6103b66106ec366004613f68565b6129f2565b60d15481565b7fffffffff00000000000000000000000000000000000000000000000000000000811660009081526065602052604090205460ff165b919050565b609c8054604080516020601f60026000196101006001881615020190951694909404938401819004810282018101909252828152606093909290918301828280156107be5780601f10610793576101008083540402835291602001916107be565b820191906000526020600020905b8154815290600101906020018083116107a157829003601f168201915b5050505050905090565b60006107d382612a87565b6107f85760405162461bcd60e51b81526004016107ef906148f8565b60405180910390fd5b50600090815260cb60205260409020546001600160a01b031690565b600061081f82611797565b9050806001600160a01b0316836001600160a01b031614156108725760405162461bcd60e51b8152600401808060200182810382526021815260200180614c596021913960400191505060405180910390fd5b806001600160a01b0316610884612a94565b6001600160a01b031614806108a057506108a0816106a4612a94565b6108db5760405162461bcd60e51b8152600401808060200182810382526038815260200180614b346038913960400191505060405180910390fd5b6108e58383612a98565b505050565b600081815260cb602052604090206109023383612b13565b80610917575060cc546001600160a01b031633145b6109335760405162461bcd60e51b81526004016107ef9061481c565b6002810154600160a81b900460ff161561095f5760405162461bcd60e51b81526004016107ef906147e5565b60020180547fffffffffffffffffffffff00ffffffffffffffffffffffffffffffffffffffff16905550565b60cc546001600160a01b031633146109b55760405162461bcd60e51b81526004016107ef9061469b565b600083815260cb602052604090206002810154600160a81b900460ff16156109ef5760405162461bcd60e51b81526004016107ef90614709565b60028101546040517fd4da61850000000000000000000000000000000000000000000000000000000081526001600160a01b039091169063d4da618590610a3c90869086906004016149c8565b6040805180830381600087803b158015610a5557600080fd5b505af1158015610a69573d6000803e3d6000fd5b505050506040513d601f19601f82011682018060405250810190610a8d91906142ea565b505050505050565b600090815260ca6020908152604091829020825191820190925290549081905290565b6000610ac46098612bb7565b905090565b600081815260cb60205260409020610ae13383612b13565b80610af6575060cc546001600160a01b031633145b610b125760405162461bcd60e51b81526004016107ef9061481c565b60020180547fffffffffffffffffffffff00ffffffffffffffffffffffffffffffffffffffff16600160a01b17905550565b610b55610b4f612a94565b82612b13565b610b905760405162461bcd60e51b8152600401808060200182810382526031815260200180614c7a6031913960400191505060405180910390fd5b6108e5838383612bc2565b60cc546001600160a01b03163314610bc55760405162461bcd60e51b81526004016107ef9061469b565b600084815260cb602052604090206002810154859190600160a01b900460ff1615610c025760405162461bcd60e51b81526004016107ef9061462d565b600086815260cb602052604090819020600281015491517f0430c13000000000000000000000000000000000000000000000000000000000815290916001600160a01b031690630430c13090610c60908990899089906004016149e8565b600060405180830381600087803b158015610c7a57600080fd5b505af1158015610c8e573d6000803e3d6000fd5b5050505050505050505050565b8181600033604051602001610cb0919061449e565b604051602081830303815290604052805190602001209050610d098383808060200260200160405190810160405280939291908181526020018383602002808284376000920191909152505060d0549150849050612d0e565b610d255760405162461bcd60e51b81526004016107ef90614664565b600088815260cb602052604090819020600281015491517fb9ad22b700000000000000000000000000000000000000000000000000000000815290916001600160a01b03169063b9ad22b790610d81908b908b906004016145c6565b600060405180830381600087803b158015610d9b57600080fd5b505af1158015610daf573d6000803e3d6000fd5b50505050505050505050505050565b60d05481565b6001600160a01b0382166000908152609760205260408120610de69083612db9565b90505b92915050565b6000808383600033604051602001610e07919061449e565b604051602081830303815290604052805190602001209050610e608383808060200260200160405190810160405280939291908181526020018383602002808284376000920191909152505060d0549150849050612d0e565b610e7c5760405162461bcd60e51b81526004016107ef90614664565b60cd546000906001600160a01b0316631698ee82610ea060408c0160208d01613d80565b610eb060608d0160408e01613d80565b610ec060808e0160608f01614116565b6040518463ffffffff1660e01b8152600401610ede93929190614578565b60206040518083038186803b158015610ef657600080fd5b505afa158015610f0a573d6000803e3d6000fd5b505050506040513d601f19601f82011682018060405250810190610f2e9190613d9c565b90506001600160a01b038116610f565760405162461bcd60e51b81526004016107ef90614777565b60cf5460d1546040517f58b4b7110000000000000000000000000000000000000000000000000000000081526001600160a01b03909216916358b4b71191610fa4918591309160040161450a565b602060405180830381600087803b158015610fbe57600080fd5b505af1158015610fd2573d6000803e3d6000fd5b505050506040513d601f19601f82011682018060405250810190610ff69190613d9c565b945061105d61100860208b018b613d80565b60c980547fffffffffffffffffffff000000000000000000000000000000000000000000008116600175ffffffffffffffffffffffffffffffffffffffffffff92831690810190921617909155975087612dc5565b6040805160c081019091528061107660208c018c613d80565b6001600160a01b039081168252838116602080840191909152888216604080850191909152600060608086018290526080808701839052600160a09788018190528e845260cb8652928490208851815490881673ffffffffffffffffffffffffffffffffffffffff19918216178255958901519381018054948816948716949094179093558784015160029093018054928901519189015198909701511515600160b01b0260ff60b01b19981515600160a81b027fffffffffffffffffffff00ffffffffffffffffffffffffffffffffffffffffff921515600160a01b027fffffffffffffffffffffff00ffffffffffffffffffffffffffffffffffffffff959098169390961692909217929092169490941716919091179390931617905560d15490517ff03c0794e29ab9041701d90faa819fd394c96b5d374215f11d7dd03839606d5e916111cc91899185918a91906149a3565b60405180910390a150505050935093915050565b81816000336040516020016111f5919061449e565b60405160208183030381529060405280519060200120905061124e8383808060200260200160405190810160405280939291908181526020018383602002808284376000920191909152505060d0549150849050612d0e565b61126a5760405162461bcd60e51b81526004016107ef90614664565b600088815260cb602052604090819020600281015491517fb8dc491b00000000000000000000000000000000000000000000000000000000815290916001600160a01b03169063b8dc491b90610d81908b908b906004016144f0565b60ce546001600160a01b031681565b6108e583838360405180602001604052806000815250611fcb565b60ce5460009081906001600160a01b0316331461131f5760405162461bcd60e51b81526004016107ef90614853565b60026001541415611377576040805162461bcd60e51b815260206004820152601f60248201527f5265656e7472616e637947756172643a207265656e7472616e742063616c6c00604482015290519081900360640190fd5b60026001819055600087815260cb6020526040902090810154600160a81b900460ff16156113b75760405162461bcd60e51b81526004016107ef90614709565b600088886040516020016113cc9291906144ce565b60408051601f198184030181529181528151602092830120600081815260ca90935291208054919250908811156114155760405162461bcd60e51b81526004016107ef906147ae565b600283015460ce546040517fd473a6540000000000000000000000000000000000000000000000000000000081526001600160a01b039283169263d473a6549261146d928f928e928e928e9290911690600401614a1d565b6040805180830381600087803b15801561148657600080fd5b505af115801561149a573d6000803e3d6000fd5b505050506040513d601f19601f820116820180604052508101906114be91906142ea565b600084815260ca602052604090205491965094506114dc9089612ef3565b905550506001805590969095509350505050565b60cc546001600160a01b0316331461151a5760405162461bcd60e51b81526004016107ef9061469b565b60d055565b60cc546001600160a01b031681565b826115393382612b13565b6115555760405162461bcd60e51b81526004016107ef9061481c565b600084815260cb602052604090206002810154859190600160a01b900460ff16156115925760405162461bcd60e51b81526004016107ef9061462d565b600086815260cb602052604090819020600281015491517f5a64998b00000000000000000000000000000000000000000000000000000000815290916001600160a01b031690635a64998b906115ee90899089906004016145c6565b600060405180830381600087803b15801561160857600080fd5b505af115801561161c573d6000803e3d6000fd5b5050506002909101805460ff60b01b1916600160b01b17905550505050505050565b60008061164c609884612f50565b509392505050565b60ca6020526000908152604090205481565b600090815260cb602052604090206002015460ff600160a01b8204811692600160a81b9092041690565b60cc546001600160a01b031633146116ba5760405162461bcd60e51b81526004016107ef9061469b565b600082815260cb602052604090206002810154600160a81b900460ff16156116f45760405162461bcd60e51b81526004016107ef90614709565b60028101546040517f2106fa460000000000000000000000000000000000000000000000000000000081526001600160a01b0390911690632106fa469061173f9085906004016145bd565b6040805180830381600087803b15801561175857600080fd5b505af115801561176c573d6000803e3d6000fd5b505050506040513d601f19601f8201168201806040525081019061179091906142ea565b5050505050565b6000610de982604051806060016040528060298152602001614b966029913960989190612f6e565b60cc546001600160a01b031633146117e95760405162461bcd60e51b81526004016107ef9061469b565b600083815260cb602052604090206002810154849190600160a01b900460ff16156118265760405162461bcd60e51b81526004016107ef9061462d565b600085815260cb60209081526040808320600281015482517fb135a14500000000000000000000000000000000000000000000000000000000815292519194936001600160a01b039091169263b135a1459260048083019392829003018186803b15801561189357600080fd5b505afa1580156118a7573d6000803e3d6000fd5b505050506040513d601f19601f820116820180604052508101906118cb9190614139565b6002830154909150600160b01b900460ff16156119855760006118ee8783612f7b565b905060006118fc8784612f7b565b905060005b8381101561197d576002850154604051634ecebadf60e11b81526001600160a01b0390911690639d9d75be9061193f90849087908790600401614a07565b600060405180830381600087803b15801561195957600080fd5b505af115801561196d573d6000803e3d6000fd5b5050600190920191506119019050565b505050611a5b565b60005b81811015611a595760028301546001600160a01b0316600090815260d260209081526040808320848452909152812054906119ce60646119c88b85612fe2565b90612f7b565b905060006119e160646119c88b86612fe2565b6002870154604051634ecebadf60e11b81529192506001600160a01b031690639d9d75be90611a1890879086908690600401614a07565b600060405180830381600087803b158015611a3257600080fd5b505af1158015611a46573d6000803e3d6000fd5b5050600190950194506119889350505050565b505b50505050505050565b600054610100900460ff1680611a7d5750611a7d61303b565b80611a8b575060005460ff16155b611ac65760405162461bcd60e51b815260040180806020018281038252602e815260200180614bbf602e913960400191505060405180910390fd5b600054610100900460ff16158015611af1576000805460ff1961ff0019909116610100171660011790555b60cc805473ffffffffffffffffffffffffffffffffffffffff199081166001600160a01b038581169190911790925560cd8054821688841617905560ce8054821687841617905560cf805490911691851691909117905560d088905560c980547fffffffffffffffffffff000000000000000000000000000000000000000000001675ffffffffffffffffffffffffffffffffffffffffffff891617905560d186905560408051808201825260208082527f59494e20556e697377617020563320506f736974696f6e73204d616e61676572818301528251808401909352600383527f434849000000000000000000000000000000000000000000000000000000000090830152611c019161304c565b8015611a59576000805461ff00191690555050505050505050565b606090565b82611c2c3382612b13565b611c485760405162461bcd60e51b81526004016107ef9061481c565b600084815260cb60209081526040808320600281015482517fb135a14500000000000000000000000000000000000000000000000000000000815292519194936001600160a01b039091169263b135a1459260048083019392829003018186803b158015611cb557600080fd5b505afa158015611cc9573d6000803e3d6000fd5b505050506040513d601f19601f82011682018060405250810190611ced9190614139565b9050838114611d0e5760405162461bcd60e51b81526004016107ef90614955565b6000805b82811015611d8757868682818110611d2657fe5b60028701546001600160a01b0316600090815260d26020908152604080832087845282529091209102929092013590915550611d7d878783818110611d6757fe5b905060200201358361310990919063ffffffff16565b9150600101611d12565b506064811115611da95760405162461bcd60e51b81526004016107ef906148c1565b5050600201805460ff60b01b1916905550505050565b60006001600160a01b038216611e065760405162461bcd60e51b815260040180806020018281038252602a815260200180614b6c602a913960400191505060405180910390fd5b6001600160a01b0382166000908152609760205260409020610de990612bb7565b60cc546001600160a01b03163314611e515760405162461bcd60e51b81526004016107ef9061469b565b60d155565b60cd546001600160a01b031681565b609d8054604080516020601f60026000196101006001881615020190951694909404938401819004810282018101909252828152606093909290918301828280156107be5780601f10610793576101008083540402835291602001916107be565b611ece612a94565b6001600160a01b0316826001600160a01b03161415611f34576040805162461bcd60e51b815260206004820152601960248201527f4552433732313a20617070726f766520746f2063616c6c657200000000000000604482015290519081900360640190fd5b80609b6000611f41612a94565b6001600160a01b03908116825260208083019390935260409182016000908120918716808252919093529120805460ff191692151592909217909155611f85612a94565b6001600160a01b03167f17307eab39ab6107e8899845ad3d59bd9653f200f220920489ca2b5937696c318360405180821515815260200191505060405180910390a35050565b611fdc611fd6612a94565b83612b13565b6120175760405162461bcd60e51b8152600401808060200182810382526031815260200180614c7a6031913960400191505060405180910390fd5b61202384848484613163565b50505050565b600081815260cb60205260408120819081908190819081908190819061204e8a612a87565b61206a5760405162461bcd60e51b81526004016107ef9061488a565b60028101546001600160a01b03166120818b611797565b825460018401546002850154604080517feae989a200000000000000000000000000000000000000000000000000000000815290516001600160a01b0394851694938416939283169287169163eae989a2916004808301926020929190829003018186803b1580156120f257600080fd5b505afa158015612106573d6000803e3d6000fd5b505050506040513d601f19601f8201168201806040525081019061212a9190614139565b856001600160a01b031663a00fa77f6040518163ffffffff1660e01b815260040160206040518083038186803b15801561216357600080fd5b505afa158015612177573d6000803e3d6000fd5b505050506040513d601f19601f8201168201806040525081019061219b9190614139565b866001600160a01b031663b0e21e8a6040518163ffffffff1660e01b815260040160206040518083038186803b1580156121d457600080fd5b505afa1580156121e8573d6000803e3d6000fd5b505050506040513d601f19601f8201168201806040525081019061220c9190614139565b876001600160a01b03166318160ddd6040518163ffffffff1660e01b815260040160206040518083038186803b15801561224557600080fd5b505afa158015612259573d6000803e3d6000fd5b505050506040513d601f19601f8201168201806040525081019061227d9190614139565b995099509950995099509950995099505050919395975091939597565b60cc546001600160a01b031633146122c45760405162461bcd60e51b81526004016107ef9061469b565b600084815260cb602052604090206002810154859190600160a01b900460ff16156123015760405162461bcd60e51b81526004016107ef9061462d565b600086815260cb60205260409081902060028101549151634ecebadf60e11b815290916001600160a01b031690639d9d75be90610c6090899089908990600401614a07565b606061235182612a87565b61235a57600080fd5b505060408051602081019091526000815290565b60cf546001600160a01b031681565b846123883382612b13565b6123a45760405162461bcd60e51b81526004016107ef9061481c565b600086815260cb602052604090206002810154879190600160a01b900460ff16156123e15760405162461bcd60e51b81526004016107ef9061462d565b600088815260cb60205260408120905b878110156124ad5760028201546001600160a01b031663db4dcce48a8a8481811061241857fe5b61242e92602060409092020190810191506140a4565b8b8b8581811061243a57fe5b905060400201602001602081019061245291906140a4565b6040518363ffffffff1660e01b815260040161246f9291906145c6565b600060405180830381600087803b15801561248957600080fd5b505af115801561249d573d6000803e3d6000fd5b5050600190920191506123f19050565b5060005b8581101561256d5760028201546001600160a01b0316635a64998b8888848181106124d857fe5b6124ee92602060409092020190810191506140a4565b8989858181106124fa57fe5b905060400201602001602081019061251291906140a4565b6040518363ffffffff1660e01b815260040161252f9291906145c6565b600060405180830381600087803b15801561254957600080fd5b505af115801561255d573d6000803e3d6000fd5b5050600190920191506124b19050565b50600201805460ff60b01b1916600160b01b1790555050505050505050565b826125973382612b13565b6125b35760405162461bcd60e51b81526004016107ef9061481c565b600084815260cb602052604090206002810154859190600160a01b900460ff16156125f05760405162461bcd60e51b81526004016107ef9061462d565b600086815260cb602052604090819020600281015491517fdb4dcce400000000000000000000000000000000000000000000000000000000815290916001600160a01b03169063db4dcce4906115ee90899089906004016145c6565b60d260209081526000928352604080842090915290825290205481565b6001600160a01b039182166000908152609b6020908152604080832093909416825291909152205460ff1690565b60ce54600090819081906001600160a01b031633146126c85760405162461bcd60e51b81526004016107ef90614853565b60d3889055600088815260cb60205260409020600281015489918291600160a01b900460ff161561270b5760405162461bcd60e51b81526004016107ef9061462d565b60026001541415612763576040805162461bcd60e51b815260206004820152601f60248201527f5265656e7472616e637947756172643a207265656e7472616e742063616c6c00604482015290519081900360640190fd5b6002600181905550600060cb60008d815260200190815260200160002090508060020160009054906101000a90046001600160a01b03166001600160a01b031663bf02b5ea8e8d8d8d8d6040518663ffffffff1660e01b81526004016127cd959493929190614a49565b606060405180830381600087803b1580156127e757600080fd5b505af11580156127fb573d6000803e3d6000fd5b505050506040513d601f19601f8201168201806040525081019061281f9190614384565b604051929950909750955060009061283d908f908f906020016144ce565b60408051601f198184030181529181528151602092830120600081815260ca90935291205490915061286f9089613109565b600091825260ca60205260408220556001805560d35550949b939a50919850919650505050505050565b6128a2336131b5565b821561294b5760ce546040517f23b872dd0000000000000000000000000000000000000000000000000000000081526001600160a01b03868116926323b872dd926128f792909116903390889060040161450a565b602060405180830381600087803b15801561291157600080fd5b505af1158015612925573d6000803e3d6000fd5b505050506040513d601f19601f820116820180604052508101906129499190613f4c565b505b80156120235760ce546040517f23b872dd0000000000000000000000000000000000000000000000000000000081526001600160a01b03848116926323b872dd926129a092909116903390869060040161450a565b602060405180830381600087803b1580156129ba57600080fd5b505af11580156129ce573d6000803e3d6000fd5b505050506040513d601f19601f820116820180604052508101906117909190613f4c565b60cc546001600160a01b03163314612a1c5760405162461bcd60e51b81526004016107ef9061469b565b600081815260cb602052604090206002810154600160a01b900460ff16612a555760405162461bcd60e51b81526004016107ef906146d2565b60020180547fffffffffffffffffffff00ffffffffffffffffffffffffffffffffffffffffff16600160a81b17905550565b6000610de96098836131f9565b3390565b600081815260cb60205260409020805473ffffffffffffffffffffffffffffffffffffffff19166001600160a01b0384169081179091558190612ada82611797565b6001600160a01b03167f8c5be1e5ebec7d5bd14f71427d1e84f3dd0314c0f7b2291e5b200ac8c7c3b92560405160405180910390a45050565b6000612b1e82612a87565b612b595760405162461bcd60e51b815260040180806020018281038252602c815260200180614b08602c913960400191505060405180910390fd5b6000612b6483611797565b9050806001600160a01b0316846001600160a01b03161480612b9f5750836001600160a01b0316612b94846107c8565b6001600160a01b0316145b80612baf5750612baf8185612669565b949350505050565b6000610de982613205565b826001600160a01b0316612bd582611797565b6001600160a01b031614612c1a5760405162461bcd60e51b8152600401808060200182810382526029815260200180614c306029913960400191505060405180910390fd5b6001600160a01b038216612c5f5760405162461bcd60e51b8152600401808060200182810382526024815260200180614ae46024913960400191505060405180910390fd5b612c6a8383836108e5565b612c75600082612a98565b6001600160a01b0383166000908152609760205260409020612c979082613209565b506001600160a01b0382166000908152609760205260409020612cba9082613215565b50612cc760988284613221565b5080826001600160a01b0316846001600160a01b03167fddf252ad1be2c89b69c2b068fc378daa952ba7f163c4a11628f55a4df523b3ef60405160405180910390a4505050565b600081815b8551811015612dac576000868281518110612d2a57fe5b60200260200101519050808311612d715782816040516020018083815260200182815260200192505050604051602081830303815290604052805190602001209250612da3565b808360405160200180838152602001828152602001925050506040516020818303038152906040528051906020012092505b50600101612d13565b50831490505b9392505050565b6000610de68383613237565b6001600160a01b038216612e20576040805162461bcd60e51b815260206004820181905260248201527f4552433732313a206d696e7420746f20746865207a65726f2061646472657373604482015290519081900360640190fd5b612e2981612a87565b15612e7b576040805162461bcd60e51b815260206004820152601c60248201527f4552433732313a20746f6b656e20616c7265616479206d696e74656400000000604482015290519081900360640190fd5b612e87600083836108e5565b6001600160a01b0382166000908152609760205260409020612ea99082613215565b50612eb660988284613221565b5060405181906001600160a01b038416906000907fddf252ad1be2c89b69c2b068fc378daa952ba7f163c4a11628f55a4df523b3ef908290a45050565b600082821115612f4a576040805162461bcd60e51b815260206004820152601e60248201527f536166654d6174683a207375627472616374696f6e206f766572666c6f770000604482015290519081900360640190fd5b50900390565b6000808080612f5f868661329b565b909450925050505b9250929050565b6000612baf848484613316565b6000808211612fd1576040805162461bcd60e51b815260206004820152601a60248201527f536166654d6174683a206469766973696f6e206279207a65726f000000000000604482015290519081900360640190fd5b818381612fda57fe5b049392505050565b600082612ff157506000610de9565b82820282848281612ffe57fe5b0414610de65760405162461bcd60e51b8152600401808060200182810382526021815260200180614c0f6021913960400191505060405180910390fd5b6000613046306133e0565b15905090565b600054610100900460ff1680613065575061306561303b565b80613073575060005460ff16155b6130ae5760405162461bcd60e51b815260040180806020018281038252602e815260200180614bbf602e913960400191505060405180910390fd5b600054610100900460ff161580156130d9576000805460ff1961ff0019909116610100171660011790555b6130e16133e6565b6130e9613488565b6130f3838361353e565b80156108e5576000805461ff0019169055505050565b600082820183811015610de6576040805162461bcd60e51b815260206004820152601b60248201527f536166654d6174683a206164646974696f6e206f766572666c6f770000000000604482015290519081900360640190fd5b61316e848484612bc2565b61317a8484848461366e565b6120235760405162461bcd60e51b8152600401808060200182810382526032815260200180614ab26032913960400191505060405180910390fd5b60d354600090815260cb6020526040902060028101546001600160a01b038381169116146131f55760405162461bcd60e51b81526004016107ef90614740565b5050565b6000610de6838361384a565b5490565b6000610de68383613862565b6000610de68383613928565b6000612baf84846001600160a01b038516613972565b815460009082106132795760405162461bcd60e51b8152600401808060200182810382526022815260200180614a906022913960400191505060405180910390fd5b82600001828154811061328857fe5b9060005260206000200154905092915050565b8154600090819083106132df5760405162461bcd60e51b8152600401808060200182810382526022815260200180614bed6022913960400191505060405180910390fd5b60008460000184815481106132f057fe5b906000526020600020906002020190508060000154816001015492509250509250929050565b600082815260018401602052604081205482816133b15760405162461bcd60e51b81526004018080602001828103825283818151815260200191508051906020019080838360005b8381101561337657818101518382015260200161335e565b50505050905090810190601f1680156133a35780820380516001836020036101000a031916815260200191505b509250505060405180910390fd5b508460000160018203815481106133c457fe5b9060005260206000209060020201600101549150509392505050565b3b151590565b600054610100900460ff16806133ff57506133ff61303b565b8061340d575060005460ff16155b6134485760405162461bcd60e51b815260040180806020018281038252602e815260200180614bbf602e913960400191505060405180910390fd5b600054610100900460ff16158015613473576000805460ff1961ff0019909116610100171660011790555b8015613485576000805461ff00191690555b50565b600054610100900460ff16806134a157506134a161303b565b806134af575060005460ff16155b6134ea5760405162461bcd60e51b815260040180806020018281038252602e815260200180614bbf602e913960400191505060405180910390fd5b600054610100900460ff16158015613515576000805460ff1961ff0019909116610100171660011790555b6134737f01ffc9a700000000000000000000000000000000000000000000000000000000613a09565b600054610100900460ff1680613557575061355761303b565b80613565575060005460ff16155b6135a05760405162461bcd60e51b815260040180806020018281038252602e815260200180614bbf602e913960400191505060405180910390fd5b600054610100900460ff161580156135cb576000805460ff1961ff0019909116610100171660011790555b82516135de90609c906020860190613c48565b5081516135f290609d906020850190613c48565b5061361c7f80ac58cd00000000000000000000000000000000000000000000000000000000613a09565b6136457f5b5e139f00000000000000000000000000000000000000000000000000000000613a09565b6130f37f780e9d6300000000000000000000000000000000000000000000000000000000613a09565b6000613682846001600160a01b03166133e0565b61368e57506001612baf565b60006137df7f150b7a02000000000000000000000000000000000000000000000000000000006136bc612a94565b88878760405160240180856001600160a01b03168152602001846001600160a01b0316815260200183815260200180602001828103825283818151815260200191508051906020019080838360005b8381101561372357818101518382015260200161370b565b50505050905090810190601f1680156137505780820380516001836020036101000a031916815260200191505b5095505050505050604051602081830303815290604052907bffffffffffffffffffffffffffffffffffffffffffffffffffffffff19166020820180517bffffffffffffffffffffffffffffffffffffffffffffffffffffffff8381831617835250505050604051806060016040528060328152602001614ab2603291396001600160a01b0388169190613abd565b905060008180602001905160208110156137f857600080fd5b50517fffffffff00000000000000000000000000000000000000000000000000000000167f150b7a02000000000000000000000000000000000000000000000000000000001492505050949350505050565b60009081526001919091016020526040902054151590565b6000818152600183016020526040812054801561391e578354600019808301919081019060009087908390811061389557fe5b90600052602060002001549050808760000184815481106138b257fe5b6000918252602080832090910192909255828152600189810190925260409020908401905586548790806138e257fe5b60019003818190600052602060002001600090559055866001016000878152602001908152602001600020600090556001945050505050610de9565b6000915050610de9565b6000613934838361384a565b61396a57508154600181810184556000848152602080822090930184905584548482528286019093526040902091909155610de9565b506000610de9565b6000828152600184016020526040812054806139d7575050604080518082018252838152602080820184815286546001818101895560008981528481209551600290930290950191825591519082015586548684528188019092529290912055612db2565b828560000160018303815481106139ea57fe5b9060005260206000209060020201600101819055506000915050612db2565b7fffffffff000000000000000000000000000000000000000000000000000000008082161415613a80576040805162461bcd60e51b815260206004820152601c60248201527f4552433136353a20696e76616c696420696e7465726661636520696400000000604482015290519081900360640190fd5b7fffffffff00000000000000000000000000000000000000000000000000000000166000908152606560205260409020805460ff19166001179055565b6060612baf848460008585613ad1856133e0565b613b22576040805162461bcd60e51b815260206004820152601d60248201527f416464726573733a2063616c6c20746f206e6f6e2d636f6e7472616374000000604482015290519081900360640190fd5b600080866001600160a01b031685876040518082805190602001908083835b60208310613b605780518252601f199092019160209182019101613b41565b6001836020036101000a03801982511681845116808217855250505050505090500191505060006040518083038185875af1925050503d8060008114613bc2576040519150601f19603f3d011682016040523d82523d6000602084013e613bc7565b606091505b5091509150613bd7828286613be2565b979650505050505050565b60608315613bf1575081612db2565b825115613c015782518084602001fd5b60405162461bcd60e51b815260206004820181815284516024840152845185939192839260440191908501908083836000831561337657818101518382015260200161335e565b828054600181600116156101000203166002900490600052602060002090601f016020900481019282613c7e5760008555613cc4565b82601f10613c9757805160ff1916838001178555613cc4565b82800160010185558215613cc4579182015b82811115613cc4578251825591602001919060010190613ca9565b50613cd0929150613cd4565b5090565b5b80821115613cd05760008155600101613cd5565b60008083601f840112613cfa578081fd5b50813567ffffffffffffffff811115613d11578182fd5b6020830191508360208083028501011115612f6757600080fd5b60008083601f840112613d3c578182fd5b50813567ffffffffffffffff811115613d53578182fd5b602083019150836020604083028501011115612f6757600080fd5b8035600281900b811461072d57600080fd5b600060208284031215613d91578081fd5b8135610de681614a6c565b600060208284031215613dad578081fd5b8151610de681614a6c565b60008060408385031215613dca578081fd5b8235613dd581614a6c565b91506020830135613de581614a6c565b809150509250929050565b600080600060608486031215613e04578081fd5b8335613e0f81614a6c565b92506020840135613e1f81614a6c565b929592945050506040919091013590565b60008060008060808587031215613e45578081fd5b8435613e5081614a6c565b9350602085810135613e6181614a6c565b935060408601359250606086013567ffffffffffffffff80821115613e84578384fd5b818801915088601f830112613e97578384fd5b813581811115613ea357fe5b60405184601f19601f8401168201018181108482111715613ec057fe5b60405281815283820185018b1015613ed6578586fd5b81858501868301379081019093019390935250939692955090935050565b60008060408385031215613f06578182fd5b8235613f1181614a6c565b91506020830135613de581614a81565b60008060408385031215613f33578182fd5b8235613f3e81614a6c565b946020939093013593505050565b600060208284031215613f5d578081fd5b8151610de681614a81565b600060208284031215613f79578081fd5b5035919050565b600080600080600080600060e0888a031215613f9a578485fd5b87359650602088013575ffffffffffffffffffffffffffffffffffffffffffff81168114613fc6578586fd5b9550604088013594506060880135613fdd81614a6c565b93506080880135613fed81614a6c565b925060a0880135613ffd81614a6c565b915060c088013561400d81614a6c565b8091505092959891949750929550565b60006020828403121561402e578081fd5b81357fffffffff0000000000000000000000000000000000000000000000000000000081168114610de6578182fd5b60008060008060808587031215614072578182fd5b843561407d81614a6c565b935060208501359250604085013561409481614a6c565b9396929550929360600135925050565b6000602082840312156140b5578081fd5b610de682613d6e565b600080600083850360a08112156140d3578182fd5b60808112156140e0578182fd5b50839250608084013567ffffffffffffffff8111156140fd578182fd5b61410986828701613ce9565b9497909650939450505050565b600060208284031215614127578081fd5b813562ffffff81168114610de6578182fd5b60006020828403121561414a578081fd5b5051919050565b600080600080600060808688031215614168578283fd5b85359450602086013561417a81614a6c565b9350604086013561418a81614a6c565b9250606086013567ffffffffffffffff8111156141a5578182fd5b6141b188828901613ce9565b969995985093965092949392505050565b6000806000806000606086880312156141d9578283fd5b85359450602086013567ffffffffffffffff808211156141f7578485fd5b61420389838a01613d2b565b9096509450604088013591508082111561421b578283fd5b506141b188828901613d2b565b60008060006040848603121561423c578081fd5b83359250602084013567ffffffffffffffff8111156140fd578182fd5b60008060006060848603121561426d578081fd5b8335925061427d60208501613d6e565b915061428b60408501613d6e565b90509250925092565b6000806000806000608086880312156142ab578283fd5b853594506142bb60208701613d6e565b935061418a60408701613d6e565b600080604083850312156142db578182fd5b50508035926020909101359150565b600080604083850312156142fc578182fd5b505080516020909101519092909150565b600080600060608486031215614321578081fd5b833592506020840135915060408401356fffffffffffffffffffffffffffffffff8116811461434e578182fd5b809150509250925092565b60008060006060848603121561436d578081fd5b505081359360208301359350604090920135919050565b600080600060608486031215614398578081fd5b8351925060208401519150604084015190509250925092565b600080600080608085870312156143c6578182fd5b84359350602085013592506040850135915060608501356143e681614a6c565b939692955090935050565b60008060008060808587031215614406578182fd5b5050823594602084013594506040840135936060013592509050565b600080600080600060a08688031215614439578283fd5b505083359560208501359550604085013594606081013594506080013592509050565b60008060008060008060c08789031215614474578384fd5b505084359660208601359650604086013595606081013595506080810135945060a0013592509050565b60609190911b7fffffffffffffffffffffffffffffffffffffffff00000000000000000000000016815260140190565b918252602082015260400190565b6001600160a01b0391909116815260200190565b6001600160a01b0392831681529116602082015260400190565b6001600160a01b039384168152919092166020820152604081019190915260600190565b6001600160a01b03988916815296881660208801529487166040870152929095166060850152608084015260a083019390935260c082019290925260e08101919091526101000190565b6001600160a01b03938416815291909216602082015262ffffff909116604082015260600190565b901515815260200190565b91151582521515602082015260400190565b90815260200190565b600292830b8152910b602082015260400190565b6000602080835283518082850152825b81811015614606578581018301518582016040015282016145ea565b818111156146175783604083870101525b50601f01601f1916929092016040019392505050565b6020808252600a908201527f4348492050617573656400000000000000000000000000000000000000000000604082015260600190565b60208082526009908201527f6f6e6c7920676f76730000000000000000000000000000000000000000000000604082015260600190565b60208082526007908201527f6d616e6167657200000000000000000000000000000000000000000000000000604082015260600190565b6020808252600a908201527f4e6f742050617573656400000000000000000000000000000000000000000000604082015260600190565b6020808252600c908201527f4348492041726368697665640000000000000000000000000000000000000000604082015260600190565b6020808252600d908201527f63616c6c6261636b206661696c00000000000000000000000000000000000000604082015260600190565b60208082526011908201527f4e6f6e2d6578697374656e7420706f6f6c000000000000000000000000000000604082015260600190565b60208082526001908201527f7300000000000000000000000000000000000000000000000000000000000000604082015260600190565b6020808252600c908201527f4348492061726368697665640000000000000000000000000000000000000000604082015260600190565b6020808252600c908201527f4e6f7420617070726f7665640000000000000000000000000000000000000000604082015260600190565b60208082526001908201527f7900000000000000000000000000000000000000000000000000000000000000604082015260600190565b60208082526010908201527f496e76616c696420746f6b656e20494400000000000000000000000000000000604082015260600190565b60208082526012908201527f457863656564206d61782070657263656e740000000000000000000000000000604082015260600190565b60208082526037908201527f4552433732315570677261646561626c653a20617070726f766564207175657260408201527f7920666f72206e6f6e6578697374656e7420746f6b656e000000000000000000606082015260800190565b60208082526010908201527f496e76616c69642070657263656e747300000000000000000000000000000000604082015260600190565b9182526001600160a01b0316602082015260400190565b9384526001600160a01b03928316602085015291166040830152606082015260800190565b9182526fffffffffffffffffffffffffffffffff16602082015260400190565b92835260208301919091526001600160a01b0316604082015260600190565b9283526020830191909152604082015260600190565b9485526020850193909352604084019190915260608301526001600160a01b0316608082015260a00190565b948552602085019390935260408401919091526060830152608082015260a00190565b6001600160a01b038116811461348557600080fd5b801515811461348557600080fdfe456e756d657261626c655365743a20696e646578206f7574206f6620626f756e64734552433732313a207472616e7366657220746f206e6f6e20455243373231526563656976657220696d706c656d656e7465724552433732313a207472616e7366657220746f20746865207a65726f20616464726573734552433732313a206f70657261746f7220717565727920666f72206e6f6e6578697374656e7420746f6b656e4552433732313a20617070726f76652063616c6c6572206973206e6f74206f776e6572206e6f7220617070726f76656420666f7220616c6c4552433732313a2062616c616e636520717565727920666f7220746865207a65726f20616464726573734552433732313a206f776e657220717565727920666f72206e6f6e6578697374656e7420746f6b656e496e697469616c697a61626c653a20636f6e747261637420697320616c726561647920696e697469616c697a6564456e756d657261626c654d61703a20696e646578206f7574206f6620626f756e6473536166654d6174683a206d756c7469706c69636174696f6e206f766572666c6f774552433732313a207472616e73666572206f6620746f6b656e2074686174206973206e6f74206f776e4552433732313a20617070726f76616c20746f2063757272656e74206f776e65724552433732313a207472616e736665722063616c6c6572206973206e6f74206f776e6572206e6f7220617070726f766564a164736f6c6343000706000a",
  "linkReferences": {},
  "deployedLinkReferences": {}
}