{
  "_format": "hh-sol-artifact-1",
  "contractName": "CHIManager",
  "sourceName": "contracts/CHIManager.sol",
  "abi": [
    {
      "anonymous": false,
      "inputs": [
        {
          "indexed": true,
          "internalType": "address",
          "name": "owner",
          "type": "address"
        },
        {
          "indexed": true,
          "internalType": "address",
          "name": "approved",
          "type": "address"
        },
        {
          "indexed": true,
          "internalType": "uint256",
          "name": "tokenId",
          "type": "uint256"
        }
      ],
      "name": "Approval",
      "type": "event"
    },
    {
      "anonymous": false,
      "inputs": [
        {
          "indexed": true,
          "internalType": "address",
          "name": "owner",
          "type": "address"
        },
        {
          "indexed": true,
          "internalType": "address",
          "name": "operator",
          "type": "address"
        },
        {
          "indexed": false,
          "internalType": "bool",
          "name": "approved",
          "type": "bool"
        }
      ],
      "name": "ApprovalForAll",
      "type": "event"
    },
    {
      "anonymous": false,
      "inputs": [
        {
          "indexed": false,
          "internalType": "uint256",
          "name": "tokenId",
          "type": "uint256"
        },
        {
          "indexed": false,
          "internalType": "address",
          "name": "pool",
          "type": "address"
        },
        {
          "indexed": false,
          "internalType": "address",
          "name": "vault",
          "type": "address"
        },
        {
          "indexed": false,
          "internalType": "uint256",
          "name": "vaultFee",
          "type": "uint256"
        }
      ],
      "name": "Create",
      "type": "event"
    },
    {
      "anonymous": false,
      "inputs": [
        {
          "indexed": true,
          "internalType": "address",
          "name": "from",
          "type": "address"
        },
        {
          "indexed": true,
          "internalType": "address",
          "name": "to",
          "type": "address"
        },
        {
          "indexed": true,
          "internalType": "uint256",
          "name": "tokenId",
          "type": "uint256"
        }
      ],
      "name": "Transfer",
      "type": "event"
    },
    {
      "inputs": [
        {
          "internalType": "contract IERC20",
          "name": "token0",
          "type": "address"
        },
        {
          "internalType": "uint256",
          "name": "amount0",
          "type": "uint256"
        },
        {
          "internalType": "contract IERC20",
          "name": "token1",
          "type": "address"
        },
        {
          "internalType": "uint256",
          "name": "amount1",
          "type": "uint256"
        }
      ],
      "name": "CHIDepositCallback",
      "outputs": [],
      "stateMutability": "nonpayable",
      "type": "function"
    },
    {
      "inputs": [
        {
          "internalType": "uint256",
          "name": "tokenId",
          "type": "uint256"
        },
        {
          "components": [
            {
              "internalType": "int24",
              "name": "tickLower",
              "type": "int24"
            },
            {
              "internalType": "int24",
              "name": "tickUpper",
              "type": "int24"
            }
          ],
          "internalType": "struct ICHIManager.RangeParams[]",
          "name": "addRanges",
          "type": "tuple[]"
        },
        {
          "components": [
            {
              "internalType": "int24",
              "name": "tickLower",
              "type": "int24"
            },
            {
              "internalType": "int24",
              "name": "tickUpper",
              "type": "int24"
            }
          ],
          "internalType": "struct ICHIManager.RangeParams[]",
          "name": "removeRanges",
          "type": "tuple[]"
        }
      ],
      "name": "addAndRemoveRanges",
      "outputs": [],
      "stateMutability": "nonpayable",
      "type": "function"
    },
    {
      "inputs": [
        {
          "internalType": "uint256",
          "name": "tokenId",
          "type": "uint256"
        },
        {
          "internalType": "uint256",
          "name": "amount0Total",
          "type": "uint256"
        },
        {
          "internalType": "uint256",
          "name": "amount1Total",
          "type": "uint256"
        }
      ],
      "name": "addLiquidityAllToPosition",
      "outputs": [],
      "stateMutability": "nonpayable",
      "type": "function"
    },
    {
      "inputs": [
        {
          "internalType": "uint256",
          "name": "tokenId",
          "type": "uint256"
        },
        {
          "internalType": "uint256",
          "name": "rangeIndex",
          "type": "uint256"
        },
        {
          "internalType": "uint256",
          "name": "amount0Desired",
          "type": "uint256"
        },
        {
          "internalType": "uint256",
          "name": "amount1Desired",
          "type": "uint256"
        }
      ],
      "name": "addLiquidityToPosition",
      "outputs": [],
      "stateMutability": "nonpayable",
      "type": "function"
    },
    {
      "inputs": [
        {
          "internalType": "uint256",
          "name": "tokenId",
          "type": "uint256"
        },
        {
          "internalType": "int24",
          "name": "tickLower",
          "type": "int24"
        },
        {
          "internalType": "int24",
          "name": "tickUpper",
          "type": "int24"
        }
      ],
      "name": "addRange",
      "outputs": [],
      "stateMutability": "nonpayable",
      "type": "function"
    },
    {
      "inputs": [
        {
          "internalType": "uint256",
          "name": "tokenId",
          "type": "uint256"
        },
        {
          "internalType": "uint256[]",
          "name": "percents",
          "type": "uint256[]"
        }
      ],
      "name": "addTickPercents",
      "outputs": [],
      "stateMutability": "nonpayable",
      "type": "function"
    },
    {
      "inputs": [
        {
          "internalType": "address",
          "name": "to",
          "type": "address"
        },
        {
          "internalType": "uint256",
          "name": "tokenId",
          "type": "uint256"
        }
      ],
      "name": "approve",
      "outputs": [],
      "stateMutability": "nonpayable",
      "type": "function"
    },
    {
      "inputs": [
        {
          "internalType": "uint256",
          "name": "tokenId",
          "type": "uint256"
        }
      ],
      "name": "archivedCHI",
      "outputs": [],
      "stateMutability": "nonpayable",
      "type": "function"
    },
    {
      "inputs": [
        {
          "internalType": "address",
          "name": "owner",
          "type": "address"
        }
      ],
      "name": "balanceOf",
      "outputs": [
        {
          "internalType": "uint256",
          "name": "",
          "type": "uint256"
        }
      ],
      "stateMutability": "view",
      "type": "function"
    },
    {
      "inputs": [],
      "name": "baseURI",
      "outputs": [
        {
          "internalType": "string",
          "name": "",
          "type": "string"
        }
      ],
      "stateMutability": "pure",
      "type": "function"
    },
    {
      "inputs": [
        {
          "internalType": "uint256",
          "name": "tokenId",
          "type": "uint256"
        }
      ],
      "name": "chi",
      "outputs": [
        {
          "internalType": "address",
          "name": "owner",
          "type": "address"
        },
        {
          "internalType": "address",
          "name": "operator",
          "type": "address"
        },
        {
          "internalType": "address",
          "name": "pool",
          "type": "address"
        },
        {
          "internalType": "address",
          "name": "vault",
          "type": "address"
        },
        {
          "internalType": "uint256",
          "name": "accruedProtocolFees0",
          "type": "uint256"
        },
        {
          "internalType": "uint256",
          "name": "accruedProtocolFees1",
          "type": "uint256"
        },
        {
          "internalType": "uint256",
          "name": "fee",
          "type": "uint256"
        },
        {
          "internalType": "uint256",
          "name": "totalShares",
          "type": "uint256"
        }
      ],
      "stateMutability": "view",
      "type": "function"
    },
    {
      "inputs": [
        {
          "internalType": "uint256",
          "name": "tokenId",
          "type": "uint256"
        },
        {
          "internalType": "uint256",
          "name": "amount0",
          "type": "uint256"
        },
        {
          "internalType": "uint256",
          "name": "amount1",
          "type": "uint256"
        },
        {
          "internalType": "address",
          "name": "to",
          "type": "address"
        }
      ],
      "name": "collectProtocol",
      "outputs": [],
      "stateMutability": "nonpayable",
      "type": "function"
    },
    {
      "inputs": [],
      "name": "deployer",
      "outputs": [
        {
          "internalType": "address",
          "name": "",
          "type": "address"
        }
      ],
      "stateMutability": "view",
      "type": "function"
    },
    {
      "inputs": [
        {
          "internalType": "uint256",
          "name": "tokenId",
          "type": "uint256"
        }
      ],
      "name": "getApproved",
      "outputs": [
        {
          "internalType": "address",
          "name": "",
          "type": "address"
        }
      ],
      "stateMutability": "view",
      "type": "function"
    },
    {
      "inputs": [
        {
          "internalType": "uint176",
          "name": "_initId",
          "type": "uint176"
        },
        {
          "internalType": "address",
          "name": "_v3Factory",
          "type": "address"
        },
        {
          "internalType": "address",
          "name": "_yangNFT",
          "type": "address"
        },
        {
          "internalType": "address",
          "name": "_deployer",
          "type": "address"
        },
        {
          "internalType": "bytes32",
          "name": "_merkleRoot",
          "type": "bytes32"
        },
        {
          "internalType": "uint256",
          "name": "_vaultFee_",
          "type": "uint256"
        }
      ],
      "name": "initialize",
      "outputs": [],
      "stateMutability": "nonpayable",
      "type": "function"
    },
    {
      "inputs": [
        {
          "internalType": "address",
          "name": "owner",
          "type": "address"
        },
        {
          "internalType": "address",
          "name": "operator",
          "type": "address"
        }
      ],
      "name": "isApprovedForAll",
      "outputs": [
        {
          "internalType": "bool",
          "name": "",
          "type": "bool"
        }
      ],
      "stateMutability": "view",
      "type": "function"
    },
    {
      "inputs": [],
      "name": "manager",
      "outputs": [
        {
          "internalType": "address",
          "name": "",
          "type": "address"
        }
      ],
      "stateMutability": "view",
      "type": "function"
    },
    {
      "inputs": [],
      "name": "merkleRoot",
      "outputs": [
        {
          "internalType": "bytes32",
          "name": "",
          "type": "bytes32"
        }
      ],
      "stateMutability": "view",
      "type": "function"
    },
    {
      "inputs": [
        {
          "components": [
            {
              "internalType": "address",
              "name": "recipient",
              "type": "address"
            },
            {
              "internalType": "address",
              "name": "token0",
              "type": "address"
            },
            {
              "internalType": "address",
              "name": "token1",
              "type": "address"
            },
            {
              "internalType": "uint24",
              "name": "fee",
              "type": "uint24"
            }
          ],
          "internalType": "struct ICHIManager.MintParams",
          "name": "params",
          "type": "tuple"
        },
        {
          "internalType": "bytes32[]",
          "name": "merkleProof",
          "type": "bytes32[]"
        }
      ],
      "name": "mint",
      "outputs": [
        {
          "internalType": "uint256",
          "name": "tokenId",
          "type": "uint256"
        },
        {
          "internalType": "address",
          "name": "vault",
          "type": "address"
        }
      ],
      "stateMutability": "nonpayable",
      "type": "function"
    },
    {
      "inputs": [],
      "name": "name",
      "outputs": [
        {
          "internalType": "string",
          "name": "",
          "type": "string"
        }
      ],
      "stateMutability": "view",
      "type": "function"
    },
    {
      "inputs": [
        {
          "internalType": "uint256",
          "name": "tokenId",
          "type": "uint256"
        }
      ],
      "name": "ownerOf",
      "outputs": [
        {
          "internalType": "address",
          "name": "",
          "type": "address"
        }
      ],
      "stateMutability": "view",
      "type": "function"
    },
    {
      "inputs": [
        {
          "internalType": "uint256",
          "name": "tokenId",
          "type": "uint256"
        }
      ],
      "name": "pausedCHI",
      "outputs": [],
      "stateMutability": "nonpayable",
      "type": "function"
    },
    {
      "inputs": [
        {
          "internalType": "bytes32",
          "name": "",
          "type": "bytes32"
        }
      ],
      "name": "positions",
      "outputs": [
        {
          "internalType": "uint256",
          "name": "shares",
          "type": "uint256"
        }
      ],
      "stateMutability": "view",
      "type": "function"
    },
    {
      "inputs": [
        {
          "internalType": "uint256",
          "name": "tokenId",
          "type": "uint256"
        },
        {
          "internalType": "uint256",
          "name": "rangeIndex",
          "type": "uint256"
        }
      ],
      "name": "removeAllLiquidityFromPosition",
      "outputs": [],
      "stateMutability": "nonpayable",
      "type": "function"
    },
    {
      "inputs": [
        {
          "internalType": "uint256",
          "name": "tokenId",
          "type": "uint256"
        },
        {
          "internalType": "uint256",
          "name": "rangeIndex",
          "type": "uint256"
        },
        {
          "internalType": "uint128",
          "name": "liquidity",
          "type": "uint128"
        }
      ],
      "name": "removeLiquidityFromPosition",
      "outputs": [],
      "stateMutability": "nonpayable",
      "type": "function"
    },
    {
      "inputs": [
        {
          "internalType": "uint256",
          "name": "tokenId",
          "type": "uint256"
        },
        {
          "internalType": "int24",
          "name": "tickLower",
          "type": "int24"
        },
        {
          "internalType": "int24",
          "name": "tickUpper",
          "type": "int24"
        }
      ],
      "name": "removeRange",
      "outputs": [],
      "stateMutability": "nonpayable",
      "type": "function"
    },
    {
      "inputs": [
        {
          "internalType": "address",
          "name": "from",
          "type": "address"
        },
        {
          "internalType": "address",
          "name": "to",
          "type": "address"
        },
        {
          "internalType": "uint256",
          "name": "tokenId",
          "type": "uint256"
        }
      ],
      "name": "safeTransferFrom",
      "outputs": [],
      "stateMutability": "nonpayable",
      "type": "function"
    },
    {
      "inputs": [
        {
          "internalType": "address",
          "name": "from",
          "type": "address"
        },
        {
          "internalType": "address",
          "name": "to",
          "type": "address"
        },
        {
          "internalType": "uint256",
          "name": "tokenId",
          "type": "uint256"
        },
        {
          "internalType": "bytes",
          "name": "_data",
          "type": "bytes"
        }
      ],
      "name": "safeTransferFrom",
      "outputs": [],
      "stateMutability": "nonpayable",
      "type": "function"
    },
    {
      "inputs": [
        {
          "internalType": "address",
          "name": "operator",
          "type": "address"
        },
        {
          "internalType": "bool",
          "name": "approved",
          "type": "bool"
        }
      ],
      "name": "setApprovalForAll",
      "outputs": [],
      "stateMutability": "nonpayable",
      "type": "function"
    },
    {
      "inputs": [
        {
          "internalType": "address",
          "name": "_deployer",
          "type": "address"
        }
      ],
      "name": "setDeployer",
      "outputs": [],
      "stateMutability": "nonpayable",
      "type": "function"
    },
    {
      "inputs": [
        {
          "internalType": "uint256",
          "name": "tokenId",
          "type": "uint256"
        }
      ],
      "name": "stateOfCHI",
      "outputs": [
        {
          "internalType": "bool",
          "name": "isPaused",
          "type": "bool"
        },
        {
          "internalType": "bool",
          "name": "isArchived",
          "type": "bool"
        }
      ],
      "stateMutability": "view",
      "type": "function"
    },
    {
      "inputs": [
        {
          "internalType": "uint256",
          "name": "yangId",
          "type": "uint256"
        },
        {
          "internalType": "uint256",
          "name": "tokenId",
          "type": "uint256"
        },
        {
          "internalType": "uint256",
          "name": "amount0Desired",
          "type": "uint256"
        },
        {
          "internalType": "uint256",
          "name": "amount1Desired",
          "type": "uint256"
        },
        {
          "internalType": "uint256",
          "name": "amount0Min",
          "type": "uint256"
        },
        {
          "internalType": "uint256",
          "name": "amount1Min",
          "type": "uint256"
        }
      ],
      "name": "subscribe",
      "outputs": [
        {
          "internalType": "uint256",
          "name": "shares",
          "type": "uint256"
        },
        {
          "internalType": "uint256",
          "name": "amount0",
          "type": "uint256"
        },
        {
          "internalType": "uint256",
          "name": "amount1",
          "type": "uint256"
        }
      ],
      "stateMutability": "nonpayable",
      "type": "function"
    },
    {
      "inputs": [
        {
          "internalType": "bytes4",
          "name": "interfaceId",
          "type": "bytes4"
        }
      ],
      "name": "supportsInterface",
      "outputs": [
        {
          "internalType": "bool",
          "name": "",
          "type": "bool"
        }
      ],
      "stateMutability": "view",
      "type": "function"
    },
    {
      "inputs": [],
      "name": "symbol",
      "outputs": [
        {
          "internalType": "string",
          "name": "",
          "type": "string"
        }
      ],
      "stateMutability": "view",
      "type": "function"
    },
    {
      "inputs": [
        {
          "internalType": "address",
          "name": "",
          "type": "address"
        },
        {
          "internalType": "uint256",
          "name": "",
          "type": "uint256"
        }
      ],
      "name": "tickPercents",
      "outputs": [
        {
          "internalType": "uint256",
          "name": "",
          "type": "uint256"
        }
      ],
      "stateMutability": "view",
      "type": "function"
    },
    {
      "inputs": [
        {
          "internalType": "uint256",
          "name": "index",
          "type": "uint256"
        }
      ],
      "name": "tokenByIndex",
      "outputs": [
        {
          "internalType": "uint256",
          "name": "",
          "type": "uint256"
        }
      ],
      "stateMutability": "view",
      "type": "function"
    },
    {
      "inputs": [
        {
          "internalType": "address",
          "name": "owner",
          "type": "address"
        },
        {
          "internalType": "uint256",
          "name": "index",
          "type": "uint256"
        }
      ],
      "name": "tokenOfOwnerByIndex",
      "outputs": [
        {
          "internalType": "uint256",
          "name": "",
          "type": "uint256"
        }
      ],
      "stateMutability": "view",
      "type": "function"
    },
    {
      "inputs": [
        {
          "internalType": "uint256",
          "name": "tokenId",
          "type": "uint256"
        }
      ],
      "name": "tokenURI",
      "outputs": [
        {
          "internalType": "string",
          "name": "",
          "type": "string"
        }
      ],
      "stateMutability": "view",
      "type": "function"
    },
    {
      "inputs": [],
      "name": "totalSupply",
      "outputs": [
        {
          "internalType": "uint256",
          "name": "",
          "type": "uint256"
        }
      ],
      "stateMutability": "view",
      "type": "function"
    },
    {
      "inputs": [
        {
          "internalType": "address",
          "name": "from",
          "type": "address"
        },
        {
          "internalType": "address",
          "name": "to",
          "type": "address"
        },
        {
          "internalType": "uint256",
          "name": "tokenId",
          "type": "uint256"
        }
      ],
      "name": "transferFrom",
      "outputs": [],
      "stateMutability": "nonpayable",
      "type": "function"
    },
    {
      "inputs": [
        {
          "internalType": "uint256",
          "name": "tokenId",
          "type": "uint256"
        }
      ],
      "name": "unpausedCHI",
      "outputs": [],
      "stateMutability": "nonpayable",
      "type": "function"
    },
    {
      "inputs": [
        {
          "internalType": "uint256",
          "name": "yangId",
          "type": "uint256"
        },
        {
          "internalType": "uint256",
          "name": "tokenId",
          "type": "uint256"
        },
        {
          "internalType": "uint256",
          "name": "shares",
          "type": "uint256"
        },
        {
          "internalType": "uint256",
          "name": "amount0Min",
          "type": "uint256"
        },
        {
          "internalType": "uint256",
          "name": "amount1Min",
          "type": "uint256"
        }
      ],
      "name": "unsubscribe",
      "outputs": [
        {
          "internalType": "uint256",
          "name": "amount0",
          "type": "uint256"
        },
        {
          "internalType": "uint256",
          "name": "amount1",
          "type": "uint256"
        }
      ],
      "stateMutability": "nonpayable",
      "type": "function"
    },
    {
      "inputs": [
        {
          "internalType": "bytes32",
          "name": "_merkleRoot",
          "type": "bytes32"
        }
      ],
      "name": "updateMerkleRoot",
      "outputs": [],
      "stateMutability": "nonpayable",
      "type": "function"
    },
    {
      "inputs": [
        {
          "internalType": "uint256",
          "name": "_vaultFee_",
          "type": "uint256"
        }
      ],
      "name": "updateVaultFee",
      "outputs": [],
      "stateMutability": "nonpayable",
      "type": "function"
    },
    {
      "inputs": [],
      "name": "v3Factory",
      "outputs": [
        {
          "internalType": "address",
          "name": "",
          "type": "address"
        }
      ],
      "stateMutability": "view",
      "type": "function"
    },
    {
      "inputs": [],
      "name": "yangNFT",
      "outputs": [
        {
          "internalType": "address",
          "name": "",
          "type": "address"
        }
      ],
      "stateMutability": "view",
      "type": "function"
    }
  ],
  "bytecode": "0x608060405234801561001057600080fd5b50614a30806100206000396000f3fe608060405234801561001057600080fd5b506004361061030a5760003560e01c80636352211e1161019c578063b9decd66116100ee578063e4d2c9b511610097578063ec28fcac11610071578063ec28fcac1461065a578063ed1bbd0b1461067c578063f801deaa1461068f5761030a565b8063e4d2c9b514610621578063e60e5c3114610634578063e985e9c5146106475761030a565b8063d5f39488116100c8578063d5f39488146105f3578063df84f84d146105fb578063e2c3350e1461060e5761030a565b8063b9decd66146105a6578063c2108d1b146105cd578063c87b56dd146105e05761030a565b80637b2834f511610150578063962147351161012a578063962147351461056d578063a22cb46514610580578063b88d4fde146105935761030a565b80637b2834f51461054a5780637c887c591461055d57806395d89b41146105655761030a565b80636c0360eb116101815780636c0360eb1461051c5780636dfee1b11461052457806370a08231146105375761030a565b80636352211e146104f657806363e033f7146105095761030a565b80632f745c5911610260578063481c6a7511610209578063514ea4bf116101e3578063514ea4bf146104af57806354cc59ba146104c25780635d87b6e4146104e35761030a565b8063481c6a75146104815780634b57512d146104895780634f6ccce71461049c5761030a565b806342842e0e1161023a57806342842e0e1461043a57806346698e751461044d5780634783f0ef1461046e5761030a565b80632f745c59146103fe57806338187e85146104115780634259ab44146104325761030a565b80630e082b74116102c257806323b872dd1161029c57806323b872dd146103d057806325f368ae146103e35780632eb4a7ab146103f65761030a565b80630e082b741461039557806318160ddd146103a857806321183386146103bd5761030a565b8063081812fc116102f3578063081812fc1461034d578063095ea7b31461036d5780630cb1ac8c146103825761030a565b806301ffc9a71461030f57806306fdde0314610338575b600080fd5b61032261031d366004613d98565b6106a2565b60405161032f91906142f3565b60405180910390f35b6103406106dd565b60405161032f919061432d565b61036061035b366004613d80565b610773565b60405161032f9190614249565b61038061037b366004613d39565b6107bf565b005b610380610390366004613d80565b610895565b6103806103a336600461407a565b610936565b6103b0610a40565b60405161032f9190614310565b6103806103cb366004613d80565b610a51565b6103806103de366004613c08565b610acc565b6103806103f136600461411e565b610b23565b6103b0610c23565b6103b061040c366004613d39565b610c29565b61042461041f366004613e39565b610c54565b60405161032f9291906146df565b610360611045565b610380610448366004613c08565b611054565b61046061045b36600461418f565b61106f565b60405161032f92919061423b565b61038061047c366004613d80565b61126f565b61036061129e565b610380610497366004613ffb565b6112ad565b6103b06104aa366004613d80565b6113bd565b6103b06104bd366004613d80565b6113d3565b6104d56104d0366004613d80565b6113e5565b60405161032f9291906142fe565b6103806104f1366004614036565b61140f565b610360610504366004613d80565b611516565b6103806105173660046140c6565b61153e565b6103406117e3565b610380610532366004613fca565b6117e8565b6103b0610545366004613b98565b611986565b610380610558366004613d80565b6119ee565b610360611a1d565b610340611a2c565b61038061057b366004613b98565b611a8d565b61038061058e366004613d0c565b611ae6565b6103806105a1366004613c48565b611beb565b6105b96105b4366004613d80565b611c49565b60405161032f989796959493929190614281565b6103806105db36600461415e565b611eba565b6103406105ee366004613d80565b611f66565b610360611f8e565b610380610609366004613f53565b611f9d565b61038061061c366004613ffb565b6121ac565b6103b061062f366004613d39565b61226c565b610380610642366004613e91565b612289565b610322610655366004613bd0565b61243c565b61066d6106683660046141c9565b61246a565b60405161032f9392919061475a565b61038061068a366004613dd8565b61266c565b61038061069d366004613d80565b6127c5565b7fffffffff00000000000000000000000000000000000000000000000000000000811660009081526065602052604090205460ff165b919050565b609c8054604080516020601f60026000196101006001881615020190951694909404938401819004810282018101909252828152606093909290918301828280156107695780601f1061073e57610100808354040283529160200191610769565b820191906000526020600020905b81548152906001019060200180831161074c57829003601f168201915b5050505050905090565b600061077e8261285a565b6107a35760405162461bcd60e51b815260040161079a9061464b565b60405180910390fd5b50600090815260cb60205260409020546001600160a01b031690565b60006107ca82611516565b9050806001600160a01b0316836001600160a01b0316141561081d5760405162461bcd60e51b81526004018080602001828103825260218152602001806149d26021913960400191505060405180910390fd5b806001600160a01b031661082f612867565b6001600160a01b0316148061084b575061084b81610655612867565b6108865760405162461bcd60e51b81526004018080602001828103825260388152602001806148ad6038913960400191505060405180910390fd5b610890838361286b565b505050565b600081815260cb602052604090206108ad33836128e6565b806108c2575060cc546001600160a01b031633145b6108de5760405162461bcd60e51b815260040161079a9061456f565b6002810154600160a81b900460ff161561090a5760405162461bcd60e51b815260040161079a90614538565b60020180547fffffffffffffffffffffff00ffffffffffffffffffffffffffffffffffffffff16905550565b60cc546001600160a01b031633146109605760405162461bcd60e51b815260040161079a906143ee565b600083815260cb602052604090206002810154600160a81b900460ff161561099a5760405162461bcd60e51b815260040161079a9061445c565b60028101546040517fd4da61850000000000000000000000000000000000000000000000000000000081526001600160a01b039091169063d4da6185906109e7908690869060040161471b565b6040805180830381600087803b158015610a0057600080fd5b505af1158015610a14573d6000803e3d6000fd5b505050506040513d601f19601f82011682018060405250810190610a389190614057565b505050505050565b6000610a4c609861298a565b905090565b600081815260cb60205260409020610a6933836128e6565b80610a7e575060cc546001600160a01b031633145b610a9a5760405162461bcd60e51b815260040161079a9061456f565b60020180547fffffffffffffffffffffff00ffffffffffffffffffffffffffffffffffffffff16600160a01b17905550565b610add610ad7612867565b826128e6565b610b185760405162461bcd60e51b81526004018080602001828103825260318152602001806149f36031913960400191505060405180910390fd5b610890838383612995565b60cc546001600160a01b03163314610b4d5760405162461bcd60e51b815260040161079a906143ee565b600084815260cb602052604090206002810154859190600160a01b900460ff1615610b8a5760405162461bcd60e51b815260040161079a90614380565b600086815260cb602052604090819020600281015491517f0430c13000000000000000000000000000000000000000000000000000000000815290916001600160a01b031690630430c13090610be89089908990899060040161473b565b600060405180830381600087803b158015610c0257600080fd5b505af1158015610c16573d6000803e3d6000fd5b5050505050505050505050565b60d05481565b6001600160a01b0382166000908152609760205260408120610c4b9083612ae1565b90505b92915050565b6000808383600033604051602001610c6c919061420b565b604051602081830303815290604052805190602001209050610cc58383808060200260200160405190810160405280939291908181526020018383602002808284376000920191909152505060d0549150849050612aed565b610ce15760405162461bcd60e51b815260040161079a906143b7565b60cd546000906001600160a01b0316631698ee82610d0560408c0160208d01613b98565b610d1560608d0160408e01613b98565b610d2560808e0160608f01613f18565b6040518463ffffffff1660e01b8152600401610d43939291906142cb565b60206040518083038186803b158015610d5b57600080fd5b505afa158015610d6f573d6000803e3d6000fd5b505050506040513d601f19601f82011682018060405250810190610d939190613bb4565b90506001600160a01b038116610dbb5760405162461bcd60e51b815260040161079a906144ca565b60cf5460d2546040517f58b4b7110000000000000000000000000000000000000000000000000000000081526001600160a01b03909216916358b4b71191610e09918591309160040161425d565b602060405180830381600087803b158015610e2357600080fd5b505af1158015610e37573d6000803e3d6000fd5b505050506040513d601f19601f82011682018060405250810190610e5b9190613bb4565b9450610ec2610e6d60208b018b613b98565b60c980547fffffffffffffffffffff000000000000000000000000000000000000000000008116600175ffffffffffffffffffffffffffffffffffffffffffff92831690810190921617909155975087612b98565b6040805160c0810190915280610edb60208c018c613b98565b6001600160a01b039081168252838116602080840191909152888216604080850191909152600060608086018290526080808701839052600160a09788018190528e845260cb8652928490208851815490881673ffffffffffffffffffffffffffffffffffffffff19918216178255958901519381018054948816948716949094179093558784015160029093018054928901519189015198909701511515600160b01b0260ff60b01b19981515600160a81b027fffffffffffffffffffff00ffffffffffffffffffffffffffffffffffffffffff921515600160a01b027fffffffffffffffffffffff00ffffffffffffffffffffffffffffffffffffffff959098169390961692909217929092169490941716919091179390931617905560d25490517ff03c0794e29ab9041701d90faa819fd394c96b5d374215f11d7dd03839606d5e9161103191899185918a91906146f6565b60405180910390a150505050935093915050565b60ce546001600160a01b031681565b61089083838360405180602001604052806000815250611beb565b60ce5460009081906001600160a01b0316331461109e5760405162461bcd60e51b815260040161079a906145a6565b600260015414156110f6576040805162461bcd60e51b815260206004820152601f60248201527f5265656e7472616e637947756172643a207265656e7472616e742063616c6c00604482015290519081900360640190fd5b60026001819055600087815260cb6020526040902090810154600160a81b900460ff16156111365760405162461bcd60e51b815260040161079a9061445c565b6000888860405160200161114b92919061423b565b60408051601f198184030181529181528151602092830120600081815260ca90935291208054919250908811156111945760405162461bcd60e51b815260040161079a90614501565b600283015460ce546040517fd473a6540000000000000000000000000000000000000000000000000000000081526001600160a01b039283169263d473a654926111ec928f928e928e928e9290911690600401614770565b6040805180830381600087803b15801561120557600080fd5b505af1158015611219573d6000803e3d6000fd5b505050506040513d601f19601f8201168201806040525081019061123d9190614057565b600084815260ca6020526040902054919650945061125b9089612cc6565b905550506001805590969095509350505050565b60cc546001600160a01b031633146112995760405162461bcd60e51b815260040161079a906143ee565b60d055565b60cc546001600160a01b031681565b826112b833826128e6565b6112d45760405162461bcd60e51b815260040161079a9061456f565b600084815260cb602052604090206002810154859190600160a01b900460ff16156113115760405162461bcd60e51b815260040161079a90614380565b600086815260cb602052604090819020600281015491517f5a64998b00000000000000000000000000000000000000000000000000000000815290916001600160a01b031690635a64998b9061136d9089908990600401614319565b600060405180830381600087803b15801561138757600080fd5b505af115801561139b573d6000803e3d6000fd5b5050506002909101805460ff60b01b1916600160b01b17905550505050505050565b6000806113cb609884612d23565b509392505050565b60ca6020526000908152604090205481565b600090815260cb602052604090206002015460ff600160a01b8204811692600160a81b9092041690565b60cc546001600160a01b031633146114395760405162461bcd60e51b815260040161079a906143ee565b600082815260cb602052604090206002810154600160a81b900460ff16156114735760405162461bcd60e51b815260040161079a9061445c565b60028101546040517f2106fa460000000000000000000000000000000000000000000000000000000081526001600160a01b0390911690632106fa46906114be908590600401614310565b6040805180830381600087803b1580156114d757600080fd5b505af11580156114eb573d6000803e3d6000fd5b505050506040513d601f19601f8201168201806040525081019061150f9190614057565b5050505050565b6000610c4e8260405180606001604052806029815260200161490f6029913960989190612d41565b60cc546001600160a01b031633146115685760405162461bcd60e51b815260040161079a906143ee565b600083815260cb602052604090206002810154849190600160a01b900460ff16156115a55760405162461bcd60e51b815260040161079a90614380565b600085815260cb60209081526040808320600281015482517fb135a14500000000000000000000000000000000000000000000000000000000815292519194936001600160a01b039091169263b135a1459260048083019392829003018186803b15801561161257600080fd5b505afa158015611626573d6000803e3d6000fd5b505050506040513d601f19601f8201168201806040525081019061164a9190613f3b565b6002830154909150600160b01b900460ff161561170457600061166d8783612d4e565b9050600061167b8784612d4e565b905060005b838110156116fc576002850154604051634ecebadf60e11b81526001600160a01b0390911690639d9d75be906116be9084908790879060040161475a565b600060405180830381600087803b1580156116d857600080fd5b505af11580156116ec573d6000803e3d6000fd5b5050600190920191506116809050565b5050506117da565b60005b818110156117d85760028301546001600160a01b0316600090815260d3602090815260408083208484529091528120549061174d60646117478b85612db5565b90612d4e565b9050600061176060646117478b86612db5565b6002870154604051634ecebadf60e11b81529192506001600160a01b031690639d9d75be906117979087908690869060040161475a565b600060405180830381600087803b1580156117b157600080fd5b505af11580156117c5573d6000803e3d6000fd5b5050600190950194506117079350505050565b505b50505050505050565b606090565b826117f333826128e6565b61180f5760405162461bcd60e51b815260040161079a9061456f565b600084815260cb60209081526040808320600281015482517fb135a14500000000000000000000000000000000000000000000000000000000815292519194936001600160a01b039091169263b135a1459260048083019392829003018186803b15801561187c57600080fd5b505afa158015611890573d6000803e3d6000fd5b505050506040513d601f19601f820116820180604052508101906118b49190613f3b565b90508381146118d55760405162461bcd60e51b815260040161079a906146a8565b6000805b8281101561194e578686828181106118ed57fe5b60028701546001600160a01b0316600090815260d3602090815260408083208784528252909120910292909201359091555061194487878381811061192e57fe5b9050602002013583612e0e90919063ffffffff16565b91506001016118d9565b5060648111156119705760405162461bcd60e51b815260040161079a90614614565b5050600201805460ff60b01b1916905550505050565b60006001600160a01b0382166119cd5760405162461bcd60e51b815260040180806020018281038252602a8152602001806148e5602a913960400191505060405180910390fd5b6001600160a01b0382166000908152609760205260409020610c4e9061298a565b60cc546001600160a01b03163314611a185760405162461bcd60e51b815260040161079a906143ee565b60d255565b60cd546001600160a01b031681565b609d8054604080516020601f60026000196101006001881615020190951694909404938401819004810282018101909252828152606093909290918301828280156107695780601f1061073e57610100808354040283529160200191610769565b60cc546001600160a01b03163314611ab75760405162461bcd60e51b815260040161079a906143ee565b60cf805473ffffffffffffffffffffffffffffffffffffffff19166001600160a01b0392909216919091179055565b611aee612867565b6001600160a01b0316826001600160a01b03161415611b54576040805162461bcd60e51b815260206004820152601960248201527f4552433732313a20617070726f766520746f2063616c6c657200000000000000604482015290519081900360640190fd5b80609b6000611b61612867565b6001600160a01b03908116825260208083019390935260409182016000908120918716808252919093529120805460ff191692151592909217909155611ba5612867565b6001600160a01b03167f17307eab39ab6107e8899845ad3d59bd9653f200f220920489ca2b5937696c318360405180821515815260200191505060405180910390a35050565b611bfc611bf6612867565b836128e6565b611c375760405162461bcd60e51b81526004018080602001828103825260318152602001806149f36031913960400191505060405180910390fd5b611c4384848484612e68565b50505050565b600081815260cb602052604081208190819081908190819081908190611c6e8a61285a565b611c8a5760405162461bcd60e51b815260040161079a906145dd565b60028101546001600160a01b0316611ca18b611516565b825460018401546002850154604080517feae989a200000000000000000000000000000000000000000000000000000000815290516001600160a01b0394851694938416939283169287169163eae989a2916004808301926020929190829003018186803b158015611d1257600080fd5b505afa158015611d26573d6000803e3d6000fd5b505050506040513d601f19601f82011682018060405250810190611d4a9190613f3b565b856001600160a01b031663a00fa77f6040518163ffffffff1660e01b815260040160206040518083038186803b158015611d8357600080fd5b505afa158015611d97573d6000803e3d6000fd5b505050506040513d601f19601f82011682018060405250810190611dbb9190613f3b565b866001600160a01b031663b0e21e8a6040518163ffffffff1660e01b815260040160206040518083038186803b158015611df457600080fd5b505afa158015611e08573d6000803e3d6000fd5b505050506040513d601f19601f82011682018060405250810190611e2c9190613f3b565b876001600160a01b03166318160ddd6040518163ffffffff1660e01b815260040160206040518083038186803b158015611e6557600080fd5b505afa158015611e79573d6000803e3d6000fd5b505050506040513d601f19601f82011682018060405250810190611e9d9190613f3b565b995099509950995099509950995099505050919395975091939597565b60cc546001600160a01b03163314611ee45760405162461bcd60e51b815260040161079a906143ee565b600084815260cb602052604090206002810154859190600160a01b900460ff1615611f215760405162461bcd60e51b815260040161079a90614380565b600086815260cb60205260409081902060028101549151634ecebadf60e11b815290916001600160a01b031690639d9d75be90610be89089908990899060040161475a565b6060611f718261285a565b611f7a57600080fd5b505060408051602081019091526000815290565b60cf546001600160a01b031681565b84611fa833826128e6565b611fc45760405162461bcd60e51b815260040161079a9061456f565b600086815260cb602052604090206002810154879190600160a01b900460ff16156120015760405162461bcd60e51b815260040161079a90614380565b600088815260cb60205260408120905b878110156120cd5760028201546001600160a01b031663db4dcce48a8a8481811061203857fe5b61204e9260206040909202019081019150613e1f565b8b8b8581811061205a57fe5b90506040020160200160208101906120729190613e1f565b6040518363ffffffff1660e01b815260040161208f929190614319565b600060405180830381600087803b1580156120a957600080fd5b505af11580156120bd573d6000803e3d6000fd5b5050600190920191506120119050565b5060005b8581101561218d5760028201546001600160a01b0316635a64998b8888848181106120f857fe5b61210e9260206040909202019081019150613e1f565b89898581811061211a57fe5b90506040020160200160208101906121329190613e1f565b6040518363ffffffff1660e01b815260040161214f929190614319565b600060405180830381600087803b15801561216957600080fd5b505af115801561217d573d6000803e3d6000fd5b5050600190920191506120d19050565b50600201805460ff60b01b1916600160b01b1790555050505050505050565b826121b733826128e6565b6121d35760405162461bcd60e51b815260040161079a9061456f565b600084815260cb602052604090206002810154859190600160a01b900460ff16156122105760405162461bcd60e51b815260040161079a90614380565b600086815260cb602052604090819020600281015491517fdb4dcce400000000000000000000000000000000000000000000000000000000815290916001600160a01b03169063db4dcce49061136d9089908990600401614319565b60d360209081526000928352604080842090915290825290205481565b600054610100900460ff16806122a257506122a2612eba565b806122b0575060005460ff16155b6122eb5760405162461bcd60e51b815260040180806020018281038252602e815260200180614938602e913960400191505060405180910390fd5b600054610100900460ff16158015612316576000805460ff1961ff0019909116610100171660011790555b60cc80543373ffffffffffffffffffffffffffffffffffffffff199182161790915560cd805482166001600160a01b038981169190911790915560ce8054831688831617905560cf805490921690861617905560d083905560c980547fffffffffffffffffffff000000000000000000000000000000000000000000001675ffffffffffffffffffffffffffffffffffffffffffff891617905560d282905560408051808201825260208082527f59494e20556e697377617020563320506f736974696f6e73204d616e61676572818301528251808401909352600383527f43484900000000000000000000000000000000000000000000000000000000009083015261242291612ecb565b80156117da576000805461ff001916905550505050505050565b6001600160a01b039182166000908152609b6020908152604080832093909416825291909152205460ff1690565b60ce54600090819081906001600160a01b0316331461249b5760405162461bcd60e51b815260040161079a906145a6565b60d1889055600088815260cb60205260409020600281015489918291600160a01b900460ff16156124de5760405162461bcd60e51b815260040161079a90614380565b60026001541415612536576040805162461bcd60e51b815260206004820152601f60248201527f5265656e7472616e637947756172643a207265656e7472616e742063616c6c00604482015290519081900360640190fd5b6002600181905550600060cb60008d815260200190815260200160002090508060020160009054906101000a90046001600160a01b03166001600160a01b031663bf02b5ea8e8d8d8d8d6040518663ffffffff1660e01b81526004016125a095949392919061479c565b606060405180830381600087803b1580156125ba57600080fd5b505af11580156125ce573d6000803e3d6000fd5b505050506040513d601f19601f820116820180604052508101906125f291906140f1565b6040519299509097509550600090612610908f908f9060200161423b565b60408051601f198184030181529181528151602092830120600081815260ca9093529120549091506126429089612e0e565b600091825260ca60205260408220556001805560d15550949b939a50919850919650505050505050565b61267533612f88565b821561271e5760ce546040517f23b872dd0000000000000000000000000000000000000000000000000000000081526001600160a01b03868116926323b872dd926126ca92909116903390889060040161425d565b602060405180830381600087803b1580156126e457600080fd5b505af11580156126f8573d6000803e3d6000fd5b505050506040513d601f19601f8201168201806040525081019061271c9190613d64565b505b8015611c435760ce546040517f23b872dd0000000000000000000000000000000000000000000000000000000081526001600160a01b03848116926323b872dd9261277392909116903390869060040161425d565b602060405180830381600087803b15801561278d57600080fd5b505af11580156127a1573d6000803e3d6000fd5b505050506040513d601f19601f8201168201806040525081019061150f9190613d64565b60cc546001600160a01b031633146127ef5760405162461bcd60e51b815260040161079a906143ee565b600081815260cb602052604090206002810154600160a01b900460ff166128285760405162461bcd60e51b815260040161079a90614425565b60020180547fffffffffffffffffffff00ffffffffffffffffffffffffffffffffffffffffff16600160a81b17905550565b6000610c4e609883612fcc565b3390565b600081815260cb60205260409020805473ffffffffffffffffffffffffffffffffffffffff19166001600160a01b03841690811790915581906128ad82611516565b6001600160a01b03167f8c5be1e5ebec7d5bd14f71427d1e84f3dd0314c0f7b2291e5b200ac8c7c3b92560405160405180910390a45050565b60006128f18261285a565b61292c5760405162461bcd60e51b815260040180806020018281038252602c815260200180614881602c913960400191505060405180910390fd5b600061293783611516565b9050806001600160a01b0316846001600160a01b031614806129725750836001600160a01b031661296784610773565b6001600160a01b0316145b806129825750612982818561243c565b949350505050565b6000610c4e82612fd8565b826001600160a01b03166129a882611516565b6001600160a01b0316146129ed5760405162461bcd60e51b81526004018080602001828103825260298152602001806149a96029913960400191505060405180910390fd5b6001600160a01b038216612a325760405162461bcd60e51b81526004018080602001828103825260248152602001806148376024913960400191505060405180910390fd5b612a3d838383610890565b612a4860008261286b565b6001600160a01b0383166000908152609760205260409020612a6a9082612fdc565b506001600160a01b0382166000908152609760205260409020612a8d9082612fe8565b50612a9a60988284612ff4565b5080826001600160a01b0316846001600160a01b03167fddf252ad1be2c89b69c2b068fc378daa952ba7f163c4a11628f55a4df523b3ef60405160405180910390a4505050565b6000610c4b838361300a565b600081815b8551811015612b8b576000868281518110612b0957fe5b60200260200101519050808311612b505782816040516020018083815260200182815260200192505050604051602081830303815290604052805190602001209250612b82565b808360405160200180838152602001828152602001925050506040516020818303038152906040528051906020012092505b50600101612af2565b50831490505b9392505050565b6001600160a01b038216612bf3576040805162461bcd60e51b815260206004820181905260248201527f4552433732313a206d696e7420746f20746865207a65726f2061646472657373604482015290519081900360640190fd5b612bfc8161285a565b15612c4e576040805162461bcd60e51b815260206004820152601c60248201527f4552433732313a20746f6b656e20616c7265616479206d696e74656400000000604482015290519081900360640190fd5b612c5a60008383610890565b6001600160a01b0382166000908152609760205260409020612c7c9082612fe8565b50612c8960988284612ff4565b5060405181906001600160a01b038416906000907fddf252ad1be2c89b69c2b068fc378daa952ba7f163c4a11628f55a4df523b3ef908290a45050565b600082821115612d1d576040805162461bcd60e51b815260206004820152601e60248201527f536166654d6174683a207375627472616374696f6e206f766572666c6f770000604482015290519081900360640190fd5b50900390565b6000808080612d32868661306e565b909450925050505b9250929050565b60006129828484846130e9565b6000808211612da4576040805162461bcd60e51b815260206004820152601a60248201527f536166654d6174683a206469766973696f6e206279207a65726f000000000000604482015290519081900360640190fd5b818381612dad57fe5b049392505050565b600082612dc457506000610c4e565b82820282848281612dd157fe5b0414610c4b5760405162461bcd60e51b81526004018080602001828103825260218152602001806149886021913960400191505060405180910390fd5b600082820183811015610c4b576040805162461bcd60e51b815260206004820152601b60248201527f536166654d6174683a206164646974696f6e206f766572666c6f770000000000604482015290519081900360640190fd5b612e73848484612995565b612e7f848484846131b3565b611c435760405162461bcd60e51b81526004018080602001828103825260328152602001806148056032913960400191505060405180910390fd5b6000612ec53061338f565b15905090565b600054610100900460ff1680612ee45750612ee4612eba565b80612ef2575060005460ff16155b612f2d5760405162461bcd60e51b815260040180806020018281038252602e815260200180614938602e913960400191505060405180910390fd5b600054610100900460ff16158015612f58576000805460ff1961ff0019909116610100171660011790555b612f60613395565b612f68613437565b612f7283836134ed565b8015610890576000805461ff0019169055505050565b60d154600090815260cb6020526040902060028101546001600160a01b03838116911614612fc85760405162461bcd60e51b815260040161079a90614493565b5050565b6000610c4b838361361d565b5490565b6000610c4b8383613635565b6000610c4b83836136fb565b600061298284846001600160a01b038516613745565b8154600090821061304c5760405162461bcd60e51b81526004018080602001828103825260228152602001806147e36022913960400191505060405180910390fd5b82600001828154811061305b57fe5b9060005260206000200154905092915050565b8154600090819083106130b25760405162461bcd60e51b81526004018080602001828103825260228152602001806149666022913960400191505060405180910390fd5b60008460000184815481106130c357fe5b906000526020600020906002020190508060000154816001015492509250509250929050565b600082815260018401602052604081205482816131845760405162461bcd60e51b81526004018080602001828103825283818151815260200191508051906020019080838360005b83811015613149578181015183820152602001613131565b50505050905090810190601f1680156131765780820380516001836020036101000a031916815260200191505b509250505060405180910390fd5b5084600001600182038154811061319757fe5b9060005260206000209060020201600101549150509392505050565b60006131c7846001600160a01b031661338f565b6131d357506001612982565b60006133247f150b7a0200000000000000000000000000000000000000000000000000000000613201612867565b88878760405160240180856001600160a01b03168152602001846001600160a01b0316815260200183815260200180602001828103825283818151815260200191508051906020019080838360005b83811015613268578181015183820152602001613250565b50505050905090810190601f1680156132955780820380516001836020036101000a031916815260200191505b5095505050505050604051602081830303815290604052907bffffffffffffffffffffffffffffffffffffffffffffffffffffffff19166020820180517bffffffffffffffffffffffffffffffffffffffffffffffffffffffff8381831617835250505050604051806060016040528060328152602001614805603291396001600160a01b03881691906137dc565b9050600081806020019051602081101561333d57600080fd5b50517fffffffff00000000000000000000000000000000000000000000000000000000167f150b7a02000000000000000000000000000000000000000000000000000000001492505050949350505050565b3b151590565b600054610100900460ff16806133ae57506133ae612eba565b806133bc575060005460ff16155b6133f75760405162461bcd60e51b815260040180806020018281038252602e815260200180614938602e913960400191505060405180910390fd5b600054610100900460ff16158015613422576000805460ff1961ff0019909116610100171660011790555b8015613434576000805461ff00191690555b50565b600054610100900460ff16806134505750613450612eba565b8061345e575060005460ff16155b6134995760405162461bcd60e51b815260040180806020018281038252602e815260200180614938602e913960400191505060405180910390fd5b600054610100900460ff161580156134c4576000805460ff1961ff0019909116610100171660011790555b6134227f01ffc9a7000000000000000000000000000000000000000000000000000000006137eb565b600054610100900460ff16806135065750613506612eba565b80613514575060005460ff16155b61354f5760405162461bcd60e51b815260040180806020018281038252602e815260200180614938602e913960400191505060405180910390fd5b600054610100900460ff1615801561357a576000805460ff1961ff0019909116610100171660011790555b825161358d90609c906020860190613a60565b5081516135a190609d906020850190613a60565b506135cb7f80ac58cd000000000000000000000000000000000000000000000000000000006137eb565b6135f47f5b5e139f000000000000000000000000000000000000000000000000000000006137eb565b612f727f780e9d63000000000000000000000000000000000000000000000000000000006137eb565b60009081526001919091016020526040902054151590565b600081815260018301602052604081205480156136f1578354600019808301919081019060009087908390811061366857fe5b906000526020600020015490508087600001848154811061368557fe5b6000918252602080832090910192909255828152600189810190925260409020908401905586548790806136b557fe5b60019003818190600052602060002001600090559055866001016000878152602001908152602001600020600090556001945050505050610c4e565b6000915050610c4e565b6000613707838361361d565b61373d57508154600181810184556000848152602080822090930184905584548482528286019093526040902091909155610c4e565b506000610c4e565b6000828152600184016020526040812054806137aa575050604080518082018252838152602080820184815286546001818101895560008981528481209551600290930290950191825591519082015586548684528188019092529290912055612b91565b828560000160018303815481106137bd57fe5b9060005260206000209060020201600101819055506000915050612b91565b6060612982848460008561389f565b7fffffffff000000000000000000000000000000000000000000000000000000008082161415613862576040805162461bcd60e51b815260206004820152601c60248201527f4552433136353a20696e76616c696420696e7465726661636520696400000000604482015290519081900360640190fd5b7fffffffff00000000000000000000000000000000000000000000000000000000166000908152606560205260409020805460ff19166001179055565b6060824710156138e05760405162461bcd60e51b815260040180806020018281038252602681526020018061485b6026913960400191505060405180910390fd5b6138e98561338f565b61393a576040805162461bcd60e51b815260206004820152601d60248201527f416464726573733a2063616c6c20746f206e6f6e2d636f6e7472616374000000604482015290519081900360640190fd5b600080866001600160a01b031685876040518082805190602001908083835b602083106139785780518252601f199092019160209182019101613959565b6001836020036101000a03801982511681845116808217855250505050505090500191505060006040518083038185875af1925050503d80600081146139da576040519150601f19603f3d011682016040523d82523d6000602084013e6139df565b606091505b50915091506139ef8282866139fa565b979650505050505050565b60608315613a09575081612b91565b825115613a195782518084602001fd5b60405162461bcd60e51b8152602060048201818152845160248401528451859391928392604401919085019080838360008315613149578181015183820152602001613131565b828054600181600116156101000203166002900490600052602060002090601f016020900481019282613a965760008555613adc565b82601f10613aaf57805160ff1916838001178555613adc565b82800160010185558215613adc579182015b82811115613adc578251825591602001919060010190613ac1565b50613ae8929150613aec565b5090565b5b80821115613ae85760008155600101613aed565b60008083601f840112613b12578081fd5b50813567ffffffffffffffff811115613b29578182fd5b6020830191508360208083028501011115612d3a57600080fd5b60008083601f840112613b54578182fd5b50813567ffffffffffffffff811115613b6b578182fd5b602083019150836020604083028501011115612d3a57600080fd5b8035600281900b81146106d857600080fd5b600060208284031215613ba9578081fd5b8135610c4b816147bf565b600060208284031215613bc5578081fd5b8151610c4b816147bf565b60008060408385031215613be2578081fd5b8235613bed816147bf565b91506020830135613bfd816147bf565b809150509250929050565b600080600060608486031215613c1c578081fd5b8335613c27816147bf565b92506020840135613c37816147bf565b929592945050506040919091013590565b60008060008060808587031215613c5d578081fd5b8435613c68816147bf565b9350602085810135613c79816147bf565b935060408601359250606086013567ffffffffffffffff80821115613c9c578384fd5b818801915088601f830112613caf578384fd5b813581811115613cbb57fe5b60405184601f19601f8401168201018181108482111715613cd857fe5b60405281815283820185018b1015613cee578586fd5b81858501868301379081019093019390935250939692955090935050565b60008060408385031215613d1e578182fd5b8235613d29816147bf565b91506020830135613bfd816147d4565b60008060408385031215613d4b578182fd5b8235613d56816147bf565b946020939093013593505050565b600060208284031215613d75578081fd5b8151610c4b816147d4565b600060208284031215613d91578081fd5b5035919050565b600060208284031215613da9578081fd5b81357fffffffff0000000000000000000000000000000000000000000000000000000081168114610c4b578182fd5b60008060008060808587031215613ded578182fd5b8435613df8816147bf565b9350602085013592506040850135613e0f816147bf565b9396929550929360600135925050565b600060208284031215613e30578081fd5b610c4b82613b86565b600080600083850360a0811215613e4e578182fd5b6080811215613e5b578182fd5b50839250608084013567ffffffffffffffff811115613e78578182fd5b613e8486828701613b01565b9497909650939450505050565b60008060008060008060c08789031215613ea9578384fd5b863575ffffffffffffffffffffffffffffffffffffffffffff81168114613ece578485fd5b95506020870135613ede816147bf565b94506040870135613eee816147bf565b93506060870135613efe816147bf565b9598949750929560808101359460a0909101359350915050565b600060208284031215613f29578081fd5b813562ffffff81168114610c4b578182fd5b600060208284031215613f4c578081fd5b5051919050565b600080600080600060608688031215613f6a578283fd5b85359450602086013567ffffffffffffffff80821115613f88578485fd5b613f9489838a01613b43565b90965094506040880135915080821115613fac578283fd5b50613fb988828901613b43565b969995985093965092949392505050565b600080600060408486031215613fde578081fd5b83359250602084013567ffffffffffffffff811115613e78578182fd5b60008060006060848603121561400f578081fd5b8335925061401f60208501613b86565b915061402d60408501613b86565b90509250925092565b60008060408385031215614048578182fd5b50508035926020909101359150565b60008060408385031215614069578182fd5b505080516020909101519092909150565b60008060006060848603121561408e578081fd5b833592506020840135915060408401356fffffffffffffffffffffffffffffffff811681146140bb578182fd5b809150509250925092565b6000806000606084860312156140da578081fd5b505081359360208301359350604090920135919050565b600080600060608486031215614105578081fd5b8351925060208401519150604084015190509250925092565b60008060008060808587031215614133578182fd5b8435935060208501359250604085013591506060850135614153816147bf565b939692955090935050565b60008060008060808587031215614173578182fd5b5050823594602084013594506040840135936060013592509050565b600080600080600060a086880312156141a6578283fd5b505083359560208501359550604085013594606081013594506080013592509050565b60008060008060008060c087890312156141e1578384fd5b505084359660208601359650604086013595606081013595506080810135945060a0013592509050565b60609190911b7fffffffffffffffffffffffffffffffffffffffff00000000000000000000000016815260140190565b918252602082015260400190565b6001600160a01b0391909116815260200190565b6001600160a01b039384168152919092166020820152604081019190915260600190565b6001600160a01b03988916815296881660208801529487166040870152929095166060850152608084015260a083019390935260c082019290925260e08101919091526101000190565b6001600160a01b03938416815291909216602082015262ffffff909116604082015260600190565b901515815260200190565b91151582521515602082015260400190565b90815260200190565b600292830b8152910b602082015260400190565b6000602080835283518082850152825b818110156143595785810183015185820160400152820161433d565b8181111561436a5783604083870101525b50601f01601f1916929092016040019392505050565b6020808252600a908201527f4348492050617573656400000000000000000000000000000000000000000000604082015260600190565b60208082526009908201527f6f6e6c7920676f76730000000000000000000000000000000000000000000000604082015260600190565b60208082526007908201527f6d616e6167657200000000000000000000000000000000000000000000000000604082015260600190565b6020808252600a908201527f4e6f742050617573656400000000000000000000000000000000000000000000604082015260600190565b6020808252600c908201527f4348492041726368697665640000000000000000000000000000000000000000604082015260600190565b6020808252600d908201527f63616c6c6261636b206661696c00000000000000000000000000000000000000604082015260600190565b60208082526011908201527f4e6f6e2d6578697374656e7420706f6f6c000000000000000000000000000000604082015260600190565b60208082526001908201527f7300000000000000000000000000000000000000000000000000000000000000604082015260600190565b6020808252600c908201527f4348492061726368697665640000000000000000000000000000000000000000604082015260600190565b6020808252600c908201527f4e6f7420617070726f7665640000000000000000000000000000000000000000604082015260600190565b60208082526001908201527f7900000000000000000000000000000000000000000000000000000000000000604082015260600190565b60208082526010908201527f496e76616c696420746f6b656e20494400000000000000000000000000000000604082015260600190565b60208082526012908201527f457863656564206d61782070657263656e740000000000000000000000000000604082015260600190565b60208082526037908201527f4552433732315570677261646561626c653a20617070726f766564207175657260408201527f7920666f72206e6f6e6578697374656e7420746f6b656e000000000000000000606082015260800190565b60208082526010908201527f496e76616c69642070657263656e747300000000000000000000000000000000604082015260600190565b9182526001600160a01b0316602082015260400190565b9384526001600160a01b03928316602085015291166040830152606082015260800190565b9182526fffffffffffffffffffffffffffffffff16602082015260400190565b92835260208301919091526001600160a01b0316604082015260600190565b9283526020830191909152604082015260600190565b9485526020850193909352604084019190915260608301526001600160a01b0316608082015260a00190565b948552602085019390935260408401919091526060830152608082015260a00190565b6001600160a01b038116811461343457600080fd5b801515811461343457600080fdfe456e756d657261626c655365743a20696e646578206f7574206f6620626f756e64734552433732313a207472616e7366657220746f206e6f6e20455243373231526563656976657220696d706c656d656e7465724552433732313a207472616e7366657220746f20746865207a65726f2061646472657373416464726573733a20696e73756666696369656e742062616c616e636520666f722063616c6c4552433732313a206f70657261746f7220717565727920666f72206e6f6e6578697374656e7420746f6b656e4552433732313a20617070726f76652063616c6c6572206973206e6f74206f776e6572206e6f7220617070726f76656420666f7220616c6c4552433732313a2062616c616e636520717565727920666f7220746865207a65726f20616464726573734552433732313a206f776e657220717565727920666f72206e6f6e6578697374656e7420746f6b656e496e697469616c697a61626c653a20636f6e747261637420697320616c726561647920696e697469616c697a6564456e756d657261626c654d61703a20696e646578206f7574206f6620626f756e6473536166654d6174683a206d756c7469706c69636174696f6e206f766572666c6f774552433732313a207472616e73666572206f6620746f6b656e2074686174206973206e6f74206f776e4552433732313a20617070726f76616c20746f2063757272656e74206f776e65724552433732313a207472616e736665722063616c6c6572206973206e6f74206f776e6572206e6f7220617070726f766564a164736f6c6343000706000a",
  "linkReferences": {},
  "deployedLinkReferences": {}
}