{
  "_format": "hh-sol-artifact-1",
  "contractName": "CHIManager",
  "sourceName": "contracts/CHIManager.sol",
  "abi": [
    {
      "anonymous": false,
      "inputs": [
        {
          "indexed": true,
          "internalType": "address",
          "name": "owner",
          "type": "address"
        },
        {
          "indexed": true,
          "internalType": "address",
          "name": "approved",
          "type": "address"
        },
        {
          "indexed": true,
          "internalType": "uint256",
          "name": "tokenId",
          "type": "uint256"
        }
      ],
      "name": "Approval",
      "type": "event"
    },
    {
      "anonymous": false,
      "inputs": [
        {
          "indexed": true,
          "internalType": "address",
          "name": "owner",
          "type": "address"
        },
        {
          "indexed": true,
          "internalType": "address",
          "name": "operator",
          "type": "address"
        },
        {
          "indexed": false,
          "internalType": "bool",
          "name": "approved",
          "type": "bool"
        }
      ],
      "name": "ApprovalForAll",
      "type": "event"
    },
    {
      "anonymous": false,
      "inputs": [
        {
          "indexed": false,
          "internalType": "uint256",
          "name": "tokenId",
          "type": "uint256"
        },
        {
          "indexed": false,
          "internalType": "address",
          "name": "pool",
          "type": "address"
        },
        {
          "indexed": false,
          "internalType": "address",
          "name": "vault",
          "type": "address"
        },
        {
          "indexed": false,
          "internalType": "uint256",
          "name": "vaultFee",
          "type": "uint256"
        }
      ],
      "name": "Create",
      "type": "event"
    },
    {
      "anonymous": false,
      "inputs": [
        {
          "indexed": true,
          "internalType": "address",
          "name": "from",
          "type": "address"
        },
        {
          "indexed": true,
          "internalType": "address",
          "name": "to",
          "type": "address"
        },
        {
          "indexed": true,
          "internalType": "uint256",
          "name": "tokenId",
          "type": "uint256"
        }
      ],
      "name": "Transfer",
      "type": "event"
    },
    {
      "inputs": [
        {
          "internalType": "contract IERC20",
          "name": "token0",
          "type": "address"
        },
        {
          "internalType": "uint256",
          "name": "amount0",
          "type": "uint256"
        },
        {
          "internalType": "contract IERC20",
          "name": "token1",
          "type": "address"
        },
        {
          "internalType": "uint256",
          "name": "amount1",
          "type": "uint256"
        }
      ],
      "name": "CHIDepositCallback",
      "outputs": [],
      "stateMutability": "nonpayable",
      "type": "function"
    },
    {
      "inputs": [
        {
          "internalType": "uint256",
          "name": "tokenId",
          "type": "uint256"
        },
        {
          "components": [
            {
              "internalType": "int24",
              "name": "tickLower",
              "type": "int24"
            },
            {
              "internalType": "int24",
              "name": "tickUpper",
              "type": "int24"
            }
          ],
          "internalType": "struct ICHIManager.RangeParams[]",
          "name": "addRanges",
          "type": "tuple[]"
        },
        {
          "components": [
            {
              "internalType": "int24",
              "name": "tickLower",
              "type": "int24"
            },
            {
              "internalType": "int24",
              "name": "tickUpper",
              "type": "int24"
            }
          ],
          "internalType": "struct ICHIManager.RangeParams[]",
          "name": "removeRanges",
          "type": "tuple[]"
        }
      ],
      "name": "addAndRemoveRanges",
      "outputs": [],
      "stateMutability": "nonpayable",
      "type": "function"
    },
    {
      "inputs": [
        {
          "internalType": "uint256",
          "name": "tokenId",
          "type": "uint256"
        },
        {
          "internalType": "uint256",
          "name": "rangeIndex",
          "type": "uint256"
        },
        {
          "internalType": "uint256",
          "name": "amount0Desired",
          "type": "uint256"
        },
        {
          "internalType": "uint256",
          "name": "amount1Desired",
          "type": "uint256"
        }
      ],
      "name": "addLiquidityToPosition",
      "outputs": [],
      "stateMutability": "nonpayable",
      "type": "function"
    },
    {
      "inputs": [
        {
          "internalType": "uint256",
          "name": "tokenId",
          "type": "uint256"
        },
        {
          "internalType": "int24",
          "name": "tickLower",
          "type": "int24"
        },
        {
          "internalType": "int24",
          "name": "tickUpper",
          "type": "int24"
        }
      ],
      "name": "addRange",
      "outputs": [],
      "stateMutability": "nonpayable",
      "type": "function"
    },
    {
      "inputs": [
        {
          "internalType": "address",
          "name": "to",
          "type": "address"
        },
        {
          "internalType": "uint256",
          "name": "tokenId",
          "type": "uint256"
        }
      ],
      "name": "approve",
      "outputs": [],
      "stateMutability": "nonpayable",
      "type": "function"
    },
    {
      "inputs": [
        {
          "internalType": "uint256",
          "name": "tokenId",
          "type": "uint256"
        }
      ],
      "name": "archivedCHI",
      "outputs": [],
      "stateMutability": "nonpayable",
      "type": "function"
    },
    {
      "inputs": [
        {
          "internalType": "address",
          "name": "owner",
          "type": "address"
        }
      ],
      "name": "balanceOf",
      "outputs": [
        {
          "internalType": "uint256",
          "name": "",
          "type": "uint256"
        }
      ],
      "stateMutability": "view",
      "type": "function"
    },
    {
      "inputs": [],
      "name": "baseURI",
      "outputs": [
        {
          "internalType": "string",
          "name": "",
          "type": "string"
        }
      ],
      "stateMutability": "pure",
      "type": "function"
    },
    {
      "inputs": [
        {
          "internalType": "uint256",
          "name": "tokenId",
          "type": "uint256"
        }
      ],
      "name": "chi",
      "outputs": [
        {
          "internalType": "address",
          "name": "owner",
          "type": "address"
        },
        {
          "internalType": "address",
          "name": "operator",
          "type": "address"
        },
        {
          "internalType": "address",
          "name": "pool",
          "type": "address"
        },
        {
          "internalType": "address",
          "name": "vault",
          "type": "address"
        },
        {
          "internalType": "uint256",
          "name": "accruedProtocolFees0",
          "type": "uint256"
        },
        {
          "internalType": "uint256",
          "name": "accruedProtocolFees1",
          "type": "uint256"
        },
        {
          "internalType": "uint256",
          "name": "fee",
          "type": "uint256"
        },
        {
          "internalType": "uint256",
          "name": "totalShares",
          "type": "uint256"
        }
      ],
      "stateMutability": "view",
      "type": "function"
    },
    {
      "inputs": [
        {
          "internalType": "uint256",
          "name": "tokenId",
          "type": "uint256"
        },
        {
          "internalType": "uint256",
          "name": "amount0",
          "type": "uint256"
        },
        {
          "internalType": "uint256",
          "name": "amount1",
          "type": "uint256"
        },
        {
          "internalType": "address",
          "name": "to",
          "type": "address"
        }
      ],
      "name": "collectProtocol",
      "outputs": [],
      "stateMutability": "nonpayable",
      "type": "function"
    },
    {
      "inputs": [],
      "name": "deployer",
      "outputs": [
        {
          "internalType": "address",
          "name": "",
          "type": "address"
        }
      ],
      "stateMutability": "view",
      "type": "function"
    },
    {
      "inputs": [
        {
          "internalType": "uint256",
          "name": "tokenId",
          "type": "uint256"
        }
      ],
      "name": "getApproved",
      "outputs": [
        {
          "internalType": "address",
          "name": "",
          "type": "address"
        }
      ],
      "stateMutability": "view",
      "type": "function"
    },
    {
      "inputs": [
        {
          "internalType": "uint176",
          "name": "_initId",
          "type": "uint176"
        },
        {
          "internalType": "address",
          "name": "_v3Factory",
          "type": "address"
        },
        {
          "internalType": "address",
          "name": "_yangNFT",
          "type": "address"
        },
        {
          "internalType": "address",
          "name": "_deployer",
          "type": "address"
        },
        {
          "internalType": "bytes32",
          "name": "_merkleRoot",
          "type": "bytes32"
        }
      ],
      "name": "initialize",
      "outputs": [],
      "stateMutability": "nonpayable",
      "type": "function"
    },
    {
      "inputs": [
        {
          "internalType": "address",
          "name": "owner",
          "type": "address"
        },
        {
          "internalType": "address",
          "name": "operator",
          "type": "address"
        }
      ],
      "name": "isApprovedForAll",
      "outputs": [
        {
          "internalType": "bool",
          "name": "",
          "type": "bool"
        }
      ],
      "stateMutability": "view",
      "type": "function"
    },
    {
      "inputs": [],
      "name": "manager",
      "outputs": [
        {
          "internalType": "address",
          "name": "",
          "type": "address"
        }
      ],
      "stateMutability": "view",
      "type": "function"
    },
    {
      "inputs": [],
      "name": "merkleRoot",
      "outputs": [
        {
          "internalType": "bytes32",
          "name": "",
          "type": "bytes32"
        }
      ],
      "stateMutability": "view",
      "type": "function"
    },
    {
      "inputs": [
        {
          "components": [
            {
              "internalType": "address",
              "name": "recipient",
              "type": "address"
            },
            {
              "internalType": "address",
              "name": "token0",
              "type": "address"
            },
            {
              "internalType": "address",
              "name": "token1",
              "type": "address"
            },
            {
              "internalType": "uint24",
              "name": "fee",
              "type": "uint24"
            }
          ],
          "internalType": "struct ICHIManager.MintParams",
          "name": "params",
          "type": "tuple"
        },
        {
          "internalType": "bytes32[]",
          "name": "merkleProof",
          "type": "bytes32[]"
        }
      ],
      "name": "mint",
      "outputs": [
        {
          "internalType": "uint256",
          "name": "tokenId",
          "type": "uint256"
        },
        {
          "internalType": "address",
          "name": "vault",
          "type": "address"
        }
      ],
      "stateMutability": "nonpayable",
      "type": "function"
    },
    {
      "inputs": [],
      "name": "name",
      "outputs": [
        {
          "internalType": "string",
          "name": "",
          "type": "string"
        }
      ],
      "stateMutability": "view",
      "type": "function"
    },
    {
      "inputs": [
        {
          "internalType": "uint256",
          "name": "tokenId",
          "type": "uint256"
        }
      ],
      "name": "ownerOf",
      "outputs": [
        {
          "internalType": "address",
          "name": "",
          "type": "address"
        }
      ],
      "stateMutability": "view",
      "type": "function"
    },
    {
      "inputs": [
        {
          "internalType": "uint256",
          "name": "tokenId",
          "type": "uint256"
        }
      ],
      "name": "pausedCHI",
      "outputs": [],
      "stateMutability": "nonpayable",
      "type": "function"
    },
    {
      "inputs": [
        {
          "internalType": "bytes32",
          "name": "",
          "type": "bytes32"
        }
      ],
      "name": "positions",
      "outputs": [
        {
          "internalType": "uint256",
          "name": "shares",
          "type": "uint256"
        }
      ],
      "stateMutability": "view",
      "type": "function"
    },
    {
      "inputs": [
        {
          "internalType": "uint256",
          "name": "tokenId",
          "type": "uint256"
        },
        {
          "internalType": "uint256",
          "name": "rangeIndex",
          "type": "uint256"
        }
      ],
      "name": "removeAllLiquidityFromPosition",
      "outputs": [],
      "stateMutability": "nonpayable",
      "type": "function"
    },
    {
      "inputs": [
        {
          "internalType": "uint256",
          "name": "tokenId",
          "type": "uint256"
        },
        {
          "internalType": "uint256",
          "name": "rangeIndex",
          "type": "uint256"
        },
        {
          "internalType": "uint128",
          "name": "liquidity",
          "type": "uint128"
        }
      ],
      "name": "removeLiquidityFromPosition",
      "outputs": [],
      "stateMutability": "nonpayable",
      "type": "function"
    },
    {
      "inputs": [
        {
          "internalType": "uint256",
          "name": "tokenId",
          "type": "uint256"
        },
        {
          "internalType": "int24",
          "name": "tickLower",
          "type": "int24"
        },
        {
          "internalType": "int24",
          "name": "tickUpper",
          "type": "int24"
        }
      ],
      "name": "removeRange",
      "outputs": [],
      "stateMutability": "nonpayable",
      "type": "function"
    },
    {
      "inputs": [
        {
          "internalType": "address",
          "name": "from",
          "type": "address"
        },
        {
          "internalType": "address",
          "name": "to",
          "type": "address"
        },
        {
          "internalType": "uint256",
          "name": "tokenId",
          "type": "uint256"
        }
      ],
      "name": "safeTransferFrom",
      "outputs": [],
      "stateMutability": "nonpayable",
      "type": "function"
    },
    {
      "inputs": [
        {
          "internalType": "address",
          "name": "from",
          "type": "address"
        },
        {
          "internalType": "address",
          "name": "to",
          "type": "address"
        },
        {
          "internalType": "uint256",
          "name": "tokenId",
          "type": "uint256"
        },
        {
          "internalType": "bytes",
          "name": "_data",
          "type": "bytes"
        }
      ],
      "name": "safeTransferFrom",
      "outputs": [],
      "stateMutability": "nonpayable",
      "type": "function"
    },
    {
      "inputs": [
        {
          "internalType": "address",
          "name": "operator",
          "type": "address"
        },
        {
          "internalType": "bool",
          "name": "approved",
          "type": "bool"
        }
      ],
      "name": "setApprovalForAll",
      "outputs": [],
      "stateMutability": "nonpayable",
      "type": "function"
    },
    {
      "inputs": [
        {
          "internalType": "uint256",
          "name": "tokenId",
          "type": "uint256"
        }
      ],
      "name": "stateOfCHI",
      "outputs": [
        {
          "internalType": "bool",
          "name": "isPaused",
          "type": "bool"
        },
        {
          "internalType": "bool",
          "name": "isArchived",
          "type": "bool"
        }
      ],
      "stateMutability": "view",
      "type": "function"
    },
    {
      "inputs": [
        {
          "internalType": "uint256",
          "name": "yangId",
          "type": "uint256"
        },
        {
          "internalType": "uint256",
          "name": "tokenId",
          "type": "uint256"
        },
        {
          "internalType": "uint256",
          "name": "amount0Desired",
          "type": "uint256"
        },
        {
          "internalType": "uint256",
          "name": "amount1Desired",
          "type": "uint256"
        },
        {
          "internalType": "uint256",
          "name": "amount0Min",
          "type": "uint256"
        },
        {
          "internalType": "uint256",
          "name": "amount1Min",
          "type": "uint256"
        }
      ],
      "name": "subscribe",
      "outputs": [
        {
          "internalType": "uint256",
          "name": "shares",
          "type": "uint256"
        },
        {
          "internalType": "uint256",
          "name": "amount0",
          "type": "uint256"
        },
        {
          "internalType": "uint256",
          "name": "amount1",
          "type": "uint256"
        }
      ],
      "stateMutability": "nonpayable",
      "type": "function"
    },
    {
      "inputs": [
        {
          "internalType": "bytes4",
          "name": "interfaceId",
          "type": "bytes4"
        }
      ],
      "name": "supportsInterface",
      "outputs": [
        {
          "internalType": "bool",
          "name": "",
          "type": "bool"
        }
      ],
      "stateMutability": "view",
      "type": "function"
    },
    {
      "inputs": [],
      "name": "symbol",
      "outputs": [
        {
          "internalType": "string",
          "name": "",
          "type": "string"
        }
      ],
      "stateMutability": "view",
      "type": "function"
    },
    {
      "inputs": [
        {
          "internalType": "uint256",
          "name": "index",
          "type": "uint256"
        }
      ],
      "name": "tokenByIndex",
      "outputs": [
        {
          "internalType": "uint256",
          "name": "",
          "type": "uint256"
        }
      ],
      "stateMutability": "view",
      "type": "function"
    },
    {
      "inputs": [
        {
          "internalType": "address",
          "name": "owner",
          "type": "address"
        },
        {
          "internalType": "uint256",
          "name": "index",
          "type": "uint256"
        }
      ],
      "name": "tokenOfOwnerByIndex",
      "outputs": [
        {
          "internalType": "uint256",
          "name": "",
          "type": "uint256"
        }
      ],
      "stateMutability": "view",
      "type": "function"
    },
    {
      "inputs": [
        {
          "internalType": "uint256",
          "name": "tokenId",
          "type": "uint256"
        }
      ],
      "name": "tokenURI",
      "outputs": [
        {
          "internalType": "string",
          "name": "",
          "type": "string"
        }
      ],
      "stateMutability": "view",
      "type": "function"
    },
    {
      "inputs": [],
      "name": "totalSupply",
      "outputs": [
        {
          "internalType": "uint256",
          "name": "",
          "type": "uint256"
        }
      ],
      "stateMutability": "view",
      "type": "function"
    },
    {
      "inputs": [
        {
          "internalType": "address",
          "name": "from",
          "type": "address"
        },
        {
          "internalType": "address",
          "name": "to",
          "type": "address"
        },
        {
          "internalType": "uint256",
          "name": "tokenId",
          "type": "uint256"
        }
      ],
      "name": "transferFrom",
      "outputs": [],
      "stateMutability": "nonpayable",
      "type": "function"
    },
    {
      "inputs": [
        {
          "internalType": "uint256",
          "name": "tokenId",
          "type": "uint256"
        }
      ],
      "name": "unpausedCHI",
      "outputs": [],
      "stateMutability": "nonpayable",
      "type": "function"
    },
    {
      "inputs": [
        {
          "internalType": "uint256",
          "name": "yangId",
          "type": "uint256"
        },
        {
          "internalType": "uint256",
          "name": "tokenId",
          "type": "uint256"
        },
        {
          "internalType": "uint256",
          "name": "shares",
          "type": "uint256"
        },
        {
          "internalType": "uint256",
          "name": "amount0Min",
          "type": "uint256"
        },
        {
          "internalType": "uint256",
          "name": "amount1Min",
          "type": "uint256"
        }
      ],
      "name": "unsubscribe",
      "outputs": [
        {
          "internalType": "uint256",
          "name": "amount0",
          "type": "uint256"
        },
        {
          "internalType": "uint256",
          "name": "amount1",
          "type": "uint256"
        }
      ],
      "stateMutability": "nonpayable",
      "type": "function"
    },
    {
      "inputs": [
        {
          "internalType": "bytes32",
          "name": "_merkleRoot",
          "type": "bytes32"
        }
      ],
      "name": "updateMerkleRoot",
      "outputs": [],
      "stateMutability": "nonpayable",
      "type": "function"
    },
    {
      "inputs": [
        {
          "internalType": "uint256",
          "name": "_vaultFee_",
          "type": "uint256"
        }
      ],
      "name": "updateVaultFee",
      "outputs": [],
      "stateMutability": "nonpayable",
      "type": "function"
    },
    {
      "inputs": [],
      "name": "v3Factory",
      "outputs": [
        {
          "internalType": "address",
          "name": "",
          "type": "address"
        }
      ],
      "stateMutability": "view",
      "type": "function"
    },
    {
      "inputs": [],
      "name": "yangNFT",
      "outputs": [
        {
          "internalType": "address",
          "name": "",
          "type": "address"
        }
      ],
      "stateMutability": "view",
      "type": "function"
    }
  ],
  "bytecode": "0x608060405234801561001057600080fd5b5061421c806100206000396000f3fe608060405234801561001057600080fd5b50600436106102de5760003560e01c806354cc59ba11610186578063b88d4fde116100e3578063df84f84d11610097578063ec28fcac11610071578063ec28fcac146105e2578063ed1bbd0b14610604578063f801deaa14610617576102de565b8063df84f84d146105a9578063e2c3350e146105bc578063e985e9c5146105cf576102de565b8063c2108d1b116100c8578063c2108d1b1461057b578063c87b56dd1461058e578063d5f39488146105a1576102de565b8063b88d4fde14610541578063b9decd6614610554576102de565b80637b2834f51161013a57806393e4f7e61161011f57806393e4f7e61461051357806395d89b4114610526578063a22cb4651461052e576102de565b80637b2834f5146104f85780637c887c591461050b576102de565b80636352211e1161016b5780636352211e146104ca5780636c0360eb146104dd57806370a08231146104e5576102de565b806354cc59ba146104965780635d87b6e4146104b7576102de565b80632eb4a7ab1161023f57806346698e75116101f35780634b57512d116101cd5780634b57512d1461045d5780634f6ccce714610470578063514ea4bf14610483576102de565b806346698e75146104215780634783f0ef14610442578063481c6a7514610455576102de565b806338187e851161022457806338187e85146103e55780634259ab441461040657806342842e0e1461040e576102de565b80632eb4a7ab146103ca5780632f745c59146103d2576102de565b80630e082b7411610296578063211833861161027b578063211833861461039157806323b872dd146103a457806325f368ae146103b7576102de565b80630e082b741461036957806318160ddd1461037c576102de565b8063081812fc116102c7578063081812fc14610321578063095ea7b3146103415780630cb1ac8c14610356576102de565b806301ffc9a7146102e357806306fdde031461030c575b600080fd5b6102f66102f1366004613670565b61062a565b6040516103039190613b94565b60405180910390f35b610314610665565b6040516103039190613bce565b61033461032f366004613658565b6106fb565b6040516103039190613aea565b61035461034f366004613611565b610747565b005b610354610364366004613658565b61081d565b610354610377366004613946565b6108be565b6103846109c6565b6040516103039190613bb1565b61035461039f366004613658565b6109d7565b6103546103b23660046134e0565b610a52565b6103546103c53660046139bf565b610aa9565b610384610b93565b6103846103e0366004613611565b610b99565b6103f86103f3366004613711565b610bc4565b604051610303929190613f12565b610334610f93565b61035461041c3660046134e0565b610fa2565b61043461042f366004613a30565b610fbd565b604051610303929190613adc565b610354610450366004613658565b6111bd565b6103346111ec565b61035461046b3660046138c7565b6111fb565b61038461047e366004613658565b6112e2565b610384610491366004613658565b6112f8565b6104a96104a4366004613658565b61130a565b604051610303929190613b9f565b6103546104c5366004613902565b611334565b6103346104d8366004613658565b611439565b610314611461565b6103846104f3366004613470565b611466565b610354610506366004613658565b6114ce565b6103346114fd565b610354610521366004613798565b61150c565b6103146116b9565b61035461053c3660046135e4565b61171a565b61035461054f366004613520565b61181f565b610567610562366004613658565b61187d565b604051610303989796959493929190613b22565b6103546105893660046139ff565b611aee565b61031461059c366004613658565b611b9e565b610334611bc6565b6103546105b7366004613850565b611bd5565b6103546105ca3660046138c7565b611dbf565b6102f66105dd3660046134a8565b611e6d565b6105f56105f0366004613a6a565b611e9b565b60405161030393929190613f8d565b6103546106123660046136b0565b612086565b610354610625366004613658565b6121e6565b7fffffffff00000000000000000000000000000000000000000000000000000000811660009081526065602052604090205460ff165b919050565b609c8054604080516020601f60026000196101006001881615020190951694909404938401819004810282018101909252828152606093909290918301828280156106f15780601f106106c6576101008083540402835291602001916106f1565b820191906000526020600020905b8154815290600101906020018083116106d457829003601f168201915b5050505050905090565b600061070682612279565b61072b5760405162461bcd60e51b815260040161072290613eb5565b60405180910390fd5b50600090815260cb60205260409020546001600160a01b031690565b600061075282611439565b9050806001600160a01b0316836001600160a01b031614156107a55760405162461bcd60e51b81526004018080602001828103825260218152602001806141be6021913960400191505060405180910390fd5b806001600160a01b03166107b7612286565b6001600160a01b031614806107d357506107d3816105dd612286565b61080e5760405162461bcd60e51b81526004018080602001828103825260388152602001806140ba6038913960400191505060405180910390fd5b610818838361228a565b505050565b600081815260cb602052604090206108353383612305565b8061084a575060cc546001600160a01b031633145b6108665760405162461bcd60e51b815260040161072290613dd9565b6002810154600160a81b900460ff16156108925760405162461bcd60e51b815260040161072290613da2565b60020180547fffffffffffffffffffffff00ffffffffffffffffffffffffffffffffffffffff16905550565b826108c93382612305565b6108e55760405162461bcd60e51b815260040161072290613dd9565b600084815260cb602052604090206002810154600160a81b900460ff161561091f5760405162461bcd60e51b815260040161072290613cc6565b60028101546040517fd4da61850000000000000000000000000000000000000000000000000000000081526001600160a01b039091169063d4da61859061096c9087908790600401613f4e565b6040805180830381600087803b15801561098557600080fd5b505af1158015610999573d6000803e3d6000fd5b505050506040513d601f19601f820116820180604052508101906109bd9190613923565b50505050505050565b60006109d260986123a9565b905090565b600081815260cb602052604090206109ef3383612305565b80610a04575060cc546001600160a01b031633145b610a205760405162461bcd60e51b815260040161072290613dd9565b60020180547fffffffffffffffffffffff00ffffffffffffffffffffffffffffffffffffffff16600160a01b17905550565b610a63610a5d612286565b82612305565b610a9e5760405162461bcd60e51b81526004018080602001828103825260318152602001806141df6031913960400191505060405180910390fd5b6108188383836123b4565b83610ab43382612305565b610ad05760405162461bcd60e51b815260040161072290613dd9565b600085815260cb602052604090206002810154600160a01b900460ff1615610b0a5760405162461bcd60e51b815260040161072290613c21565b60028101546040517f0430c1300000000000000000000000000000000000000000000000000000000081526001600160a01b0390911690630430c13090610b5990889088908890600401613f6e565b600060405180830381600087803b158015610b7357600080fd5b505af1158015610b87573d6000803e3d6000fd5b50505050505050505050565b60d05481565b6001600160a01b0382166000908152609760205260408120610bbb9083612500565b90505b92915050565b6000808383600033604051602001610bdc9190613aac565b604051602081830303815290604052805190602001209050610c358383808060200260200160405190810160405280939291908181526020018383602002808284376000920191909152505060d054915084905061250c565b610c515760405162461bcd60e51b815260040161072290613c58565b60cd546000906001600160a01b0316631698ee82610c7560408c0160208d01613470565b610c8560608d0160408e01613470565b610c9560808e0160608f01613815565b6040518463ffffffff1660e01b8152600401610cb393929190613b6c565b60206040518083038186803b158015610ccb57600080fd5b505afa158015610cdf573d6000803e3d6000fd5b505050506040513d601f19601f82011682018060405250810190610d03919061348c565b90506001600160a01b038116610d2b5760405162461bcd60e51b815260040161072290613d34565b60cf5460d2546040517f58b4b7110000000000000000000000000000000000000000000000000000000081526001600160a01b03909216916358b4b71191610d799185913091600401613afe565b602060405180830381600087803b158015610d9357600080fd5b505af1158015610da7573d6000803e3d6000fd5b505050506040513d601f19601f82011682018060405250810190610dcb919061348c565b9450610e32610ddd60208b018b613470565b60c980547fffffffffffffffffffff000000000000000000000000000000000000000000008116600175ffffffffffffffffffffffffffffffffffffffffffff928316908101909216179091559750876125b7565b6040805160a0810190915280610e4b60208c018c613470565b6001600160a01b0390811682528381166020808401919091528882166040808501919091526000606080860182905260809586018290528c825260cb8452908290208651815490861673ffffffffffffffffffffffffffffffffffffffff199182161782559387015160018201805491871691861691909117905586830151600290910180549288015197909601511515600160a81b027fffffffffffffffffffff00ffffffffffffffffffffffffffffffffffffffffff971515600160a01b027fffffffffffffffffffffff00ffffffffffffffffffffffffffffffffffffffff92909616929094169190911716929092179390931692909217905560d25490517ff03c0794e29ab9041701d90faa819fd394c96b5d374215f11d7dd03839606d5e91610f7f91899185918a9190613f29565b60405180910390a150505050935093915050565b60ce546001600160a01b031681565b6108188383836040518060200160405280600081525061181f565b60ce5460009081906001600160a01b03163314610fec5760405162461bcd60e51b815260040161072290613e10565b60026001541415611044576040805162461bcd60e51b815260206004820152601f60248201527f5265656e7472616e637947756172643a207265656e7472616e742063616c6c00604482015290519081900360640190fd5b60026001819055600087815260cb6020526040902090810154600160a81b900460ff16156110845760405162461bcd60e51b815260040161072290613cc6565b60008888604051602001611099929190613adc565b60408051601f198184030181529181528151602092830120600081815260ca90935291208054919250908811156110e25760405162461bcd60e51b815260040161072290613d6b565b600283015460ce546040517fd473a6540000000000000000000000000000000000000000000000000000000081526001600160a01b039283169263d473a6549261113a928f928e928e928e9290911690600401613fa3565b6040805180830381600087803b15801561115357600080fd5b505af1158015611167573d6000803e3d6000fd5b505050506040513d601f19601f8201168201806040525081019061118b9190613923565b600084815260ca602052604090205491965094506111a990896126e5565b905550506001805590969095509350505050565b60cc546001600160a01b031633146111e75760405162461bcd60e51b815260040161072290613c8f565b60d055565b60cc546001600160a01b031681565b826112063382612305565b6112225760405162461bcd60e51b815260040161072290613dd9565b600084815260cb602052604090206002810154600160a01b900460ff161561125c5760405162461bcd60e51b815260040161072290613c21565b60028101546040517f5a64998b0000000000000000000000000000000000000000000000000000000081526001600160a01b0390911690635a64998b906112a99087908790600401613bba565b600060405180830381600087803b1580156112c357600080fd5b505af11580156112d7573d6000803e3d6000fd5b505050505050505050565b6000806112f0609884612742565b509392505050565b60ca6020526000908152604090205481565b600090815260cb602052604090206002015460ff600160a01b8204811692600160a81b9092041690565b8161133f3382612305565b61135b5760405162461bcd60e51b815260040161072290613dd9565b600083815260cb602052604090206002810154600160a81b900460ff16156113955760405162461bcd60e51b815260040161072290613cc6565b60028101546040517f2106fa460000000000000000000000000000000000000000000000000000000081526001600160a01b0390911690632106fa46906113e0908690600401613bb1565b6040805180830381600087803b1580156113f957600080fd5b505af115801561140d573d6000803e3d6000fd5b505050506040513d601f19601f820116820180604052508101906114319190613923565b505050505050565b6000610bbe8260405180606001604052806029815260200161411c6029913960989190612760565b606090565b60006001600160a01b0382166114ad5760405162461bcd60e51b815260040180806020018281038252602a8152602001806140f2602a913960400191505060405180910390fd5b6001600160a01b0382166000908152609760205260409020610bbe906123a9565b60cc546001600160a01b031633146114f85760405162461bcd60e51b815260040161072290613c8f565b60d255565b60cd546001600160a01b031681565b600054610100900460ff1680611525575061152561276d565b80611533575060005460ff16155b61156e5760405162461bcd60e51b815260040180806020018281038252602e815260200180614145602e913960400191505060405180910390fd5b600054610100900460ff16158015611599576000805460ff1961ff0019909116610100171660011790555b60cc80543373ffffffffffffffffffffffffffffffffffffffff199182161790915560cd805482166001600160a01b038881169190911790915560ce8054831687831617905560cf805490921690851617905560d082905560c980547fffffffffffffffffffff000000000000000000000000000000000000000000001675ffffffffffffffffffffffffffffffffffffffffffff881617905560408051808201825260208082527f59494e20556e697377617020563320506f736974696f6e73204d616e61676572818301528251808401909352600383527f4348490000000000000000000000000000000000000000000000000000000000908301526116a09161277e565b8015611431576000805461ff0019169055505050505050565b609d8054604080516020601f60026000196101006001881615020190951694909404938401819004810282018101909252828152606093909290918301828280156106f15780601f106106c6576101008083540402835291602001916106f1565b611722612286565b6001600160a01b0316826001600160a01b03161415611788576040805162461bcd60e51b815260206004820152601960248201527f4552433732313a20617070726f766520746f2063616c6c657200000000000000604482015290519081900360640190fd5b80609b6000611795612286565b6001600160a01b03908116825260208083019390935260409182016000908120918716808252919093529120805460ff1916921515929092179091556117d9612286565b6001600160a01b03167f17307eab39ab6107e8899845ad3d59bd9653f200f220920489ca2b5937696c318360405180821515815260200191505060405180910390a35050565b61183061182a612286565b83612305565b61186b5760405162461bcd60e51b81526004018080602001828103825260318152602001806141df6031913960400191505060405180910390fd5b6118778484848461283b565b50505050565b600081815260cb6020526040812081908190819081908190819081906118a28a612279565b6118be5760405162461bcd60e51b815260040161072290613e7e565b60028101546001600160a01b03166118d58b611439565b825460018401546002850154604080517feae989a200000000000000000000000000000000000000000000000000000000815290516001600160a01b0394851694938416939283169287169163eae989a2916004808301926020929190829003018186803b15801561194657600080fd5b505afa15801561195a573d6000803e3d6000fd5b505050506040513d601f19601f8201168201806040525081019061197e9190613838565b856001600160a01b031663a00fa77f6040518163ffffffff1660e01b815260040160206040518083038186803b1580156119b757600080fd5b505afa1580156119cb573d6000803e3d6000fd5b505050506040513d601f19601f820116820180604052508101906119ef9190613838565b866001600160a01b031663b0e21e8a6040518163ffffffff1660e01b815260040160206040518083038186803b158015611a2857600080fd5b505afa158015611a3c573d6000803e3d6000fd5b505050506040513d601f19601f82011682018060405250810190611a609190613838565b876001600160a01b03166318160ddd6040518163ffffffff1660e01b815260040160206040518083038186803b158015611a9957600080fd5b505afa158015611aad573d6000803e3d6000fd5b505050506040513d601f19601f82011682018060405250810190611ad19190613838565b995099509950995099509950995099505050919395975091939597565b83611af93382612305565b611b155760405162461bcd60e51b815260040161072290613dd9565b600085815260cb602052604090206002810154600160a01b900460ff1615611b4f5760405162461bcd60e51b815260040161072290613c21565b60028101546040517f9d9d75be0000000000000000000000000000000000000000000000000000000081526001600160a01b0390911690639d9d75be90610b5990889088908890600401613f8d565b6060611ba982612279565b611bb257600080fd5b505060408051602081019091526000815290565b60cf546001600160a01b031681565b84611be03382612305565b611bfc5760405162461bcd60e51b815260040161072290613dd9565b600086815260cb602052604090206002810154600160a01b900460ff1615611c365760405162461bcd60e51b815260040161072290613c21565b60005b85811015611cf55760028201546001600160a01b031663db4dcce4888884818110611c6057fe5b611c7692602060409092020190810191506136f7565b898985818110611c8257fe5b9050604002016020016020810190611c9a91906136f7565b6040518363ffffffff1660e01b8152600401611cb7929190613bba565b600060405180830381600087803b158015611cd157600080fd5b505af1158015611ce5573d6000803e3d6000fd5b505060019092019150611c399050565b5060005b83811015611db55760028201546001600160a01b0316635a64998b868684818110611d2057fe5b611d3692602060409092020190810191506136f7565b878785818110611d4257fe5b9050604002016020016020810190611d5a91906136f7565b6040518363ffffffff1660e01b8152600401611d77929190613bba565b600060405180830381600087803b158015611d9157600080fd5b505af1158015611da5573d6000803e3d6000fd5b505060019092019150611cf99050565b5050505050505050565b82611dca3382612305565b611de65760405162461bcd60e51b815260040161072290613dd9565b600084815260cb602052604090206002810154600160a01b900460ff1615611e205760405162461bcd60e51b815260040161072290613c21565b60028101546040517fdb4dcce40000000000000000000000000000000000000000000000000000000081526001600160a01b039091169063db4dcce4906112a99087908790600401613bba565b6001600160a01b039182166000908152609b6020908152604080832093909416825291909152205460ff1690565b60ce54600090819081906001600160a01b03163314611ecc5760405162461bcd60e51b815260040161072290613e10565b60d1889055600154889060021415611f2b576040805162461bcd60e51b815260206004820152601f60248201527f5265656e7472616e637947756172643a207265656e7472616e742063616c6c00604482015290519081900360640190fd5b6002600181905560008a815260cb6020526040902090810154600160a01b900460ff1615611f6b5760405162461bcd60e51b815260040161072290613c21565b60028101546040517fbf02b5ea0000000000000000000000000000000000000000000000000000000081526001600160a01b039091169063bf02b5ea90611fbe908e908d908d908d908d90600401613fcf565b606060405180830381600087803b158015611fd857600080fd5b505af1158015611fec573d6000803e3d6000fd5b505050506040513d601f19601f820116820180604052508101906120109190613992565b604051929750909550935060009061202e908d908d90602001613adc565b60408051601f198184030181529181528151602092830120600081815260ca909352912054909150612060908761288d565b600091825260ca60205260408220556001805560d1555092999198509650945050505050565b61208f336128e7565b82156121385760ce546040517f23b872dd0000000000000000000000000000000000000000000000000000000081526001600160a01b03868116926323b872dd926120e4929091169033908890600401613afe565b602060405180830381600087803b1580156120fe57600080fd5b505af1158015612112573d6000803e3d6000fd5b505050506040513d601f19601f82011682018060405250810190612136919061363c565b505b80156118775760ce546040517f23b872dd0000000000000000000000000000000000000000000000000000000081526001600160a01b03848116926323b872dd9261218d929091169033908690600401613afe565b602060405180830381600087803b1580156121a757600080fd5b505af11580156121bb573d6000803e3d6000fd5b505050506040513d601f19601f820116820180604052508101906121df919061363c565b5050505050565b806121f13382612305565b61220d5760405162461bcd60e51b815260040161072290613dd9565b600082815260cb602052604090206002810154600160a01b900460ff166122465760405162461bcd60e51b815260040161072290613e47565b60020180547fffffffffffffffffffff00ffffffffffffffffffffffffffffffffffffffffff16600160a81b1790555050565b6000610bbe60988361292b565b3390565b600081815260cb60205260409020805473ffffffffffffffffffffffffffffffffffffffff19166001600160a01b03841690811790915581906122cc82611439565b6001600160a01b03167f8c5be1e5ebec7d5bd14f71427d1e84f3dd0314c0f7b2291e5b200ac8c7c3b92560405160405180910390a45050565b600061231082612279565b61234b5760405162461bcd60e51b815260040180806020018281038252602c81526020018061408e602c913960400191505060405180910390fd5b600061235683611439565b9050806001600160a01b0316846001600160a01b031614806123915750836001600160a01b0316612386846106fb565b6001600160a01b0316145b806123a157506123a18185611e6d565b949350505050565b6000610bbe82612937565b826001600160a01b03166123c782611439565b6001600160a01b03161461240c5760405162461bcd60e51b81526004018080602001828103825260298152602001806141956029913960400191505060405180910390fd5b6001600160a01b0382166124515760405162461bcd60e51b815260040180806020018281038252602481526020018061406a6024913960400191505060405180910390fd5b61245c838383610818565b61246760008261228a565b6001600160a01b0383166000908152609760205260409020612489908261293b565b506001600160a01b03821660009081526097602052604090206124ac9082612947565b506124b960988284612953565b5080826001600160a01b0316846001600160a01b03167fddf252ad1be2c89b69c2b068fc378daa952ba7f163c4a11628f55a4df523b3ef60405160405180910390a4505050565b6000610bbb8383612969565b600081815b85518110156125aa57600086828151811061252857fe5b6020026020010151905080831161256f57828160405160200180838152602001828152602001925050506040516020818303038152906040528051906020012092506125a1565b808360405160200180838152602001828152602001925050506040516020818303038152906040528051906020012092505b50600101612511565b50831490505b9392505050565b6001600160a01b038216612612576040805162461bcd60e51b815260206004820181905260248201527f4552433732313a206d696e7420746f20746865207a65726f2061646472657373604482015290519081900360640190fd5b61261b81612279565b1561266d576040805162461bcd60e51b815260206004820152601c60248201527f4552433732313a20746f6b656e20616c7265616479206d696e74656400000000604482015290519081900360640190fd5b61267960008383610818565b6001600160a01b038216600090815260976020526040902061269b9082612947565b506126a860988284612953565b5060405181906001600160a01b038416906000907fddf252ad1be2c89b69c2b068fc378daa952ba7f163c4a11628f55a4df523b3ef908290a45050565b60008282111561273c576040805162461bcd60e51b815260206004820152601e60248201527f536166654d6174683a207375627472616374696f6e206f766572666c6f770000604482015290519081900360640190fd5b50900390565b600080808061275186866129cd565b909450925050505b9250929050565b60006123a1848484612a48565b600061277830612b12565b15905090565b600054610100900460ff1680612797575061279761276d565b806127a5575060005460ff16155b6127e05760405162461bcd60e51b815260040180806020018281038252602e815260200180614145602e913960400191505060405180910390fd5b600054610100900460ff1615801561280b576000805460ff1961ff0019909116610100171660011790555b612813612b18565b61281b612bba565b6128258383612c70565b8015610818576000805461ff0019169055505050565b6128468484846123b4565b61285284848484612da0565b6118775760405162461bcd60e51b81526004018080602001828103825260328152602001806140386032913960400191505060405180910390fd5b600082820183811015610bbb576040805162461bcd60e51b815260206004820152601b60248201527f536166654d6174683a206164646974696f6e206f766572666c6f770000000000604482015290519081900360640190fd5b60d154600090815260cb6020526040902060028101546001600160a01b038381169116146129275760405162461bcd60e51b815260040161072290613cfd565b5050565b6000610bbb8383612f7c565b5490565b6000610bbb8383612f94565b6000610bbb838361305a565b60006123a184846001600160a01b0385166130a4565b815460009082106129ab5760405162461bcd60e51b81526004018080602001828103825260228152602001806140166022913960400191505060405180910390fd5b8260000182815481106129ba57fe5b9060005260206000200154905092915050565b815460009081908310612a115760405162461bcd60e51b81526004018080602001828103825260228152602001806141736022913960400191505060405180910390fd5b6000846000018481548110612a2257fe5b906000526020600020906002020190508060000154816001015492509250509250929050565b60008281526001840160205260408120548281612ae35760405162461bcd60e51b81526004018080602001828103825283818151815260200191508051906020019080838360005b83811015612aa8578181015183820152602001612a90565b50505050905090810190601f168015612ad55780820380516001836020036101000a031916815260200191505b509250505060405180910390fd5b50846000016001820381548110612af657fe5b9060005260206000209060020201600101549150509392505050565b3b151590565b600054610100900460ff1680612b315750612b3161276d565b80612b3f575060005460ff16155b612b7a5760405162461bcd60e51b815260040180806020018281038252602e815260200180614145602e913960400191505060405180910390fd5b600054610100900460ff16158015612ba5576000805460ff1961ff0019909116610100171660011790555b8015612bb7576000805461ff00191690555b50565b600054610100900460ff1680612bd35750612bd361276d565b80612be1575060005460ff16155b612c1c5760405162461bcd60e51b815260040180806020018281038252602e815260200180614145602e913960400191505060405180910390fd5b600054610100900460ff16158015612c47576000805460ff1961ff0019909116610100171660011790555b612ba57f01ffc9a70000000000000000000000000000000000000000000000000000000061313b565b600054610100900460ff1680612c895750612c8961276d565b80612c97575060005460ff16155b612cd25760405162461bcd60e51b815260040180806020018281038252602e815260200180614145602e913960400191505060405180910390fd5b600054610100900460ff16158015612cfd576000805460ff1961ff0019909116610100171660011790555b8251612d1090609c90602086019061337a565b508151612d2490609d90602085019061337a565b50612d4e7f80ac58cd0000000000000000000000000000000000000000000000000000000061313b565b612d777f5b5e139f0000000000000000000000000000000000000000000000000000000061313b565b6128257f780e9d630000000000000000000000000000000000000000000000000000000061313b565b6000612db4846001600160a01b0316612b12565b612dc0575060016123a1565b6000612f117f150b7a0200000000000000000000000000000000000000000000000000000000612dee612286565b88878760405160240180856001600160a01b03168152602001846001600160a01b0316815260200183815260200180602001828103825283818151815260200191508051906020019080838360005b83811015612e55578181015183820152602001612e3d565b50505050905090810190601f168015612e825780820380516001836020036101000a031916815260200191505b5095505050505050604051602081830303815290604052907bffffffffffffffffffffffffffffffffffffffffffffffffffffffff19166020820180517bffffffffffffffffffffffffffffffffffffffffffffffffffffffff8381831617835250505050604051806060016040528060328152602001614038603291396001600160a01b03881691906131ef565b90506000818060200190516020811015612f2a57600080fd5b50517fffffffff00000000000000000000000000000000000000000000000000000000167f150b7a02000000000000000000000000000000000000000000000000000000001492505050949350505050565b60009081526001919091016020526040902054151590565b600081815260018301602052604081205480156130505783546000198083019190810190600090879083908110612fc757fe5b9060005260206000200154905080876000018481548110612fe457fe5b60009182526020808320909101929092558281526001898101909252604090209084019055865487908061301457fe5b60019003818190600052602060002001600090559055866001016000878152602001908152602001600020600090556001945050505050610bbe565b6000915050610bbe565b60006130668383612f7c565b61309c57508154600181810184556000848152602080822090930184905584548482528286019093526040902091909155610bbe565b506000610bbe565b6000828152600184016020526040812054806131095750506040805180820182528381526020808201848152865460018181018955600089815284812095516002909302909501918255915190820155865486845281880190925292909120556125b0565b8285600001600183038154811061311c57fe5b90600052602060002090600202016001018190555060009150506125b0565b7fffffffff0000000000000000000000000000000000000000000000000000000080821614156131b2576040805162461bcd60e51b815260206004820152601c60248201527f4552433136353a20696e76616c696420696e7465726661636520696400000000604482015290519081900360640190fd5b7fffffffff00000000000000000000000000000000000000000000000000000000166000908152606560205260409020805460ff19166001179055565b60606123a184846000858561320385612b12565b613254576040805162461bcd60e51b815260206004820152601d60248201527f416464726573733a2063616c6c20746f206e6f6e2d636f6e7472616374000000604482015290519081900360640190fd5b600080866001600160a01b031685876040518082805190602001908083835b602083106132925780518252601f199092019160209182019101613273565b6001836020036101000a03801982511681845116808217855250505050505090500191505060006040518083038185875af1925050503d80600081146132f4576040519150601f19603f3d011682016040523d82523d6000602084013e6132f9565b606091505b5091509150613309828286613314565b979650505050505050565b606083156133235750816125b0565b8251156133335782518084602001fd5b60405162461bcd60e51b8152602060048201818152845160248401528451859391928392604401919085019080838360008315612aa8578181015183820152602001612a90565b828054600181600116156101000203166002900490600052602060002090601f0160209004810192826133b057600085556133f6565b82601f106133c957805160ff19168380011785556133f6565b828001600101855582156133f6579182015b828111156133f65782518255916020019190600101906133db565b50613402929150613406565b5090565b5b808211156134025760008155600101613407565b60008083601f84011261342c578182fd5b50813567ffffffffffffffff811115613443578182fd5b60208301915083602060408302850101111561275957600080fd5b8035600281900b811461066057600080fd5b600060208284031215613481578081fd5b8135610bbb81613ff2565b60006020828403121561349d578081fd5b8151610bbb81613ff2565b600080604083850312156134ba578081fd5b82356134c581613ff2565b915060208301356134d581613ff2565b809150509250929050565b6000806000606084860312156134f4578081fd5b83356134ff81613ff2565b9250602084013561350f81613ff2565b929592945050506040919091013590565b60008060008060808587031215613535578081fd5b843561354081613ff2565b935060208581013561355181613ff2565b935060408601359250606086013567ffffffffffffffff80821115613574578384fd5b818801915088601f830112613587578384fd5b81358181111561359357fe5b60405184601f19601f84011682010181811084821117156135b057fe5b60405281815283820185018b10156135c6578586fd5b81858501868301379081019093019390935250939692955090935050565b600080604083850312156135f6578182fd5b823561360181613ff2565b915060208301356134d581614007565b60008060408385031215613623578182fd5b823561362e81613ff2565b946020939093013593505050565b60006020828403121561364d578081fd5b8151610bbb81614007565b600060208284031215613669578081fd5b5035919050565b600060208284031215613681578081fd5b81357fffffffff0000000000000000000000000000000000000000000000000000000081168114610bbb578182fd5b600080600080608085870312156136c5578182fd5b84356136d081613ff2565b93506020850135925060408501356136e781613ff2565b9396929550929360600135925050565b600060208284031215613708578081fd5b610bbb8261345e565b600080600083850360a0811215613726578182fd5b6080811215613733578182fd5b50839250608084013567ffffffffffffffff80821115613751578283fd5b818601915086601f830112613764578283fd5b813581811115613772578384fd5b8760208083028501011115613785578384fd5b6020830194508093505050509250925092565b600080600080600060a086880312156137af578283fd5b853575ffffffffffffffffffffffffffffffffffffffffffff811681146137d4578384fd5b945060208601356137e481613ff2565b935060408601356137f481613ff2565b9250606086013561380481613ff2565b949793965091946080013592915050565b600060208284031215613826578081fd5b813562ffffff81168114610bbb578182fd5b600060208284031215613849578081fd5b5051919050565b600080600080600060608688031215613867578283fd5b85359450602086013567ffffffffffffffff80821115613885578485fd5b61389189838a0161341b565b909650945060408801359150808211156138a9578283fd5b506138b68882890161341b565b969995985093965092949392505050565b6000806000606084860312156138db578081fd5b833592506138eb6020850161345e565b91506138f96040850161345e565b90509250925092565b60008060408385031215613914578182fd5b50508035926020909101359150565b60008060408385031215613935578182fd5b505080516020909101519092909150565b60008060006060848603121561395a578081fd5b833592506020840135915060408401356fffffffffffffffffffffffffffffffff81168114613987578182fd5b809150509250925092565b6000806000606084860312156139a6578081fd5b8351925060208401519150604084015190509250925092565b600080600080608085870312156139d4578182fd5b84359350602085013592506040850135915060608501356139f481613ff2565b939692955090935050565b60008060008060808587031215613a14578182fd5b5050823594602084013594506040840135936060013592509050565b600080600080600060a08688031215613a47578283fd5b505083359560208501359550604085013594606081013594506080013592509050565b60008060008060008060c08789031215613a82578384fd5b505084359660208601359650604086013595606081013595506080810135945060a0013592509050565b60609190911b7fffffffffffffffffffffffffffffffffffffffff00000000000000000000000016815260140190565b918252602082015260400190565b6001600160a01b0391909116815260200190565b6001600160a01b039384168152919092166020820152604081019190915260600190565b6001600160a01b03988916815296881660208801529487166040870152929095166060850152608084015260a083019390935260c082019290925260e08101919091526101000190565b6001600160a01b03938416815291909216602082015262ffffff909116604082015260600190565b901515815260200190565b91151582521515602082015260400190565b90815260200190565b600292830b8152910b602082015260400190565b6000602080835283518082850152825b81811015613bfa57858101830151858201604001528201613bde565b81811115613c0b5783604083870101525b50601f01601f1916929092016040019392505050565b6020808252600a908201527f4348492050617573656400000000000000000000000000000000000000000000604082015260600190565b60208082526009908201527f6f6e6c7920676f76730000000000000000000000000000000000000000000000604082015260600190565b60208082526007908201527f6d616e6167657200000000000000000000000000000000000000000000000000604082015260600190565b6020808252600c908201527f4348492041726368697665640000000000000000000000000000000000000000604082015260600190565b6020808252600d908201527f63616c6c6261636b206661696c00000000000000000000000000000000000000604082015260600190565b60208082526011908201527f4e6f6e2d6578697374656e7420706f6f6c000000000000000000000000000000604082015260600190565b60208082526001908201527f7300000000000000000000000000000000000000000000000000000000000000604082015260600190565b6020808252600c908201527f4348492061726368697665640000000000000000000000000000000000000000604082015260600190565b6020808252600c908201527f4e6f7420617070726f7665640000000000000000000000000000000000000000604082015260600190565b60208082526001908201527f7900000000000000000000000000000000000000000000000000000000000000604082015260600190565b6020808252600e908201527f434849206e6f7420706175736564000000000000000000000000000000000000604082015260600190565b60208082526010908201527f496e76616c696420746f6b656e20494400000000000000000000000000000000604082015260600190565b60208082526037908201527f4552433732315570677261646561626c653a20617070726f766564207175657260408201527f7920666f72206e6f6e6578697374656e7420746f6b656e000000000000000000606082015260800190565b9182526001600160a01b0316602082015260400190565b9384526001600160a01b03928316602085015291166040830152606082015260800190565b9182526fffffffffffffffffffffffffffffffff16602082015260400190565b92835260208301919091526001600160a01b0316604082015260600190565b9283526020830191909152604082015260600190565b9485526020850193909352604084019190915260608301526001600160a01b0316608082015260a00190565b948552602085019390935260408401919091526060830152608082015260a00190565b6001600160a01b0381168114612bb757600080fd5b8015158114612bb757600080fdfe456e756d657261626c655365743a20696e646578206f7574206f6620626f756e64734552433732313a207472616e7366657220746f206e6f6e20455243373231526563656976657220696d706c656d656e7465724552433732313a207472616e7366657220746f20746865207a65726f20616464726573734552433732313a206f70657261746f7220717565727920666f72206e6f6e6578697374656e7420746f6b656e4552433732313a20617070726f76652063616c6c6572206973206e6f74206f776e6572206e6f7220617070726f76656420666f7220616c6c4552433732313a2062616c616e636520717565727920666f7220746865207a65726f20616464726573734552433732313a206f776e657220717565727920666f72206e6f6e6578697374656e7420746f6b656e496e697469616c697a61626c653a20636f6e747261637420697320616c726561647920696e697469616c697a6564456e756d657261626c654d61703a20696e646578206f7574206f6620626f756e64734552433732313a207472616e73666572206f6620746f6b656e2074686174206973206e6f74206f776e4552433732313a20617070726f76616c20746f2063757272656e74206f776e65724552433732313a207472616e736665722063616c6c6572206973206e6f74206f776e6572206e6f7220617070726f766564a164736f6c6343000706000a",
  "linkReferences": {},
  "deployedLinkReferences": {}
}