{
  "_format": "hh-sol-artifact-1",
  "contractName": "RewardPool",
  "sourceName": "contracts/RewardPool.sol",
  "abi": [
    {
      "inputs": [
        {
          "internalType": "address",
          "name": "_rewardsToken",
          "type": "address"
        },
        {
          "internalType": "address",
          "name": "_chiManager",
          "type": "address"
        },
        {
          "internalType": "address",
          "name": "_yangNFT",
          "type": "address"
        },
        {
          "internalType": "uint256",
          "name": "_rewardsDuration",
          "type": "uint256"
        }
      ],
      "stateMutability": "nonpayable",
      "type": "constructor"
    },
    {
      "anonymous": false,
      "inputs": [
        {
          "indexed": true,
          "internalType": "address",
          "name": "previousOwner",
          "type": "address"
        },
        {
          "indexed": true,
          "internalType": "address",
          "name": "newOwner",
          "type": "address"
        }
      ],
      "name": "OwnershipTransferred",
      "type": "event"
    },
    {
      "anonymous": false,
      "inputs": [
        {
          "indexed": false,
          "internalType": "uint256",
          "name": "reward",
          "type": "uint256"
        }
      ],
      "name": "RewardAdded",
      "type": "event"
    },
    {
      "anonymous": false,
      "inputs": [
        {
          "indexed": true,
          "internalType": "address",
          "name": "user",
          "type": "address"
        },
        {
          "indexed": false,
          "internalType": "uint256",
          "name": "reward",
          "type": "uint256"
        }
      ],
      "name": "RewardPaid",
      "type": "event"
    },
    {
      "anonymous": false,
      "inputs": [
        {
          "indexed": false,
          "internalType": "uint256",
          "name": "newDuration",
          "type": "uint256"
        }
      ],
      "name": "RewardsDurationUpdated",
      "type": "event"
    },
    {
      "anonymous": false,
      "inputs": [
        {
          "indexed": true,
          "internalType": "address",
          "name": "user",
          "type": "address"
        },
        {
          "indexed": false,
          "internalType": "uint256",
          "name": "amount",
          "type": "uint256"
        }
      ],
      "name": "Withdrawn",
      "type": "event"
    },
    {
      "inputs": [],
      "name": "chiManager",
      "outputs": [
        {
          "internalType": "contract ICHIManager",
          "name": "",
          "type": "address"
        }
      ],
      "stateMutability": "view",
      "type": "function"
    },
    {
      "inputs": [
        {
          "internalType": "uint256",
          "name": "yangId",
          "type": "uint256"
        },
        {
          "internalType": "uint256",
          "name": "chiId",
          "type": "uint256"
        },
        {
          "internalType": "address",
          "name": "account",
          "type": "address"
        }
      ],
      "name": "earned",
      "outputs": [
        {
          "internalType": "uint256",
          "name": "",
          "type": "uint256"
        }
      ],
      "stateMutability": "view",
      "type": "function"
    },
    {
      "inputs": [
        {
          "internalType": "uint256",
          "name": "yangId",
          "type": "uint256"
        },
        {
          "internalType": "uint256",
          "name": "chiId",
          "type": "uint256"
        }
      ],
      "name": "getReward",
      "outputs": [],
      "stateMutability": "nonpayable",
      "type": "function"
    },
    {
      "inputs": [],
      "name": "getRewardForDuration",
      "outputs": [
        {
          "internalType": "uint256",
          "name": "",
          "type": "uint256"
        }
      ],
      "stateMutability": "view",
      "type": "function"
    },
    {
      "inputs": [],
      "name": "lastTimeRewardApplicable",
      "outputs": [
        {
          "internalType": "uint256",
          "name": "",
          "type": "uint256"
        }
      ],
      "stateMutability": "view",
      "type": "function"
    },
    {
      "inputs": [],
      "name": "lastUpdateTime",
      "outputs": [
        {
          "internalType": "uint256",
          "name": "",
          "type": "uint256"
        }
      ],
      "stateMutability": "view",
      "type": "function"
    },
    {
      "inputs": [
        {
          "internalType": "uint256",
          "name": "reward",
          "type": "uint256"
        }
      ],
      "name": "notifyRewardAmount",
      "outputs": [],
      "stateMutability": "nonpayable",
      "type": "function"
    },
    {
      "inputs": [],
      "name": "owner",
      "outputs": [
        {
          "internalType": "address",
          "name": "",
          "type": "address"
        }
      ],
      "stateMutability": "view",
      "type": "function"
    },
    {
      "inputs": [],
      "name": "periodFinish",
      "outputs": [
        {
          "internalType": "uint256",
          "name": "",
          "type": "uint256"
        }
      ],
      "stateMutability": "view",
      "type": "function"
    },
    {
      "inputs": [],
      "name": "renounceOwnership",
      "outputs": [],
      "stateMutability": "nonpayable",
      "type": "function"
    },
    {
      "inputs": [
        {
          "internalType": "uint256",
          "name": "chiId",
          "type": "uint256"
        }
      ],
      "name": "rewardPerShare",
      "outputs": [
        {
          "internalType": "uint256",
          "name": "",
          "type": "uint256"
        }
      ],
      "stateMutability": "view",
      "type": "function"
    },
    {
      "inputs": [],
      "name": "rewardPerShareStored",
      "outputs": [
        {
          "internalType": "uint256",
          "name": "",
          "type": "uint256"
        }
      ],
      "stateMutability": "view",
      "type": "function"
    },
    {
      "inputs": [],
      "name": "rewardRate",
      "outputs": [
        {
          "internalType": "uint256",
          "name": "",
          "type": "uint256"
        }
      ],
      "stateMutability": "view",
      "type": "function"
    },
    {
      "inputs": [
        {
          "internalType": "address",
          "name": "",
          "type": "address"
        }
      ],
      "name": "rewards",
      "outputs": [
        {
          "internalType": "uint256",
          "name": "",
          "type": "uint256"
        }
      ],
      "stateMutability": "view",
      "type": "function"
    },
    {
      "inputs": [],
      "name": "rewardsDuration",
      "outputs": [
        {
          "internalType": "uint256",
          "name": "",
          "type": "uint256"
        }
      ],
      "stateMutability": "view",
      "type": "function"
    },
    {
      "inputs": [],
      "name": "rewardsToken",
      "outputs": [
        {
          "internalType": "contract IERC20",
          "name": "",
          "type": "address"
        }
      ],
      "stateMutability": "view",
      "type": "function"
    },
    {
      "inputs": [
        {
          "internalType": "uint256",
          "name": "_rewardsDuration",
          "type": "uint256"
        }
      ],
      "name": "setRewardsDuration",
      "outputs": [],
      "stateMutability": "nonpayable",
      "type": "function"
    },
    {
      "inputs": [
        {
          "internalType": "uint256",
          "name": "yangId",
          "type": "uint256"
        },
        {
          "internalType": "uint256",
          "name": "chiId",
          "type": "uint256"
        }
      ],
      "name": "shares",
      "outputs": [
        {
          "internalType": "uint256",
          "name": "",
          "type": "uint256"
        }
      ],
      "stateMutability": "view",
      "type": "function"
    },
    {
      "inputs": [],
      "name": "startTime",
      "outputs": [
        {
          "internalType": "uint256",
          "name": "",
          "type": "uint256"
        }
      ],
      "stateMutability": "view",
      "type": "function"
    },
    {
      "inputs": [
        {
          "internalType": "uint256",
          "name": "chiId",
          "type": "uint256"
        }
      ],
      "name": "totalShares",
      "outputs": [
        {
          "internalType": "uint256",
          "name": "",
          "type": "uint256"
        }
      ],
      "stateMutability": "view",
      "type": "function"
    },
    {
      "inputs": [
        {
          "internalType": "address",
          "name": "newOwner",
          "type": "address"
        }
      ],
      "name": "transferOwnership",
      "outputs": [],
      "stateMutability": "nonpayable",
      "type": "function"
    },
    {
      "inputs": [
        {
          "internalType": "uint256",
          "name": "timestamp",
          "type": "uint256"
        }
      ],
      "name": "updatePeriodFinish",
      "outputs": [],
      "stateMutability": "nonpayable",
      "type": "function"
    },
    {
      "inputs": [
        {
          "internalType": "address",
          "name": "",
          "type": "address"
        }
      ],
      "name": "userRewardPerSharePaid",
      "outputs": [
        {
          "internalType": "uint256",
          "name": "",
          "type": "uint256"
        }
      ],
      "stateMutability": "view",
      "type": "function"
    },
    {
      "inputs": [],
      "name": "yangNFT",
      "outputs": [
        {
          "internalType": "address",
          "name": "",
          "type": "address"
        }
      ],
      "stateMutability": "view",
      "type": "function"
    }
  ],
  "bytecode": "0x60806040523480156200001157600080fd5b506040516200180d3803806200180d8339810160408190526200003491620000f5565b600062000040620000d4565b600080546001600160a01b0319166001600160a01b0383169081178255604051929350917f8be0079c531659141344cd1fd0a4f28419497f9722a3daafe3b4186f6b6457e0908290a35060018055600280546001600160a01b039586166001600160a01b03199182161790915560038054948616948216949094179093556007556004805491909316911617905562000146565b3390565b80516001600160a01b0381168114620000f057600080fd5b919050565b600080600080608085870312156200010b578384fd5b6200011685620000d8565b93506200012660208601620000d8565b92506200013660408601620000d8565b6060959095015193969295505050565b6116b780620001566000396000f3fe608060405234801561001057600080fd5b50600436106101985760003560e01c806378e97925116100e3578063c8f33c911161008c578063d1af0c7d11610066578063d1af0c7d146102d8578063ebe2b12b146102e0578063f2fde38b146102e857610198565b8063c8f33c91146102aa578063cc1a378f146102b2578063cdd8d69c146102c557610198565b8063818ae1ce116100bd578063818ae1ce1461027c5780638da5cb5b1461028f578063b90bc5191461029757610198565b806378e97925146102645780637b0a47ee1461026c57806380faa57d1461027457610198565b80633c6b16ab11610145578063556f6e6b1161011f578063556f6e6b14610236578063696347fc14610249578063715018a61461025c57610198565b80633c6b16ab146102045780633da6be60146102195780634259ab441461022e57610198565b806313f2dad01161017657806313f2dad0146101e15780631c1f78eb146101f4578063386a9525146101fc57610198565b806301bee1d61461019d5780630700037d146101c65780630ab747f0146101d9575b600080fd5b6101b06101ab36600461144f565b6102fb565b6040516101bd91906114ca565b60405180910390f35b6101b06101d4366004611362565b6103cb565b6101b06103dd565b6101b06101ef36600461141f565b6103e3565b6101b0610492565b6101b06104b0565b61021761021236600461141f565b6104b6565b005b610221610698565b6040516101bd91906114b6565b6102216106a7565b61021761024436600461141f565b6106b6565b6101b0610257366004611470565b6107ac565b6102176108e4565b6101b06109ba565b6101b06109c0565b6101b06109c6565b6101b061028a366004611362565b6109d4565b6102216109e6565b6102176102a536600461144f565b6109f5565b6101b0610b85565b6102176102c036600461141f565b610b8b565b6101b06102d336600461141f565b610c60565b610221610cb0565b6101b0610cbf565b6102176102f6366004611362565b610cc5565b60008083836040516020016103119291906114a8565b60408051601f198184030181529082905280516020909101206003547f12fd2f9a0000000000000000000000000000000000000000000000000000000083529092506001600160a01b0316906312fd2f9a906103719084906004016114ca565b60206040518083038186803b15801561038957600080fd5b505afa15801561039d573d6000803e3d6000fd5b505050506040513d601f19601f820116820180604052508101906103c19190611437565b9150505b92915050565b600c6020526000908152604090205481565b600a5481565b6003546040517fb9decd6600000000000000000000000000000000000000000000000000000000815260009182916001600160a01b039091169063b9decd66906104319086906004016114ca565b6101006040518083038186803b15801561044a57600080fd5b505afa15801561045e573d6000803e3d6000fd5b505050506040513d601f19601f82011682018060405250810190610482919061139a565b985050505050505050505b919050565b60006104ab600754600654610df190919063ffffffff16565b905090565b60075481565b6104be610e4a565b6001600160a01b03166104cf6109e6565b6001600160a01b03161461052a576040805162461bcd60e51b815260206004820181905260248201527f4f776e61626c653a2063616c6c6572206973206e6f7420746865206f776e6572604482015290519081900360640190fd5b600080600061053882610c60565b600a556105436109c6565b6009556001600160a01b0381161580159061055d57508215155b801561056857508115155b156105a4576105788383836107ac565b6001600160a01b0382166000908152600c6020908152604080832093909355600a54600b909152919020555b600084116105cd5760405162461bcd60e51b81526004016105c49061158d565b60405180910390fd5b6002546105e5906001600160a01b0316333087610e4e565b6005544210610604576007546105fc908590610edc565b60065561063f565b61063b60075461063561062e60065461062842600554610f4390919063ffffffff16565b90610df1565b8790610fa0565b90610edc565b6006555b42600881905560098190556007546106579190610fa0565b6005556040517fde88a922e0d3b88b24e9623efeb464919c6bf9f66857a65e2bfcf2ce87a9433d9061068a9086906114ca565b60405180910390a150505050565b6003546001600160a01b031681565b6004546001600160a01b031681565b6106be610e4a565b6001600160a01b03166106cf6109e6565b6001600160a01b03161461072a576040805162461bcd60e51b815260206004820181905260248201527f4f776e61626c653a2063616c6c6572206973206e6f7420746865206f776e6572604482015290519081900360640190fd5b600080600061073882610c60565b600a556107436109c6565b6009556001600160a01b0381161580159061075d57508215155b801561076857508115155b156107a4576107788383836107ac565b6001600160a01b0382166000908152600c6020908152604080832093909355600a54600b909152919020555b505050600555565b600480546040517f6352211e0000000000000000000000000000000000000000000000000000000081526000926001600160a01b03808616931691636352211e916107f9918991016114ca565b60206040518083038186803b15801561081157600080fd5b505afa158015610825573d6000803e3d6000fd5b505050506040513d601f19601f82011682018060405250810190610849919061137e565b6001600160a01b03161461086f5760405162461bcd60e51b81526004016105c4906115c4565b600061087b85856102fb565b6001600160a01b0384166000908152600c6020908152604080832054600b909252909120549192506108d9916108d390670de0b6b3a764000090610635906108cc906108c68b610c60565b90610f43565b8690610df1565b90610fa0565b9150505b9392505050565b6108ec610e4a565b6001600160a01b03166108fd6109e6565b6001600160a01b031614610958576040805162461bcd60e51b815260206004820181905260248201527f4f776e61626c653a2063616c6c6572206973206e6f7420746865206f776e6572604482015290519081900360640190fd5b600080546040516001600160a01b03909116907f8be0079c531659141344cd1fd0a4f28419497f9722a3daafe3b4186f6b6457e0908390a3600080547fffffffffffffffffffffffff0000000000000000000000000000000000000000169055565b60085481565b60065481565b60006104ab42600554610ffa565b600b6020526000908152604090205481565b6000546001600160a01b031690565b60026001541415610a4d576040805162461bcd60e51b815260206004820152601f60248201527f5265656e7472616e637947756172643a207265656e7472616e742063616c6c00604482015290519081900360640190fd5b600260015560085415801590610a64575060085442115b610a805760405162461bcd60e51b81526004016105c4906114d3565b818133610a8c82610c60565b600a55610a976109c6565b6009556001600160a01b03811615801590610ab157508215155b8015610abc57508115155b15610af857610acc8383836107ac565b6001600160a01b0382166000908152600c6020908152604080832093909355600a54600b909152919020555b336000908152600c60205260409020548015610b7957336000818152600c6020526040812055600254610b37916001600160a01b039091169083611010565b336001600160a01b03167fe2403640ba68fed3a2f88b7557551d1993f84b99bb10ff833f0cf8db0c5e048682604051610b7091906114ca565b60405180910390a25b50506001805550505050565b60095481565b610b93610e4a565b6001600160a01b0316610ba46109e6565b6001600160a01b031614610bff576040805162461bcd60e51b815260206004820181905260248201527f4f776e61626c653a2063616c6c6572206973206e6f7420746865206f776e6572604482015290519081900360640190fd5b6005544211610c205760405162461bcd60e51b81526004016105c49061150a565b60078190556040517ffb46ca5a5e06d4540d6387b930a7c978bce0db5f449ec6b3f5d07c6e1d44f2d390610c559083906114ca565b60405180910390a150565b6000610c6b826103e3565b610c785750600a5461048d565b6103c5610ca7610c87846103e3565b610635670de0b6b3a76400006106286006546106286009546108c66109c6565b600a5490610fa0565b6002546001600160a01b031681565b60055481565b610ccd610e4a565b6001600160a01b0316610cde6109e6565b6001600160a01b031614610d39576040805162461bcd60e51b815260206004820181905260248201527f4f776e61626c653a2063616c6c6572206973206e6f7420746865206f776e6572604482015290519081900360640190fd5b6001600160a01b038116610d7e5760405162461bcd60e51b81526004018080602001828103825260268152602001806116146026913960400191505060405180910390fd5b600080546040516001600160a01b03808516939216917f8be0079c531659141344cd1fd0a4f28419497f9722a3daafe3b4186f6b6457e091a3600080547fffffffffffffffffffffffff0000000000000000000000000000000000000000166001600160a01b0392909216919091179055565b600082610e00575060006103c5565b82820282848281610e0d57fe5b04146108dd5760405162461bcd60e51b81526004018080602001828103825260218152602001806116606021913960400191505060405180910390fd5b3390565b604080516001600160a01b0380861660248301528416604482015260648082018490528251808303909101815260849091019091526020810180517bffffffffffffffffffffffffffffffffffffffffffffffffffffffff167f23b872dd00000000000000000000000000000000000000000000000000000000179052610ed6908590611095565b50505050565b6000808211610f32576040805162461bcd60e51b815260206004820152601a60248201527f536166654d6174683a206469766973696f6e206279207a65726f000000000000604482015290519081900360640190fd5b818381610f3b57fe5b049392505050565b600082821115610f9a576040805162461bcd60e51b815260206004820152601e60248201527f536166654d6174683a207375627472616374696f6e206f766572666c6f770000604482015290519081900360640190fd5b50900390565b6000828201838110156108dd576040805162461bcd60e51b815260206004820152601b60248201527f536166654d6174683a206164646974696f6e206f766572666c6f770000000000604482015290519081900360640190fd5b600081831061100957816108dd565b5090919050565b604080516001600160a01b038416602482015260448082018490528251808303909101815260649091019091526020810180517bffffffffffffffffffffffffffffffffffffffffffffffffffffffff167fa9059cbb00000000000000000000000000000000000000000000000000000000179052611090908490611095565b505050565b60006110ea826040518060400160405280602081526020017f5361666545524332303a206c6f772d6c6576656c2063616c6c206661696c6564815250856001600160a01b03166111469092919063ffffffff16565b8051909150156110905780806020019051602081101561110957600080fd5b50516110905760405162461bcd60e51b815260040180806020018281038252602a815260200180611681602a913960400191505060405180910390fd5b6060611155848460008561115d565b949350505050565b60608247101561119e5760405162461bcd60e51b815260040180806020018281038252602681526020018061163a6026913960400191505060405180910390fd5b6111a7856112b8565b6111f8576040805162461bcd60e51b815260206004820152601d60248201527f416464726573733a2063616c6c20746f206e6f6e2d636f6e7472616374000000604482015290519081900360640190fd5b600080866001600160a01b031685876040518082805190602001908083835b602083106112365780518252601f199092019160209182019101611217565b6001836020036101000a03801982511681845116808217855250505050505090500191505060006040518083038185875af1925050503d8060008114611298576040519150601f19603f3d011682016040523d82523d6000602084013e61129d565b606091505b50915091506112ad8282866112be565b979650505050505050565b3b151590565b606083156112cd5750816108dd565b8251156112dd5782518084602001fd5b8160405162461bcd60e51b81526004018080602001828103825283818151815260200191508051906020019080838360005b8381101561132757818101518382015260200161130f565b50505050905090810190601f1680156113545780820380516001836020036101000a031916815260200191505b509250505060405180910390fd5b600060208284031215611373578081fd5b81356108dd816115fb565b60006020828403121561138f578081fd5b81516108dd816115fb565b600080600080600080600080610100898b0312156113b6578384fd5b88516113c1816115fb565b60208a01519098506113d2816115fb565b60408a01519097506113e3816115fb565b60608a01519096506113f4816115fb565b60808a015160a08b015160c08c015160e0909c01519a9d999c50979a91999098919650945092505050565b600060208284031215611430578081fd5b5035919050565b600060208284031215611448578081fd5b5051919050565b60008060408385031215611461578182fd5b50508035926020909101359150565b600080600060608486031215611484578283fd5b8335925060208401359150604084013561149d816115fb565b809150509250925092565b918252602082015260400190565b6001600160a01b0391909116815260200190565b90815260200190565b60208082526009908201527f6e6f742073746172740000000000000000000000000000000000000000000000604082015260600190565b60208082526058908201527f50726576696f7573207265776172647320706572696f64206d7573742062652060408201527f636f6d706c657465206265666f7265206368616e67696e67207468652064757260608201527f6174696f6e20666f7220746865206e657720706572696f640000000000000000608082015260a00190565b6020808252600c908201527f726577617264206e6f7420300000000000000000000000000000000000000000604082015260600190565b60208082526011908201527f4e6f6e206f776e6572206f662059616e67000000000000000000000000000000604082015260600190565b6001600160a01b038116811461161057600080fd5b5056fe4f776e61626c653a206e6577206f776e657220697320746865207a65726f2061646472657373416464726573733a20696e73756666696369656e742062616c616e636520666f722063616c6c536166654d6174683a206d756c7469706c69636174696f6e206f766572666c6f775361666545524332303a204552433230206f7065726174696f6e20646964206e6f742073756363656564a164736f6c6343000706000a",
  "linkReferences": {},
  "deployedLinkReferences": {}
}