{
  "_format": "hh-sol-artifact-1",
  "contractName": "CHIVault",
  "sourceName": "contracts/CHIVault.sol",
  "abi": [
    {
      "inputs": [
        {
          "internalType": "address",
          "name": "_pool",
          "type": "address"
        },
        {
          "internalType": "address",
          "name": "_manager",
          "type": "address"
        },
        {
          "internalType": "uint256",
          "name": "_protocolFee_",
          "type": "uint256"
        }
      ],
      "stateMutability": "nonpayable",
      "type": "constructor"
    },
    {
      "anonymous": false,
      "inputs": [
        {
          "indexed": false,
          "internalType": "uint256",
          "name": "feesFromPool0",
          "type": "uint256"
        },
        {
          "indexed": false,
          "internalType": "uint256",
          "name": "feesFromPool1",
          "type": "uint256"
        }
      ],
      "name": "CollectFee",
      "type": "event"
    },
    {
      "anonymous": false,
      "inputs": [
        {
          "indexed": true,
          "internalType": "uint256",
          "name": "yangId",
          "type": "uint256"
        },
        {
          "indexed": false,
          "internalType": "uint256",
          "name": "shares",
          "type": "uint256"
        },
        {
          "indexed": false,
          "internalType": "uint256",
          "name": "amount0",
          "type": "uint256"
        },
        {
          "indexed": false,
          "internalType": "uint256",
          "name": "amount1",
          "type": "uint256"
        }
      ],
      "name": "Deposit",
      "type": "event"
    },
    {
      "anonymous": false,
      "inputs": [
        {
          "indexed": true,
          "internalType": "uint256",
          "name": "yangId",
          "type": "uint256"
        },
        {
          "indexed": true,
          "internalType": "address",
          "name": "to",
          "type": "address"
        },
        {
          "indexed": false,
          "internalType": "uint256",
          "name": "shares",
          "type": "uint256"
        },
        {
          "indexed": false,
          "internalType": "uint256",
          "name": "amount0",
          "type": "uint256"
        },
        {
          "indexed": false,
          "internalType": "uint256",
          "name": "amount1",
          "type": "uint256"
        }
      ],
      "name": "Withdraw",
      "type": "event"
    },
    {
      "inputs": [],
      "name": "CHIManager",
      "outputs": [
        {
          "internalType": "contract ICHIManager",
          "name": "",
          "type": "address"
        }
      ],
      "stateMutability": "view",
      "type": "function"
    },
    {
      "inputs": [],
      "name": "FEE_BASE",
      "outputs": [
        {
          "internalType": "uint256",
          "name": "",
          "type": "uint256"
        }
      ],
      "stateMutability": "view",
      "type": "function"
    },
    {
      "inputs": [],
      "name": "accruedCollectFees0",
      "outputs": [
        {
          "internalType": "uint256",
          "name": "",
          "type": "uint256"
        }
      ],
      "stateMutability": "view",
      "type": "function"
    },
    {
      "inputs": [],
      "name": "accruedCollectFees1",
      "outputs": [
        {
          "internalType": "uint256",
          "name": "",
          "type": "uint256"
        }
      ],
      "stateMutability": "view",
      "type": "function"
    },
    {
      "inputs": [],
      "name": "accruedProtocolFees0",
      "outputs": [
        {
          "internalType": "uint256",
          "name": "",
          "type": "uint256"
        }
      ],
      "stateMutability": "view",
      "type": "function"
    },
    {
      "inputs": [],
      "name": "accruedProtocolFees1",
      "outputs": [
        {
          "internalType": "uint256",
          "name": "",
          "type": "uint256"
        }
      ],
      "stateMutability": "view",
      "type": "function"
    },
    {
      "inputs": [
        {
          "internalType": "uint256",
          "name": "rangeIndex",
          "type": "uint256"
        },
        {
          "internalType": "uint256",
          "name": "amount0Desired",
          "type": "uint256"
        },
        {
          "internalType": "uint256",
          "name": "amount1Desired",
          "type": "uint256"
        }
      ],
      "name": "addLiquidityToPosition",
      "outputs": [],
      "stateMutability": "nonpayable",
      "type": "function"
    },
    {
      "inputs": [
        {
          "internalType": "int24",
          "name": "tickLower",
          "type": "int24"
        },
        {
          "internalType": "int24",
          "name": "tickUpper",
          "type": "int24"
        }
      ],
      "name": "addRange",
      "outputs": [],
      "stateMutability": "nonpayable",
      "type": "function"
    },
    {
      "inputs": [
        {
          "internalType": "uint256",
          "name": "amount0",
          "type": "uint256"
        },
        {
          "internalType": "uint256",
          "name": "amount1",
          "type": "uint256"
        },
        {
          "internalType": "address",
          "name": "to",
          "type": "address"
        }
      ],
      "name": "collectProtocol",
      "outputs": [],
      "stateMutability": "nonpayable",
      "type": "function"
    },
    {
      "inputs": [
        {
          "internalType": "uint256",
          "name": "yangId",
          "type": "uint256"
        },
        {
          "internalType": "uint256",
          "name": "amount0Desired",
          "type": "uint256"
        },
        {
          "internalType": "uint256",
          "name": "amount1Desired",
          "type": "uint256"
        },
        {
          "internalType": "uint256",
          "name": "amount0Min",
          "type": "uint256"
        },
        {
          "internalType": "uint256",
          "name": "amount1Min",
          "type": "uint256"
        }
      ],
      "name": "deposit",
      "outputs": [
        {
          "internalType": "uint256",
          "name": "shares",
          "type": "uint256"
        },
        {
          "internalType": "uint256",
          "name": "amount0",
          "type": "uint256"
        },
        {
          "internalType": "uint256",
          "name": "amount1",
          "type": "uint256"
        }
      ],
      "stateMutability": "nonpayable",
      "type": "function"
    },
    {
      "inputs": [
        {
          "internalType": "uint256",
          "name": "index",
          "type": "uint256"
        }
      ],
      "name": "getRange",
      "outputs": [
        {
          "internalType": "int24",
          "name": "tickLower",
          "type": "int24"
        },
        {
          "internalType": "int24",
          "name": "tickUpper",
          "type": "int24"
        }
      ],
      "stateMutability": "view",
      "type": "function"
    },
    {
      "inputs": [],
      "name": "getRangeCount",
      "outputs": [
        {
          "internalType": "uint256",
          "name": "",
          "type": "uint256"
        }
      ],
      "stateMutability": "view",
      "type": "function"
    },
    {
      "inputs": [],
      "name": "getTotalAmounts",
      "outputs": [
        {
          "internalType": "uint256",
          "name": "total0",
          "type": "uint256"
        },
        {
          "internalType": "uint256",
          "name": "total1",
          "type": "uint256"
        }
      ],
      "stateMutability": "view",
      "type": "function"
    },
    {
      "inputs": [],
      "name": "harvestFee",
      "outputs": [],
      "stateMutability": "nonpayable",
      "type": "function"
    },
    {
      "inputs": [],
      "name": "pool",
      "outputs": [
        {
          "internalType": "contract IUniswapV3Pool",
          "name": "",
          "type": "address"
        }
      ],
      "stateMutability": "view",
      "type": "function"
    },
    {
      "inputs": [],
      "name": "protocolFee",
      "outputs": [
        {
          "internalType": "uint256",
          "name": "",
          "type": "uint256"
        }
      ],
      "stateMutability": "view",
      "type": "function"
    },
    {
      "inputs": [
        {
          "internalType": "uint256",
          "name": "rangeIndex",
          "type": "uint256"
        }
      ],
      "name": "removeAllLiquidityFromPosition",
      "outputs": [
        {
          "internalType": "uint256",
          "name": "amount0",
          "type": "uint256"
        },
        {
          "internalType": "uint256",
          "name": "amount1",
          "type": "uint256"
        }
      ],
      "stateMutability": "nonpayable",
      "type": "function"
    },
    {
      "inputs": [
        {
          "internalType": "uint256",
          "name": "rangeIndex",
          "type": "uint256"
        },
        {
          "internalType": "uint128",
          "name": "liquidity",
          "type": "uint128"
        }
      ],
      "name": "removeLiquidityFromPosition",
      "outputs": [
        {
          "internalType": "uint256",
          "name": "amount0",
          "type": "uint256"
        },
        {
          "internalType": "uint256",
          "name": "amount1",
          "type": "uint256"
        }
      ],
      "stateMutability": "nonpayable",
      "type": "function"
    },
    {
      "inputs": [
        {
          "internalType": "int24",
          "name": "tickLower",
          "type": "int24"
        },
        {
          "internalType": "int24",
          "name": "tickUpper",
          "type": "int24"
        }
      ],
      "name": "removeRange",
      "outputs": [],
      "stateMutability": "nonpayable",
      "type": "function"
    },
    {
      "inputs": [],
      "name": "tickSpacing",
      "outputs": [
        {
          "internalType": "int24",
          "name": "",
          "type": "int24"
        }
      ],
      "stateMutability": "view",
      "type": "function"
    },
    {
      "inputs": [],
      "name": "token0",
      "outputs": [
        {
          "internalType": "contract IERC20",
          "name": "",
          "type": "address"
        }
      ],
      "stateMutability": "view",
      "type": "function"
    },
    {
      "inputs": [],
      "name": "token1",
      "outputs": [
        {
          "internalType": "contract IERC20",
          "name": "",
          "type": "address"
        }
      ],
      "stateMutability": "view",
      "type": "function"
    },
    {
      "inputs": [],
      "name": "totalSupply",
      "outputs": [
        {
          "internalType": "uint256",
          "name": "",
          "type": "uint256"
        }
      ],
      "stateMutability": "view",
      "type": "function"
    },
    {
      "inputs": [
        {
          "internalType": "uint256",
          "name": "amount0Owed",
          "type": "uint256"
        },
        {
          "internalType": "uint256",
          "name": "amount1Owed",
          "type": "uint256"
        },
        {
          "internalType": "bytes",
          "name": "data",
          "type": "bytes"
        }
      ],
      "name": "uniswapV3MintCallback",
      "outputs": [],
      "stateMutability": "nonpayable",
      "type": "function"
    },
    {
      "inputs": [
        {
          "internalType": "uint256",
          "name": "yangId",
          "type": "uint256"
        },
        {
          "internalType": "uint256",
          "name": "shares",
          "type": "uint256"
        },
        {
          "internalType": "uint256",
          "name": "amount0Min",
          "type": "uint256"
        },
        {
          "internalType": "uint256",
          "name": "amount1Min",
          "type": "uint256"
        },
        {
          "internalType": "address",
          "name": "to",
          "type": "address"
        }
      ],
      "name": "withdraw",
      "outputs": [
        {
          "internalType": "uint256",
          "name": "amount0",
          "type": "uint256"
        },
        {
          "internalType": "uint256",
          "name": "amount1",
          "type": "uint256"
        }
      ],
      "stateMutability": "nonpayable",
      "type": "function"
    }
  ],
  "bytecode": "0x60e0604052620f42406006553480156200001857600080fd5b50604051620037a0380380620037a0833981810160405260608110156200003e57600080fd5b5080516020808301516040938401516001600081905580546001600160a01b0319166001600160a01b0380871691909117918290558651630dfe168160e01b81529651959693959294911692630dfe16819260048083019392829003018186803b158015620000ac57600080fd5b505afa158015620000c1573d6000803e3d6000fd5b505050506040513d6020811015620000d857600080fd5b505160601b6001600160601b0319166080526001546040805163d21220a760e01b815290516001600160a01b039092169163d21220a791600480820192602092909190829003018186803b1580156200013057600080fd5b505afa15801562000145573d6000803e3d6000fd5b505050506040513d60208110156200015c57600080fd5b505160601b6001600160601b03191660a052600154604080516334324e9f60e21b815290516001600160a01b039092169163d0c93a7c91600480820192602092909190829003018186803b158015620001b457600080fd5b505afa158015620001c9573d6000803e3d6000fd5b505050506040513d6020811015620001e057600080fd5b5051600290810b810b60e81b60c05280546001600160a01b0319166001600160a01b0384161790556005819055600654811062000248576040805162461bcd60e51b81526020600482015260016024820152603360f91b604482015290519081900360640190fd5b50505060805160601c60a05160601c60c05160e81c6134e3620002bd600039806110e3528061253352806125b85250806105755280610f665280611107528061118d52806113c25280611ca052508061053b52806105a95280610f37528061115352806113885280611bf952506134e36000f3fe608060405234801561001057600080fd5b50600436106101a35760003560e01c8063b135a145116100ee578063d21220a711610097578063d4da618511610071578063d4da61851461045f578063db4dcce41461048b578063eae989a2146104b5578063ecefc705146104bd576101a3565b8063d21220a71461039d578063d3487997146103a5578063d473a65414610421576101a3565b8063c4a7761e116100c8578063c4a7761e14610336578063cc364f481461033e578063d0c93a7c1461037e576101a3565b8063b135a145146102d3578063b5962917146102db578063bf02b5ea146102e3576101a3565b80632106fa46116101505780639d9d75be1161012a5780639d9d75be1461029a578063a00fa77f146102c3578063b0e21e8a146102cb576101a3565b80632106fa46146102325780635a64998b146102685780639d60da5014610292576101a3565b806310869bfe1161018157806310869bfe1461021a57806316f0115b1461022257806318160ddd1461022a576101a3565b80630430c130146101a857806306a45175146101dc5780630dfe1681146101f6575b600080fd5b6101da600480360360608110156101be57600080fd5b50803590602081013590604001356001600160a01b03166104c5565b005b6101e46105a1565b60408051918252519081900360200190f35b6101fe6105a7565b604080516001600160a01b039092168252519081900360200190f35b6101e46105cb565b6101fe6105d1565b6101e46105e0565b61024f6004803603602081101561024857600080fd5b50356105e6565b6040805192835260208301919091528051918290030190f35b6101da6004803603604081101561027e57600080fd5b508035600290810b9160200135900b61085b565b6101fe61093d565b6101da600480360360608110156102b057600080fd5b508035906020810135906040013561094c565b6101e4610c1f565b6101e4610c25565b6101e4610c2b565b6101da610c3c565b610318600480360360a08110156102f957600080fd5b5080359060208101359060408101359060608101359060800135610cea565b60408051938452602084019290925282820152519081900360600190f35b61024f611033565b61035b6004803603602081101561035457600080fd5b50356110c6565b604051808360020b81526020018260020b81526020019250505060405180910390f35b6103866110e1565b6040805160029290920b8252519081900360200190f35b6101fe611105565b6101da600480360360608110156103bb57600080fd5b8135916020810135918101906060810160408201356401000000008111156103e257600080fd5b8201836020820111156103f457600080fd5b8035906020019184600183028401116401000000008311171561041657600080fd5b509092509050611129565b61024f600480360360a081101561043757600080fd5b50803590602081013590604081013590606081013590608001356001600160a01b03166111ba565b61024f6004803603604081101561047557600080fd5b50803590602001356001600160801b0316611516565b6101da600480360360408110156104a157600080fd5b508035600290810b9160200135900b6117e9565b6101e46118ce565b6101e46118d4565b6002546001600160a01b03163314610508576040805162461bcd60e51b81526020600482015260016024820152606d60f81b604482015290519081900360640190fd5b60035461051590846118da565b60035560045461052590836118da565b6004558215610562576105626001600160a01b037f000000000000000000000000000000000000000000000000000000000000000016828561193c565b811561059c5761059c6001600160a01b037f000000000000000000000000000000000000000000000000000000000000000016828461193c565b505050565b600b5490565b7f000000000000000000000000000000000000000000000000000000000000000081565b600a5490565b6001546001600160a01b031681565b60075490565b60008060026000541415610641576040805162461bcd60e51b815260206004820152601f60248201527f5265656e7472616e637947756172643a207265656e7472616e742063616c6c00604482015290519081900360640190fd5b60026000819055546001600160a01b03163314610689576040805162461bcd60e51b81526020600482015260016024820152606d60f81b604482015290519081900360640190fd5b60008061069f61069a6008876119bc565b6119cf565b9150915060006106af83836119da565b90506001600160801b0381161561084c576001546040805163a34123a760e01b8152600286810b600483015285900b60248201526001600160801b038416604482015281516001600160a01b039093169263a34123a7926064808401939192918290030181600087803b15801561072557600080fd5b505af1158015610739573d6000803e3d6000fd5b505050506040513d604081101561074f57600080fd5b50805160209091015190955093508415158061076b5750600084115b1561084c576001546001600160a01b0316634f1eb3d830858561078d8a611a9d565b6107968a611a9d565b6040518663ffffffff1660e01b815260040180866001600160a01b031681526020018560020b81526020018460020b8152602001836001600160801b03168152602001826001600160801b03168152602001955050505050506040805180830381600087803b15801561080857600080fd5b505af115801561081c573d6000803e3d6000fd5b505050506040513d604081101561083257600080fd5b5080516020909101516001600160801b0391821696501693505b50506001600055509092909150565b6002546001600160a01b0316331461089e576040805162461bcd60e51b81526020600482015260016024820152606d60f81b604482015290519081900360640190fd5b6000806108ab8484611ab8565b91509150816000146108e9576040805162461bcd60e51b8152602060048201526002602482015261061360f41b604482015290519081900360640190fd5b8015610921576040805162461bcd60e51b8152602060048201526002602482015261061360f41b604482015290519081900360640190fd5b61093661092e8585611bd4565b600890611be3565b5050505050565b6002546001600160a01b031681565b600260005414156109a4576040805162461bcd60e51b815260206004820152601f60248201527f5265656e7472616e637947756172643a207265656e7472616e742063616c6c00604482015290519081900360640190fd5b60026000819055546001600160a01b031633146109ec576040805162461bcd60e51b81526020600482015260016024820152606d60f81b604482015290519081900360640190fd5b6000806109fd61069a6008876119bc565b91509150610a09611bef565b841115610a5d576040805162461bcd60e51b815260206004820152600360248201527f4942300000000000000000000000000000000000000000000000000000000000604482015290519081900360640190fd5b610a65611c96565b831115610ab9576040805162461bcd60e51b815260206004820152600360248201527f4942310000000000000000000000000000000000000000000000000000000000604482015290519081900360640190fd5b6000610ac783838787611d0b565b90506001600160801b03811615610c12576001546001600160a01b0316633c8a7d8d3085858560006040519080825280601f01601f191660200182016040528015610b19576020820181803683370190505b506040518663ffffffff1660e01b815260040180866001600160a01b031681526020018560020b81526020018460020b8152602001836001600160801b0316815260200180602001828103825283818151815260200191508051906020019080838360005b83811015610b96578181015183820152602001610b7e565b50505050905090810190601f168015610bc35780820380516001836020036101000a031916815260200191505b5096505050505050506040805180830381600087803b158015610be557600080fd5b505af1158015610bf9573d6000803e3d6000fd5b505050506040513d6040811015610c0f57600080fd5b50505b5050600160005550505050565b60045490565b60055490565b6000610c376008611db1565b905090565b600080610c47611dbc565b60005b610c546008611db1565b811015610caa57600080610c6c61069a6008856119bc565b91509150600080610c7d8484611e99565b9092509050610c8c87836120e4565b9650610c9886826120e4565b95505060019093019250610c4a915050565b50604080518381526020810183905281517f38436c42bcfd74414acafc159a381bf74b9880bc4c1c9f922686fc7161d9c7ad929181900390910190a15050565b600080600060026000541415610d47576040805162461bcd60e51b815260206004820152601f60248201527f5265656e7472616e637947756172643a207265656e7472616e742063616c6c00604482015290519081900360640190fd5b60026000819055546001600160a01b03163314610d8f576040805162461bcd60e51b81526020600482015260016024820152606d60f81b604482015290519081900360640190fd5b6000871180610d9e5750600086115b610df1576040805162461bcd60e51b8152602060048083019190915260248201527f6130613100000000000000000000000000000000000000000000000000000000604482015290519081900360640190fd5b610df9611dbc565b610e03878761213e565b9194509250905082610e5c576040805162461bcd60e51b815260206004820152600160248201527f7300000000000000000000000000000000000000000000000000000000000000604482015290519081900360640190fd5b84821015610eb1576040805162461bcd60e51b815260206004820152600360248201527f41304d0000000000000000000000000000000000000000000000000000000000604482015290519081900360640190fd5b83811015610f06576040805162461bcd60e51b815260206004820152600360248201527f41314d0000000000000000000000000000000000000000000000000000000000604482015290519081900360640190fd5b604080517fed1bbd0b0000000000000000000000000000000000000000000000000000000081526001600160a01b037f000000000000000000000000000000000000000000000000000000000000000081166004830152602482018590527f0000000000000000000000000000000000000000000000000000000000000000166044820152606481018390529051339163ed1bbd0b91608480830192600092919082900301818387803b158015610fbc57600080fd5b505af1158015610fd0573d6000803e3d6000fd5b50505050610fdd836122a3565b6040805184815260208101849052808201839052905189917f9b776d199f09c774f5b205c9bc2ac6f40d508c347aaea919867eeaf06ebef0e9919081900360600190a26001600081905550955095509592505050565b60008060005b6110436008611db1565b8110156110995760008061105b61069a6008856119bc565b9150915060008061106c8484611ab8565b909250905061107b87836120e4565b965061108786826120e4565b95505060019093019250611039915050565b506110ac6110a5611bef565b83906120e4565b91506110c06110b9611c96565b82906120e4565b90509091565b6000806110d761069a6008856119bc565b9094909350915050565b7f000000000000000000000000000000000000000000000000000000000000000081565b7f000000000000000000000000000000000000000000000000000000000000000081565b6001546001600160a01b0316331461114057600080fd5b831561117a5761117a6001600160a01b037f000000000000000000000000000000000000000000000000000000000000000016338661193c565b82156111b4576111b46001600160a01b037f000000000000000000000000000000000000000000000000000000000000000016338561193c565b50505050565b60008060026000541415611215576040805162461bcd60e51b815260206004820152601f60248201527f5265656e7472616e637947756172643a207265656e7472616e742063616c6c00604482015290519081900360640190fd5b60026000819055546001600160a01b0316331461125d576040805162461bcd60e51b81526020600482015260016024820152606d60f81b604482015290519081900360640190fd5b600086116112b2576040805162461bcd60e51b815260206004820152600160248201527f7300000000000000000000000000000000000000000000000000000000000000604482015290519081900360640190fd5b6001600160a01b038316158015906112d357506001600160a01b0383163014155b611324576040805162461bcd60e51b815260206004820152600260248201527f746f000000000000000000000000000000000000000000000000000000000000604482015290519081900360640190fd5b60008061133188866122ae565b9150915061133d610c3c565b600061135d6007546113578b611351611bef565b90612336565b9061238f565b905060006113736007546113578c611351611c96565b905081156113af576113af6001600160a01b037f000000000000000000000000000000000000000000000000000000000000000016888461193c565b80156113e9576113e96001600160a01b037f000000000000000000000000000000000000000000000000000000000000000016888361193c565b6113f384836120e4565b95506113ff83826120e4565b945088861015611456576040805162461bcd60e51b815260206004820152600360248201527f41304d0000000000000000000000000000000000000000000000000000000000604482015290519081900360640190fd5b878510156114ab576040805162461bcd60e51b815260206004820152600360248201527f41314d0000000000000000000000000000000000000000000000000000000000604482015290519081900360640190fd5b6114b48a6123f6565b604080518b81526020810188905280820187905290516001600160a01b038916918d917f30011545efcd097ee25dae81386c1513acbd42b2af85ac6caae1a3b7d51933669181900360600190a350506001600055509197909650945050505050565b60008060026000541415611571576040805162461bcd60e51b815260206004820152601f60248201527f5265656e7472616e637947756172643a207265656e7472616e742063616c6c00604482015290519081900360640190fd5b60026000819055546001600160a01b031633146115b9576040805162461bcd60e51b81526020600482015260016024820152606d60f81b604482015290519081900360640190fd5b6000806115ca61069a6008886119bc565b915091506115d882826119da565b6001600160801b0316856001600160801b0316111561163e576040805162461bcd60e51b815260206004820152600160248201527f4c00000000000000000000000000000000000000000000000000000000000000604482015290519081900360640190fd5b6001600160801b038516156117d9576001546040805163a34123a760e01b8152600285810b600483015284900b60248201526001600160801b038816604482015281516001600160a01b039093169263a34123a7926064808401939192918290030181600087803b1580156116b257600080fd5b505af11580156116c6573d6000803e3d6000fd5b505050506040513d60408110156116dc57600080fd5b5080516020909101519094509250831515806116f85750600083115b156117d9576001546001600160a01b0316634f1eb3d830848461171a89611a9d565b61172389611a9d565b6040518663ffffffff1660e01b815260040180866001600160a01b031681526020018560020b81526020018460020b8152602001836001600160801b03168152602001826001600160801b03168152602001955050505050506040805180830381600087803b15801561179557600080fd5b505af11580156117a9573d6000803e3d6000fd5b505050506040513d60408110156117bf57600080fd5b5080516020909101516001600160801b0391821695501692505b5050600160005590939092509050565b6002546001600160a01b0316331461182c576040805162461bcd60e51b81526020600482015260016024820152606d60f81b604482015290519081900360640190fd5b6000806118398484611ab8565b9150915081600014611877576040805162461bcd60e51b8152602060048201526002602482015261061360f41b604482015290519081900360640190fd5b80156118af576040805162461bcd60e51b8152602060048201526002602482015261061360f41b604482015290519081900360640190fd5b6118b98484612402565b6109366118c68585611bd4565b60089061263f565b60035490565b60065481565b600082821115611931576040805162461bcd60e51b815260206004820152601e60248201527f536166654d6174683a207375627472616374696f6e206f766572666c6f770000604482015290519081900360640190fd5b508082035b92915050565b604080516001600160a01b038416602482015260448082018490528251808303909101815260649091019091526020810180517bffffffffffffffffffffffffffffffffffffffffffffffffffffffff167fa9059cbb0000000000000000000000000000000000000000000000000000000017905261059c90849061264b565b60006119c883836126fc565b9392505050565b601081905260005191565b604080513060601b602080830191909152600285810b60e890811b60348501529085900b901b60378301528251808303601a018152603a83018085528151919092012060015463514ea4bf60e01b909252603e83018190529251600093926001600160a01b039092169163514ea4bf91605e8083019260a0929190829003018186803b158015611a6957600080fd5b505afa158015611a7d573d6000803e3d6000fd5b505050506040513d60a0811015611a9357600080fd5b5051949350505050565b806001600160801b0381168114611ab357600080fd5b919050565b604080513060601b602080830191909152600285810b60e890811b60348501529085900b901b60378301528251601a818403018152603a83018085528151919092012060015463514ea4bf60e01b909252603e83018190529251600093849390928492839283926001600160a01b03169163514ea4bf91605e8082019260a092909190829003018186803b158015611b4f57600080fd5b505afa158015611b63573d6000803e3d6000fd5b505050506040513d60a0811015611b7957600080fd5b50805160608201516080909201519094509092509050611b9a888885612760565b9096509450611bb2866001600160801b0384166120e4565b9550611bc7856001600160801b0383166120e4565b9450505050509250929050565b60109081526000919091525190565b60006119c8838361280a565b6000610c376003547f00000000000000000000000000000000000000000000000000000000000000006001600160a01b03166370a08231306040518263ffffffff1660e01b815260040180826001600160a01b0316815260200191505060206040518083038186803b158015611c6457600080fd5b505afa158015611c78573d6000803e3d6000fd5b505050506040513d6020811015611c8e57600080fd5b5051906118da565b6000610c376004547f00000000000000000000000000000000000000000000000000000000000000006001600160a01b03166370a08231306040518263ffffffff1660e01b815260040180826001600160a01b0316815260200191505060206040518083038186803b158015611c6457600080fd5b600080600160009054906101000a90046001600160a01b03166001600160a01b0316633850c7bd6040518163ffffffff1660e01b815260040160e06040518083038186803b158015611d5c57600080fd5b505afa158015611d70573d6000803e3d6000fd5b505050506040513d60e0811015611d8657600080fd5b50519050611da781611d97886128d0565b611da0886128d0565b8787612c2b565b9695505050505050565b600061193682612cef565b60005b611dc96008611db1565b811015611e9657600080611de161069a6008856119bc565b915091506000611df183836119da565b6001600160801b03161115611e8c576001546040805163a34123a760e01b8152600285810b600483015284900b602482015260006044820181905282516001600160a01b039094169363a34123a7936064808501949193918390030190829087803b158015611e5f57600080fd5b505af1158015611e73573d6000803e3d6000fd5b505050506040513d6040811015611e8957600080fd5b50505b5050600101611dbf565b50565b604080513060601b602080830191909152600285810b60e890811b60348501529085900b901b60378301528251808303601a018152603a83018085528151919092012060015463514ea4bf60e01b909252603e8301819052925160009384939092849283926001600160a01b039092169163514ea4bf91605e8083019260a0929190829003018186803b158015611f2f57600080fd5b505afa158015611f43573d6000803e3d6000fd5b505050506040513d60a0811015611f5957600080fd5b506060810151608090910151600154604080517f4f1eb3d800000000000000000000000000000000000000000000000000000000815230600482015260028c810b60248301528b900b60448201526001600160801b0380861660648301528416608482015281519496509294506001600160a01b0390911692634f1eb3d89260a48082019392918290030181600087803b158015611ff657600080fd5b505af115801561200a573d6000803e3d6000fd5b505050506040513d604081101561202057600080fd5b5080516020909101516005546001600160801b039283169750911694506000908190156120a3576120626006546113576005548a61233690919063ffffffff16565b915061207f6006546113576005548961233690919063ffffffff16565b60035490915061208f90836120e4565b60035560045461209f90826120e4565b6004555b6120b96120b088846118da565b600a54906120e4565b600a556120d26120c987836118da565b600b54906120e4565b600b8190555050505050509250929050565b6000828201838110156119c8576040805162461bcd60e51b815260206004820152601b60248201527f536166654d6174683a206164646974696f6e206f766572666c6f770000000000604482015290519081900360640190fd5b600080600080600061214e611033565b91509150600754600014806121635750600082115b8061216e5750600081115b61217457fe5b6007546121925786935085925061218b8484612cf3565b945061229a565b816121b35785925061218b816113576007548661233690919063ffffffff16565b806121d45786935061218b826113576007548761233690919063ffffffff16565b60006121f26121e38984612336565b6121ed8986612336565b612d0a565b905060008111612249576040805162461bcd60e51b815260206004820152600160248201527f6300000000000000000000000000000000000000000000000000000000000000604482015290519081900360640190fd5b612262600161225c8461135785846118da565b906120e4565b9450612277600161225c8561135785846118da565b935061229682611357856113576007548661233690919063ffffffff16565b9550505b50509250925092565b600780549091019055565b60008060005b6122be6008611db1565b81101561232e576000806122d661069a6008856119bc565b9150915060006122e683836119da565b6001600160801b031611156123245760008061230484848b8b612d19565b909250905061231387836120e4565b965061231f86826120e4565b955050505b50506001016122b4565b509250929050565b60008261234557506000611936565b8282028284828161235257fe5b04146119c85760405162461bcd60e51b815260040180806020018281038252602181526020018061348c6021913960400191505060405180910390fd5b60008082116123e5576040805162461bcd60e51b815260206004820152601a60248201527f536166654d6174683a206469766973696f6e206279207a65726f000000000000604482015290519081900360640190fd5b8183816123ee57fe5b049392505050565b60078054919091039055565b8060020b8260020b1261245c576040805162461bcd60e51b815260206004820152600360248201527f544c550000000000000000000000000000000000000000000000000000000000604482015290519081900360640190fd5b7ffffffffffffffffffffffffffffffffffffffffffffffffffffffffffff27618600283900b12156124d5576040805162461bcd60e51b815260206004820152600360248201527f544c4d0000000000000000000000000000000000000000000000000000000000604482015290519081900360640190fd5b620d89e8600282900b1315612531576040805162461bcd60e51b815260206004820152600360248201527f54554d0000000000000000000000000000000000000000000000000000000000604482015290519081900360640190fd5b7f000000000000000000000000000000000000000000000000000000000000000060020b8260020b8161256057fe5b0760020b156125b6576040805162461bcd60e51b815260206004820152600360248201527f544c460000000000000000000000000000000000000000000000000000000000604482015290519081900360640190fd5b7f000000000000000000000000000000000000000000000000000000000000000060020b8160020b816125e557fe5b0760020b1561263b576040805162461bcd60e51b815260206004820152600360248201527f5455460000000000000000000000000000000000000000000000000000000000604482015290519081900360640190fd5b5050565b60006119c88383612efe565b60006126a0826040518060400160405280602081526020017f5361666545524332303a206c6f772d6c6576656c2063616c6c206661696c6564815250856001600160a01b0316612f489092919063ffffffff16565b80519091501561059c578080602001905160208110156126bf57600080fd5b505161059c5760405162461bcd60e51b815260040180806020018281038252602a8152602001806134ad602a913960400191505060405180910390fd5b8154600090821061273e5760405162461bcd60e51b81526004018080602001828103825260228152602001806134446022913960400191505060405180910390fd5b82600001828154811061274d57fe5b9060005260206000200154905092915050565b6000806000600160009054906101000a90046001600160a01b03166001600160a01b0316633850c7bd6040518163ffffffff1660e01b815260040160e06040518083038186803b1580156127b357600080fd5b505afa1580156127c7573d6000803e3d6000fd5b505050506040513d60e08110156127dd57600080fd5b505190506127fd816127ee886128d0565b6127f7886128d0565b87612f5f565b9097909650945050505050565b600081815260018301602052604081205480156128c6578354600019808301919081019060009087908390811061283d57fe5b906000526020600020015490508087600001848154811061285a57fe5b60009182526020808320909101929092558281526001898101909252604090209084019055865487908061288a57fe5b60019003818190600052602060002001600090559055866001016000878152602001908152602001600020600090556001945050505050611936565b6000915050611936565b60008060008360020b126128e7578260020b6128ef565b8260020b6000035b9050620d89e8811115612949576040805162461bcd60e51b815260206004820152600160248201527f5400000000000000000000000000000000000000000000000000000000000000604482015290519081900360640190fd5b60006001821661296a5770010000000000000000000000000000000061297c565b6ffffcb933bd6fad37aa2d162d1a5940015b70ffffffffffffffffffffffffffffffffff16905060028216156129b0576ffff97272373d413259a46990580e213a0260801c5b60048216156129cf576ffff2e50f5f656932ef12357cf3c7fdcc0260801c5b60088216156129ee576fffe5caca7e10e4e61c3624eaa0941cd00260801c5b6010821615612a0d576fffcb9843d60f6159c9db58835c9266440260801c5b6020821615612a2c576fff973b41fa98c081472e6896dfb254c00260801c5b6040821615612a4b576fff2ea16466c96a3843ec78b326b528610260801c5b6080821615612a6a576ffe5dee046a99a2a811c461f1969c30530260801c5b610100821615612a8a576ffcbe86c7900a88aedcffc83b479aa3a40260801c5b610200821615612aaa576ff987a7253ac413176f2b074cf7815e540260801c5b610400821615612aca576ff3392b0822b70005940c7a398e4b70f30260801c5b610800821615612aea576fe7159475a2c29b7443b29c7fa6e889d90260801c5b611000821615612b0a576fd097f3bdfd2022b8845ad8f792aa58250260801c5b612000821615612b2a576fa9f746462d870fdf8a65dc1f90e061e50260801c5b614000821615612b4a576f70d869a156d2a1b890bb3df62baf32f70260801c5b618000821615612b6a576f31be135f97d08fd981231505542fcfa60260801c5b62010000821615612b8b576f09aa508b5b7a84e1c677de54f3e99bc90260801c5b62020000821615612bab576e5d6af8dedb81196699c329225ee6040260801c5b62040000821615612bca576d2216e584f5fa1ea926041bedfe980260801c5b62080000821615612be7576b048a170391f7dc42444e8fa20260801c5b60008460020b1315612c02578060001981612bfe57fe5b0490505b640100000000810615612c16576001612c19565b60005b60ff16602082901c0192505050919050565b6000836001600160a01b0316856001600160a01b03161115612c4b579293925b846001600160a01b0316866001600160a01b031611612c7657612c6f858585612ffb565b9050612ce6565b836001600160a01b0316866001600160a01b03161015612cd8576000612c9d878686612ffb565b90506000612cac878986613062565b9050806001600160801b0316826001600160801b031610612ccd5780612ccf565b815b92505050612ce6565b612ce3858584613062565b90505b95945050505050565b5490565b600081831015612d0357816119c8565b5090919050565b6000818310612d0357816119c8565b6000806000612d2887876119da565b90506000612d56612d5160075461135789866001600160801b031661233690919063ffffffff16565b611a9d565b90506001600160801b03811615612ef3576001546040805163a34123a760e01b815260028b810b60048301528a900b60248201526001600160801b038416604482015281516001600160a01b039093169263a34123a7926064808401939192918290030181600087803b158015612dcc57600080fd5b505af1158015612de0573d6000803e3d6000fd5b505050506040513d6040811015612df657600080fd5b508051602090910151909450925083151580612e125750600083115b15612ef3576001546001600160a01b0316634f1eb3d8868a8a612e3489611a9d565b612e3d89611a9d565b6040518663ffffffff1660e01b815260040180866001600160a01b031681526020018560020b81526020018460020b8152602001836001600160801b03168152602001826001600160801b03168152602001955050505050506040805180830381600087803b158015612eaf57600080fd5b505af1158015612ec3573d6000803e3d6000fd5b505050506040513d6040811015612ed957600080fd5b5080516020909101516001600160801b0391821695501692505b505094509492505050565b6000612f0a83836130a8565b612f4057508154600181810184556000848152602080822090930184905584548482528286019093526040902091909155611936565b506000611936565b6060612f5784846000856130c0565b949350505050565b600080836001600160a01b0316856001600160a01b03161115612f80579293925b846001600160a01b0316866001600160a01b031611612fab57612fa4858585613239565b9150612ff2565b836001600160a01b0316866001600160a01b03161015612fe457612fd0868585613239565b9150612fdd8587856132a2565b9050612ff2565b612fef8585856132a2565b90505b94509492505050565b6000826001600160a01b0316846001600160a01b0316111561301b579192915b6000613047856001600160a01b0316856001600160a01b03166c010000000000000000000000006132ea565b9050612ce6612d5184838888036001600160a01b03166132ea565b6000826001600160a01b0316846001600160a01b03161115613082579192915b612f57612d51836c010000000000000000000000008787036001600160a01b03166132ea565b60009081526001919091016020526040902054151590565b6060824710156131015760405162461bcd60e51b81526004018080602001828103825260268152602001806134666026913960400191505060405180910390fd5b61310a85613399565b61315b576040805162461bcd60e51b815260206004820152601d60248201527f416464726573733a2063616c6c20746f206e6f6e2d636f6e7472616374000000604482015290519081900360640190fd5b600080866001600160a01b031685876040518082805190602001908083835b602083106131b757805182527fffffffffffffffffffffffffffffffffffffffffffffffffffffffffffffffe0909201916020918201910161317a565b6001836020036101000a03801982511681845116808217855250505050505090500191505060006040518083038185875af1925050503d8060008114613219576040519150601f19603f3d011682016040523d82523d6000602084013e61321e565b606091505b509150915061322e82828661339f565b979650505050505050565b6000826001600160a01b0316846001600160a01b03161115613259579192915b836001600160a01b0316613292606060ff16846001600160801b0316901b8686036001600160a01b0316866001600160a01b03166132ea565b8161329957fe5b04949350505050565b6000826001600160a01b0316846001600160a01b031611156132c2579192915b612f57826001600160801b03168585036001600160a01b03166c010000000000000000000000005b6000808060001985870986860292508281109083900303905080613320576000841161331557600080fd5b5082900490506119c8565b80841161332c57600080fd5b6000848688096000868103871696879004966002600389028118808a02820302808a02820302808a02820302808a02820302808a02820302808a02909103029181900381900460010186841190950394909402919094039290920491909117919091029150509392505050565b3b151590565b606083156133ae5750816119c8565b8251156133be5782518084602001fd5b8160405162461bcd60e51b81526004018080602001828103825283818151815260200191508051906020019080838360005b838110156134085781810151838201526020016133f0565b50505050905090810190601f1680156134355780820380516001836020036101000a031916815260200191505b509250505060405180910390fdfe456e756d657261626c655365743a20696e646578206f7574206f6620626f756e6473416464726573733a20696e73756666696369656e742062616c616e636520666f722063616c6c536166654d6174683a206d756c7469706c69636174696f6e206f766572666c6f775361666545524332303a204552433230206f7065726174696f6e20646964206e6f742073756363656564a164736f6c6343000706000a",
  "linkReferences": {},
  "deployedLinkReferences": {}
}